:020000040800F2
:10000000E01B0020CDE00008750600087706000818
:100010007B0600087F060008830600080000000039
:10002000000000000000000000000000870600083B
:1000300089060008000000008B0600088D060008F5
:10004000E7E00008E7E00008E7E00008E7E0000874
:10005000E7E00008E7E00008E7E00008E7E0000864
:10006000E7E00008E7E00008E7E00008E7E0000854
:10007000E7E00008E7E00008E7E00008E7E0000844
:10008000E7E00008E7E00008E7E00008E7E0000834
:10009000E7E00008E7E00008E7E00008E7E0000824
:1000A000E7E00008E7E00008E7E00008E7E0000814
:1000B000E7E00008E7E00008E7E00008E7E0000804
:1000C000E7E00008E7E00008E7E00008E7E00008F4
:1000D000E7E0000843E00008E7E00008E7E0000888
:1000E000E7E00008E7E00008E7E00008E7E00008D4
:1000F000E7E00008E7E00008E7E00008E7E00008C4
:10010000E7E00008E7E00008E7E00008E7E00008B3
:10011000E7E00008E7E00008E7E00008E7E00008A3
:10012000E7E00008E7E00008E7E00008E7E0000893
:10013000E7E00008E7E00008E7E00008E7E0000883
:10014000E7E00008E7E00008E7E00008E7E0000873
:10015000E7E00008E7E00008E7E00008E7E0000863
:10016000E7E00008E7E00008E7E00008E7E0000853
:10017000E7E00008E7E00008E7E00008E7E0000843
:10018000E7E00008E7E0000800F002F800F066F899
:100190000AA090E8000C82448344AAF10107DA45E2
:1001A00001D100F05BF8AFF2090EBAE80F0013F0CE
:1001B000010F18BFFB1A43F001031847840E01001A
:1001C000A40E01000A444FF0000C10F8013B13F09C
:1001D000070408BF10F8014B1D1108BF10F8015BA0
:1001E000641E05D010F8016B641E01F8016BF9D193
:1001F00013F0080F1EBF10F8014BAD1C0C1B09D1EA
:100200006D1E58BF01F801CBFAD505E014F8016B5B
:1002100001F8016B6D1EF9D59142D6D370470000ED
:100220000023002400250026103A28BF78C1FBD8FF
:10023000520728BF30C148BF0B60704764290EF0D9
:10024000C18678290EF0FA86002070471FB510F09D
:1002500060FB0EF0D0FF1FBD10B510BD0FF078F899
:100260001146FFF7F3FF00F03FF90FF096F803B4E3
:10027000FFF7F2FF03BC0DF085FE00000B49D1F83B
:1002800000C04A685CF8043B1068184442F8040B4C
:100290008C4528BFA1F1DC0C8A4228BFA1F1DC0209
:1002A000C1F800C04A6020F000407047741500207B
:1002B00008B56FF07F404FF416734FF48062002151
:1002C0000090084601F04AF9012000230246014649
:1002D0000090182001F008FEE0A04FF6FF734FF4E5
:1002E0007842002100904FF4767001F044FE08BD82
:1002F0002DE9FF4F85B080468946129F002003906C
:100300000290B84507DB0798B84204DBB94502DB29
:100310000898B84202DA09B0BDE8F08F0798A0EB60
:1003200008040898A0EB0905CDF80480CDF80090EA
:10033000002C02DD4FF0010A06E014B94FF0000A6C
:1003400002E04FF0FF3A6442002D02DD4FF0010B56
:1003500006E015B94FF0000B02E04FF0FF3B6D4295
:10036000AC4201DD264600E02E460020049023E04A
:10037000009A91B2019A90B23A46139B01F055F857
:100380000398204403900298284402900398B042B6
:1003900005DD0398801B039001985044019002985A
:1003A000B04205DD0298801B0290009858440090EE
:1003B0000498401C80B20490711C04988842D7DDD8
:1003C00000BFA8E788B000240025FFF771FF8AE08E
:1003D00000200DF069FC002470E0A148007E01219E
:1003E000A1400840002862D09D48001D30F814004C
:1003F000B0F5806F60DA9A48001D30F814000028CC
:100400005ADD97480E3030F81400B0F5167F53DAF5
:1004100093480E3030F8140000284DDD03A830F862
:1004200024004FF6FF7188420DD18D48001D30F831
:10043000140003A921F8240089480E3030F8140074
:1004400001EB84014880874830F814000221844E73
:100450000E36CDE9001036F814300A3E36F8142076
:1004600003AE06EB8406718803AE36F82400FFF76E
:100470003FFF7B48001D30F8140003A921F8240039
:1004800077480E3030F8140001EB8401488074483E
:10049000001D30F81400B0F5767F0DDD70480E3089
:1004A00030F81400182807DAFFF702FF04E04FF6CF
:1004B000FF7003A921F82400601CC4B2052C8CDB5A
:1004C00005200DF03FFD681CC5B2142095FBF0F12E
:1004D00000FB115038B96448006808B9012000E0F9
:1004E00000206149086073E71FB54FF4A0600DF06C
:1004F0000DFEA8200DF0C4FC4FF4E1300DF04FFDCF
:1005000000F0CEF900F0ECF900F0E8FB00F06FFD30
:1005100053490868804703F0BFFB04F019FF05F05A
:10052000BBFD64200346C82200210090012002F098
:10053000D2FB91E04FF47F004FF416734FF48062CA
:1005400000210090084601F009F800F023FA4FF46A
:100550007F404FF416734FF48062002100900846EC
:1005600000F0FCFF00F016FAFF204FF416734FF472
:10057000806200210090084600F0F0FF00F00AFAC7
:100580003A484FF416734FF48062002100900846F9
:1005900000F0E4FF00F0FEF96FF07F404FF41673B7
:1005A0004FF4806200210090084600F0D7FF00F071
:1005B000F1F900204FF416734FF480620146009069
:1005C00000F0CCFF00F0E6F900204FF480614FF41A
:1005D0001672CDE9001203460246CDE9021001462B
:1005E000012001F01DFC00F0D5F94FF4E1104FF4AB
:1005F00080614FF41672CDE9001200231A46CDE94E
:1006000002101946012001F00BFC00F0C3F94FF471
:1006100061104FF480614FF41672CDE9001200238F
:100620001A46CDE902101946012001F0F9FB00F04D
:10063000B1F90F484FF480614FF41672CDE9001202
:1006400000231A46CDE902101946012001F0E8FB0B
:1006500000F0A0F9FFF7B6FE6CE70000525354001B
:100660004C01002026090108A482424280808000BB
:1006700000605400704700BFFEE700BFFEE700BF08
:10068000FEE700BFFEE77047704770477047000005
:100690000CB50020019000907648006840F480304E
:1006A0007449086000BF7348006800F4003000908F
:1006B0000198401C0190009818B90198B0F5A04F1E
:1006C000F1D16C48006800F4003010B101200090B6
:1006D00001E0002000900098012846D16548403094
:1006E000006840F08050634940310860624800680B
:1006F00040F44040604908605E48083000685D4949
:10070000083108600846006840F400400860084668
:10071000006840F4A05008605848091F0860081F8E
:10072000006840F08070091F086000BF51480068F1
:1007300000F000700028F9D040F2057050490860C0
:100740004C480830006820F003004A49083108602E
:100750000846006840F00200086000BF45480830C5
:10076000006800F00C000828F8D10CBD10B5454811
:10077000006840F47000434908603E48006840F05B
:1007800001003C49086000203A49083108603948B6
:1007900000683D490840374908603C48091D086029
:1007A000081F006820F48020091F086000203149DC
:1007B0000C310860FFF76CFF4FF000603149803961
:1007C000086010BD70B50020002202230024022121
:1007D000284D08352D6805F00C0020B1042806D0FE
:1007E000082834D107E02A4D2A4E356033E02A4DDF
:1007F000284E35602FE01F4D2D1D2D68C5F3805408
:100800001C4D2D1D2D6805F03F0154B1224DB5FB47
:10081000F1F5184E361D3668C6F3881605FB06F24C
:1008200009E01B4DB5FBF1F5124E361D3668C6F3D7
:10083000881605FB06F20F4D2D1D2D68C5F30145E9
:100840006D1C6B00B2FBF3F5124E356003E0104DEA
:10085000104E356000BF00BF064D08352D68C5F34A
:1008600003150E4E705D0B4D2D68C540094E356069
:1008700070BD00000038024000700040085440077E
:10088000003C024088ED00E0FFFFF6FE103000243F
:100890000024F4000000002000127A000400002070
:1008A0001CB5012120200DF0C5FF4FF4C060009061
:1008B00001208DF8040000208DF8060003208DF83B
:1008C000050001208DF80700694604480DF014FD6D
:1008D0004FF4C06101480DF08BFD1CBD00140240B7
:1008E0001CB5012111200DF0A5FF1C200090002057
:1008F0008DF8040003208DF8050001208DF8070015
:1009000069465F480DF0F8FC0120009002208DF848
:10091000070069465B480DF0EFFC1CBD10B55A4856
:100920000078E8B1082156480DF048FD20B10421B7
:1009300053480DF043FD98B90A200DF003FB002049
:100940005149087008214E480DF038FD08B90220C1
:1009500010BD04214A480DF031FD78B90320F7E7B6
:10096000082147480DF02AFD012807D104214448F9
:100970000DF024FD012801D1434908700020E7E76C
:1009800010B5002400BF00BFFFF7C8FF0446002CCD
:10099000F9D010BD10B5C8200DF0D4FA00BF082161
:1009A00037480DF00BFD0128F9D0C8200DF0CAFA28
:1009B00010BD70B504460025002600BF0EE00120E2
:1009C0000DF0C0FAFFF7AAFF0546022D01D1012064
:1009D00070BD032D01D10120FAE7761CA642EED3AB
:1009E0000020F5E72DE9F04100240027A04600256E
:1009F00000262AE001200DF0A5FAFFF78FFF04463C
:100A000077B9B8F1000F0BD1022C01D0032C07D11C
:100A1000022C01D1012703E0032C01D14FF0010882
:100A2000012F07D1082116480DF0C8FC08B96D1C2C
:100A30000BE00BE0B8F1010F07D1042110480DF0D5
:100A4000BDFC08B9761C00E000E0D3E700BFB5F5B7
:100A5000FA7F02D30320BDE8F08125B1B5F5FA7F16
:100A600001D20120F7E7B6F5FA7F01D30320F2E7C0
:100A700026B1B6F5FA7F01D20220ECE70020EAE7C2
:100A8000001002400000024014000020002106E097
:100A90000C2100BF0A1EA1F1010399B2FAD1021E76
:100AA000A0F1010398B2F3D17047002107E042F6AC
:100AB000E06100BF0A1EA1F1010399B2FAD1021E42
:100AC000A0F1010398B2F2D170471CB501216A2050
:100AD0000DF0B0FE3020009001208DF804000020C1
:100AE0008DF8060002208DF80500694687480DF054
:100AF00003FC4FF40040009000208DF80400022019
:100B00008DF80500694682480DF0F6FB4FF48050E1
:100B1000009001208DF8040000208DF806000220CE
:100B20008DF8050069467B480DF0E6FB4FF48050D8
:100B3000009001208DF8040000208DF806000220AE
:100B40008DF80500694674480DF0D6FB1CBD0021E8
:100B500000BF13E00022714B1A6000F080021AB14E
:100B600001226F4B1A6002E000226D4B1A600122D5
:100B70006A4B1A604206100E4A1CD1B20829E9DB02
:100B80000022664B1A60674BC3F8B0227047002101
:100B900000205F4A126822F040425D4B1A601A46FC
:100BA00012681A6000BF15E04206100E00225B4B6F
:100BB0001A6000BF00BF5C4AD2F83C22012A02D171
:100BC00040F0010001E000F0FE000122534B1A60EA
:100BD0004A1CD1B20829E7DB0022504B1A6070474B
:100BE00010B50446002051490860FFF7B0FF2046C9
:100BF000FFF7ADFF01204E49C1F8B00210BD10B59E
:100C000004460020494908608020FFF7A0FF2046E5
:100C1000FFF79DFF01204649C1F8B00210BD10B595
:100C200004460020414908608020FFF790FFE0B2B1
:100C3000FFF78DFF01203E49C1F8B00200203B497B
:100C400008608020FFF783FF2012FFF780FF01205C
:100C50003749C1F8B00210BD10B500240020334957
:100C600008604020FFF773FFFFF791FF0446012063
:100C70002F49C1F8B002204610BD10B50024002055
:100C80002A490860C020FFF762FFFFF780FF044693
:100C900001202749C1F8B002204610BD10B5044616
:100CA0002046FFF79DFF10BD10B504462046FFF714
:100CB000A6FF10BD10B504462046FFF7B0FF10BDDB
:100CC00010B50024FFF7C8FF0446204610BD10B53C
:100CD0000024FFF7D2FF0446204610BD10B5FFF7F1
:100CE000F4FE10BD70B5FFF7EBFF0546294611A0D5
:100CF0000EF020F90120FFF7D1FFFFF7E8FFC4B2A3
:100D0000214610A00EF016F970BD0000000C024044
:100D10000004024000180240001402409482414244
:100D2000B08242420080424200804042B0024342D0
:100D3000000043425374617475733A307825580D3E
:100D40000A000000523031683A307825580D0A0008
:100D50001CB5012108200DF06DFD10200090012030
:100D60008DF8040000208DF8060002208DF80500A3
:100D70006946FD480DF0C0FA1021FB480DF038FB24
:100D80000A20FFF792FE1021F7480DF033FB642094
:100D9000FFF78BFE1021F4480DF02AFBC820FFF767
:100DA00084FE1CBD70B500240026002500BFFFF79F
:100DB00087FF00F00200F8B90120FFF776FE01205E
:100DC000FFF76CFF0120FFF770FEFFF780FFC6B250
:100DD00006F08000802802D1012500240FE00120C8
:100DE000FFF763FE0120FFF759FF0120FFF75DFECB
:100DF0008020FFF759FF02E00025601CC4B225B92E
:100E0000052C02D1FFF7A4FF0024002DCFD070BD28
:100E10002DE9FE4F0024D54CD548B4FBF0F100FB82
:100E20001140D449B0FBF1F002900298052804D992
:100E3000CF48B4FBF0F0441C02E0CD48B4FBF0F422
:100E4000CD490C7004EB4404CC490C70CC490C70B7
:100E500008460078642801DD64200870C7480078DF
:100E6000642802DD6420C5490870C3480078412821
:100E700002DD4120C04908704FF00208C146C24659
:100E80004FF0050B052101910091BC480778BC4843
:100E90000678B94805780520FFF700FF4FEA88116A
:100EA00041EA4B0141EA1520FFF7FEFE0720FFF75C
:100EB000F5FE4FEA8A12009942EA410141EA172001
:100EC000FFF7F2FE0920FFF7E9FE4FEA89120199C8
:100ED00042EA410141EA1620FFF7E6FE0620FFF74D
:100EE000DDFE2846FFF7E0FE0820FFF7D7FE384674
:100EF000FFF7DAFE0A20FFF7D1FE3046FFF7D4FEF7
:100F00000020FFF7CBFE0120FFF7C0FD8020FFF798
:100F1000CBFE0120FFF7C9FDBDE8FE8F70B5054689
:100F20002921E02001F036FF0321E12001F032FF0A
:100F30004FF47A7090FBF5F041F6846191FBF0F08C
:100F400084B2A01E84B2E1B2E22001F023FF21129C
:100F5000E32001F01FFF0121E42001F01BFF01F05D
:100F60005AFF0120FFF7A1FD70BD10B501F0EEFFA3
:100F700002F069F802F0BFF802F017F902F0DBF9AD
:100F800002F0F3F902F07BFE02F0D4FE02F0B8FEAC
:100F900002F0EAFE02F051FF02F069FF02F08EFF5C
:100FA0004FF416714FF4806003F017F82E2003F011
:100FB00064F8D22003F08EF8012003F0A4F8172083
:100FC00003F0BAF8162003F0C8F8012003F0D0F8B7
:100FD00003F090FA03F0C6FA10BD10B5FFF718FF42
:100FE00066480078FFF79AFFFFF7BFFF10BD10B506
:100FF000C820FFF75AFDFFF7ABFEFFF773FEFFF7C0
:10100000D1FE6420FFF751FD00BFFFF759FE00F04D
:1010100002000028F9D1FFF7E0FF10BD2DE9F047ED
:1010200081468A4614461D46089E02F084F95146C0
:10103000484603F01DFA2946204603F02DFA514692
:10104000484603F09EFA0420FFF728FE002710E030
:101050004FF0000809E001F0B1FE3078FFF724FE00
:10106000761C08F101001FFA80F8A045F3DB781C1C
:1010700087B2AF42ECDB01F0AAFEBDE8F0872DE9B4
:10108000F04781468A4615461E46089C02F053F9F1
:101090005146484603F0ECF93146284603F0FCF986
:1010A0005146484603F06DFA0420FFF7F7FD00278C
:1010B00016E04FF000080FE001F080FE2078FFF707
:1010C000F3FD641C01F07AFE2078FFF7EDFD641C4F
:1010D00008F101001FFA80F8A845EDDB781C87B203
:1010E000B742E6DB01F073FEBDE8F0872DE9F0477B
:1010F00081468A4615461E46089C02F01CF9514658
:10110000484603F0B5F93146284603F0C5F9514683
:10111000484603F036FA0420FFF7C0FD00271CE024
:101120004FF0000815E001F049FE2078FFF7BCFD04
:10113000641C01F043FE2078FFF7B6FD641C01F04B
:101140003DFE2078FFF7B0FD641C08F101001FFA96
:1011500080F8A845E7DB781C87B2B742E0DB01F0F6
:1011600036FEBDE8F0870000000C0240689FF502E3
:1011700040420F00A086010017000020160000204A
:10118000150000202DE9F04781468A4614461D4689
:10119000089E02F0D0F85146484603F069F9294606
:1011A000204603F079F95146484603F0EAF9042055
:1011B000FFF774FD002710E04FF0000809E001F090
:1011C000FDFD3078FFF770FDB61C08F101001FFA35
:1011D00080F8A045F3DB781C87B2AF42ECDB01F06E
:1011E000F6FDBDE8F0872DE9F04781468A461546B1
:1011F0001E46089C02F09FF85146484603F038F915
:101200003146284603F048F95146484603F0B9F9FB
:101210000420FFF743FD00271FE04FF0000815E012
:101220002078FFF741FD01F0C9FDA41C2078FFF7ED
:101230003BFD01F0C3FDA41C2078FFF735FD01F054
:10124000BDFDA41C08F101001FFA80F805EBD57163
:10125000B8EB610FE4DB781C87B2B742DDDB01F04D
:10126000B6FDBDE8F0872DE9F04781468A46154670
:101270001E46089C02F05FF85146484603F0F8F815
:101280003146284603F008F95146484603F079F9FB
:101290000420FFF703FD002716E04FF000080FE0E1
:1012A00001F08CFD2078FFF7FFFCA41C01F086FD07
:1012B0002078FFF7F9FCA41C08F101001FFA80F860
:1012C000A845EDDB781C87B2B742E6DB01F07FFD75
:1012D000BDE8F0872DE9F04106460F4614461D464D
:1012E000DDF818801FFA88F004F03FFC39463046DC
:1012F00003F0A2F92946204603F0BAF903F07EF97B
:1013000001F080FDBDE8F0812DE9F04F2DED088B57
:1013100083B005460E4617469846DDE914A9002419
:10132000A346002002909FEDFE0BB0EE408AF0EE47
:10133000608A781B0FFA80FBA8EB060000B20290CF
:10134000BBF1000F06D19FEDF80BB0EE408AF0EE36
:10135000608A13E058460EF0DAFF41EC1A0B02984F
:101360000EF0D5FF41EC1B0B53EC1A2B0EF01AFEBE
:1013700041EC190B0EF023FD41EC180B9FEDEC0B2B
:1013800053EC102B51EC180B0FF026F91ED89FEDE3
:10139000EA0B53EC102B51EC180B0EF0E3FF15D8B1
:1013A0000CE008EB040083B2301981B23A462846BB
:1013B000CDF800A0FFF78EFF601C84B2B9F10000E9
:1013C000A9F101011FFA81F9EBD113E00BE0391902
:1013D0008AB2291988B243463146CDF800A0FFF7FA
:1013E00079FF601C84B2B9F10000A9F101011FFA74
:1013F00081F9ECD103B0BDEC088BBDE8F08F2DE98D
:10140000F04106460F4614461D46A8B204F0ADFB57
:101410003946304603F060FA204603F095FA03F0AF
:10142000CFF901F0EFFCBDE8F0812DE9F04106466F
:101430000F4614461D46A8B204F097FB39463046C5
:1014400003F04AFA204603F07FFA03F0C3F901F0F3
:10145000D9FCBDE8F0812DE9F04705460E4614465B
:101460001F46DDE9088904EB090082B23B4631469C
:101470002846FFF7DAFF4346224631462846FFF763
:10148000D4FFBDE8F0872DE9F04106460F4614462B
:101490001D46DDF818801FFA88F004F066FB394617
:1014A000304603F035FA2946204603F068FA03F087
:1014B00087F901F0A7FCBDE8F0812DE9F04106466F
:1014C0000F4614461D46DDF818801FFA88F004F018
:1014D0004CFB3946304603F01BFA2946204603F000
:1014E0004EFA03F077F901F08DFCBDE8F0812DE9AB
:1014F000F84F0746884614461D46DDE90A9A0C9EB9
:10150000A81983B2A01982B241463846CDF800909E
:10151000FFF7D3FF2B46224641463846CDF800A0C0
:10152000FFF7CBFFBDE8F88F2DE9F04106460F46E7
:1015300014461D46DDF818801FFA88F004F015FBEC
:101540003946304603F004F92946204603F01CF9D9
:1015500003F09AF901F056FCBDE8F0812DE9F04165
:1015600006460F4614461D46DDF81880404604F036
:1015700013FB3946304603F0EBF82946204603F0CA
:1015800003F903F08BF901F03DFCBDE8F0812DE992
:10159000F84F05460E4617469846DDE90A9A0C9C18
:1015A00008EB040C1FFA8CF307EB040C1FFA8CF207
:1015B000A6EB040C1FFA8CF1A5EB040C1FFA8CF0BF
:1015C000CDF80090FFF7CAFF43463A463146284619
:1015D000CDF800A0FFF7C2FFBDE8F88F2DE9F04776
:1015E00006460F4614461D46DDE9099ADDF82080BF
:1015F0001FFA8AF004F0B9FA3946304603F0A8F829
:101600002946204603F0C0F84946404603F0D3F986
:1016100003F04EF901F0F6FBBDE8F0872DE9F04745
:1016200006460F4614461D46DDE9099ADDF820807E
:101630001FFA8AF004F099FA3946304603F088F828
:101640002946204603F0A0F84946404603F0B3F986
:1016500003F038F901F0D6FBBDE8F0872DE9FE4F25
:1016600005460E4617469846DDE90DABDDF830908D
:10167000109C08EB040C1FFA8CF307EB040C1FFA08
:101680008CF2A6EB040C1FFA8CF1A5EB040C1FFAEC
:101690008CF08DE8000EFFF7C1FF0F9843463A46E5
:1016A0003146CDE9009A02902846FFF7B7FFBDE822
:1016B000FE8F2DE9F04706460F4614461D46DDE92C
:1016C000099ADDF820801FFA8AF004F04EFA3946B4
:1016D000304602F0E9FF2946204603F001F849466A
:1016E000404603F019F802F093FF01F08BFBBDE8D0
:1016F000F0872DE9F04706460F4614461D46DDE902
:10170000099ADDF820801FFA8AF004F02EFA394693
:10171000304602F0C9FF2946204602F0E1FF0FE003
:101720000000000000000000000000000000004079
:10173000000000000000F0BF000000000000F03FCB
:101740004946404602F0E8FF02F06CFF01F05AFB08
:10175000BDE8F0872DE9FE4F06460F4690469946B4
:101760000CAC94E8300C4B464246394630468DE886
:101770003008FFF7BEFF4B464246394630468DE8FB
:101780003004FFF796FFBDE8FE8F2DE9F0410646D5
:101790000F4614461D46DDF818801FFA88F004F045
:1017A000E4F93946304603F0B3F82946204603F001
:1017B000E6F803F023F801F025FBBDE8F0812DE900
:1017C000F04106460F4614461D46DDF818801FFA04
:1017D00088F004F0CAF93946304603F099F82946F2
:1017E000204603F0CCF802F0FFFF01F00BFBBDE850
:1017F000F0812DE9F04106460F4614461D46DDF8FE
:1018000018801FFA88F004F0B0F93946304603F02A
:101810007FF82946204603F0B2F802F0F9FF01F004
:10182000F1FABDE8F0812DE9F04106460F46144675
:101830001D46DDF818801FFA88F004F096F9394645
:10184000304603F065F82946204603F098F802F088
:10185000E9FF01F0D7FABDE8F0812DE9F84305462C
:101860000E4617469846DDE90849B9F1000F09D040
:10187000B9F1010F0ED0B9F1020F13D0B9F1030F76
:1018800020D117E043463A46314628460094FFF7F8
:1018900096FF18E043463A46314628460094FFF743
:1018A00074FF10E043463A46314628460094FFF75D
:1018B000A0FF08E043463A46314628460094FFF729
:1018C000B2FF00E000BF00BFBDE8F8832DE9F041A2
:1018D00006460F4614461D46DDF818801FFA88F0AC
:1018E00004F043F93946304603F012F82946204601
:1018F00003F045F802F0AAFF01F084FABDE8F08198
:101900002DE9F04106460F4614461D46DDF81880C5
:101910001FFA88F004F029F93946304602F0F8FF42
:101920002946204603F02BF802F086FF01F06AFA00
:10193000BDE8F0812DE9F04106460F4614461D46EC
:10194000DDF818801FFA88F004F00FF939463046A8
:1019500002F0DEFF2946204603F011F802F080FF76
:1019600001F050FABDE8F0812DE9F04106460F463E
:1019700014461D46DDF818801FFA88F004F0F5F8CB
:101980003946304602F0C4FF2946204602F0F7FFF0
:1019900002F070FF01F036FABDE8F0812DE9F8435E
:1019A00005460E4617469846DDE90849B9F1000F8D
:1019B00009D0B9F1010F0ED0B9F1020F13D0B9F16E
:1019C000030F20D117E043463A463146284600949B
:1019D000FFF796FF18E043463A4631462846009402
:1019E000FFF774FF10E043463A463146284600941C
:1019F000FFF7A0FF08E043463A46314628460094E8
:101A0000FFF7B2FF00E000BF00BFBDE8F8832DE99B
:101A1000F05F06460F4614461D46DDF838B0DDE996
:101A20000B9ADDF828801FFA8BF004F09EF83946F7
:101A3000304602F039FE2946204602F051FE494662
:101A4000404602F069FE50460D9902F098FF67206B
:101A5000FFF724F98D20FFF727F901F015FA01F0BF
:101A6000D1F9BDE8F09F2DE9F05F06460F46144618
:101A70001D46DDF838B0DDE90B9ADDF828801FFA45
:101A80008BF004F072F83946304602F00DFE29461C
:101A9000204602F025FE4946404602F03DFE5046F3
:101AA0000D9902F06CFF6720FFF7F8F8A720FFF709
:101AB000FBF801F0E9F901F0A5F9BDE8F09F2DE987
:101AC000F05F06460F4614461D46DDE90CABDDE926
:101AD0000A89109988B204F048F83946304602F075
:101AE000E3FD2946204602F0FBFD4946404602F050
:101AF00013FE5946504602F042FFDDE90E0102F0A6
:101B000007FF6720FFF7CAF88F20FFF7CDF801F035
:101B1000BBF901F077F9BDE8F09F2DE9F05F0646CB
:101B20000F4614461D46DDE90CABDDE90A89109924
:101B300088B204F01AF83946304602F0B5FD29465D
:101B4000204602F0CDFD4946404602F0E5FD5946EB
:101B5000504602F014FFDDE90E0102F0D9FE6720C5
:101B6000FFF79CF8A920FFF79FF801F08DF901F02D
:101B700049F9BDE8F09F2DE9F84F05460C46164699
:101B80009A46DDE90B890A9FBC4202DA0120BDE8D2
:101B9000F88F5346324621462846CDF80090FFF78D
:101BA0008CFC5346324621462846CDF80080FFF78C
:101BB0006AFCAB199AB2E31B99B2AB1B98B22346ED
:101BC000CDF80090FFF7CAFCE01B81B253463246C5
:101BD0002846CDF80090FFF770FCE01B81B2534619
:101BE00032462846CDF80080FFF74DFCE11B8BB252
:101BF000A91B8AB2A91B88B22146CDF80080FFF745
:101C000069FBE11B8BB2A9198AB2A91988B22146D6
:101C1000CDF80080FFF75EFB0020B8E72DE9FF4F0D
:101C200085B0DDE91AAB12AC94E8F0034B464246AE
:101C3000CDF800B0DDE90501FFF790FC4B464246C8
:101C4000CDF800A0DDE90501FFF76EFC8DE8F00896
:101C500005A80FC8FFF707FF8DE8F00405A80FC817
:101C6000FFF7D5FEDDE918013B463246CDE9031BFF
:101C7000CDE90089029029462046FFF7F4FEDDE910
:101C800018013B463246CDE9031ACDE9008902909E
:101C900029462046FFF7BBFE09B0BDE8F08F2DE9CD
:101CA000F04F85B005460E4617469846DDE90EAB67
:101CB000DDF84090002407FB0B5080B2049008FB35
:101CC0000A6080B2039014991298CDE900900291B5
:101CD00031462846DDE90332FFF759FC159848B92B
:101CE00011980090E81982B231462846039BFFF70D
:101CF00035FC0CE01598012809D11198009006EBED
:101D0000080083B231462846049AFFF727FC0024D6
:101D10000EE01398CDE9009004FB086083B204FB49
:101D2000086081B22846049AFFF7EEFA601C84B27C
:101D30005445EEDB00240EE0139804FB07518AB2F1
:101D400004FB0751CDE9009088B23146039BFFF7B1
:101D5000DBFA601C84B25C45EEDB05B0BDE8F08FB9
:101D600010B501F0B3FF10BD10B501F0BCFF10BD00
:101D70002DE9F04104460D4616461F46DDF8188051
:101D800001F03AF90CB903F036FA012C01D103F055
:101D90003FFA02F0BCFB03F055FA284603F011FCB1
:101DA000384603F034FC404603F06AFC304603F04A
:101DB00011FC03F014FA03F005FA03F010FA02F034
:101DC00099FBBDE8F0812DE9F04104460D46164629
:101DD0001F46DDF8188001F00FF90CB903F00BFA7B
:101DE000012C01D103F014FA02F091FB03F02AFA5E
:101DF00003F042FA284603F0E4FB384603F007FC00
:101E0000404603F03DFC304603F0E4FB03F0E7F905
:101E100003F0D8F903F0E3F902F06CFBBDE8F081C0
:101E20002DE9F05F04460D4616461F46DDE90CAB72
:101E3000DDE90A8901F0E0F80CB903F0DCF9012CC6
:101E400001D103F0E5F903F0FDF9284603F0B9FBF1
:101E50003946304602F095FB3946304603F0F4FB34
:101E60004946404603F029FC504603F042FC5846E0
:101E700003F0B0FB03F0A6F903F0B1F9BDE8F09F61
:101E80002DE9F05F04460D4616461F46DDE90CAB12
:101E9000DDE90A8901F0B0F80CB903F0ACF9012CC6
:101EA00001D103F0B5F903F0CDF9284603F089FB21
:101EB00003F0E2F93946304602F063FB394630461A
:101EC00003F0C2FB4946404603F0F7FB504603F0DF
:101ED00010FC584603F07EFB03F074F903F07FF921
:101EE00003F0BDF9BDE8F09F2DE9F04106460C4630
:101EF00015461F46DDF81880102E01D103F035FC81
:101F0000182E01D103F040FC202E01D103F04BFC30
:101F1000012C01D103F0E0FC022C01D103F0EBFC19
:101F2000032C01D103F0F6FC042C01D103F001FDD8
:101F3000012D01D103F00CFD022D01D103F017FD9D
:101F4000032D01D103F022FD042D01D103F02DFD5D
:101F50000FB903F09AFC012F01D103F089FCB8F10D
:101F6000000F01D103F077FCB8F1010F01D103F0AC
:101F700065FCBDE8F0812DE9F04106460F461446A8
:101F80001D46DDF8188001F0E3F903F0D0FBA0B2A4
:101F900003F0EBFDA8B203F044FE3946304602F0F0
:101FA00019FB404604F028F8BDE8F0812DE9FF4F09
:101FB00081B082461F46DDE90EB610AC94E83003CE
:101FC000102E01D103F0D1FB182E01D103F0DCFB60
:101FD000202E01D103F0E7FB012C01D103F07CFCA2
:101FE000022C01D103F087FC032C01D103F092FCF9
:101FF000042C01D103F09DFC012D01D103F0A8FCBC
:10200000022D01D103F0B3FC032D01D103F0BEFC7E
:10201000042D01D103F0C9FCB8F1000F01D103F088
:1020200034FCB8F1010F01D103F022FCB9F1000F2B
:1020300001D103F010FCB9F1010F01D103F0FEFB57
:102040003B46CDF800B05046DDE90212FFF790FEA6
:10205000384603F014FE05B0BDE8F08F2DE9FF5FB0
:102060008346174698460E9D4FF00009CA46002643
:10207000002401F06DF903F04BFBB8B203F075FDDD
:102080001FFA88F003F0CDFD5846019902F0A2FA3C
:102090002EE0285DA1280BDA03F049FB0420FEF7AF
:1020A000FDFD285DFEF700FE00F088FE641C1FE0C9
:1020B00003F02EFB0420FEF7F1FD285DA138C0B22D
:1020C0005E2110FB01F9601C285CA1381FFA80FA20
:1020D00009EB0A0000F5004086B2300AFEF7E4FD85
:1020E00000F06CFEF0B2FEF7DFFD00F067FEA41C0E
:1020F000285D0028CDD100F085FE01F01CF9BDE877
:10210000FF9F2DE9F05F06460F4614461D46DDF899
:1021100038B0DDE90B9ADDF828800BF0FF0003F002
:102120000DFD0F99C8B203F065FD072002F070FEA7
:1021300002F08EFE304602F047FF284602F059FFBB
:102140003946002002F060FF02F022FF204602F034
:10215000E8FF284602F0FAFF4946404603F001F83E
:102160000E2002F066FE50460D9903F00EF802F0C4
:1021700012FE02F02AFEBDE8F09F2DE9F05F064650
:102180000F4614461D46DDF838B0DDE90B9ADDF840
:1021900028800BF0FF0003F0D1FC072002F038FE8E
:1021A00002F056FE304602F00FFF284602F021FFF3
:1021B0003946002002F028FF02F0EAFE204602F035
:1021C000B0FF284602F0C2FF4946404602F0C9FF70
:1021D0000F2002F02EFE50460D9902F0D6FF02F0BD
:1021E000DAFD02F0F2FDBDE8F09F2DE9FF4F8FB060
:1021F000DDF898B0DDE9206ADDE91D9400200E903D
:102200000D900C90002700250B900A9009900890E3
:10221000804607900A96CDF82CA002F085F9129816
:1022200002F006F9484602F018F93CE01BF80700F6
:10223000A138C0EB001101EB40104FF6FF7101EA2D
:1022400040000E90781C1BF80000A13881B20D915F
:10225000DDE90D10084480B20C9004FB04F0C117B6
:10226000069000EB5170C21011990C9800FB0210FF
:10227000E11704EB5171C1F3CF010594E21704EBB0
:102280005272C2F3CF020494CDE90024CDE90210CA
:1022900004FB05F083B20022DDE90F01FFF7C0FD6A
:1022A000BF1C681C85B21BF807000028BED102F0D5
:1022B0004AF91C9802F0BCF8484602F0CEF8002516
:1022C00000272498022801DD022024904FF0000806
:1022D0006AE052E0DDE90701884222D104FB056093
:1022E00001190998401C09FB00F0814219DD08988A
:1022F000401C80B208900998401C80B209900AEBFB
:102300000400401E259908441FFA80FA099809FB29
:1023100000F004FB0561401A3044404486B209983D
:1023200007901F98012812D1DDE922100294CDE90F
:102330000341059004FB056080B2CDE9000A04FB6F
:1023400005F081B24B461C9A1298FFF7DAFE1F98EF
:1023500080B92298CDE901A4CDE9034004FB0560D2
:1023600080B2009004FB05F081B24B461C9A129893
:10237000FFF703FFBF1C681C85B21BF8070000288D
:10238000A8D11F90002700250890099007900A986F
:102390004044401C86B20B984044401C1FFA80FA0F
:1023A00008F101001FFA80F82498401C804590DB5A
:1023B00013B0BDE8F08F2DE9FF4F8FB0DDE9208B22
:1023C000DDF898901E9C00200E900D900C90002639
:1023D00000250B900A900990089082460790CDF84E
:1023E0002880CDF82CB002F09FF8129802F020F867
:1023F0001D9802F032F846E019F80600A13800EB0B
:1024000080004FF6FF7101EA40100E90701C19F821
:1024100000007F2806DA701C19F80000403880B2EE
:102420000D9005E0701C19F80000603880B20D9026
:10243000DDE90D10084480B20C9004FB04F0C117D4
:10244000069000EB5170C2100C99119801FB02002C
:102450002746E11704EB5171C1F3CF01E21704EBFA
:102460005272C2F3CF020594CDE90024CDE90210E7
:1024700004FB05F083B20022DDE90F01FFF7D0FC79
:10248000B61C681C85B219F806000028B4D102F009
:102490005AF81C9801F0CCFF1D9801F0DEFF0025D2
:1024A0000026AA466CE053E0DDE90701884221D10D
:1024B00004FB058001190998401C8002814219DD46
:1024C0000898401C80B208900998401C80B209907E
:1024D0000BEB0400401E259908441FFA80FB04FB07
:1024E00005810998C1EB8020404450441FFA80F8D0
:1024F000099807901F98012813D1DDE92210029452
:10250000CDE90341059004FB058080B2CDE9000BC5
:1025100004FB05F081B24FF480631C9A1298FFF718
:10252000F0FD1F9888B92298CDE901B4CDE90340A8
:1025300004FB058080B2009004FB05F081B24FF4EB
:1025400080631C9A1298FFF718FEB61C681C85B2AF
:1025500019F806000028A7D11F9000260025089032
:10256000099007900A985044401C1FFA80F80B9875
:102570005044401C1FFA80FB0AF101001FFA80FA48
:10258000249882458FDB13B0BDE8F08F2DE9F04130
:1025900004460D4616461F460CB901F001FF012CFA
:1025A00001D101F0F0FEE8B201F007FF39463046F4
:1025B00001F00CFF01F0CDFEBDE8F08110B501F097
:1025C000C8FE10BD10B501F0D1FE10BD2DE9F047D9
:1025D00005460E4617469846DDE9089A00F0D4FEF7
:1025E00000F0A9FE012D06D0022D07D0032D08D042
:1025F000042D0CD108E001F070FE09E001F07CFE32
:1026000006E001F088FE03E001F094FE00E000BF68
:1026100000BF0420FEF742FB002404E01AF8040087
:10262000FEF742FB641CFF2CF8D900F09EFE3046FA
:1026300001F0F0FE384601F0F4FE4946404601F054
:10264000D5FE01F030FEBDE8F08770B506460C46B9
:1026500015462946204601F0C9FE012E06D0022E5D
:1026600007D0032E08D0042E0CD108E001F035FE6F
:1026700009E001F041FE06E001F04DFE03E001F04B
:1026800059FE00E000BF00BF70BD10B501F00BFEA9
:1026900010BD10B501F014FE10BD2DE9F05F054628
:1026A0000C4616461F46DDE90CABDDE90A89012C14
:1026B00003D101F0B9FA01F036FA022C03D101F08E
:1026C00086FA01F03DFA5946504601F090FD304639
:1026D00001F0A1FD1FFA89F001F0B2FD4146384634
:1026E00001F0B9FDDDE90E0101F0C9FD3DB9012C94
:1026F00001D101F0F1F9022C01D101F007FA012D0D
:1027000007D1012C01D101F0DAF9022C01D101F03D
:10271000F0F9BDE8F09F2DE9F04105460C4616465C
:102720001F46012C01D101F0FEF9022C01D101F06C
:1027300007FA3DB9012C01D101F0CEF9022C01D1EB
:1027400001F0E4F9012D07D1012C01D101F0B7F915
:10275000022C01D101F0CDF93946304601F047FD98
:10276000BDE8F0812DE9F04707460C4615461E46A8
:10277000DDE9099ADDF8208002F00AFC384602F013
:10278000D0FC204602F0E2FC3146284602F0E9FC8B
:102790005146484602F0F9FC404603F0E6F90C20A9
:1027A00002F047FB02F0F7FA02F00FFBBDE8F087FA
:1027B0002DE9F05F07460C4615461E46DDF848B089
:1027C000DDE90B9ADDF8288002F051FB384602F073
:1027D000FBFB204602F00DFC3146284602F014FCBB
:1027E00002F072FB404602F023FC484602F07AFCFD
:1027F00050460D9902F081FC02F0CAFB0E9802F0DF
:1028000090FC0F9802F0A2FCDDE9100102F0A9FC97
:102810000BF0FF0002F0FCFA022002F00AFBDDE9F7
:10282000130102F0B2FC02F0B6FA02F0CEFABDE8F3
:10283000F09F2DE9F05F07460C4615461E46DDF871
:1028400038B0DDE90B9ADDF828801FFA8BF003F031
:10285000E8F902F00CFB384602F0B6FB204602F025
:10286000C8FB3146284602F0CFFB02F091FB404600
:1028700002F057FC484602F069FC50460D9902F000
:1028800070FC052002F0D5FADDE90F0102F07DFCB5
:1028900002F081FA02F099FABDE8F09F2DE9F05FAD
:1028A00004460D4616461F46DDE90CABDDE90A89F4
:1028B0000CB902F093FA012C01D102F09CFA02F05B
:1028C000D6FA284602F080FB304602F092FB4146E1
:1028D000384602F099FB02F05BFB484602F021FC0F
:1028E000504602F033FC58460E9902F03AFC0F991C
:1028F000C8B202F08DFA062002F09BFADDE9100161
:1029000002F043FC02F047FA02F05FFABDE8F09FE4
:102910002DE9F05F04460D4616461F46DDF840B02F
:10292000DDE90B9ADDF828801FFA8BF003F079F9C6
:102930000CB902F053FA012C01D102F05CFA02F05A
:1029400096FA284602F040FB304602F052FB414620
:10295000384602F059FB02F01BFB484602F0E1FB4F
:10296000504602F0F3FBDDE90D0102F0FAFB0F998E
:10297000C8B202F04DFA072002F05BFADDE911015E
:1029800002F003FC02F007FA02F01FFABDE8F09F24
:102990002DE9FF5F0C4615461E46DDE91489139F9D
:1029A00002F092FA009802F043FB204602F09AFBF4
:1029B0003146284602F0A1FB02F0EAFA0E9802F036
:1029C000B0FB0F9802F0C2FBDDE9100102F0C9FB79
:1029D0004146384602F0D9FB1299C8B202F018FA03
:1029E000002002F026FA02F0D6F902F040FA0420A4
:1029F000FEF754F94FF0000A14E04FF0000B0BE023
:102A000000F0DCF9B9F80000FEF754F909F1020909
:102A10000BF101001FFA80FBBB45F1DB0AF101005D
:102A20001FFA80FAC245E8DB00F0D1F902F0CDF9D7
:102A3000BDE8FF9F2DE9FF5F0C4615461E46DDE908
:102A400010890F9F0E9988B203F0EBF802F0A0FAFC
:102A5000009802F066FB204602F078FB31462846DB
:102A600002F07FFB4146384602F08FFB042002F063
:102A7000E0F902F090F902F0FAF90420FEF70EF9FD
:102A80004FF0000A10E04FF0000B09E000F096F95B
:102A9000B9F80000FEF70EF909F102090BF1010B7C
:102AA000BB45F3D30AF1010AC245ECD300F08FF91C
:102AB00002F08BF9BDE8FF9F2DE9FF5F0D4616463A
:102AC0001F46DDF84890DDE90E4800F005FB10993F
:102AD00088B203F04AF8119988B203F0A2F80F20E7
:102AE00002F096F902F054FA009802F01AFB284618
:102AF00002F02CFB3946304602F033FB41462046BB
:102B000002F043FB082002F094F902F044F904209B
:102B1000FEF7C4F84FF0000A18E04FF0000B0BE08E
:102B200000F04CF9B9F80000FEF7C4F809F1020909
:102B30000BF101001FFA80FBE11704EB1171BBEBF5
:102B4000211FEDDB0AF101001FFA80FAC245E4DB28
:102B500000F03DF902F039F9BDE8FF9F2DE9FF5F74
:102B60000D4616461F46DDF84490DDE90E4800F09C
:102B7000B3FA109988B202F0F8FF0F2002F048F97A
:102B800002F006FA009802F0CCFA284602F0DEFACB
:102B90003946304602F0E5FA4146204602F0F5FAA1
:102BA000092002F046F902F0F6F80420FEF776F864
:102BB0004FF0000A18E04FF0000B0BE000F0FEF8B9
:102BC000B9F80000FEF776F809F102090BF10100EF
:102BD0001FFA80FBE11704EB1171BBEB211FEDDB4A
:102BE0000AF101001FFA80FAC245E4DB00F0EFF8B9
:102BF00002F0EBF8BDE8FF9F2DE9F05F07460C46B9
:102C000015461E46DDE90CABDDE90A8902F02FF915
:102C1000384602F0D9F9204602F0EBF93146284651
:102C200002F0F2F902F050F9404602F001FA48468B
:102C300002F058FA5946504602F05FFA02F0A8F93D
:102C40000E9802F06EFA0F9802F080FADDE910019A
:102C500002F087FADDE9120102F097FA0A2002F089
:102C6000E8F8149802F0A5FA02F095F802F0ADF831
:102C7000BDE8F09F2DE9F04105460C4616461F467B
:102C8000DDF8188001F06EFF304601F0B0FE0CB99F
:102C900001F0F4FE012C01D101F0FFFE022C01D164
:102CA00001F00AFF032C01D101F015FF384602F0B4
:102CB00045F8404602F033F8012D01D102F00CF83E
:102CC0000DB902F016F8BDE8F08110B504462046B3
:102CD00002F025F810BD2DE9F04105460C461646D8
:102CE0001F46DDF8188001F012FF304601F07FFE2C
:102CF0000CB901F087FE012C01D101F092FE022CEB
:102D000001D101F09DFE032C01D101F0A8FE38464F
:102D100002F032F8404602F020F8012D01D101F016
:102D200073FF0DB901F07DFFBDE8F08110B50446D9
:102D3000204602F012F810BD10B502F0C5FF00F0F9
:102D400088F810BD10B502F0B7FF00F079F810BD9B
:102D500010B50A20FEF7E2F802F0C4FF00F079F89F
:102D600010BD10B502F0A8FF00F06AF8084800781E
:102D7000FEF7D4F810BD10B502F0BCFF00F069F802
:102D800010BD10B502F098FF00F05AF810BD000019
:102D90001600002070B505460C462846FDF77EFF5C
:102DA0002046FDF781FF70BD70B504462046FDF753
:102DB00075FFFDF78CFFC5B2284670BD10B500BF8A
:102DC000FDF77EFF00F080000028F9D110BD10B59E
:102DD00000BFFDF775FF00F040000028F9D010BDDE
:102DE00010B500BFFDF76CFF00F020000028F9D1FE
:102DF00010BD10B500BFFDF763FF00F01000002804
:102E0000F9D110BD10B500BFFDF75AFF00F0080062
:102E10000028F9D110BD10B500BFFDF751FF00F03B
:102E200004010029F9D010BD10B5FDF749FF00F0ED
:102E30000200022801D1012400E00024204610BD38
:102E400010B500BFFDF73CFF00F002000028F9D1EB
:102E500010BD10B500BFFDF733FF00F002000028E1
:102E6000F9D010BD10B500BFFDF72AFF00F001003A
:102E70000028F9D110BD10B500BFFDF721FF00F00B
:102E800001000028F9D010BD10B500BFFDF718FFF4
:102E900000F008010029F9D110BD10B50020FDF7A0
:102EA000FDFEFDF714FFC4B244F001042046FDF717
:102EB000FBFE00BFFDF70BFFC4B204F001000028C9
:102EC000F8D110BD10B50120FDF7E8FEFDF7FFFEBB
:102ED000C4B244F080042046FDF7E6FE0120FDF771
:102EE000D5FD10BD10B50120FDF7D8FEFDF7EFFEB2
:102EF000C4B244F040042046FDF7D6FE10BD10B524
:102F00000120FDF7CBFEFDF7E2FEC4B204F0BF04E2
:102F10002046FDF7C9FE10BD10B50120FDF7BEFE2D
:102F2000FDF7D5FEC4B244F020042046FDF7BCFEF8
:102F300010BD10B50120FDF7B1FEFDF7C8FEC4B20B
:102F400004F0DF042046FDF7AFFE10BD10B50120F0
:102F5000FDF7A4FEFDF7BBFEC4B204F0EF0404F0DD
:102F6000F7042046FDF7A0FE10BD10B50120FDF7C7
:102F700095FEFDF7ACFEC4B204F0EF0444F0080483
:102F80002046FDF791FE10BD10B50120FDF786FE2D
:102F9000FDF79DFEC4B244F0100404F0F70420468F
:102FA000FDF782FE10BD10B50120FDF777FEFDF79D
:102FB0008EFEC4B244F0100444F008042046FDF72D
:102FC00073FE10BD10B50120FDF768FEFDF77FFE12
:102FD000C4B244F004042046FDF766FE10BD10B5EF
:102FE0000120FDF75BFEFDF772FEC4B204F0FB04A6
:102FF0002046FDF759FE10BD10B50120FDF74EFE2D
:10300000FDF765FEC4B244F002042046FDF74CFE15
:1030100010BD10B50120FDF741FEFDF758FEC4B20A
:1030200004F0FD042046FDF73FFE10BD10B5012061
:10303000FDF734FEFDF74BFEC4B204F0FE0420465B
:10304000FDF732FE10BD10B50120FDF727FEFDF79C
:103050003EFEC4B244F001042046FDF725FE10BD3B
:1030600010B50220FDF71AFEFDF731FEC4B204F0E0
:103070007F0404F0BF042046FDF716FE10BD10B516
:103080000220FDF70BFEFDF722FEC4B204F07F0420
:1030900044F040042046FDF707FE10BD10B50220A5
:1030A000FDF7FCFDFDF713FEC4B204F07F0404F04D
:1030B000BF042046FDF7F8FD10BD10B50220FDF756
:1030C000EDFDFDF704FEC4B244F0800404F0BF043B
:1030D0002046FDF7E9FD10BD10B50220FDF7DEFD2D
:1030E000FDF7F5FDC4B204F07F0444F0400420462F
:1030F000FDF7DAFD10BD10B50220FDF7CFFDFDF79D
:10310000E6FDC4B204F07F0404F0BF042046FDF7DE
:10311000CBFD10BD10B50220FDF7C0FDFDF7D7FDBA
:10312000C4B244F0800444F040042046FDF7BCFDE6
:1031300010BD10B50220FDF7B1FDFDF7C8FDC4B20A
:1031400004F0DF0404F0EF042046FDF7ADFD10BDF0
:1031500010B50220FDF7A2FDFDF7B9FDC4B204F0E1
:10316000DF0444F010042046FDF79EFD10BD10B5AD
:103170000220FDF793FDFDF7AAFDC4B244F0200440
:1031800004F0EF042046FDF78FFD10BD10B50220BE
:10319000FDF784FDFDF79BFDC4B244F0200444F02C
:1031A00010042046FDF780FD10BD10B50220FDF78C
:1031B00075FDFDF78CFDC4B204F0FB0404F0FD04C2
:1031C0002046FDF771FD10BD10B50220FDF766FD2C
:1031D000FDF77DFDC4B204F0FB0444F00204204678
:1031E000FDF762FD10BD10B50220FDF757FDFDF79C
:1031F0006EFDC4B244F0040404F0FD042046FDF763
:1032000053FD10BD10B50220FDF748FDFDF75FFD31
:10321000C4B244F0040444F002042046FDF744FD27
:1032200010BD10B50320FDF739FDFDF750FDC4B208
:1032300004F07F042046FDF737FD10BD10B50320D4
:10324000FDF72CFDFDF743FDC4B244F08004204699
:10325000FDF72AFD10BD10B50320FDF71FFDFDF79A
:1032600036FDC4B244F040042046FDF71DFD10BDFC
:1032700010B50320FDF712FDFDF729FDC4B204F0DF
:10328000BF042046FDF710FD10BD10B50320FDF76B
:1032900005FDFDF71CFDC4B204F0DF0404F0EF04EB
:1032A0002046FDF701FD10BD10B50320FDF7F6FC2B
:1032B000FDF70DFDC4B244F0200404F0EF042046F5
:1032C000FDF7F2FC10BD10B50320FDF7E7FCFDF79C
:1032D000FEFCC4B204F0DF0444F010042046FDF705
:1032E000E3FC10BD10B50320FDF7D8FCFDF7EFFCA3
:1032F000C4B244F0200444F010042046FDF7D4FC8E
:1033000010BD10B50320FDF7C9FCFDF7E0FCC4B209
:1033100004F0F7042046FDF7C7FC10BD10B50320EC
:10332000FDF7BCFCFDF7D3FCC4B244F00804204612
:10333000FDF7BAFC10BD10B50320FDF7AFFCFDF79B
:10334000C6FCC4B204F0FB042046FDF7ADFC10BD82
:1033500010B50320FDF7A2FCFDF7B9FCC4B244F0A0
:1033600004042046FDF7A0FC10BD10B50320FDF7B6
:1033700095FCFDF7ACFCC4B204F0FD0404F0FE04BF
:103380002046FDF791FC10BD10B50320FDF786FC2B
:10339000FDF79DFCC4B244F0020404F0FE04204694
:1033A000FDF782FC10BD10B50320FDF777FCFDF79B
:1033B0008EFCC4B244F0020444F001042046FDF740
:1033C00073FC10BD10B50B20FDF768FCFDF77FFC0A
:1033D000C4B244F080042046FDF766FC10BD10B571
:1033E0000B20FDF75BFCFDF772FCC4B204F07F0418
:1033F0002046FDF759FC10BD10B50B20FDF74EFC23
:10340000FDF765FCC4B244F040042046FDF74CFCD7
:1034100010BD10B50B20FDF741FCFDF758FCC4B200
:1034200004F0BF042046FDF73FFC10BD10B50B2093
:10343000FDF734FCFDF74BFCC4B244F020042046F9
:10344000FDF732FC10BD10B50B20FDF727FCFDF792
:103450003EFCC4B204F0DF042046FDF725FC10BD9D
:1034600010B50B20FDF71AFCFDF731FCC4B244F097
:1034700010042046FDF718FC10BD10B50B20FDF719
:103480000DFCFDF724FCC4B204F0EF042046FDF768
:103490000BFC10BD10B50B20FDF700FCFDF717FC71
:1034A000C4B244F008042046FDF7FEFB10BD10B581
:1034B0000B20FDF7F3FBFDF70AFCC4B204F0F704A0
:1034C0002046FDF7F1FB10BD10B50B20FDF7E6FB24
:1034D000FDF7FDFBC4B244F004042046FDF7E4FB15
:1034E00010BD10B50B20FDF7D9FBFDF7F0FBC4B202
:1034F00004F0FB042046FDF7D7FB10BD10B50B20F0
:10350000FDF7CCFBFDF7E3FBC4B244F00204204618
:10351000FDF7CAFB10BD10B50B20FDF7BFFBFDF793
:10352000D6FBC4B204F0FD042046FDF7BDFB10BD80
:1035300010B50B20FDF7B2FBFDF7C9FBC4B244F098
:1035400001042046FDF7B0FB10BD10B50B20FDF7C0
:10355000A5FBFDF7BCFBC4B204F0FE042046FDF75A
:10356000A3FB10BD10B50C20FDF798FBFDF7AFFBDA
:10357000C4B2204610BD10B50C20FDF78FFBFDF73F
:10358000A6FBC4B244F080042046FDF78DFB10BDBD
:1035900010B50C20FDF782FBFDF799FBC4B244F097
:1035A00040042046FDF780FB10BD10B50C20FDF750
:1035B00075FBFDF78CFBC4B244F020042046FDF7F8
:1035C00073FB10BD10B50C20FDF768FBFDF77FFB0A
:1035D000C4B244F010042046FDF766FB10BD10B5E0
:1035E0000C20FDF75BFBFDF772FBC4B244F008044E
:1035F0002046FDF759FB10BD10B50C20FDF74EFB22
:10360000FDF765FBC4B244F004042046FDF74CFB13
:1036100010BD10B50C20FDF741FBFDF758FBC4B2FF
:1036200044F002042046FDF73FFB10BD10B50C200E
:10363000FDF734FBFDF74BFBC4B244F00104204618
:10364000FDF732FB10BD10B50D20FDF727FBFDF790
:103650003EFBC4B244F080042046FDF725FB10BDBC
:1036600010B50D20FDF71AFBFDF731FBC4B244F095
:1036700040042046FDF718FB10BD10B50D20FDF7E6
:103680000DFBFDF724FBC4B244F020042046FDF7F7
:103690000BFB10BD10B50D20FDF700FBFDF717FB70
:1036A000C4B244F010042046FDF7FEFA10BD10B578
:1036B0000D20FDF7F3FAFDF70AFBC4B244F008044D
:1036C0002046FDF7F1FA10BD10B50D20FDF7E6FA22
:1036D000FDF7FDFAC4B244F004042046FDF7E4FA15
:1036E00010BD10B50D20FDF7D9FAFDF7F0FAC4B200
:1036F00044F002042046FDF7D7FA10BD10B50D20A6
:10370000FDF7CCFAFDF7E3FAC4B244F00104204619
:10371000FDF7CAFA10BD10B50D20FDF7BFFAFDF791
:10372000D6FAC4B204F07F042046FDF7BDFA10BDFE
:1037300010B50D20FDF7B2FAFDF7C9FAC4B204F0D6
:10374000BF042046FDF7B0FA10BD10B50D20FDF7FF
:10375000A5FAFDF7BCFAC4B204F0DF042046FDF779
:10376000A3FA10BD10B50D20FDF798FAFDF7AFFADA
:10377000C4B204F0EF042046FDF796FA10BD10B570
:103780000D20FDF78BFAFDF7A2FAC4B204F0F7049E
:103790002046FDF789FA10BD10B50D20FDF77EFA21
:1037A000FDF795FAC4B204F0FB042046FDF77CFA5D
:1037B00010BD10B50D20FDF771FAFDF788FAC4B2FF
:1037C00004F0FD042046FDF76FFA10BD10B50D2082
:1037D000FDF764FAFDF77BFAC4B204F0FE0420465C
:1037E000FDF762FA10BD10B50E20FDF757FAFDF790
:1037F0006EFAC4B244F020042046FDF755FA10BD1D
:1038000010B50E20FDF74AFAFDF761FAC4B244F094
:1038100010042046FDF748FA10BD10B50E20FDF744
:103820003DFAFDF754FAC4B244F008042046FDF70F
:103830003BFA10BD10B50E20FDF730FAFDF747FA40
:10384000C4B244F004042046FDF72EFA10BD10B5B2
:103850000E20FDF723FAFDF73AFAC4B244F0020451
:103860002046FDF721FA10BD10B50E20FDF716FA1F
:10387000FDF72DFAC4B244F001042046FDF714FA16
:1038800010BD10B50E20FDF709FAFDF720FAC4B2FD
:1038900004F0DF042046FDF707FA10BD10B50E2036
:1038A000FDF7FCF9FDF713FAC4B204F0EF0420466B
:1038B000FDF7FAF910BD10B50E20FDF7EFF9FDF791
:1038C00006FAC4B204F0F7042046FDF7EDF910BD86
:1038D00010B50E20FDF7E2F9FDF7F9F9C4B204F0D6
:1038E000FB042046FDF7E0F910BD10B50E20FDF7F2
:1038F000D5F9FDF7ECF9C4B204F0FD042046FDF75C
:10390000D3F910BD10B50E20FDF7C8F9FDF7DFF9AA
:10391000C4B204F0FE042046FDF7C6F910BD10B590
:103920000F20FDF7BBF9FDF7D2F9C4B204F07F0414
:103930002046FDF7B9F910BD10B50F20FDF7AEF91F
:10394000FDF7C5F9C4B244F080042046FDF7ACF998
:1039500010BD10B50F20FDF7A1F9FDF7B8F9C4B2FD
:1039600004F0BF042046FDF79FF910BD10B50F20ED
:10397000FDF794F9FDF7ABF9C4B244F040042046DA
:10398000FDF792F910BD10B50F20FDF787F9FDF78F
:103990009EF9C4B204F0DF042046FDF785F910BD9E
:1039A00010B50F20FDF77AF9FDF791F9C4B244F094
:1039B00020042046FDF778F910BD10B50F20FDF763
:1039C0006DF9FDF784F9C4B204F0EF042046FDF769
:1039D0006BF910BD10B50F20FDF760F9FDF777F911
:1039E000C4B244F010042046FDF75EF910BD10B5D6
:1039F0000F20FDF753F9FDF76AF9C4B204F0F7049C
:103A00002046FDF751F910BD10B50F20FDF746F91E
:103A1000FDF75DF9C4B244F008042046FDF744F90F
:103A200010BD10B50F20FDF739F9FDF750F9C4B2FC
:103A300004F0FB042046FDF737F910BD10B50F2048
:103A4000FDF72CF9FDF743F9C4B244F00404204615
:103A5000FDF72AF910BD10B50F20FDF71FF9FDF78E
:103A600036F9C4B204F0FD042046FDF71DF910BD7F
:103A700010B50F20FDF712F9FDF729F9C4B244F093
:103A800002042046FDF710F910BD10B50F20FDF718
:103A900005F9FDF71CF9C4B204F0FE042046FDF759
:103AA00003F910BD10B50F20FDF7F8F8FDF70FF979
:103AB000C4B244F001042046FDF7F6F810BD10B57D
:103AC0001020FDF7EBF8FDF702F9C4B244F08004D2
:103AD0002046FDF7E9F810BD10B51020FDF7DEF81F
:103AE000FDF7F5F8C4B204F07F042046FDF7DCF8DA
:103AF00010BD10B51020FDF7D1F8FDF7E8F8C4B2FD
:103B000044F040042046FDF7CFF810BD10B510205A
:103B1000FDF7C4F8FDF7DBF8C4B204F0BF0420469B
:103B2000FDF7C2F810BD10B51020FDF7B7F8FDF78E
:103B3000CEF8C4B204F0EF042046FDF7B5F810BD8E
:103B400010B51020FDF7AAF8FDF7C1F8C4B244F093
:103B500010042046FDF7A8F810BD10B51020FDF7A1
:103B60009DF8FDF7B4F8C4B204F0F70404F0FB04C8
:103B70002046FDF799F810BD10B51020FDF78EF81E
:103B8000FDF7A5F8C4B204F0F70444F0040420469D
:103B9000FDF78AF810BD10B51020FDF77FF8FDF78E
:103BA00096F8C4B244F008042046FDF77DF810BD35
:103BB00010B51120FDF772F8FDF789F8C4B204F0D2
:103BC000FD0404F0FE042046FDF76EF810BD10B5AC
:103BD0001120FDF763F8FDF77AF8C4B204F0FD0494
:103BE00044F001042046FDF75FF810BD10B5112028
:103BF000FDF754F8FDF76BF8C4B244F0020404F08A
:103C0000FE042046FDF750F810BD10B51120FDF759
:103C100045F8FDF75CF8C4B204F0F70404F0FB04C7
:103C20002046FDF741F810BD10B51120FDF736F81C
:103C3000FDF74DF8C4B204F0F70444F00404204644
:103C4000FDF732F810BD10B51120FDF727F8FDF78C
:103C50003EF8C4B244F0080404F0FB042046FDF72B
:103C600023F810BD10B51220FDF718F8FDF72FF856
:103C7000C4B204F07F042046FDF716F810BD10B55D
:103C80001220FDF70BF8FDF722F8C4B244F08004CF
:103C90002046FDF709F810BD10B51220FCF7FEFF15
:103CA000FDF715F8C4B244F040042046FCF7FCFFD1
:103CB00010BD10B51220FCF7F1FFFDF708F8C4B2F3
:103CC00004F0BF042046FCF7EFFF10BD10B5122032
:103CD000FCF7E4FFFCF7FBFFC4B244F020042046ED
:103CE000FCF7E2FF10BD10B51220FCF7D7FFFCF780
:103CF000EEFFC4B204F0DF042046FCF7D5FF10BD90
:103D000010B51220FCF7CAFFFCF7E1FFC4B204F0C3
:103D1000EF042046FCF7C8FF10BD10B51220FCF7D9
:103D2000BDFFFCF7D4FFC4B244F010042046FCF7FA
:103D3000BBFF10BD10B51220FCF7B0FFFCF7C7FFAA
:103D4000C4B204F0F7042046FCF7AEFF10BD10B576
:103D50001220FCF7A3FFFCF7BAFFC4B244F008043A
:103D60002046FCF7A1FF10BD10B51220FCF796FF0E
:103D7000FCF7ADFFC4B204F0F8042046FCF794FF52
:103D800010BD10B51220FCF789FFFCF7A0FFC4B2EC
:103D900004F0F80444F001042046FCF785FF10BD50
:103DA00010B51220FCF77AFFFCF791FFC4B204F0C3
:103DB000F80444F002042046FCF776FF10BD10B56D
:103DC0001220FCF76BFFFCF782FFC4B204F0F8048A
:103DD00044F0020444F001042046FCF765FF10BDE6
:103DE00010B51220FCF75AFFFCF771FFC4B204F0C3
:103DF000F80444F004042046FCF756FF10BD10B54B
:103E00001220FCF74BFFFCF762FFC4B204F0F80489
:103E100044F0040444F001042046FCF745FF10BDC3
:103E200010B51220FCF73AFFFCF751FFC4B244F082
:103E300007042046FCF738FF10BD10B51320FCF72F
:103E40002DFFFCF744FFC4B204F07F042046FCF7CA
:103E50002BFF10BD10B51320FCF720FFFCF737FF38
:103E6000C4B244F080042046FCF71EFF10BD10B51C
:103E70001320FCF713FFFCF72AFFC4B204F0BF04C1
:103E80002046FCF711FF10BD10B51320FCF706FF0C
:103E9000FCF71DFFC4B244F040042046FCF704FFC9
:103EA00010BD10B51320FCF7F9FEFCF710FFC4B2EB
:103EB00044F020042046FCF7F7FE10BD10B5132097
:103EC000FCF7ECFEFCF703FFC4B204F0DF0420466D
:103ED000FCF7EAFE10BD10B51320FCF7DFFEFCF77F
:103EE000F6FEC4B204F0EF042046FCF7DDFE10BD80
:103EF00010B51320FCF7D2FEFCF7E9FEC4B244F083
:103F000010042046FCF7D0FE10BD10B51320FCF7BE
:103F1000C5FEFCF7DCFEC4B204F0F7042046FCF753
:103F2000C3FE10BD10B51320FCF7B8FEFCF7CFFEA2
:103F3000C4B244F008042046FCF7B6FE10BD10B52C
:103F40001320FCF7ABFEFCF7C2FEC4B204F0FB0486
:103F50002046FCF7A9FE10BD10B51320FCF79EFE0D
:103F6000FCF7B5FEC4B244F004042046FCF79CFE06
:103F700010BD10B51320FCF791FEFCF7A8FEC4B2EB
:103F800004F0FD042046FCF78FFE10BD10B5132091
:103F9000FCF784FEFCF79BFEC4B244F0020420460A
:103FA000FCF782FE10BD10B51320FCF777FEFCF77E
:103FB0008EFEC4B204F0FE042046FCF775FE10BD70
:103FC00010B51320FCF76AFEFCF781FEC4B244F082
:103FD00001042046FCF768FE10BD70B504460D468E
:103FE000082C1DDA1420FCF759FE0020FCF75CFEBB
:103FF0001520FCF753FEE0B2FCF756FE681EC6B271
:104000001A20FCF74BFE3046FCF74EFE681EC0F34C
:1040100007261B20FCF742FE3046FCF745FE2BE04E
:104020002046E11704EB5171C910491ECEB214208D
:10403000FCF734FE3046FCF737FE2046E11704EB70
:104040005171C910A4EBC101CEB21520FCF726FEB8
:104050003046FCF729FE681EC6B21A20FCF71EFE89
:104060003046FCF721FE681EC0F307261B20FCF734
:1040700015FE3046FCF718FE70BD70B50446082CDE
:104080000CDA1620FCF70AFE0020FCF70DFE1720C4
:10409000FCF704FEE0B2FCF707FE1AE02046E11749
:1040A00004EB5171C910491ECDB21620FCF7F6FD84
:1040B0002846FCF7F9FD2046E11704EB5171C910C1
:1040C000A4EBC101CDB21720FCF7E8FD2846FCF7B0
:1040D000EBFD70BD70B50446082C06DA1820FCF71D
:1040E000DDFD0020FCF7E0FD0CE02046E11704EBCD
:1040F0005171C910491ECDB21820FCF7CFFD2846DA
:10410000FCF7D2FD70BD70B50446082C06DA192004
:10411000FCF7C4FD0020FCF7C7FD0CE02046E117CA
:1041200004EB5171C910491ECDB21920FCF7B6FD40
:104130002846FCF7B9FD70BD70B50446601EC5B2D7
:104140001C20FCF7ABFD2846FCF7AEFD1D20FCF75C
:10415000A5FD2812FCF7A8FD70BD70B50446601ED1
:10416000C5B21E20FCF79AFD2846FCF79DFD70BDE8
:1041700070B50446601EC5B21F20FCF78FFD2846AF
:10418000FCF792FD70BD10B50446E1B22020FEF7A9
:1041900001FEC4F307212120FEF7FCFDC4F3074113
:1041A0002220FEF7F7FD210E2320FEF7F3FD10BDC0
:1041B00010B50446E1B22420FEF7ECFD21122520C3
:1041C000FEF7E8FD10BD70B504460D46E1B22620AD
:1041D000FEF7E0FD21122720FEF7DCFDE9B22820E2
:1041E000FEF7D8FD29122920FEF7D4FD70BD70B569
:1041F00004460D46E1B22A20FEF7CCFD21122B2009
:10420000FEF7C8FDE9B22C20FEF7C4FD29122D20CF
:10421000FEF7C0FD70BD10B50446E1B22E20FEF7DA
:10422000B9FDC4F307212F20FEF7B4FDC4F3074105
:104230003020FEF7AFFD210E3120FEF7ABFD10BDA3
:1042400010B50446E1B23220FEF7A4FD211233205E
:10425000FEF7A0FD10BD70B504460D46E1B2342056
:10426000FEF798FD21123520FEF794FDE9B23620C5
:10427000FEF790FD29123720FEF78CFD70BD70B55A
:1042800004460D46E1B23820FEF784FD21123920A4
:10429000FEF780FDE9B23A20FEF77CFD29123B20B3
:1042A000FEF778FD70BD10B53C20FCF7F7FCFCF77D
:1042B0000EFDC4B244F010042046FCF7F5FC10BD1E
:1042C00010B53C20FCF7EAFCFCF701FDC4B204F099
:1042D000EF042046FCF7E8FC10BD10B53C20FCF7CD
:1042E000DDFCFCF7F4FCC4B204F0F70404F0FB04BA
:1042F0002046FCF7D9FC10BD10B53C20FCF7CEFCE5
:10430000FCF7E5FCC4B204F0F70444F004042046D2
:10431000FCF7CAFC10BD10B53C20FCF7BFFCFCF755
:10432000D6FCC4B244F0080404F0FB042046FCF7B9
:10433000BBFC10BD10B53C20FCF7B0FCFCF7C7FC83
:10434000C4B244F0080444F004042046FCF7ACFC7A
:1043500010BD10B53C20FCF7A1FCFCF7B8FCC4B2C2
:1043600044F002042046FCF79FFC10BD10B53C2031
:10437000FCF794FCFCF7ABFCC4B204F0FD0420464F
:10438000FCF792FC10BD10B53C20FCF787FCFCF755
:104390009EFCC4B244F001042046FCF785FC10BD2D
:1043A00010B53C20FCF77AFCFCF791FCC4B204F099
:1043B000FE042046FCF778FC10BD10B504463D20F5
:1043C000FCF76CFC2046FCF76FFC10BD70B5044692
:1043D0000D463E20FCF762FCE0B2FCF765FC3F2096
:1043E000FCF75CFCE8B2FCF75FFC70BD70B50446FE
:1043F0000D46E1B24020FEF7CDFC21124120FEF730
:10440000C9FCE9B24220FEF7C5FC29124320FEF7A1
:10441000C1FC70BD10B5044621464420FEF7BAFC2D
:1044200010BD10B5044621464520FEF7B3FC10BD73
:1044300010B50446E1B25020FEF7ACFCC4F30721EE
:104440005120FEF7A7FCC4F307415220FEF7A2FC5F
:10445000210E5320FEF79EFC10BD10B50446E1B2BC
:104460005420FEF797FC21125520FEF793FC10BD57
:1044700070B504460D46E1B25620FEF78BFC2112C2
:104480005720FEF787FCE9B25820FEF783FC29127B
:104490005920FEF77FFC70BD70B504460D46E1B2B1
:1044A0005A20FEF777FC21125B20FEF773FCE9B27D
:1044B0005C20FEF76FFC29125D20FEF76BFC70BDDF
:1044C00010B55E20FCF7EAFBFCF701FCC4B204F077
:1044D000F7042046FCF7E8FB10BD10B55E20FCF7A2
:1044E000DDFBFCF7F4FBC4B244F008042046FCF703
:1044F000DBFB10BD10B55E20FCF7D0FBFCF7E7FB43
:10450000C4B204F0FB042046FCF7CEFB10BD10B58E
:104510005E20FCF7C3FBFCF7DAFBC4B244F00404F2
:104520002046FCF7C1FB10BD10B55E20FCF7B6FBC2
:10453000FCF7CDFBC4B204F0FD0404F0FE042046F9
:10454000FCF7B2FB10BD10B55E20FCF7A7FBFCF733
:10455000BEFBC4B204F0FD0444F001042046FCF7A5
:10456000A3FB10BD10B55E20FCF798FBFCF7AFFB7A
:10457000C4B244F0020444F001042046FCF794FB6A
:1045800010BD70B504460D46E1B25F20FEF702FC97
:1045900021126020FEF7FEFBE9B26120FEF7FAFB74
:1045A00029126220FEF7F6FB70BD10B50446E1B299
:1045B0005F20FEF7EFFBC4F307216020FEF7EAFB64
:1045C000C4F307416120FEF7E5FB210E6220FEF7F0
:1045D000E1FB10BD70B504460D46E1B26320FEF765
:1045E000D9FB21126420FEF7D5FBE9B26520FEF766
:1045F000D1FB29126620FEF7CDFB70BD10B56720F8
:10460000FCF74CFB8020FCF74FFBFEF73DFC10BD98
:1046100010B56720FCF742FB8220FCF745FBFEF754
:1046200033FC10BD10B56720FCF738FBA220FCF767
:104630003BFBFEF729FC10BD70B504460D46682013
:10464000FCF72CFBE0B2FCF72FFB6920FCF726FB04
:104650002012FCF729FB6A20FCF720FBE8B2FCF7EC
:1046600023FB6B20FCF71AFB2812FCF71DFB70BD27
:1046700070B504460D466C20FCF710FBE0B2FCF769
:1046800013FB6D20FCF70AFB2012FCF70DFB6E20DC
:10469000FCF704FBE8B2FCF707FB6F20FCF7FEFA1F
:1046A0002812FCF701FB70BD70B504460D4668206A
:1046B000FCF7F4FAE0B2FCF7F7FA6920FCF7EEFA3F
:1046C0002012FCF7F1FA6A20FCF7E8FAE8B2FCF7EE
:1046D000EBFA6B20FCF7E2FA2812FCF7E5FA70BD62
:1046E00070B504460D466C20FCF7D8FAE0B2FCF732
:1046F000DBFA6D20FCF7D2FA2012FCF7D5FA6E2017
:10470000FCF7CCFAE8B2FCF7CFFA6F20FCF7C6FA58
:104710002812FCF7C9FA70BD70B504460D4670202A
:10472000FCF7BCFAE0B2FCF7BFFA7120FCF7B6FA6E
:104730002012FCF7B9FA7220FCF7B0FAE8B2FCF7E5
:10474000B3FA7320FCF7AAFA2812FCF7ADFA70BD91
:1047500070B504460D466820FCF7A0FAE0B2FCF7FD
:10476000A3FA6920FCF79AFA2012FCF79DFA6A2056
:10477000FCF794FAE8B2FCF797FA6B20FCF78EFA94
:104780002812FCF791FA70BD70B504460D466C20F6
:10479000FCF784FAE0B2FCF787FA6D20FCF77EFAAA
:1047A0002012FCF781FA6E20FCF778FAE8B2FCF7E9
:1047B0007BFA6F20FCF772FA2812FCF775FA70BDCD
:1047C00010B57620FCF76AFA8020FCF76DFAFEF748
:1047D0005BFB10BD10B57620FCF760FAC020FCF73B
:1047E00063FAFEF751FB10BD10B57620FCF756FAC0
:1047F0009020FCF759FAFEF747FB10BD10B5762064
:10480000FCF74CFA9120FCF74FFAFEF73DFB10BD88
:1048100010B57620FCF742FA9220FCF745FAFEF735
:1048200033FB10BD10B57620FCF738FA9320FCF767
:104830003BFAFEF729FB10BD10B57620FCF72EFAE7
:10484000D020FCF731FAFEF71FFB10BD10B5762023
:10485000FCF724FAD120FCF727FAFEF715FB10BD70
:1048600010B57620FCF71AFAD220FCF71DFAFEF7F5
:104870000BFB10BD10B57620FCF710FAD320FCF727
:1048800013FAFEF701FB10BD10B57620FCF706FA0F
:10489000A020FCF709FAFEF7F7FA10BD10B5762054
:1048A000FCF7FCF9E020FCF7FFF9FEF7EDFA10BD8C
:1048B00010B57620FCF7F2F9B020FCF7F5F9FEF719
:1048C000E3FA10BD10B57620FCF7E8F9F020FCF70C
:1048D000EBF9FEF7D9FA10BD70B504460D467B2002
:1048E000FCF7DCF9E0B2FCF7DFF97C20FCF7D6F945
:1048F0002012FCF7D9F97D20FCF7D0F9E8B2FCF7DB
:10490000D3F97E20FCF7CAF92812FCF7CDF970BD67
:1049100070B504460D467B20FCF7C0F9E0B2FCF709
:10492000C3F97C20FCF7BAF92012FCF7BDF97D2011
:10493000FCF7B4F9E8B2FCF7B7F97E20FCF7AEF962
:104940002812FCF7B1F970BD10B504467720FCF7CA
:10495000A5F9E0B2FCF7A8F97820FCF79FF920123E
:10496000FCF7A2F97920FCF799F9E0B2FCF79CF981
:104970007A20FCF793F92012FCF796F910BD70B578
:1049800004460D467720FCF789F9E0B2FCF78CF974
:104990007820FCF783F92012FCF786F97920FCF7E0
:1049A0007DF9E8B2FCF780F97A20FCF777F9281254
:1049B000FCF77AF970BD70B504460D467720FCF718
:1049C0006DF9E0B2FCF770F97820FCF767F9201276
:1049D000FCF76AF97920FCF761F9E8B2FCF764F9B1
:1049E0007A20FCF75BF92812FCF75EF970BD10B570
:1049F0000446601E84B28420FCF750F9E0B2FCF754
:104A000053F910BD10B58520FCF748F9FCF75FF9A4
:104A1000C4B204F07F0404F0BF042046FCF744F95C
:104A200010BD10B58520FCF739F9FCF750F9C4B278
:104A300004F07F0444F040042046FCF735F910BD33
:104A400010B58520FCF72AF9FCF741F9C4B244F00F
:104A5000800404F0BF042046FCF726F910BD10B511
:104A60008520FCF71BF9FCF732F9C4B244F080044E
:104A700044F040042046FCF717F910BD10B585201E
:104A8000FCF70CF9FCF723F9C4B204F0DF0404F0DE
:104A9000EF042046FCF708F910BD10B58520FCF79F
:104AA000FDF8FCF714F9C4B204F0DF0444F010047C
:104AB0002046FCF7F9F810BD10B58520FCF7EEF89C
:104AC000FCF705F9C4B244F0200404F0EF042046DA
:104AD000FCF7EAF810BD10B58520FCF7DFF8FCF70D
:104AE000F6F8C4B244F0200444F010042046FCF769
:104AF000DBF810BD10B58520FCF7D0F8FCF7E7F81F
:104B0000C4B204F0F7042046FCF7CEF810BD10B58F
:104B10008520FCF7C3F8FCF7DAF8C4B244F00804C7
:104B200004F0FB042046FCF7BFF810BD10B585204B
:104B3000FCF7B4F8FCF7CBF8C4B244F0080444F036
:104B400004042046FCF7B0F810BD10B58520FCF732
:104B5000A5F8FCF7BCF8C4B204F0FD042046FCF74D
:104B6000A3F810BD10B58520FCF798F8FCF7AFF856
:104B7000C4B244F0020404F0FE042046FCF794F8AA
:104B800010BD10B58520FCF789F8FCF7A0F8C4B279
:104B900044F0020444F001042046FCF785F810BDFF
:104BA00010B58620FCF77AF8FCF791F8C4B244F00F
:104BB00040042046FCF778F810BD10B58620FCF7BD
:104BC0006DF8FCF784F8C4B204F0BF042046FCF78B
:104BD0006BF810BD10B58620FCF760F8FCF777F88D
:104BE000C4B244F020042046FCF75EF810BD10B5B6
:104BF0008620FCF753F8FCF76AF8C4B204F0DF042F
:104C00002046FCF751F810BD10B58620FCF746F899
:104C1000FCF75DF8C4B244F010042046FCF744F8F9
:104C200010BD10B58620FCF739F8FCF750F8C4B277
:104C300004F0EF042046FCF737F810BD10B58620CD
:104C4000FCF72CF8FCF743F8C4B244F00804204603
:104C5000FCF72AF810BD10B58620FCF71FF8FCF70A
:104C600036F8C4B204F0F7042046FCF71DF810BD76
:104C700010B58620FCF712F8FCF729F8C4B244F00E
:104C800004042046FCF710F810BD10B58620FCF790
:104C900005F8FCF71CF8C4B204F0FB042046FCF74E
:104CA00003F810BD10B58620FBF7F8FFFCF70FF8EE
:104CB000C4B244F002042046FBF7F6FF10BD10B565
:104CC0008620FBF7EBFFFCF702F8C4B204F0FD040A
:104CD0002046FBF7E9FF10BD10B58620FBF7DEFF8D
:104CE000FBF7F5FFC4B244F001042046FBF7DCFFFC
:104CF00010BD10B58620FBF7D1FFFBF7E8FFC4B26B
:104D000004F0FE042046FBF7CFFF10BD10B50446AB
:104D10008720FBF7C3FF2046FBF7C6FF10BD10B589
:104D200004468820FBF7BAFFE0B2FBF7BDFF8920FD
:104D3000FBF7B4FF2012FBF7B7FF10BD10B5044618
:104D40008A20FBF7ABFFE0B2FBF7AEFF8B20FBF74F
:104D5000A5FF2012FBF7A8FF10BD10B504468C205C
:104D6000FBF79CFFE0B2FBF79FFF8D20FBF796FF60
:104D70002012FBF799FF10BD10B504468E20FBF7FB
:104D80008DFFE0B2FBF790FF8F20FBF787FF20122B
:104D9000FBF78AFF10BD10B59020FBF77FFFFBF7F4
:104DA00096FFC4B244F010042046FBF77DFF10BD0F
:104DB00010B59020FBF772FFFBF789FFC4B204F037
:104DC000EF042046FBF770FF10BD10B500BFFBF7E6
:104DD00077FF00F008010029F9D110BD10B590202F
:104DE000FBF75CFFFBF773FFC4B204F0FE04204640
:104DF000FBF75AFF10BD10B59020FBF74FFFFBF7F4
:104E000066FFC4B244F001042046FBF74DFF10BD1D
:104E100070B505469120FBF741FFFBF758FFC4B280
:104E200004F00F0444EA0510C4B22046FBF73CFF2F
:104E300070BD70B505469120FBF730FFFBF747FFCB
:104E4000C4B204F0F0042C432046FBF72DFF70BDE4
:104E500010B59220FBF722FFFBF739FFC4B204F034
:104E6000BF0404F0DF042046FBF71EFF10BD10B5A1
:104E70009220FBF713FFFBF72AFFC4B204F0BF0434
:104E800044F020042046FBF70FFF10BD10B5922020
:104E9000FBF704FFFBF71BFFC4B244F040042046BD
:104EA000FBF702FF10BD10B59220FBF7F7FEFBF7F2
:104EB0000EFFC4B204F0EF0404F0F70404F0FB04A6
:104EC0002046FBF7F1FE10BD10B59220FBF7E6FE81
:104ED000FBF7FDFEC4B204F0EF0404F0F70444F065
:104EE00004042046FBF7E0FE10BD10B59220FBF74E
:104EF000D5FEFBF7ECFEC4B204F0EF0444F0080466
:104F000004F0FB042046FBF7CFFE10BD10B5922045
:104F1000FBF7C4FEFBF7DBFEC4B204F0EF0444F081
:104F2000080444F004042046FBF7BEFE10BD10B593
:104F30009220FBF7B3FEFBF7CAFEC4B244F01004A4
:104F400004F0F70404F0FB042046FBF7ADFE10BDAF
:104F500010B59220FBF7A2FEFBF7B9FEC4B244F0F5
:104F6000100404F0F70444F004042046FBF79CFE10
:104F700010BD10B59220FBF791FEFBF7A8FEC4B25E
:104F800004F0FD0404F0FE042046FBF78DFE10BD86
:104F900010B59220FBF782FEFBF799FEC4B204F035
:104FA000FD0444F001042046FBF77EFE10BD10B561
:104FB0009220FBF773FEFBF78AFEC4B244F00204B2
:104FC0002046FBF771FE10BD10B50446E1B29320F8
:104FD000FDF7E0FEC4F307219420FDF7DBFEC4F3E8
:104FE00007419520FDF7D6FE210E9620FDF7D2FE53
:104FF00010BD10B50446E1B29720FDF7CBFE21129B
:105000009820FDF7C7FE10BD70B504460D46E1B20D
:105010009920FDF7BFFE21129A20FDF7BBFEE9B2F1
:105020009B20FDF7B7FE29129C20FDF7B3FE70BD53
:1050300010B50446E1B29D20FDF7ACFEC4F3072194
:105040009E20FDF7A7FEC4F307419F20FDF7A2FEB7
:10505000210EA020FDF79EFE10BD10B504469D2038
:10506000FBF71CFE2046FBF71FFE9E20FBF716FEFB
:10507000E106080EFBF718FE9F20FBF70FFEA107C5
:10508000080EFBF711FE10BD10B504469D20FBF77E
:1050900005FE2012FBF708FE9E20FBF7FFFDC4F380
:1050A000C700FBF701FE9F20FBF7F8FDE106080EA5
:1050B000FBF7FAFD10BD10B504469D20FBF7EEFD91
:1050C000C4F30740FBF7F0FD9E20FBF7E7FDC4F3B8
:1050D0000720FBF7E9FD9F20FBF7E0FDE0B2FBF7BF
:1050E000E3FD10BD10B50446E1B2A120FDF752FE6C
:1050F0002112A220FDF74EFE10BD70B504460D46EC
:10510000E1B2A320FDF746FE2112A420FDF742FEE6
:10511000E9B2A520FDF73EFE2912A620FDF73AFED2
:1051200070BD10B50446E1B2A720FDF733FEC4F30D
:105130000721A820FDF72EFEC4F30741A920FDF7A3
:1051400029FE210EAA20FDF725FE10BD10B504464C
:10515000E1B2AB20FDF71EFE2112AC20FDF71AFED6
:1051600010BD70B504460D46E1B2AD20FDF712FE4C
:105170002112AE20FDF70EFEE9B2AF20FDF70AFEC8
:105180002912B020FDF706FE70BD70B504460D462D
:10519000E1B2B120FDF7FEFD2112B220FDF7FAFDCC
:1051A000E9B2B320FDF7F6FD2912B420FDF7F2FDB8
:1051B00070BD10B50446B520FBF770FD2046FBF727
:1051C00073FD10BD10B5B620FBF768FDFBF77FFD42
:1051D000C4B244F001042046FBF766FD10BD10B5D3
:1051E000B620FBF75BFD00BFFBF771FD00F001008F
:1051F0000028F9D110BD10B5B720FBF74FFDFBF724
:1052000066FDC4B204F07F042046FBF74DFD10BDDF
:1052100010B5B720FBF742FDFBF759FDC4B244F0CF
:1052200080042046FBF740FD10BD10B5B720FBF70A
:1052300035FDFBF74CFDC4B204F0BF042046FBF77C
:1052400033FD10BD10B5B720FBF728FDFBF73FFD80
:10525000C4B244F040042046FBF726FD10BD10B553
:10526000B720FBF71BFDFBF732FDC4B204F0DF04EF
:105270002046FBF719FD10BD10B5B720FBF70EFD5A
:10528000FBF725FDC4B244F020042046FBF70CFDDB
:1052900010BD10B5B720FBF701FDFBF718FDC4B238
:1052A00004F0EF042046FBF7FFFC10BD10B5B7205B
:1052B000FBF7F4FCFBF70BFDC4B244F010042046EE
:1052C000FBF7F2FC10BD10B5B720FBF7E7FCFBF7CE
:1052D000FEFCC4B204F0F3042046FBF7E5FC10BD6D
:1052E00010B5B720FBF7DAFCFBF7F1FCC4B204F011
:1052F000F30444F004042046FBF7D6FC10BD10B5BF
:10530000B720FBF7CBFCFBF7E2FCC4B204F0F304DC
:1053100044F008042046FBF7C7FC10BD10B5B720C9
:10532000FBF7BCFCFBF7D3FCC4B244F00C042046F2
:10533000FBF7BAFC10BD10B5B720FBF7AFFCFBF7CD
:10534000C6FCC4B204F0FC042046FBF7ADFC10BD63
:1053500010B5B720FBF7A2FCFBF7B9FCC4B204F010
:10536000FC0444F002042046FBF79EFC10BD10B57F
:10537000B720FBF793FCFBF7AAFCC4B244F003048C
:105380002046FBF791FC10BD10B5BA20FBF786FC58
:10539000FBF79DFC00F02000202801D1012010BD6A
:1053A0000020FCE710B500BFFFF7EEFF0128FBD09F
:1053B000B820FBF773FCFBF78AFCC4B2204610BD93
:1053C00010B5BA20FBF76AFCFBF781FC00F0800007
:1053D000802801D1012010BD0020FCE770B50446F3
:1053E000B820FBF75BFC2046FBF75EFC00BFFFF735
:1053F000E7FF0028FBD0FFF7D5FF0546284670BD24
:1054000010B5B920FBF74AFCFBF761FCC4B244F0CD
:1054100040042046FBF748FC10BD10B5B920FBF74F
:105420003DFCFBF754FCC4B204F0DF042046FBF75C
:105430003BFC10BD10B5B920FBF730FCFBF747FC77
:10544000C4B244F020042046FBF72EFC10BD10B57A
:10545000B920FBF723FCFBF73AFCC4B204F0EF04DD
:105460002046FBF721FC10BD10B5B920FBF716FC58
:10547000FBF72DFCC4B244F010042046FBF714FCEB
:1054800010BD10B5B920FBF709FCFBF720FCC4B236
:1054900044F008042046FBF707FC10BD10B5B92006
:1054A000FBF7FCFBFBF713FCC4B244F004042046FA
:1054B000FBF7FAFB10BD10B5B920FBF7EFFBFBF7CC
:1054C00006FCC4B204F0FD042046FBF7EDFB10BD62
:1054D00010B5B920FBF7E2FBFBF7F9FBC4B244F0CF
:1054E00002042046FBF7E0FB10BD10B5B920FBF726
:1054F000D5FBFBF7ECFBC4B204F0FE042046FBF73F
:10550000D3FB10BD10B5B920FBF7C8FBFBF7DFFBE1
:10551000C4B244F001042046FBF7C6FB10BD10B531
:10552000BA20FBF7BBFBFBF7D2FB00F040004028A2
:1055300001D1012010BD0020FCE710B5BA20FBF717
:10554000ADFBFBF7C4FB00F01000102801D10120D7
:1055500010BD0020FCE710B5BA20FBF79FFBFBF75E
:10556000B6FB00F00800082801D1012010BD002082
:10557000FCE710B5BA20FBF791FBFBF7A8FBC4B220
:1055800044F008042046FBF78FFB10BD10B5BA208D
:10559000FBF784FBFBF79BFB00F00400042801D120
:1055A000012010BD0020FCE710B5BA20FBF776FB08
:1055B000FBF78DFBC4B244F004042046FBF774FBF8
:1055C00010BD10B50446BB20FBF768FB2046FBF777
:1055D0006BFB10BD10B50446BC20FBF75FFBE0B2CF
:1055E000FBF762FBBD20FBF759FBC4F30720FBF779
:1055F0005BFBBE20FBF752FBC4F30740FBF754FBF9
:10560000BF20FBF74BFB200EFBF74EFB10BD10B588
:105610000446C020FBF742FBE0B2FBF745FBC1208C
:10562000FBF73CFBC4F30720FBF73EFBC220FBF774
:1056300035FBC4F30740FBF737FBC320FBF72EFB1A
:10564000200EFBF731FB10BD70B504460D46C0209F
:10565000FBF724FBE0B2FBF727FBC120FBF71EFBA7
:105660002012FBF721FBC220FBF718FBE8B2FBF787
:105670001BFBC320FBF712FB2812FBF715FB70BDC9
:1056800010B50446C620FBF709FBE0B2FBF70CFBA4
:10569000C720FBF703FBC4F30720FBF705FBC8207B
:1056A000FBF7FCFAC4F30740FBF7FEFAC920FBF74F
:1056B000F5FA200EFBF7F8FA10BD70B504460D465A
:1056C000C620FBF7EBFAE0B2FBF7EEFAC720FBF7D8
:1056D000E5FA2012FBF7E8FAC820FBF7DFFAE8B298
:1056E000FBF7E2FAC920FBF7D9FA2812FBF7DCFA3C
:1056F00070BD10B50446CA20FBF7D0FAE0B2FBF744
:10570000D3FACB20FBF7CAFA2012FBF7CDFA10BD73
:1057100010B5CC20FBF7C2FAFBF7D9FAC4B244F0BB
:10572000800404F0BF042046FBF7BEFA10BD10B59C
:10573000CC20FBF7B3FAFBF7CAFAC4B204F07F043B
:1057400004F0BF042046FBF7AFFA10BD10B5CC2023
:10575000FBF7A4FAFBF7BBFAC4B204F07F0444F0F1
:1057600040042046FBF7A0FA10BD10B5CC20FBF793
:1057700095FAFBF7ACFAC4B204F0DF0404F0EF04CE
:105780002046FBF791FA10BD10B5CC20FBF786FA46
:10579000FBF79DFAC4B204F0DF0444F01004204685
:1057A000FBF782FA10BD10B5CC20FBF777FAFBF7B8
:1057B0008EFAC4B244F0200404F0EF042046FBF754
:1057C00073FA10BD10B5CC20FBF768FAFBF77FFA2F
:1057D000C4B204F0FD0404F0FE042046FBF764FAB2
:1057E00010BD10B5CC20FBF759FAFBF770FAC4B224
:1057F00004F0FD0444F001042046FBF755FA10BD07
:1058000010B5CC20FBF74AFAFBF761FAC4B244F0BA
:10581000020404F0FE042046FBF746FA10BD10B562
:10582000CC20FBF73BFAFBF752FAC4B244F0020477
:1058300044F001042046FBF737FA10BD10B5CD2027
:10584000FBF72CFAFBF743FAC4B244F0800420467D
:10585000FBF72AFA10BD10B5CD20FBF71FFAFBF7B6
:1058600036FAC4B204F07F042046FBF71DFA10BDDF
:1058700010B5CD20FBF712FAFBF729FAC4B244F0B9
:1058800040042046FBF710FA10BD10B5CD20FBF701
:1058900005FAFBF71CFAC4B204F0BF042046FBF77C
:1058A00003FA10BD10B5CD20FBF7F8F9FBF70FFA9E
:1058B000C4B204F0EF042046FBF7F6F910BD10B5B2
:1058C000CD20FBF7EBF9FBF702FAC4B244F0100469
:1058D0002046FBF7E9F910BD10B5CD20FBF7DEF946
:1058E000FBF7F5F9C4B204F0F70404F0FB0420461A
:1058F000FBF7DAF910BD10B5CD20FBF7CFF9FBF7B8
:10590000E6F9C4B204F0F70444F004042046FBF7BF
:10591000CBF910BD10B5CD20FBF7C0F9FBF7D7F9D7
:10592000C4B244F0080404F0FB042046FBF7BCF9C1
:1059300010BD10B5CD20FBF7B1F9FBF7C8F9C4B223
:1059400044F0080444F004042046FBF7ADF910BD10
:1059500010B5CD20FBF7A2F9FBF7B9F9C4B204F0FA
:10596000FD0404F0FE042046FBF79EF910BD10B5BF
:10597000CD20FBF793F9FBF7AAF9C4B204F0FD04BC
:1059800044F001042046FBF78FF910BD10B5CD207F
:10599000FBF784F9FBF79BF9C4B244F0020404F06E
:1059A000FE042046FBF780F910BD10B5CD20FBF7B3
:1059B00075F9FBF78CF9C4B244F0020444F0010419
:1059C0002046FBF771F910BD10B5CE20FBF766F944
:1059D000FBF77DF9C4B204F07F0404F0BF0404F0C7
:1059E000DF042046FBF760F910BD10B5CE20FBF7B1
:1059F00055F9FBF76CF9C4B204F07F0404F0BF045E
:105A000044F020042046FBF74FF910BD10B5CE201E
:105A1000FBF744F9FBF75BF9C4B204F07F0444F0F0
:105A2000400404F0DF042046FBF73EF910BD10B53A
:105A3000CE20FBF733F9FBF74AF9C4B204F07F0438
:105A400044F0400444F020042046FBF72DF910BD3B
:105A500010B5CE20FBF722F9FBF739F9C4B244F0B8
:105A6000800404F0BF0404F0DF042046FBF71CF9B7
:105A700010BD10B5CE20FBF711F9FBF728F9C4B221
:105A800044F0800404F0BF0444F020042046FBF7F7
:105A90000BF910BD10B5CE20FBF700F9FBF717F995
:105AA000C4B244F0800444F0400404F0DF04204613
:105AB000FBF7FAF810BD10B5CE20FBF7EFF8FBF7B7
:105AC00006F9C4B244F0800444F0400444F02004D9
:105AD0002046FBF7E9F810BD10B50446CF20FBF7D0
