:020000040800F2
:10800000E823002005810008098100080B81000891
:108010000D8100080F810008118100080000000098
:1080200000000000000000000000000013810008B4
:108030001581000800000000178100081981000860
:108040001B8100081B8100081B8100081B810008A0
:108050001B8100081B8100081B8100081B81000890
:108060001B8100081B8100081B8100081B81000880
:108070001B8100081B8100081B8100081B81000870
:108080001B8100081B8100081B8100081B81000860
:108090001B8100081B8100081B810008F1C5000836
:1080A0001B8100081B8100081B8100081B81000840
:1080B0001B8100081B8100081B8100081B81000830
:1080C0001B8100081B8100081B8100081B81000820
:1080D0001B8100081B8100081B8100081B81000810
:1080E0001B8100081B8100081B810008DFF810D0ED
:1080F00000F0EAFB00480047DD4D0108AFF30080C7
:10810000E823002005480047FEE7FEE7FEE7FEE71C
:10811000FEE7FEE7FEE7FEE7FEE7FEE7ED8000088C
:108120000649074A0868504343F239021044086080
:108130004008704701490860704700008401002032
:108140006D4EC641F0B480EA0102D40F4200B2EB9A
:10815000410F02D20246084611464A0042D0C30DE2
:10816000DDB2C1F3C752AD1A202D35DAC1F31601C5
:1081700041F4000204B15242C5F1200602FA06F1B0
:108180002A411044B3EBD05F23D0C4B1012DA0EB42
:10819000C35009DCF0BC4FF0004202EAC352DBB22C
:1081A00000F5000000F005BB400000F1807000EB1E
:1081B000C350A0F1807040EAD170490009E049083D
:1081C00041EAC071A0EBC35000F50000400800EB8D
:1081D000C350F0BC00F0E4BA6142012202EB41015D
:1081E000001BF6E7F0BC704781F00041AAE780F081
:1081F0000040A7E780EA010210B502F0004340000A
:1082000022D04A001FD0010E01EB1261C0F35600CC
:10821000C2F3560240F4000042F40002A0FB022028
:1082200000047F39140400D0401C50EA124001D4ED
:108230004000491EC2B20C0604EBD010401C40089E
:10824000802A02D003E0002010BD20F001000029A8
:1082500000DA0020184310BD2DE9FE4F804681EA68
:108260000300C00F0C46009021F0004123F00045B0
:10827000B8EB0200A94105D24046214690461C4673
:108280000B46024623F00040104347D0270DC7F3AA
:108290000A00C3F30A510290401A019040286BDA99
:1082A000C3F3130040F4801B0098924620B10023D2
:1082B000D2EB030A63EB0B0B01985946C0F1400265
:1082C000504600F03CFA06460D4650465946019A83
:1082D00000F054FA10EB08006141002487EA1152C3
:1082E00084EAE7731A4340D0009A62B3019A012AE4
:1082F0004FEA075215DC001B61EB02014FF0004210
:1083000002EA0752CDE90042001C41F580113246D5
:108310002B4600F08BFA03B0BDE8F08F40462146B3
:10832000F9E7001B61EB0201001C41F58013001806
:108330005B412018A2F5001747EB030140EAD57016
:10834000B6196D4111E06D084FEA360645EAC07571
:108350004FEA0752001B61EB0201001C41F580113E
:1083600049084FEA30000019514132462B4603B00C
:10837000BDE8F04F00F04BBA009801224000002306
:10838000D0EB020263EBE073009821464FEAE07401
:10839000B8EB000061EB0401E9E783F000435BE721
:1083A00081F0004158E72DE9FE4F81EA030404F013
:1083B000004421F0004100944FF0000B23F00043F3
:1083C00050EA01045ED052EA03045BD0C3F30A54BE
:1083D000C1F30A552C44A4F2F3340194A0FB0254D7
:1083E000C1F3130141F48011C3F3130343F4801369
:1083F00001FB024400FB034E840A970A44EA8154BD
:1084000047EA8357A4FB076802958D0A05FB078599
:108410004FEA932C04FB0C542705029D4FEA0658A3
:1084200047EA1637B5EB08056EEB070C870E920E80
:1084300047EA811742EA8312A7FB0201B6EB0B0160
:1084400064EB00042B0D43EA0C335E1844EB1C5024
:10845000DA465146E7FB0201C5F313044FEA0B333A
:1084600043EA14534FEA0432019C43EA0603A4F1A1
:108470000C040294009CCDE900B400F0D7F903B0DD
:10848000BDE8F08F00200146F9E72DE9F04D81EAC3
:10849000030404F0004B21F0004514464FF0000A9D
:1084A00023F0004150EA050220D054EA01021DD019
:1084B000C5F30A570246C5F31303C1F31300C1F312
:1084C0000A5640F4801543F48013A7EB0608101BEE
:1084D000D64608F2FD3873EB050002D308F1010817
:1084E00001E092185B41B8F1000F03DA0020014669
:1084F000BDE8F08D00204FF48011064684460EE062
:10850000171B73EB050705D3121B63EB050306432B
:108510004CEA010C49084FEA300092185B4150EADE
:108520000107EDD152EA030012D082EA040083EA87
:108530000501084305D0101BAB4106D201220023E0
:1085400006E000224FF0004302E06FF001025310FA
:108550001AEB06004CEB085110EB0A0041EB0B0143
:10856000BDE8F04D00F053B996230022114600F00B
:1085700020B90EB5C10F80EAE0700844CA07002197
:1085800040F233438DE80E000A460B4600F04EF9E8
:1085900003B000BD0EB540F2334102910021CDE998
:1085A00000110A460B4600F041F903B000BD20F06F
:1085B0000040C10DC0F3160040F400007F2901DA2D
:1085C00000207047962903DCC1F19601C84070472E
:1085D000963988407047C1F30A5210B5C1F31301B0
:1085E00040F2FF3341F480119A4201DA002010BDBD
:1085F00040F233439A42A2F2334203DC524200F08B
:10860000ADF810BD904010BD00F0004230F00040C9
:108610000AD0C10D01F56071C0F3160042EA0151A4
:10862000C208400711437047002001467047000010
:1086300030B5041E71F1000404DB4FF000444042E9
:1086400064EB0101141E73F1000405DB1C464FF0BE
:108650000043524263EB04038B4208BF824230BDA9
:1086600030B5041E71F1000404DB4FF000444042B9
:1086700064EB0101141E73F1000405DB1C464FF08E
:108680000043524263EB0403994208BF904230BD5D
:1086900001F0004330B421F0004150EA010206D05D
:1086A0000A0DA2F56072C1F31301002A02DC30BC8E
:1086B00000207047440F44EAC104C100E01830BCF8
:1086C00000EBC25000F06CB8002801DBC0F10040A4
:1086D000002901DBC1F10041814270472DE9F05FC3
:1086E0000546002092469B46884606468146402421
:1086F0001BE0284641464746224600F02FF85346E5
:108700005A46C01A914110D311461846224600F02D
:1087100016F82D1A67EB01084F462246012000216A
:1087200000F00DF817EB00094E41201EA4F10104E2
:10873000DFDC484631462A464346BDE8F09F202A02
:1087400004DB203A00FA02F1002070479140C2F1A8
:10875000200320FA03F3194390407047202A04DBDA
:10876000203A21FA02F00021704721FA02F3D040AA
:10877000C2F120029140084319467047202A06DBC7
:10878000CB17203A41FA02F043EAE07306E041FADF
:1087900002F3D040C2F120029140084319467047CD
:1087A0000029A8BF7047401C490008BF20F0010005
:1087B000704710B4B0FA80FC00FA0CF050EA0104E3
:1087C00004BF10BC704749B1CCF1200421FA04F475
:1087D00011FA0CF118BF012121430843A3EB0C014E
:1087E000CB1D4FEA00614FEA102042BF002010BCB1
:1087F000704700EBC35010440029A4BF10BC704761
:10880000401C490008BF20F0010010BC704710B5A3
:10881000141E73F1000408DA401C41F100019218A3
:108820005B411A4301D120F0010010BD2DE9F04D4C
:1088300092469B4611B1B1FA81F202E0B0FA80F2A1
:1088400020329046FFF77BFF04460F4640EA0A00BD
:1088500041EA0B0153465A46084313D0114653EAE6
:10886000010019D0C8F140025046FFF777FF0546D6
:108870000E46504659464246FFF761FF084305D071
:10888000012004E020463946BDE8F08D0020054374
:1088900046EAE0762C4337430A986305E40AA0EBE6
:1088A00008000022FD0A44EA47540A3002D500209D
:1088B0000146E9E7010510196941DDE9084500199C
:1088C0006941BDE8F04DA2E7064C074D06E0E068BF
:1088D00040F0010394E8070098471034AC42F6D307
:1088E000FFF708FC085601082856010870B521F06A
:1088F000004303430CD0C1F30A550024D5EB040513
:1089000064EB0403D617AD1AB34102DB0020014625
:1089100070BD201841EB025170BD70B5C1F30A5211
:1089200001F000450024C1F3130140F2FF3341F48C
:1089300080119A4201DA002070BD40F233439A421E
:10894000A2F2334203DC5242FFF708FF00E09040FE
:108950002C43F1D0404270BD70B58C1810F8015B0B
:1089600015F0070301D110F8013B2A1106D110F8C8
:10897000012B03E010F8016B01F8016B5B1EF9D1CC
:108980002B0705D40023521E0DD401F8013BFAE752
:1089900010F8013BCB1A921C03E013F8015B01F8BD
:1089A000015B521EF9D5A142D8D3002070BD70B52D
:1089B00004460D46E1B25A2004F0F8FE21125B2075
:1089C00004F0F4FEE9B25C2004F0F0FE29125D2010
:1089D00004F0ECFE70BD70B504460D46E1B25620C1
:1089E00004F0E4FE2112572004F0E0FEE9B2582022
:1089F00004F0DCFE2912592004F0D8FE70BD0000FE
:108A000010B58CB008F078FF4E4806F087FE4FF4A2
:108A1000487006F098FE0021084606F09FFE49487F
:108A200001F02AFA4FF4487001F03BFA00210846A1
:108A3000FFF7D1FF4FF4F0714FF44870FFF7B7FF25
:108A400040F21F504FF4F0734FF448720021009031
:108A5000084605F068FB3C484FF448714FF4F0724B
:108A6000CDE9001213460022CDE902101146012083
:108A700004F089FF35484FF448714FF4F072CDE9A6
:108A8000001253000022CDE902101146012004F02B
:108A90007AFF56E0002421E0E0B24FF4F0714FF489
:108AA00048720023CDE90732CDE909101146254A65
:108AB000CDE90332CDE905134FF44871234ACDE9DE
:108AC000011300921A46204800F060FC642008F070
:108AD000CDFA012801D10CB010BD641C202CDBD3D1
:108AE000642008F0C3FA012800D1F4E7202420E034
:108AF000E0B24FF4F0714FF448720023CDE9073231
:108B0000CDE9091011460F4ACDE90332CDE905132D
:108B10004FF448710D4ACDE9011300921A460A48F4
:108B200000F034FC642008F0A1FA012800D1D2E75B
:108B3000641E002CDCD1642008F098FA012800D1D2
:108B4000C9E7A7E700B80B00007017000028230052
:108B500010B594B0002010900E900C9008F0CCFE50
:108B6000FE4806F0DBFD4FF4487006F0ECFDFB48D4
:108B700001F082F94FF4487001F093F900210846A2
:108B8000FFF729FF4FF4F0714FF44870FFF70FFF24
:108B90000021084606F0E2FD40F21F504FF4F0734A
:108BA0004FF4487200210090084605F0BCFAEC48EA
:108BB00001F062F900204FF4F0734FF4487201465F
:108BC000009005F0B0FA0020139011E046F20C304E
:108BD0000090139880B20B90139880B240F2DF138C
:108BE0000A9000210B9A05F08DF8139832301390FB
:108BF0001398B0F5C97FE9D30020139012E046F234
:108C00000C300090139880B20B90139880B20A90A9
:108C10004FF4C872014600200B9B05F073F81398BF
:108C2000323013901398B0F5F07FE8D9CD4801F0B9
:108C300023F9CB484FF448714FF4F072CDE900129C
:108C400000231A46CDE902101946012004F09BFECC
:108C5000C54801F011F9C3484FF448714FF4F07260
:108C6000CDE9001200231A46CDE902101946012071
:108C700004F089FEBD4801F0FFF800204FF4487170
:108C80004FF4F072CDE9001203460246CDE902101E
:108C90000146012004F077FE4FF4F07040F291118C
:108CA0000C220023CDE90732CDE9091070204FF4E2
:108CB0004871AA4ACDE90332CDE905105200CDE949
:108CC000011300921A46A64804F0A8FDA34801F03B
:108CD000D3F83CE2002012909AE0002013908FE03D
:108CE0004FF4F07002210C220023CDE90732CDE9C8
:108CF00009101398703080B24FF44871974ACDE94B
:108D00000332CDE905105200CDE90113009213980A
:108D100080B202460B90924804F080FD10981190AA
:108D2000FFF7FEF95A2190FBF1F201FB12001090BF
:108D30000E980F90FFF7F4F9632290FBF2F102FB1B
:108D400011000E900C980D90FFF7EAF9432190FB6B
:108D5000F1F201FB12000C904FF6E07000901098B9
:108D60001E3080B20B901398713080B20A90119827
:108D70001E3080B209901398703080B2089009A913
:108D80000EC904F0BFFF4FF61F0000900E98D230BE
:108D900080B20B901398713080B20A900F98D23045
:108DA00080B209901398703080B2089009A90EC95A
:108DB00004F0A8FF4FF4FC6000900C9800F5C3701D
:108DC00080B20B901398713080B20A900D9800F524
:108DD000C37080B209901398703080B2089009A9CE
:108DE0000EC904F08FFF64200BF0B4FF012008F0DF
:108DF0003DF9012801D114B010BD1398801C1390C7
:108E00001398B0F5C87FFFF46BAF1298401C129016
:108E100012980528FFF461AF0020139035E04FF45D
:108E2000F07032210C220023CDE90732CDE9091080
:108E3000139800EBC00101EB00114FF6FF7000EA40
:108E400041004FF44871454ACDE90332CDE90510A0
:108E50000A4644488DE80D00139800EBC00101EB71
:108E600000104FF6FF7101EA400002464FF44871CE
:108E70000B903C4804F0D2FC642008F0F7F801287D
:108E800000D1B8E71398801C139013981028C6D30C
:108E90000020139034E04FF4F07032210C220023B4
:108EA000CDE90732CDE90910139800EBC00101EBC1
:108EB0000010322101EB400080B20901274ACDE9C0
:108EC0000332CDE905100020264ACDE900210290A9
:108ED000139800EBC00101EB0010322101EB4000C0
:108EE00080B2024609010B901E4804F097FC6420F2
:108EF00008F0BCF8012800D17DE71398801C13907E
:108F000013981028C7D30120139042E04FF4F0705B
:108F100032210C220023CDE90732CDE90910139844
:108F200000EBC00101EB00114FF44870A0EB4100D1
:108F300080B24FF44871094ACDE90332CDE90510FA
:108F400000209200CDE900210290139800EBC001AF
:108F500001EB00104FF448710AE0000000B80B006C
:108F6000007017000028230000E02E0000983A004F
:108F7000A1EB400080B202460B90754804F04EFC15
:108F8000642008F073F8012800D134E71398401CDE
:108F9000139013981128B9D30020139067E0139809
:108FA00000F0010068BB4FF4F07232230C20002166
:108FB000CDE90932CDE90710139800EBC00101EBB0
:108FC00000114FF6FF7000EA41001901614A0023C9
:108FD000CDE90332CDE905105F4ACDE901130092D6
:108FE000139800EBC00101EB00104FF6FF7101EA8E
:108FF000400002464FF448710B90574804F00EFCB5
:109000002CE04FF4F07032210C220023CDE907321E
:10901000CDE90910139800EBC00101EB00104FF6E9
:10902000FF7101EA40004FF448714A4ACDE903322A
:10903000CDE90510494ACDE901130092139800EBE0
:10904000C00101EB00114FF6FF7000EA410002463B
:109050004FF448710B90414804F0E0FB642008F0A5
:1090600005F8012800D1C6E61398401C1390139808
:10907000102894D30020139038E0139800F00100DA
:1090800058BB30214FF448720C23139800EBC004F6
:1090900004EB00104FF6FF7404EA4000CDE90832FB
:1090A0000A910790002011462A4ACDE90302CDE932
:1090B00005104FF448719200CDE9002102901398F9
:1090C00000EB4000214601EA0010034600224FF465
:1090D00048710B901E4804F0A1FB642007F0C6FF06
:1090E000012800D187E61398401C139013980A2892
:1090F000C3D3642007F0BAFF012800D17BE640F219
:109100001F504FF4F0734FF448720021009008464E
:1091100005F009F84FF4F07040F291110C22002391
:10912000CDE90732CDE9091070204FF44871094AA2
:10913000CDE90332CDE90510084651001A46CDE9C4
:10914000010300914FF44871054804F067FBC1E545
:1091500000E02E0000B80B000028230000983A0021
:10916000007017007FB508F0C7FB854806F0D6FAF7
:109170004FF4C86006F0E7FA814800F07DFE4FF436
:10918000C86000F08EFE00210846FFF724FC4FF473
:10919000F0714FF44870FFF70AFC0021084606F012
:1091A000DDFA40F21F504FF4F0734FF44872002183
:1091B0000090084604F0B7FF00204FF448714FF4C8
:1091C000F072CDE9001203460246CDE902100146D5
:1091D000012004F0D8FB6A484FF448714FF4F07254
:1091E000CDE9001200230A46CDE9021019460120FC
:1091F00004F0C9FB63484FF448714FF4F072CDE9B5
:10920000001213460022CDE902101146012004F09D
:10921000BAFB5D484FF448714FF4F072CDE900128B
:1092200013460A46CDE902100021012004F0ABFBF1
:10923000A5E00021084606F091FA642007F016FF29
:10924000012801D104B070BD00214FF4487006F030
:1092500085FA642007F00AFF012800D1F2E74FF4F5
:10926000F071002006F07AFA642007F0FFFE012872
:1092700000D1E7E74FF4F0714FF4487006F06EFA52
:10928000642007F0F3FE012800D1DBE70021084647
:1092900006F064FA642007F0E9FE012800D1D1E766
:1092A00000240DE0A0B2002106F058FA01200BF0D6
:1092B0002BFD012007F0DAFE012800D1C2E7641C73
:1092C000B4F5487FEED9C82007F096FE08B101201A
:1092D000B8E700250EE0A9B24FF4487006F03EFA58
:1092E00001200BF011FD012007F0C0FE012800D184
:1092F000A8E76D1CB5F5F07FEDD9C82007F07CFE1E
:1093000008B101209EE74FF448740EE0A0B24FF47C
:10931000F07106F023FA01200BF0F6FC012007F0B3
:10932000A5FE012800D18DE7641E002CEED14FF47C
:10933000F071002006F012FA012007F097FE0128D4
:1093400000D17FE74FF4F0750DE0A9B2002006F0E0
:1093500005FA01200BF0D8FC012007F087FE012858
:1093600000D16FE76D1E002DEFD10021084606F0F9
:10937000F5F9012007F07AFE012800D162E758E7ED
:1093800000B80B0000701700002823002DE9F05FE3
:1093900007460C4615461E46DDE90CABDDE90A8999
:1093A00000F0ABF800F0FBF800F037F8384600F0BA
:1093B000CDF8204600F0BFF83146284600F0DBF833
:1093C000404600F008F9484600F0FAF85946504681
:1093D00000F016F90E9800F03AF80F9800F02CF80B
:1093E000DDE9100100F048F8DDE9120100F042F972
:1093F0000A2000F062F8149800F006F800F050F827
:1094000000F04FFEBDE8F09F10B50446B52004F013
:109410000BF9204604F015F910BD10B5922004F0A8
:1094200003F904F007F9044604F0FD0444F00104D4
:10943000204604F006F910BD10B50446E1B2AB2099
:1094400004F0B4F92112AC2004F0B0F910BD10B54D
:109450000446E1B2A72004F0A9F9C4F30721A8202B
:1094600004F0A4F9C4F30741A92004F09FF9210EE8
:10947000AA2004F09BF910BD70B504460D46E1B278
:10948000AD2004F093F92112AE2004F08FF9E9B277
:10949000AF2004F08BF92912B02004F087F970BDD9
:1094A00010B5902004F0C0F804F0C4F8044644F06D
:1094B0001004204604F0C5F810BD70B50546912093
:1094C00004F0B2F804F0B6F8044604F0F0042C43BB
:1094D000204604F0B6F870BD70B50546912004F042
:1094E000A3F804F0A7F8044604F00F0444EA0510BA
:1094F000C4B2204604F0A5F870BD10B5922004F067
:1095000093F804F097F8044604F0BF0444F02004F4
:10951000204604F096F810BD10B5922004F084F8AF
:1095200004F088F8044604F0BF0404F0DF04204689
:1095300004F087F810BD10B50446E1B2972004F09E
:1095400035F92112982004F031F910BD10B5044608
:10955000E1B2932004F02AF9C4F30721942004F027
:1095600025F9C4F30741952004F020F9210E962037
:1095700004F01CF910BD70B504460D46E1B2992007
:1095800004F014F921129A2004F010F9E9B29B209A
:1095900004F00CF929129C2004F008F970BD10B5F4
:1095A000922004F041F804F045F8044604F0EF047A
:1095B00004F0F70444F00404204604F042F810BD1F
:1095C00010B50446E1B2A12004F0F0F82112A22067
:1095D00004F0ECF810BD10B50446E1B29D2004F093
:1095E000E5F8C4F307219E2004F0E0F8C4F3074136
:1095F0009F2004F0DBF8210EA02004F0D7F810BD66
:1096000070B504460D46E1B2A32004F0CFF8211254
:10961000A42004F0CBF8E9B2A52004F0C7F8291281
:10962000A62004F0C3F870BD2DE9F04707460C46AC
:1096300015461E46DDE9099ADDF82080404603F014
:1096400000FAFFF7EAFE3846FFF701FF2046FFF772
:10965000F3FE31462846FFF70FFF5146484600F01B
:1096600009F80C20FFF729FFFFF71AFF00F019FD9A
:10967000BDE8F08770B504460D46E1B2B12004F0B4
:1096800095F82112B22004F091F8E9B2B32004F069
:109690008DF82912B42004F089F870BD10B5044685
:1096A000D52003F0C1FF201203F0CBFFD62003F03A
:1096B000BBFFC4F3C70003F0C4FFD72003F0B4FF1F
:1096C000E106080E03F0BDFF10BD00002DE9F043D8
:1096D00087B00024A1460026002700200690002520
:1096E000804608F009F99E4806F018F84FF44870D3
:1096F00006F029F80021084606F030F8984800F0F6
:10970000BBFB4FF4487000F0CCFB00210846FFF78C
:1097100062F94FF4F0714FF44870FFF748F940F2E6
:109720001F504FF4F0734FF4487200210090084628
:1097300004F0F9FC03204BF277514FF4FC627823DC
:10974000CDE90021029040F231124621184604F082
:1097500004FD03204BF277514FF4FC624FF4A073E9
:10976000CDE90021029040F231124FF48771782048
:1097700004F0F3FC002001220292CDE903200590C1
:1097800020207849784B794ACDE90010002101204A
:1097900005F0DFF976A04BF277534FF47842502171
:1097A0000090962005F0A2F874A04BF277534FF486
:1097B00078424FF48C710090962005F097F871A0D4
:1097C00040F21F534FF47842B42100907D2005F001
:1097D0008DF803F009F903F08FF840F21F50DC23F5
:1097E0004FF4AF72A0210090480004F09CFC69483F
:1097F00090F9002068A106A80AF082FC06A840F2B1
:109800001F534FF47842A52100904FF4A07004F04C
:109810006CFFA3E032200BF077FA0BF0CFFA604830
:109820000079012837D19DBB01255D48C088782883
:1098300014DD5B48C088B0F5987F0FDC584800897C
:109840003C280BDD56480089822807DA5148007809
:10985000401D40B24F49087001261CE05048C088A6
:10986000782816DD4E48C088B0F5987F11DC4C484A
:109870000089B0F5827F0CDD49480089B0F5A57FED
:1098800007DA44480078401F40B242490870012678
:1098900001E04FF00108012E50D100263D4890F91B
:1098A0000000002803DA00203A49087001273948EF
:1098B00090F90000642802DD642036490870012F09
:1098C0000CD10027334890F9000080B26423C822ED
:1098D00000210090084604F0DDFE2FE02D4890F9AD
:1098E000000080B26423C82200210090012004F00F
:1098F000D1FE002404E0002006A90855601CC4B273
:10990000042CF8DB40F21F50DC234FF4AF72A0218F
:109910000090480004F007FC1E4890F900201EA1AA
:1099200006A80AF0EDFB06A840F21F534FF4784258
:10993000A52100904FF4A07004F0D7FE18480079DC
:1099400010B9012D00D100251548007930B9B8F1C2
:10995000010F03D1012007B0BDE8F0835AE70000F2
:1099600000B80B000050100000983A00300A4A007E
:10997000427269676874656E0000000044696D6D2D
:10998000696E67004272696768746E657373A3BA23
:109990000000000065000020253033640000000056
:1099A0008C01002010B504463D2003F03DFE20460A
:1099B00003F047FE10BD000010B58CB004461CB388
:1099C0004FF4784328224FF4B4715A2004F094F8ED
:1099D000302046210C2240F29F13CDE90732CDE919
:1099E000091036204FF448711A4A0023CDE903329A
:1099F000CDE905104621184ACDE9011300921A4617
:109A0000154803F00BFF23E04FF4605328224FF476
:109A1000B4715A2004F070F8302046210C2240F234
:109A20009F13CDE90732CDE9091036204FF4487174
:109A3000084A0023CDE90332CDE905104621064A44
:109A4000CDE90113009230230022034803F0E6FE23
:109A50000CB010BD00B80B000028230010B5044660
:109A6000DB2003F0E1FDE0B203F0EBFDDC2003F0CE
:109A7000DBFDC4F3072003F0E4FDDD2003F0D4FD9B
:109A8000C4F3074003F0DDFDDE2003F0CDFD200E22
:109A900003F0D7FD10BD10B5CC2003F0C5FD03F0D9
:109AA000C9FD044604F07F0404F0BF04204603F01F
:109AB000C8FD10BD2DE9FF4700240121082007F053
:109AC00017F84FF40070ADF80C0010208DF80F005F
:109AD00003208DF80E0003A9CC4802F0E9FF002016
:109AE00008F038F84FF40071C84803F07EF84FF4DE
:109AF0000071C64803F070F881464946C4A00AF0D8
:109B0000EFFA00200AF0E2FA02200BF0FDF84FF421
:109B10000071BE4803F06BF84FF40071BB4803F0CE
:109B200052F881464946BEA00AF0DAFA02200BF04C
:109B3000EBF810200AF0CAFA07F063F881464946AC
:109B4000BBA00AF0CDFA0A200BF0DEF84FF400714A
:109B5000AE4803F04AF84FF40071AC4803F03CF80B
:109B600081464946AAA00AF0BBFA3C200BF0CCF88B
:109B70000121082006F0BCFF0121084606F0B8FFCD
:109B80004FF40070ADF80C0048208DF80F0003A9C9
:109B90009E4802F08DFF0921012002F069FF4FF479
:109BA0000070019000208DF808000C208DF809004D
:109BB00001208DF80A0001A802F044FD4FF4A060D6
:109BC00005F0F8FE17208DF8000002208DF8010046
:109BD0008DF8020001208DF80300684605F0B2FE02
:109BE0000021974805F0F0FE03F057FB14200BF01E
:109BF0008BF8392004F09AFB04F0A7FB64200BF0EB
:109C000083F8904B062248F24011282005F064F8B2
:109C10008C48C678807840EA06268A48407840EA30
:109C200006268848007840EA0626314686A00AF0D3
:109C300057FA282004F0B7FB04F0C6FB09E0601CCB
:109C400084B20A200BF086F8B4F57A7F01DD002497
:109C500003E004F05CFB0028F1D100BF09E0601CC8
:109C600084B20A200BF076F8B4F57A7F01DD002487
:109C700003E004F0B1FB0028F1D100BF812004F023
:109C800092FB04F099FB09E0601C84B20A200BF0FF
:109C900061F8B4F57A7F01DD002403E004F037FBBE
:109CA0000028F1D100BF09E0601C84B20A200BF04B
:109CB00051F8B4F57A7F01DD002403E004F08CFB59
:109CC0000028F1D100BF462004F06DFB04F074FBC6
:109CD00009E0601C84B20A200BF03CF8B4F57A7FEE
:109CE00001DD002403E004F012FB0028F1D100BFE5
:109CF00009E0601C84B20A200BF02CF8B4F57A7FDE
:109D000001DD002403E004F067FB0028F1D100BF6F
:109D100004F041FB09E0601C84B20A200BF01AF841
:109D2000B4F57A7F01DD002403E004F0E1FA0028B5
:109D3000F1D100BF292004F036FB04F045FB09E017
:109D4000601C84B20A200BF005F8B4F57A7F01DDBF
:109D5000002403E004F0DBFA0028F1D100BF09E0A1
:109D6000601C84B20A200AF0F5FFB4F57A7F01DDA9
:109D7000002403E004F030FB0028F1D100BF0025EF
:109D80001CE0032D02D104F0F5FA01E004F0EAFA38
:109D900009E0601C84B20A200AF0DCFFB4F57A7F87
:109DA00001DD002403E004F017FB0028F1D100BF1F
:109DB00004F0E8FA23494855681CC5B2042DE0DBDD
:109DC00004F0E9FA09E0601C84B20A200AF0C2FF3C
:109DD000B4F57A7F01DD002403E004F089FA00285D
:109DE000F1D100BF174800781649497840EA0127A9
:109DF000144880781349C97840EA01284246394618
:109E000014A00AF06DF9BDE8FF870000000C0140C6
:109E1000494E545F4C6F77203D2025640D0A0000A9
:109E2000494E545F48696768203D2025640D0A004B
:109E30005253545F48696768203D2025640D0A002D
:109E4000008000089C01002049443A2578200D0A32
:109E500000000000585F4F75747075745F4D617835
:109E60003D256420595F4F75747075745F4D61783E
:109E70003D2564200D0A000010B50446E1B25020D3
:109E800003F094FCC4F30721512003F08FFCC4F3CA
:109E90000741522003F08AFC210E532003F086FC78
:109EA00010BD10B50446E1B2542003F07FFC21122E
:109EB000552003F07BFC10BD70B58CB0002400BFB2
:109EC00007F01AFD6E4805F029FC4FF4487005F0C4
:109ED0003AFC0021084605F041FC6948FFF7CCFF39
:109EE0004FF44870FFF7DDFF00210846FEF773FDD1
:109EF0004FF4F0714FF44870FEF759FD40F21F50D7
:109F00004FF4F0734FF4487200210090084604F0BB
:109F10000AF95C484FF448714FF4F072CDE9001231
:109F200000231A46CDE902101946012003F02BFD4B
:109F3000E020FFF7B6FF5448FFF79EFF5348DF21AC
:109F400040F6B472CDE9001200231A46CDE90210A2
:109F50001946012003F017FD91E000248CE08620D3
:109F6000DF210C223223CDE90732CDE9091050213F
:109F70001A01434B862604FB06F0CDE90432069114
:109F800003900020E0215A0004FB06F3CDE90021F4
:109F9000029002463C4803F041FC8620DF210C225F
:109FA0004FF49673CDE90732CDE9091050214FF4F3
:109FB0004872334B04FB06F0CDE90432069103905E
:109FC0000020E0215A0004FB06F3CDE900210290B5
:109FD00002462D4803F022FC04F10A00C5B21D2DF3
:109FE00002DDA5F11D00C5B28620DF210C2232233F
:109FF000CDE90732CDE909104FF4F0711A01204B79
:10A00000862605FB06F0CDE9043206910390002078
:10A01000E0215A0005FB06F3CDE90021029002463B
:10A02000194803F0FBFB8620DF210C224FF49673C6
:10A03000CDE90732CDE909104FF4F0714FF44872C1
:10A040000F4B05FB06F0CDE904320691039000208A
:10A05000E0215A0005FB06F3CDE9002102900246FB
:10A06000094803F0DBFB642007F000F8012801D168
:10A070000CB070BD601CC4B21E2CFFF670AF6CE754
:10A0800000B80B000028230000701700E05DAE0050
:10A0900010B500BF03F094FB00F008000028F9D1D0
:10A0A00010BD10B500BF03F08BFB00F008010029C4
:10A0B000F9D110BD10B500BF03F082FB00F008011C
:10A0C0000029F9D110BD10B5B62003F0ADFA00BFDC
:10A0D00003F0B0FA00F001000028F9D110BD10B56E
:10A0E00000BF03F06DFB00F080000028F9D110BD27
:10A0F00010B500BF03F064FB00F004010029F9D0A3
:10A1000010BD70B504460D467B2003F08DFAE0B219
:10A1100003F097FA7C2003F087FA201203F091FAFB
:10A120007D2003F081FAE8B203F08BFA7E2003F081
:10A130007BFA281203F085FA70BD10B5044677202B
:10A1400003F072FAE0B203F07CFA782003F06CFAC4
:10A15000201203F076FA792003F066FAE0B203F0F9
:10A1600070FA7A2003F060FA201203F06AFA10BD48
:10A1700070B504460D46772003F056FAE0B203F0BE
:10A1800060FA782003F050FA201203F05AFA79208E
:10A1900003F04AFAE8B203F054FA7A2003F044FAE2
:10A1A000281203F04EFA70BDF8B50646002739486C
:10A1B000FFF762FE4FF44870FFF773FE112E4ED288
:10A1C000DFE806F0090D1014191D204D23282D324B
:10A1D000363A3E43480091244FF4D27541E0B4240E
:10A1E00002253EE0DC2440F29F153AE04FF426744D
:10A1F0004FF4CF7535E040F22A24052531E00524DF
:10A2000005252EE05C2405252BE04FF4377440F241
:10A21000A71526E040F2271440F2A11521E040F2F4
:10A22000BD1440F2A1151CE005244FF4D27518E0CE
:10A230004B244FF4D27514E040F2A2247E2510E0A6
:10A2400040F2432440F2AF150BE040F299244FF462
:10A250009B7506E04FF4B97440F29F1501E00127A9
:10A2600000BF00BF012F13D00020009006EB460076
:10A27000094901EB80004088284483B206EB460080
:10A2800031F82000204482B22946204603F04BFFDB
:10A29000F8BD000000B80B006800002010B50C20CD
:10A2A00003F0C2F903F0C6F9044644F01004204656
:10A2B00003F0C7F910BD00002DE9F04F8BB0002668
:10A2C000B1460025AA4600240127A04607F014FB4A
:10A2D000794805F023FA4FF4487005F034FA7648CF
:10A2E000FFF7CAFD4FF44870FFF7DBFD0021084679
:10A2F000FEF771FB4FF4F0714FF44870FEF757FB17
:10A300000021084605F02AFA6C484FF448714FF4D2
:10A31000F072CDE9001200231A46CDE90210194669
:10A32000012003F030FB6648FFF7A6FDB620FFF7DB
:10A33000B8FD6448B62140F24442CDE90012002342
:10A340001A46CDE902101946012003F01CFB5E48B5
:10A35000FFF792FD4620FFF7A4FD5C4846216022EE
:10A36000CDE9001200231A46CDE90210194601205A
:10A3700003F009FB5148FFF77FFD4FF44870FFF7EA
:10A3800090FD4E484FF448714FF4F072CDE9001241
:10A3900000231A46CDE902101946012003F0F3FA12
:10A3A0004548FFF769FD4FF44870FFF77AFD00213B
:10A3B0000846FEF710FB484607F01AFF284607F04C
:10A3C0004AFF504607F090FF48F6BC5332224FF444
:10A3D000B4715A2003F03AFB3846FFF7EDFA66E015
:10A3E000B6200C222823CDE9082040F23F114FF47B
:10A3F000487207930A90304B704380B2CDE9043223
:10A40000069103900020B6215A00CDE90021029068
:10A4100006FB01F083B20022294803F0FFF93C203B
:10A420000AF072FC17B93C200AF06EFC761C062E6E
:10A4300000DB0026641C0A2094FBF0F8B8F1000F42
:10A440000BD14FF29E70D62340F2FE2238210090AD
:10A4500040F21A2003F067FE02E0404607F080FF5A
:10A460000A2094FBF0FB584607F0C2FE6D1C122D2B
:10A4700000DD0025AB4605EBDB71481007F0EBFE75
:10A48000204607F031FFA0B206F09AFA5A2C08DBFA
:10A490000024012F01D1002700E001273846FFF7F3
:10A4A0008BFA012006F0E2FD012800D100E097E7D9
:10A4B00000BF0BB0BDE8F08F00B80B0000E02E002D
:10A4C0000070170000983A0000282300B0A8400050
:10A4D00010B505221146104600F060F805225C21F7
:10A4E000062000F05BF80522B421012000F056F8A8
:10A4F000052240F22A21042000F050F84FF4D272D5
:10A5000005210B2000F04AF84FF4D2724B210C20A9
:10A5100000F044F84FF4D2729121002000F03EF890
:10A5200040F29F12DC21022000F038F840F2A11224
:10A5300040F22711092000F031F840F29F124FF449
:10A54000B971102000F02AF840F2A11240F2BD11BA
:10A550000A2000F023F840F2AF1240F243210E200F
:10A5600000F01CF84FF4CF724FF42671032000F076
:10A5700015F840F2A7124FF43771082000F00EF8DA
:10A580007E2240F2A2210D2000F008F84FF49B72C9
:10A5900040F299210F2000F001F810BD70B58CB089
:10A5A00004460D461646112C33DA04EB44001B49D1
:10A5B00001EB8000408804EB4401184A32F8211076
:10A5C0000C22CDE90762CDE909104FF44870144917
:10A5D0000022CDE90505CDE9032104EB44000F4934
:10A5E00031F8200004EB44010C4B03EB8101496876
:10A5F000CDE90102009104EB440233F8221004EB90
:10A60000440203EB8202002350681A4603F006F965
:10A6100002E004A009F064FD0CB070BD68000020E9
:10A6200000B80B006E6F20706963747572650D0A57
:10A630000000000010B5132002F0F6FF02F0FAFF50
:10A64000044604F0DF04204602F0FBFF10BD0000CA
:10A650001FB507F051F93F4805F060F84FF4487016
:10A6600005F071F83B48FFF707FC4FF44870FFF71F
:10A6700018FC00210846FEF7AEF94FF4F0714FF4D4
:10A680004870FEF794F90021084605F067F84FF688
:10A69000FF704FF4F0734FF44872002100900846A9
:10A6A00003F041FD55E0002451E034B1012C14D0F9
:10A6B000022C22D0032C40D12FE000204FF448710F
:10A6C0004FF4F072CDE9001203460246CDE90210C4
:10A6D0000146012003F057F930E01E484FF448715D
:10A6E0004FF4F072CDE9001200231A46CDE90210B2
:10A6F0001946012003F047F920E017484FF448714C
:10A700004FF4F072CDE9001200231A46CDE9021091
:10A710001946012003F037F910E010484FF4487152
:10A720004FF4F072CDE9001200231A46CDE9021071
:10A730001946012003F027F900E000BF00BF6420A4
:10A7400006F094FC012801D104B010BD641C042C57
:10A75000ABD3A8E700B80B00007017000028230057
:10A7600010B5CD2002F060FF02F064FF044604F053
:10A770007F04204602F065FF10BD10B53C2002F0BA
:10A7800053FF02F057FF044604F0EF04204602F0A6
:10A7900058FF10BD10B5102002F046FF02F04AFF2E
:10A7A000044604F07F04204602F04BFF10BD10B5B4
:10A7B000102002F039FF02F03DFF044604F0BF0410
:10A7C000204602F03EFF10BD10B53C2002F02CFFE9
:10A7D00002F030FF044604F0FD04204602F031FF91
:10A7E00010BD10B53C2002F01FFF02F023FF04460D
:10A7F00004F0FE04204602F024FF10BD1FB507F050
:10A800007BF81B4804F08AFF4FF4487004F09BFF6C
:10A810001748FFF731FB4FF44870FFF742FB002168
:10A820000846FEF7D8F84FF4F0714FF44870FEF781
:10A83000BEF80021084604F091FF00204FF4F073A9
:10A840004FF448720146009003F06DFC08484FF445
:10A8500048714FF4F072CDE9001200231A46CDE999
:10A8600002101946012003F08EF809F099F91FBD76
:10A8700000B80B0010B5122002F0D6FE02F0DAFE8E
:10A88000044644F04004204602F0DBFE10BD000008
:10A890002DE9F84F07F030F8AF4804F03FFF4FF4D0
:10A8A000487004F050FFAC48FFF7E6FA4FF44870E8
:10A8B000FFF7F7FA00210846FEF78DF84FF4F07124
:10A8C0004FF44870FEF773F80021084604F046FF85
:10A8D00041E14FF6FF704FF4F0734FF448720021DE
:10A8E0000090084603F01FFC002400BFFDF718FC91
:10A8F0008346C0170BEB10400014ABEB0048FDF78C
:10A900000FFC4FF4487190FBF1F201FB1206FDF7CA
:10A9100007FC4FF4E67190FBF1F201FB1207FDF723
:10A92000FFFBA02190FBF1F201FB1205FDF7F8FB04
:10A93000032190FBF1F201FB1209B9F1000F06D0DF
:10A94000AAB2B9B2B0B2434603F080F805E0AAB2A9
:10A95000B9B2B0B2434603F0CFF8641C642006F0ED
:10A9600085FB012801D1BDE8F88F142CBED300244B
:10A9700000BFFDF7D5FB8346C0170BEB104000145A
:10A98000ABEB0048FDF7CCFB4FF4487190FBF1F2C4
:10A9900001FB1206FDF7C4FB4FF4E67190FBF1F2E8
:10A9A00001FB1207FDF7BCFBA02190FBF1F201FBBC
:10A9B0001205FDF7B5FB032190FBF1F201FB120933
:10A9C000B9F1000F06D0AAB2B9B2B0B2434603F053
:10A9D0003DF805E0AAB2B9B2B0B2434603F08CF834
:10A9E000641C01200AF090F9012006F03FFB0128C9
:10A9F00000D1B8E740F6C4108442BAD34FF6FF70D6
:10AA00004FF4F0734FF4487200210090084603F0B1
:10AA10008AFB002400BFFDF783FB8346C0170BEBC6
:10AA200010400014ABEB0048FDF77AFB4FF448717F
:10AA300090FBF1F201FB1206FDF772FB4FF4E67199
:10AA400090FBF1F201FB1207FDF76AFBA02190FBDE
:10AA5000F1F201FB1205FDF763FBA02190FBF1F27F
:10AA600001FB120AFDF75CFB032190FBF1F201FBF5
:10AA70001209B9F1000F09D01FFA8AF3AAB2B9B2CC
:10AA8000B0B2CDF8008003F0A0F808E01FFA8AF316
:10AA9000AAB2B9B2B0B2CDF8008003F0B0F8641C2D
:10AAA000642006F0E3FA012800D15CE7142CB2D34D
:10AAB00000BFFDF735FB8346C0170BEB10400014B9
:10AAC000ABEB0048FDF72CFB4FF4487190FBF1F223
:10AAD00001FB1206FDF724FB4FF4E67190FBF1F247
:10AAE00001FB1207FDF71CFBA02190FBF1F201FB1B
:10AAF0001205FDF715FBA02190FBF1F201FB120AF4
:10AB0000FDF70EFB032190FBF1F201FB1209B9F1F5
:10AB1000000F09D01FFA8AF3AAB2B9B2B0B2CDF8C9
:10AB2000008003F052F808E01FFA8AF3AAB2B9B223
:10AB3000B0B2CDF8008003F062F8641C01200AF086
:10AB4000E3F8012006F092FA012800D10BE740F665
:10AB5000C4108442ADD3BCE600B80B002DE9F04F21
:10AB600085B006F0C9FEF74804F0D8FD4FF44870F0
:10AB700004F0E9FDF348FFF77FF94FF44870FFF761
:10AB800090F900210846FDF726FF4FF4F0714FF4CD
:10AB90004870FDF70CFF0021084604F0DFFDD8E106
:10ABA0004FF6FF704FF4F0734FF44872002100909D
:10ABB000084603F0B8FA002700BFFDF7B1FA4FF4DA
:10ABC000487190FBF1F201FB1205FDF7A9FA4FF471
:10ABD000F07190FBF1F201FB1206FDF7A1FA4FF4C0
:10ABE000487190FBF1F201FB12000390FDF798FA17
:10ABF0004FF4F07190FBF1F201FB12000290FDF7AF
:10AC00008FFA8346C0170BEB10400014ABEB0048E3
:10AC1000FDF786FA142190FBF1F201FB120A1FFAEC
:10AC20008AF0CDE90080DDF808C0D4441FFA8CF327
:10AC3000DDF80CC01FFA8CF206EB0A0C1FFA8CF13F
:10AC4000A8B203F08DF87F1C642006F00FFA0128EB
:10AC500002D105B0BDE8F08F142FAED3002700BF9E
:10AC6000FDF75EFA4FF4487190FBF1F201FB12051B
:10AC7000FDF756FA4FF4F07190FBF1F201FB12066A
:10AC8000FDF74EFA4FF4487190FBF1F201FB120010
:10AC90000390FDF745FA4FF4F07190FBF1F201FBE0
:10ACA00012000290FDF73CFA8346C0170BEB1040F0
:10ACB0000014ABEB0048FDF733FA142190FBF1F2DE
:10ACC00001FB120A1FFA8AF0CDE90080DDF808C006
:10ACD000D4441FFA8CF3DDF80CC01FFA8CF206EB9B
:10ACE0000A0C1FFA8CF1A8B203F03AF87F1C01207D
:10ACF00006F0BCF9012800D1ABE740F6C41087424A
:10AD0000AED34FF6FF704FF4F0734FF4487200214A
:10AD10000090084603F007FA002700BFFDF700FA8D
:10AD20008346C0170BEB10400014ABEB0048FDF757
:10AD3000F7F94FF4487190FBF1F201FB1205FDF7B2
:10AD4000EFF94FF4F07190FBF1F201FB1206FDF701
:10AD5000E7F9782190FBF1F201FB1204FDF7E0F92D
:10AD60008346C0170BEB90708010ABEB8009FDF7AA
:10AD7000D7F9032190FBF1F201FB12000490B9F125
:10AD8000000F09D0B9F1010F10D0B9F1020F14D0A2
:10AD9000B9F1030F28D11AE0AC4200D97825C6F5E5
:10ADA000F070A04201D24FF4B4761EE0AC4200D95C
:10ADB0007825B44200D9782617E0C5F54870A0423E
:10ADC00001D24FF42A75B44200D978260DE0C5F5BA
:10ADD0004870A04201D24FF42A75C6F5F070A04227
:10ADE00001D24FF4B47600E000BF00BF049850B128
:10ADF0001FFA89F0A3B2A2B2B1B2CDE90080A8B225
:10AE000003F0EEFD09E01FFA89F0A3B2A2B2B1B2DD
:10AE1000CDE90080A8B203F01CFE7F1C642006F080
:10AE200025F9012800D114E7142FFFF477AF00278C
:10AE300000BFFDF775F98346C0170BEB10400014F7
:10AE4000ABEB0048FDF76CF940F28A2190FBF1F280
:10AE500001FB1205FDF764F94FF4A57190FBF1F2C7
:10AE600001FB1206FDF75CF9782190FBF1F201FB82
:10AE70001204FDF755F98346C0170BEB9070801054
:10AE8000ABEB8009FDF74CF9032190FBF1F201FBDC
:10AE900012000490B9F1000F09D0B9F1010F10D0E0
:10AEA000B9F1020F14D0B9F1030F28D11AE0AC4266
:10AEB00000D97825C6F5F070A04201D24FF4B476DF
:10AEC0001EE0AC4200D97825B44200D9782617E0BC
:10AED000C5F54870A04201D24FF42A75B44200D99A
:10AEE00078260DE0C5F54870A04201D24FF42A75CE
:10AEF000C6F5F070A04201D24FF4B47600E000BF76
:10AF000000BF049850B11FFA89F0A3B2A2B2B1B247
:10AF1000CDE90080A8B203F063FD09E01FFA89F0D3
:10AF2000A3B2A2B2B1B2CDE90080A8B203F091FD04
:10AF30007F1C012009F0E8FE012006F097F80128A7
:10AF400002D186E600B80B0040F6C4108742FFF439
:10AF500070AF25E610B596B00020159000BF00BF79
:10AF600000BF00BF00BF00BF0E9006F0C5FCFE484A
:10AF700004F0D4FB4FF4487004F0E5FB00210846D0
:10AF800004F0ECFBF848FEF777FF4FF44870FEF74B
:10AF900088FF00210846FDF71EFD4FF4F0714FF4C5
:10AFA0004870FDF704FD40F21F504FF4F0734FF46A
:10AFB000487200210090084603F0B5F8DBE3012059
:10AFC0000E90E5E100201590EAE0FDF7A9F8C11721
:10AFD0000D9000EB114001140D98A0EB014081B2DF
:10AFE0001491FDF79DF8C1170D9000EB114001146D
:10AFF0000D98A0EB014080B21390FDF791F8C117B6
:10B000000D9000EB114001140D98A0EB014081B2AE
:10B010001291FDF785F8C1170D9000EB1140011456
:10B020000D98A0EB014080B21190FDF779F84FF434
:10B03000C87190FBF1F201FB120082B21092FDF791
:10B040006FF84FF4C87190FBF1F201FB120080B26F
:10B050000F904FF4F0701E2140F21F52CDE90021F5
:10B0600002901598401CC0EB001040000F3880B2D1
:10B07000002302464FF448710D90BB48FEF7D4FA06
:10B08000DDE913021099CDE9001202901598401CD9
:10B09000C0EB0010400007230E224FF4E1710D9029
:10B0A00002F040FD4FF4F0701F2140F21F52CDE935
:10B0B000002102901598C0EB00104FF43E71A1EBF7
:10B0C00040000C3880B2002302464FF448710D90C6
:10B0D000A548FEF7A9FA40F2B713159AC2EB02127F
:10B0E00040F20634A4EB420292B2DDE91101CDE94F
:10B0F0000623CDE9081040F2C1131598C0EB0010EB
:10B100004FF43E71A1EB400081B20F98181A80B243
:10B11000159AC2EB02124FF43E74A4EB420292B2B3
:10B1200003AC0BC4029240F2B7110F98081A80B218
:10B130001599C1EB011140F20632A2EB410189B22F
:10B14000CDE9001040F2B7110F98081A80B20D90A7
:10B150001598C0EB00104FF43E71A1EB4000401F6A
:10B1600080B20C9019460F98081A80B20B9015986F
:10B17000C0EB00104FF43E71A1EB40000C3880B2E0
:10B180000A900BA90EC902F0B3FE642005F06EFF11
:10B19000012801D116B010BD1598401CC0B2159001
:10B1A00015980B28FFF611AF0B201590ECE0FCF77B
:10B1B000B7FFC1170D9000EB114001140D98A0EBE3
:10B1C000014081B21491FCF7ABFFC1170D9000EB69
:10B1D000114001140D98A0EB014080B21390FCF7D0
:10B1E0009FFFC1170D9000EB114001140D98A0EBCB
:10B1F000014081B21291FCF793FFC1170D9000EB53
:10B20000114001140D98A0EB014080B21190FCF7A1
:10B2100087FF4FF4C87190FBF1F201FB120082B27C
:10B220001092FCF77DFF4FF4C87290FBF2F102FB25
:10B23000110080B20F904FF4F0701E2140F21F52A7
:10B24000CDE9002102901598401CC0EB0010400091
:10B250000F3880B2002302464FF448710D904248E7
:10B26000FEF7E2F9DDE913021099CDE90012029030
:10B270001598401CC0EB0010400007230E224FF42D
:10B28000E1710D9002F04EFC4FF4F0701F2140F27E
:10B290001F52CDE9002102901598C0EB00104FF429
:10B2A0003E71A1EB40000C3880B2002302464FF4FF
:10B2B00048710D902C48FEF7B7F940F2B713159A74
:10B2C000C2EB021240F20634A4EB420292B2DDE974
:10B2D0001101CDE90623CDE9081040F2C1131598FC
:10B2E000C0EB00104FF43E71A1EB400081B20F980B
:10B2F000181A80B2159AC2EB02124FF43E74A4EBF6
:10B30000420292B203AC0BC4029240F2B7110F9802
:10B31000081A80B21599C1EB011140F20632A2EB76
:10B32000410189B2CDE9001040F2B7110F98081A17
:10B3300080B20D901598C0EB00104FF43E71A1EB58
:10B340004000401F80B20C9019460F98081A80B236
:10B350000B901598C0EB00104FF43E71A1EB40002C
:10B360000C3880B20A9001E000B80B000BA90EC99E
:10B3700002F0BEFD642005F079FE012800D109E746
:10B380001598401EC0B21590159800283FF70FAFD2
:10B390000E98411E89B20E9100287FF413AE0A2048
:10B3A0000E90E1E100201590E9E0FCF7B9FEC1172D
:10B3B0000D9000EB114001140D98A0EB014081B2FB
:10B3C0001491FCF7ADFEC1170D9000EB1140011474
:10B3D0000D98A0EB014080B21390FCF7A1FEC117BD
:10B3E0000D9000EB114001140D98A0EB014081B2CB
:10B3F0001291FCF795FEC1170D9000EB114001145E
:10B400000D98A0EB014080B21190FCF789FE4FF43B
:10B41000C87190FBF1F201FB120082B21092FCF7AE
:10B420007FFE4FF4C87190FBF1F201FB120080B275
:10B430000F904FF4F0701E2140F21F52CDE9002111
:10B4400002901598401CC0EB001040000F3880B2ED
:10B45000002302464FF448710D90C748FEF7E4F808
:10B46000DDE913021099CDE9001202901598401CF5
:10B47000C0EB0010400007230E224FF4E1710D9045
:10B4800002F050FB4FF4F0701F2140F21F52CDE943
:10B49000002102901598C0EB00104FF43E71A1EB13
:10B4A00040000C3880B2002302464FF448710D90E2
:10B4B000B148FEF7B9F840F2B713159AC2EB021281
:10B4C00040F20634A4EB420292B2DDE91101CDE96B
:10B4D0000623CDE9081040F2C1131598C0EB001007
:10B4E0004FF43E71A1EB400081B20F98181A80B260
:10B4F000159AC2EB02124FF43E74A4EB420292B2D0
:10B5000003AC0BC4029240F2B7110F98081A80B234
:10B510001599C1EB011140F20632A2EB410189B24B
:10B52000CDE9001040F2B7110F98081A80B20D90C3
:10B530001598C0EB00104FF43E71A1EB4000401F86
:10B5400080B20C9019460F98081A80B20B9015988B
:10B55000C0EB00114FF43E70A0EB41000C3880B2FC
:10B560000A900BA90EC902F0C3FC0A2005F044FDA5
:10B5700008B101200EE61598401CC0B21590159830
:10B580000B28FFF612AF0B201590E9E0FCF7C8FD81
:10B59000C1170D9000EB114001140D98A0EB014074
:10B5A00081B21491FCF7BCFDC1170D9000EB114066
:10B5B00001140D98A0EB014080B21390FCF7B0FD90
:10B5C000C1170D9000EB114001140D98A0EB014044
:10B5D00081B21291FCF7A4FDC1170D9000EB114050
:10B5E00001140D98A0EB014080B21190FCF798FD7A
:10B5F0004FF4C87190FBF1F201FB120082B210927D
:10B60000FCF78EFD4FF4C87190FBF1F201FB1200C4
:10B6100080B20F904FF4F0701E2140F21F52CDE91E
:10B62000002102901598401CC0EB001040000F381C
:10B6300080B2002302464FF448710D904E48FDF74A
:10B64000F3FFDDE913021099CDE90012029015987D
:10B65000401CC0EB0010400007230E224FF4E171A4
:10B660000D9002F05FFA4FF4F0701F2140F21F526C
:10B67000CDE9002102901598C0EB00104FF43E7107
:10B68000A1EB40000C3880B2002302464FF4487111
:10B690000D903948FDF7C8FF40F2B713159AC2EB79
:10B6A000021240F20634A4EB420292B2DDE911012B
:10B6B000CDE90623CDE9081040F2C1131598C0EB7F
:10B6C00000104FF43E71A1EB400081B20F98181AA0
:10B6D00080B2159AC2EB02124FF43E74A4EB420200
:10B6E00092B203AC0BC4029240F2B7110F98081A41
:10B6F00080B21599C1EB011140F20632A2EB410173
:10B7000089B2CDE9001040F2B7110F98081A80B243
:10B710000D901598C0EB00104FF43E71A1EB400066
:10B72000401F80B20C9019460F98081A80B20B90F7
:10B730001598C0EB00104FF43E71A1EB40000C389F
:10B7400080B20A900BA90EC902F0D2FB012005F0CD
:10B750008DFC012800D11DE51598401EC0B2159042
:10B76000159800283FF712AF0E98411E89B20E912E
:10B7700000287FF417AE22E400B80B002DE9F04F4B
:10B780008DB000200C9006F0B7F8FE4803F0C6FF1D
:10B790004FF4487003F0D7FFFA48FEF76DFB4FF403
:10B7A0004870FEF77EFB00210846FDF714F94FF4C0
:10B7B000F0714FF44870FDF7FAF80021084603F0E5
:10B7C000CDFF57E24FF6FF704FF4F0734FF448721D
:10B7D00000210090084602F0A6FC002500BFFCF7FF
:10B7E0009FFC4FF4487190FBF1F201FB1206FCF74D
:10B7F00097FC4FF4F07190FBF1F201FB1207FCF79C
:10B800008FFC4FF4487190FBF1F201FB1208FCF73A
:10B8100087FC4FF4F07190FBF1F201FB1209FCF789
:10B820007FFC4FF4487190FBF1F201FB120AFCF728
:10B8300077FC4FF4F07190FBF1F201FB120BFCF777
:10B840006FFC4FF4487190FBF1F201FB12000B907A
:10B85000FCF766FC4FF4F07190FBF1F201FB120073
:10B860000A90FCF75DFC4FF4487190FBF1F201FB8C
:10B8700012000990FCF754FC4FF4F07190FBF1F2C8
:10B8800001FB12000890FCF74BFCC117079000EB7E
:10B89000114001140798A0EB0144FCF741FC03217F
:10B8A00090FBF1F201FB1200C0B20C900C98D8B1E1
:10B8B000089880B2099989B20A9A92B2CDE9050432
:10B8C000CDE903210B9881B21FFA8BF01FFA8AF29F
:10B8D0001FFA89F3CDE9002002911FFA88F2B9B26C
:10B8E000B0B202F0A9FA19E0089881B2099880B2C2
:10B8F0000A9A92B204AB13C303920B9880B21FFA58
:10B900008BF11FFA8AF21FFA89F3CDE90021029028
:10B910001FFA88F2B9B2B0B202F0BCFA6D1C642012
:10B9200005F0A4FB012802D10DB0BDE8F08F142D65
:10B93000FFF455AF002500BFFCF7F2FB4FF4487150
:10B9400090FBF1F201FB1206FCF7EAFB4FF4F071F9
:10B9500090FBF1F201FB1207FCF7E2FB4FF4487198
:10B9600090FBF1F201FB1208FCF7DAFB4FF4F071E7
:10B9700090FBF1F201FB1209FCF7D2FB4FF4487186
:10B9800090FBF1F201FB120AFCF7CAFB4FF4F071D5
:10B9900090FBF1F201FB120BFCF7C2FB4FF4487174
:10B9A00090FBF1F201FB12000B90FCF7B9FB4FF496
:10B9B000F07190FBF1F201FB12000A90FCF7B0FB72
:10B9C0004FF4487190FBF1F201FB12000990FCF773
:10B9D000A7FB4FF4F07190FBF1F201FB120008900D
:10B9E000FCF79EFBC117079000EB1140011407986C
:10B9F000A0EB0144FCF794FB032190FBF1F201FB67
:10BA00001200C0B20C900C98D8B1089880B2099975
:10BA100089B20A9A92B2CDE90504CDE903210B98C7
:10BA200081B21FFA8BF01FFA8AF21FFA89F3CDE96F
:10BA3000002002911FFA88F2B9B2B0B202F0FCF90C
:10BA400019E0089881B2099880B20A9A92B204ABC0
:10BA500013C303920B9880B21FFA8BF11FFA8AF27C
:10BA60001FFA89F3CDE9002102901FFA88F2B9B2DA
:10BA7000B0B202F00FFA6D1C012009F045F9012067
:10BA800005F0F4FA012800D14EE740F2DC5085427F
:10BA9000FFF452AF4FF6FF704FF4F0734FF448725B
:10BAA00000210090084602F03EFB002500BFFCF795
:10BAB00037FB4FF4487190FBF1F201FB1206FCF7E3
:10BAC0002FFB4FF4F07190FBF1F201FB1207FCF732
:10BAD00027FB4FF4487190FBF1F201FB1208FCF7D1
:10BAE0001FFB4FF4F07190FBF1F201FB1209FCF720
:10BAF00017FB4FF4487190FBF1F201FB120AFCF7BF
:10BB00000FFB4FF4F07190FBF1F201FB120BFCF70D
:10BB100007FBC117079000EB114001140798A0EB39
:10BB20000144FCF7FDFA032190FBF1F201FB120046
:10BB3000C0B20C900C9878B11FFA8BF01FFA8AF102
:10BB40001FFA89F31FFA88F2CDE901040091B9B216
:10BB5000B0B202F029FB0EE01FFA8BF01FFA8AF157
:10BB60001FFA89F31FFA88F2CDE901040091B9B2F6
:10BB7000B0B202F039FB6D1C642005F077FA0128A1
:10BB800002D1D1E600B80B00142D90D3002500BFE0
:10BB9000FCF7C6FA4FF4487190FBF1F201FB120674
:10BBA000FCF7BEFA4FF4F07190FBF1F201FB1207C3
:10BBB000FCF7B6FA4FF4487190FBF1F201FB120862
:10BBC000FCF7AEFA4FF4F07190FBF1F201FB1209B1
:10BBD000FCF7A6FA4FF4487190FBF1F201FB120A50
:10BBE000FCF79EFA4FF4F07190FBF1F201FB120B9F
:10BBF000FCF796FAC117079000EB11400114079863
:10BC0000A0EB0144FCF78CFA032190FBF1F201FB5D
:10BC10001200C0B20C900C9878B11FFA8BF01FFA8A
:10BC20008AF11FFA89F31FFA88F2CDE90104009125
:10BC3000B9B2B0B202F0B8FA0EE01FFA8BF01FFAF8
:10BC40008AF11FFA89F31FFA88F2CDE90104009105
:10BC5000B9B2B0B202F0C8FA6D1C012009F054F874
:10BC6000012005F003FA012800D15DE640F2DC5026
:10BC700085428DD3A6E500002DE9FE4F05F03CFE80
:10BC8000E44803F04BFD4FF4487003F05CFDE148DD
:10BC9000FEF7F2F84FF44870FEF703F9002108466A
:10BCA000FCF799FE4FF4F0714FF44870FCF77FFEFB
:10BCB0000021084603F052FDAAE14FF6FF704FF451
:10BCC000F0734FF4487200210090084602F02BFAFE
:10BCD0004FF0000A00BFFCF723FA4FF4487190FBC5
:10BCE000F1F201FB1205FCF71BFA4FF4F07190FB27
:10BCF000F1F201FB1206FCF713FA4FF4487190FBC6
:10BD0000F1F201FB1207FCF70BFA4FF4F07190FB14
:10BD1000F1F201FB1208FCF703FAC117029000EBE5
:10BD2000114001140298A0EB0149FCF7F9F9032135
:10BD300090FBF1F201FB120BBBF1000F09D01FFACF
:10BD400088F3BAB2B1B2A8B2CDF8009002F0D1F93E
:10BD500008E01FFA88F3BAB2B1B2A8B2CDF80090E9
:10BD600002F0E1F90AF1010A642005F07FF90128E7
:10BD700001D1BDE8FE8FBAF1140FACD34FF0000A29
:10BD800000BFFCF7CDF94FF4487190FBF1F201FBD5
:10BD90001205FCF7C5F94FF4F07190FBF1F201FBCD
:10BDA0001206FCF7BDF94FF4487190FBF1F201FB6C
:10BDB0001207FCF7B5F94FF4F07190FBF1F201FBBB
:10BDC0001208FCF7ADF9C117029000EB1140011405
:10BDD0000298A0EB0149FCF7A3F9032190FBF1F2D3
:10BDE00001FB120BBBF1000F09D01FFA88F3BAB2A6
:10BDF000B1B2A8B2CDF8009002F07BF908E01FFACA
:10BE000088F3BAB2B1B2A8B2CDF8009002F08BF9C3
:10BE10000AF1010A012008F077FF012005F026F958
:10BE2000012800D1A5E740F6C4108245A9D34FF6FA
:10BE3000FF704FF4F0734FF44872002100900846F1
:10BE400002F071F94FF0000A00BFFCF769F940F207
:10BE5000163190FBF1F201FB1205FCF761F94FF48A
:10BE6000EB7190FBF1F201FB1206FCF759F940F27D
:10BE7000163190FBF1F201FB1207FCF751F94FF478
:10BE8000EB7190FBF1F201FB1208FCF749F9C117C5
:10BE9000029000EB114001140298A0EB0149FCF75D
:10BEA0003FF9032190FBF1F201FB120BFCF738F98B
:10BEB000322190FBF1F201FB1204781B08F0AEFE78
:10BEC0006100884200D20024A8EB060008F0A6FE1C
:10BED0006100884200D20024BBF1000F0CD0A0B258
:10BEE000A1B21FFA88F3BAB2CDE901090091B1B24B
:10BEF000A8B201F0C1FD0BE0A0B2A1B21FFA88F315
:10BF0000BAB2CDE901090091B1B2A8B201F0D4FDF5
:10BF10000AF1010A642005F0A9F8012800D128E7F8
:10BF2000BAF1140F91D34FF0000A00BFFCF7F8F8F4
:10BF300040F2163190FBF1F201FB1205FCF7F0F82C
:10BF40004FF4EB7190FBF1F201FB1206FCF7E8F8FD
:10BF500040F2163190FBF1F201FB1207FCF7E0F81A
:10BF60004FF4EB7190FBF1F201FB1208FCF7D8F8EB
:10BF7000C117029000EB114001140298A0EB014997
:10BF8000FCF7CEF8032190FBF1F201FB120BFCF75A
:10BF9000C7F8322190FBF1F201FB1204781B08F084
:10BFA0003DFE6100884200D20024A8EB060008F0A4
:10BFB00035FE6100884200D20024BBF1000F0CD096
:10BFC000A0B2A1B21FFA88F3BAB2CDE9010900917B
:10BFD000B1B2A8B201F050FD0BE0A0B2A1B21FFABD
:10BFE00088F3BAB2CDE901090091B1B2A8B201F06B
:10BFF00063FD0AF1010A012008F086FE012005F028
:10C0000035F8012800D1B4E640F6C41082458DD33E
:10C0100053E6000000B80B0000B591B0002010906E
:10C0200001200F9002200E9003200D9000200C9014
:10C0300005F062FCFE4803F071FB4FF4487003F01A
:10C0400082FBFB48FDF718FF4FF44870FDF729FF0E
:10C0500000210846FCF7BFFC4FF4F0714FF4487024
:10C06000FCF7A5FC0021084603F078FB00204FF404
:10C07000F0734FF448720146009002F054F8ED4816
:10C080004FF448714FF4F072CDE9001200231A46C4
:10C09000CDE902101946012001F075FC00F010FCFA
:10C0A000E548FDF7E9FE4FF44870FDF7FAFE002081
:10C0B000042101224FF6E073CDE90432CDE90610E8
:10C0C00040F21F5047F6FF7103220623CDE90032EC
:10C0D000CDE902101E233C220521084602F0A0F9FA
:10C0E000D648FDF7C9FE4FF44870FDF7DAFE01208F
:10C0F00004214FF6E073CDE90430CDE906101F208E
:10C100004FF61F0103220A23CDE90032CDE90210C8
:10C110001E233C220521084602F082F9BD200C2294
:10C120006423CDE9082007930A901420D900C04A5F
:10C130000123CDE90332CDE905109200CDE90113C9
:10C1400000921A46BC4801F069FB40F23510BD214F
:10C150000C223223CDE90732CDE909104FF41670D5
:10C160001901B34A0123CDE90332CDE90510B34AE1
:10C17000CDE9011300921A46B04801F04FFBE3E10C
:10C18000AF48FDF779FE4FF44870FDF78AFE0120B5
:10C1900004214FF6E073CDE90430CDE906104FF4E9
:10C1A0007840002104220323CDE90032CDE90210BA
:10C1B000282346220521084602F032F9A1A04FF6B5
:10C1C000E07300220A210090084602F08FFB9FA036
:10C1D0004FF6E07300220A210090502002F086FB07
:10C1E0009CA04FF6E07300220A210090962002F0F6
:10C1F0007DFB9AA04FF6E07300220A210090DC201C
:10C2000002F074FB97A04FF6E07340F21F525F21DB
:10C2100000901E2002F06AFB93A04FF6E07340F2FC
:10C220001F525F210090642002F060FB8FA04FF648
:10C23000E07340F21F525F210090AF2002F056FBE6
:10C2400088A04FF6E07340F21F525F210090F0206B
:10C2500002F04CFB109800EB4000854908444FF673
:10C26000E07340F21F5237210090232002F03EFB82
:10C270000F9800EB40007E4908444FF6E07340F20F
:10C280001F5237210090692002F030FB0E9800EB1E
:10C290004000774908444FF6E07340F21F523721BF
:10C2A0000090AF2002F022FB0D9800EB4000704997
:10C2B00008444FF6E07340F21F5237210090F520FA
:10C2C00002F014FB5B48FDF7D7FD4FF44870FDF713
:10C2D000E8FD0020042101224FF6E073CDE904328D
:10C2E000CDE9061040F21F504FF478410322042399
:10C2F000CDE90032CDE90210282346220521084667
:10C3000002F08EF85BA040F21F534FF478420F21E9
:10C3100000900A2002F0EAFA58A040F21F534FF4AE
:10C320007842372100900A2002F0E0FA55A040F24E
:10C330001F534FF478425F2100900A2002F0D6FA92
:10C3400052A040F21F534FF47842872100900A20F8
:10C3500002F0CCFA4FA040F21F5300220F210090B0
:10C36000A22002F0C3FA4CA040F21F530022372152
:10C370000090A82002F0BAFA48A040F21F53002211
:10C380005F210090AF2002F0B1FA45A040F21F53A8
:10C39000002287210090AF2002F0A8FA109800EB4D
:10C3A00040003349084440F21F5300220F210090FF
:10C3B000692002F09BFA0F9800EB40002C490844DA
:10C3C00040F21F53002237210090692002F08EFABC
:10C3D0000E9800EB40002649084440F21F5300220B
:10C3E0005F210090692002F081FA0D9800EB400077
:10C3F0001F49084440F21F53002287210090692002
:10C4000002F074FA812040F221110C221423CDE9AC
:10C410000732CDE90910DC204FF44871044A0123AA
:10C42000CDE90332CDE905105200CDE9011339E021
:10C4300000B80B000028230000E02E0000983A000E
:10C440000070170054656D702E000000446973740D
:10C450002E000000566F6C74000000004469666690
:10C460002E000000A1E60000636D000056000000F1
:10C470002900002048756D692E0000004375727216
:10C480002E000000506F7765720000005365632E28
:10C4900000000000255248006D4100006B5700006D
:10C4A0005300000000921A46284801F0B7F9A9206D
:10C4B000DB210C229623CDE90732CDE90910DC20DF
:10C4C0004FF44871224A0123CDE90332CDE905102A
:10C4D000204ACDE9011300921A461E4801F09EF948
:10C4E0001098401CC0B210900F98401CC0B20F9022
:10C4F0000E98401CC0B20E901098132801DD002049
:10C5000010900F98132801DD00200F900E9813282B
:10C5100001DD00200E900C98401CC0B20C900C98CD
:10C5200002280AD100200C900D98401CC0B20D903A
:10C530000D98132801DD00200D90642004F096FD75
:10C54000012801D111B000BD1AE6000000701700EB
:10C5500000B80B00002823002DE9F0410546002417
:10C56000284600F06EFA00BF15E00D4F661C37F844
:10C570002660B3B2661C06EB46061436B2B23E46DF
:10C5800036F82460B1B204EB44061436B0B201F0C0
:10C59000D3FB601C84B2FD2CE7DBBDE8F08100001A
:10C5A000940A00202DE9F04105460024284600F0B9
:10C5B00048FA00BF15E00D4F661C37F82660B3B28D
:10C5C000661C06EB46061436B2B23E4636F82460C8
:10C5D000B1B204EB44061436B0B201F0ADFB601CFE
:10C5E00084B2FD2CE7DBBDE8F0810000AC01002047
:10C5F00010B54FF4007000F011F828B10120034984
:10C600000870400200F004F810BD00001A0000207D
:10C6100001490860704700001404014001460020F1
:10C620000022074B1B6803EA0102054B14331B6809
:10C630000B4013B10AB1012000E000207047000058
:10C6400000040140002123498279002A3AD00A4699
:10C65000126803689A430B461A600A1D1268036841
:10C660009A430B1D1A60027911440A6803681A4341
:10C670000A60184A0832126803689A43154B083357
:10C680001A601A1D126803689A43124B0C331A6021
:10C690004279102A0ED11A1F126803681A430D4BF3
:10C6A00008331A601A1D126803681A43094B0C33C9
:10C6B0001A600DE00749427911440A6803681A4379
:10C6C0000A6005E0027911440A6803689A430A6027
:10C6D000704700000004014070B504460D467B2001
:10C6E00000F0A2FFE0B200F0ACFF7C2000F09CFF65
:10C6F000201200F0A6FF7D2000F096FFE8B200F0C7
:10C70000A0FF7E2000F090FF281200F09AFF70BD7D
:10C7100070B504460D46772000F086FFE0B200F0C9
:10C7200090FF782000F080FF201200F08AFF79202F
:10C7300000F07AFFE8B200F084FF7A2000F074FF86
:10C74000281200F07EFF70BD10B5CD2000F06CFF08
:10C7500000F070FF044644F08004204600F071FFB2
:10C7600010BD10B53C2000F05FFF00F063FF0446F1
:10C7700044F01004204600F064FF10BD10B51020F6
:10C7800000F052FF00F056FF044644F080042046BB
:10C7900000F057FF10BD10B5102000F045FF00F06D
:10C7A00049FF044644F04004204600F04AFF10BD13
:10C7B00010B5012000F038FF00F03CFF044644F0C3
:10C7C0000204204600F03DFF10BD10B53C2000F0F3
:10C7D0002BFF00F02FFF044644F00204204600F037
:10C7E00030FF10BD10B53C2000F01EFF00F022FF0E
:10C7F000044644F00104204600F023FF10BD10B5AC
:10C800000B2000F011FF00F015FF044644F0100467
:10C81000204600F016FF10BD7FB5002400BF30E0B9
:10C8200004EB4401184A02EB81014868FDF724FB40
:10C8300004EB4401144A32F82100FDF732FB04EB0B
:10C840004400114901EB8000406804EB44010E4AAA
:10C8500032F8211004EB44020B4B03EB82025288A6
:10C8600004EB4403084D35F82330CDE90032CDE91F
:10C87000021000231A461946012001F084F8601CBA
:10C88000C4B2112CCCDB7FBD6800002010B5CD20D8
:10C8900000F0CAFE00F0CEFE044604F0EF0420468D
:10C8A00000F0CFFE10BD10B5CD2000F0BDFE00F0B1
:10C8B000C1FE044604F0BF04204600F0C2FE10BDD5
:10C8C00010B5CD2000F0B0FE00F0B4FE044644F0F8
:10C8D0004004204600F0B5FE10BD10B5CD2000F09C
:10C8E000A3FE00F0A7FE044604F0FD0404F0FE04DD
:10C8F000204600F0A6FE10BD10B5CD2000F094FE3D
:10C9000000F098FE044604F0FD0444F001042046C3
:10C9100000F097FE10BD10B5CD2000F085FE00F0B0
:10C9200089FE044644F0020404F0FE04204600F0B0
:10C9300088FE10BD10B5CD2000F076FE00F07AFE26
:10C94000044644F0020444F00104204600F079FE5D
:10C9500010BD10B5CC2000F067FE00F06BFE044661
:10C9600004F0DF0444F01004204600F06AFE10BD1D
:10C9700010B5CC2000F058FE00F05CFE044644F0F8
:10C98000200404F0EF04204600F05BFE10BD10B55B
:10C99000CC2000F049FE00F04DFE044604F0DF0418
:10C9A00004F0EF04204600F04CFE10BD10B5CC2082
:10C9B00000F03AFE00F03EFE044644F0800404F02D
:10C9C000BF04204600F03DFE10BD10B5CD2000F0A4
:10C9D0002BFE00F02FFE044604F0F70404F0FB04E5
:10C9E000204600F02EFE10BD10B5CD2000F01CFE3C
:10C9F00000F020FE044604F0F70444F0040420464E
:10CA000000F01FFE10BD10B5CD2000F00DFE00F0AF
:10CA100011FE044644F0080404F0FB04204600F034
:10CA200010FE10BD10B5CD2000F0FEFD00F002FE9E
:10CA3000044644F0080444F00404204600F001FEDB
:10CA400010BD10B50446D22000F0EEFD201200F01B
:10CA5000F8FDD32000F0E8FDC4F3C70000F0F1FDBD
:10CA6000D42000F0E1FDE106080E00F0EAFD10BD63
:10CA700030B500228B071C0F0F2303FA04F20B4B77
:10CA80008C1053F824309343084C8D1044F8253013
:10CA900023468C1053F824308C07240F00FA04F43A
:10CAA0002343024C8D1044F8253030BD080001406E
:10CAB0002DE9F04102460025002600200023002435
:10CAC000002791F803C00CF00F0591F803C00CF09B
:10CAD000100CBCF1000F03D091F802C04CEA050520
:10CAE00091F800C0BCF1000F31D0146800202BE099
:10CAF0004FF0010C0CFA00F3B1F800C00CEA030689
:10CB00009E4220D183004FF00F0C0CFA03F7BC4378
:10CB100005FA03FC4CEA040491F803C0BCF1280FA9
:10CB200006D14FF0010C0CFA00FCC2F814C00AE068
:10CB300091F803C0BCF1480F05D14FF0010C0CFA7D
:10CB400000FCC2F810C0401C0828D1D31460B1F812
:10CB500000C0BCF1FF0F34DD546800202EE000F16E
:10CB6000080C4FF0010808FA0CF3B1F800C00CEA09
:10CB700003069E4221D183004FF00F0C0CFA03F7FD
:10CB8000BC4305FA03FC4CEA040491F803C0BCF171
:10CB9000280F05D100F1080C08FA0CF8C2F814802F
:10CBA00091F803C0BCF1480F07D100F1080C4FF019
:10CBB000010808FA0CF8C2F81080401C0828CED3EF
:10CBC0005460BDE8F0810246002093680B400BB131
:10CBD000012000E00020704702460020D3680B408F
:10CBE0000BB1012000E000207047416170470161F6
:10CBF000704700000EB5032040F21F51002266234B
:10CC0000CDE9002102904FF4B9723E21142001F0C9
:10CC1000A4FA032040F21F5100228E23CDE9002107
:10CC200002904FF4B9726621142001F096FA0320A5
:10CC300040F21F510022B623CDE9002102904FF4AB
:10CC4000B9728E21142001F088FA032040F21F519E
:10CC50000022DE23CDE9002102904FF4B972B62103
:10CC6000142001F07AFA032040F21F5100224FF401
:10CC70008373CDE9002102904FF4B972DE211420B4
:10CC800001F06BFA032040F21F5100224FF497731A
:10CC9000CDE9002102904FF4B9724FF48371142052
:10CCA00001F05BFA032040F21F5100224FF4AB73F6
:10CCB000CDE9002102904FF4B9724FF4977114201E
:10CCC00001F04BFA032040F21F5100224FF4BF73D2
:10CCD000CDE9002102904FF4B9724FF4AB711420EA
:10CCE00001F03BFA032040F21F5100224FF4D373AE
:10CCF000CDE9002102904FF4B9724FF4BF711420B6
:10CD000001F02BFA032040F21F5100224FF4E77389
:10CD1000CDE9002102904FF4B9724FF4D371142081
:10CD200001F01BFA032040F21F5100226623CDE9D7
:10CD3000002102904FF443723E214FF4D77001F06E
:10CD40000CFA032040F21F5100228E23CDE900216E
:10CD500002904FF4437266214FF4D77001F0FDF951
:10CD6000032040F21F510022B623CDE9002102909A
:10CD70004FF443728E214FF4D77001F0EEF9032087
:10CD800040F21F510022DE23CDE9002102904FF432
:10CD90004372B6214FF4D77001F0DFF9032040F25F
:10CDA0001F5100224FF48373CDE9002102904FF40C
:10CDB0004372DE214FF4D77001F0CFF9032040F227
:10CDC0001F5100224FF49773CDE9002102904FF4D8
:10CDD00043724FF483714FF4D77001F0BEF9032012
:10CDE00040F21F5100224FF4AB73CDE900210290B5
:10CDF0004FF443724FF497714FF4D77001F0ADF9CF
:10CE0000032040F21F5100224FF4BF73CDE90021EF
:10CE100002904FF443724FF4AB714FF4D77001F0AE
:10CE20009CF9032040F21F5100224FF4D373CDE947
:10CE3000002102904FF443724FF4BF714FF4D7704A
:10CE400001F08BF9032040F21F5100224FF4E773E9
:10CE5000CDE9002102904FF443724FF4D3714FF4A7
:10CE6000D77001F07AF968A040F21F534FF6FF72B5
:10CE700043210090162001F039FD6AA040F21F53B3
:10CE80004FF6FF726B210090162001F02FFD6DA070
:10CE900040F21F534FF6FF7293210090162001F0CD
:10CEA00025FD6FA040F21F534FF6FF72BB2100908B
:10CEB000162001F01BFD6FA040F21F534FF6FF72CA
:10CEC000E3210090162001F011FD6FA040F21F53E6
:10CED0004FF6FF7240F20B110090162001F006FD94
:10CEE0006DA040F21F534FF6FF7240F233110090D5
:10CEF000162001F0FBFC6DA040F21F534FF6FF72AD
:10CF000040F25B110090162001F0F0FC6DA040F2A1
:10CF10001F534FF6FF7240F283110090162001F06C
:10CF2000E5FC6DA040F21F534FF6FF7240F2AB11CB
:10CF30000090162001F0DAFC6EA040F21F534FF66D
:10CF4000FF72432100904FF4D87001F0CFFC6FA026
:10CF500040F21F534FF6FF726B2100904FF4D870D0
:10CF600001F0C4FC70A040F21F534FF6FF729321F2
:10CF700000904FF4D87001F0B9FC71A040F21F533B
:10CF80004FF6FF72BB2100904FF4D87001F0AEFC59
:10CF900073A040F21F534FF6FF72E32100904FF44D
:10CFA000D87001F0A3FC74A040F21F534FF6FF723B
:10CFB00040F20B1100904FF4D87001F097FC73A071
:10CFC00040F21F534FF6FF7240F2331100904FF4BE
:10CFD000D87001F08BFC74A040F21F534FF6FF7223
:10CFE00040F25B1100904FF4D87001F07FFC73A009
:10CFF00040F21F534FF6FF7240F2831100904FF43E
:10D00000D87001F073FC0EBD31A1A24C54373638F4
:10D0100020426173696320496E666F726D61746945
:10D020006F6E000032A1A24472617720656C6C695A
:10D030007073657320616E6420636972636C6573DD
:10D040000000000033A1A244726177206C696E6514
:10D050007320616E64206375727665730000000052
:10D0600034A1A2447261772072656374616E676C4B
:10D070006573000035A1A24472617720706F6C79EE
:10D08000676F6E730000000036A1A24472617720C2
:10D090007461626C6573000037A1A24472617720ED
:10D0A00063796C696E6465727300000038A1A244F4
:10D0B0004D4120666F722053504920466C61736861
:10D0C0000000000039A1A250696374757265207375
:10D0D0006C696465000000003130A1A24275696C82
:10D0E000742D696E20456E676C69736820666F6E7B
:10D0F000740000003131A1A2437573746F6D697AB9
:10D10000656420666F6E7473000000003132A1A266
:10D11000506963747572652D696E2D5069637475FD
:10D1200072652850495029003133A1A24D656D6FB9
:10D13000727920636F7079284254452900000000FD
:10D140003134A1A24D656D6F727920636F70792FB4
:10D150006F706163697479284254452900000000AA
:10D160003135A1A24E6565646C652064656D6F28DC
:10D1700042544529000000003136A1A2416E696D7C
:10D180006174696F6E284254452900003137A1A2AD
:10D190004272696768746E6573732061646A75733F
:10D1A000746D656E740000003138A1A24D65746520
:10D1B0007220646973706C61790000003139A1A23A
:10D1C00057617665666F726D20646973706C617902
:10D1D0000000000070B504460D46E1B25F2000F08B
:10D1E000E5FA2112602000F0E1FAE9B2612000F0D6
:10D1F000DDFA2912622000F0D9FA70BD70B504463C
:10D200000D46E1B2632000F0D1FA2112642000F053
:10D21000CDFAE9B2652000F0C9FA2912662000F0C3
:10D22000C5FA70BD70B504460D46E1B2402000F06D
:10D23000BDFA2112412000F0B9FAE9B2422000F013
:10D24000B5FA2912432000F0B1FA70BD10B50320E1
:10D2500000F0EAF900F0EEF9044604F0FB04204681
:10D2600000F0EFF910BD10B5132000F0DDF900F06B
:10D27000E1F9044604F07F04204600F0E2F910BD15
:10D2800010B5012000F0D0F900F0D4F9044644F0C4
:10D290000104204600F0D5F910BD62B670470000C9
:10D2A000DF48C088142810DDDD48C088B0F5B97F9C
:10D2B0000BDADB4800893E2807DDD948008966285B
:10D2C00003DA0120D74908707047D548C088142870
:10D2D00011DDD348C088B0F5B97F0CDAD048008999
:10D2E000682808DDCE480089902804DA0220CD495C
:10D2F00008700120E8E7CA48C088142811DDC84832
:10D30000C088B0F5B97F0CDAC5480089922808DDDD
:10D31000C3480089BA2804DA0320C24908700120F2
:10D32000D2E7BF48C088142811DDBD48C088B0F5D9
:10D33000B97F0CDABA480089BC2808DDB8480089F2
:10D34000E42804DA0420B74908700120BCE7B44897
:10D35000C088142812DDB248C088B0F5B97F0DDA54
:10D36000AF480089E62809DDAD480089B0F5877F20
:10D3700004DA0520AB4908700120A5E7A848C08859
:10D38000142813DDA648C088B0F5B97F0EDAA4488A
:10D390000089B0F5887F09DDA1480089B0F59C7F40
:10D3A00004DA06209F49087001208DE79C48C08858
:10D3B000142813DD9A48C088B0F5B97F0EDA984872
:10D3C0000089B0F59D7F09DD95480089B0F5B17FF2
:10D3D00004DA072093490870012075E79048C08857
:10D3E000142813DD8E48C088B0F5B97F0EDA8C485A
:10D3F0000089B0F5B27F09DD89480089B0F5C67FA4
:10D4000004DA08208749087001205DE78448C08855
:10D41000142813DD8248C088B0F5B97F0EDA804841
:10D420000089B0F5C77F09DD7D480089B0F5DB7F55
:10D4300004DA09207B490870012045E77848C08854
:10D44000142813DD7648C088B0F5B97F0EDA744829
:10D450000089B0F5DD7F09DD71480089B0F5F17F05
:10D4600004DA0A206F49087001202DE76C48C08853
:10D47000B0F5D77F11DD6A48C088B0F5437F0CDA7C
:10D48000674800893E2808DD65480089662804DA77
:10D490000B2064490870012016E76148C088B0F588
:10D4A000D77F11DD5E48C088B0F5437F0CDA5C4859
:10D4B0000089682808DD5A480089902804DA0C2081
:10D4C000584908700120FFE65548C088B0F5D77F5D
:10D4D00011DD5348C088B0F5437F0CDA504800890D
:10D4E000922808DD4E480089BA2804DA0D204D49FB
:10D4F00008700120E8E64A48C088B0F5D77F11DD02
:10D500004748C088B0F5437F0CDA45480089BC28FD
:10D5100008DD43480089E42804DA0E2041490870F8
:10D520000120D1E63E48C088B0F5D77F12DD3C48E7
:10D53000C088B0F5437F0DDA39480089E62809DD57
:10D5400037480089B0F5877F04DA0F203549087025
:10D550000120B9E63248C088B0F5D77F13DD3048E6
:10D56000C088B0F5437F0EDA2D480089B0F5887F7A
:10D5700009DD2B480089B0F59C7F04DA1020294989
:10D5800008700120A0E62648C088B0F5D77F13DDDB
:10D590002348C088B0F5437F0EDA21480089B0F5F2
:10D5A0009D7F09DD1E480089B0F5B17F04DA1120A6
:10D5B0001C490870012087E61948C088B0F5D77F5C
:10D5C00013DD1748C088B0F5437F0EDA1448008990
:10D5D000B0F5B27F09DD12480089B0F5C67F04DAE4
:10D5E00012201049087001206EE60D48C088B0F581
:10D5F000D77F13DD0A48C088B0F5437F0EDA0848AC
:10D600000089B0F5C77F09DD05480089B0F5DB7FEB
:10D6100004DA132003490870012055E6002053E680
:10D620008C0100205B01002010B50446204603F069
:10D6300033FC10BD10B5002403F046FCC4B22046F4
:10D6400010BD10B50446204603F058FC10BD70B55F
:10D650000446082C06DA1920FFF7E6FF0020FFF742
:10D66000F0FF0CE02046E11704EB5171C910491E90
:10D67000CDB21920FFF7D8FF2846FFF7E2FF70BDB3
:10D6800070B50446082C06DA1820FFF7CDFF0020FD
:10D69000FFF7D7FF0CE02046E11704EB5171C910EA
:10D6A000491ECDB21820FFF7BFFF2846FFF7C9FF7C
:10D6B00070BD70B504460D46082C1DDA1420FFF726
:10D6C000B3FF0020FFF7BDFF1520FFF7ADFFE0B26D
:10D6D000FFF7B7FF681EC6B21A20FFF7A5FF304656
:10D6E000FFF7AFFF681EC0F307261B20FFF79CFF64
:10D6F0003046FFF7A6FF2BE02046E11704EB5171FF
:10D70000C910491ECEB21420FFF78EFF3046FFF736
:10D7100098FF2046E11704EB5171C910A4EBC10139
:10D72000CEB21520FFF780FF3046FFF78AFF681E54
:10D73000C6B21A20FFF778FF3046FFF782FF681E57
:10D74000C0F307261B20FFF76FFF3046FFF779FF76
:10D7500070BD70B50446082C0CDA1620FFF764FF84
:10D760000020FFF76EFF1720FFF75EFFE0B2FFF724
:10D7700068FF1AE02046E11704EB5171C910491EF9
:10D78000CDB21620FFF750FF2846FFF75AFF20467C
:10D79000E11704EB5171C910A4EBC101CDB2172000
:10D7A000FFF742FF2846FFF74CFF70BD70B50546F6
:10D7B0000C462846FFF738FF2046FFF742FF70BDB2
:10D7C00010B5002403F0D0FB0446204610BD70B510
:10D7D0000446601EC5B21F20FFF726FF2846FFF74C
:10D7E00030FF70BD70B50446601EC5B21E20FFF745
:10D7F0001BFF2846FFF725FF70BD70B50446601E6D
:10D80000C5B21C20FFF710FF2846FFF71AFF1D20A6
:10D81000FFF70AFF2812FFF714FF70BD2DE9F05F34
:10D8200007460C4615461E46DDF848B0DDE90B9A62
:10D83000DDF82880FBF761FEFBF7B1FEFBF7EDFD9D
:10D840003846FBF783FE2046FBF775FE3146284637
:10D85000FBF791FE4046FBF7BEFE4846FBF7B0FEE5
:10D8600050460D99FBF7CCFE0E98FBF7F0FD0F9894
:10D87000FBF7E2FDDDE91001FBF7FEFD0BF0FF0019
:10D88000FBF72AFE0220FBF718FEDDE91301FBF788
:10D89000F1FEFBF705FEFCF704FCBDE8F09F2DE967
:10D8A000F05F06460F4614461D46DDF838B0DDE948
:10D8B0000B9ADDF828800C20FBF70EFE1FFA8BF088
:10D8C000FFF7BFF80F9988B2FBF7E8FEFBF7A5FD5D
:10D8D000FBF722FE3046FBF739FE2846FBF72BFE0E
:10D8E00039460020FBF747FE2046FBF7B0FD2846EF
:10D8F000FBF7A2FD49464046FBF7BEFD0E20FBF7B5
:10D90000DCFD50460D99FBF7B5FEFBF7C9FDFCF7B2
:10D91000C8FBBDE8F09F2DE9F05F06460F461446B0
:10D920001D46DDF838B0DDE90B9ADDF828801FFAD6
:10D930008BF0FFF786F8FBF770FD0720FBF7CCFDB7
:10D94000FBF7EAFD3046FBF701FE2846FBF7F3FD47
:10D9500039460020FBF70FFE2046FBF778FD2846EE
:10D96000FBF76AFD49464046FBF786FD0F20FBF7B3
:10D97000A4FD50460D99FBF77DFEFBF791FDFCF7EA
:10D9800090FBBDE8F09F2DE9F05F04460D4616467A
:10D990001F46DDE90CABDDE90A89FEF709FF0CB98A
:10D9A00004F02DF8012C01D104F036F804F041F810
:10D9B000284603F05BFA39463046FFF70BFC394640
:10D9C000304603F04DF94946404603F0AEF9504663
:10D9D00003F07FF9584603F05FF904F008FFFCF705
:10D9E00072FBBDE8F09F2DE9F04104460D46164656
:10D9F0001F46DDF81880FEF7DBFE0CB903F0FFFFD1
:10DA0000012C01D104F008F801F0E9FE04F011F84E
:10DA1000284603F02BFA384603F005F9404603F098
:10DA200067F9304603F038F9FCF74DFB04F0DFFEF0
:10DA3000FCF749FB01F0FEFEBDE8F08110B5FCF7F4
:10DA40009CFE10BD10B5FCF7BFFE10BD2DE9F041E6
:10DA500006460F4614461D46A8B2FEF7F2FF3946A9
:10DA60003046FCF74EFB2046FCF767FB04F044FE13
:10DA7000FCF70EFBBDE8F0812DE9F04706460F46A6
:10DA800014461D46DDE9099ADDF820801FFA8AF068
:10DA9000FEF7D7FF3946304604F0C4FD294620463C
:10DAA00004F0A4FD49464046FCF762FB04F010FE7A
:10DAB000FCF7EEFABDE8F0872DE9F04706460F4681
:10DAC00014461D46DDE9099ADDF820801FFA8AF028
:10DAD000FEF7B7FF3946304604F0A4FD294620463C
