:020000040800F2
:10000000282F002001010008050100080701000851
:10001000090100080B0100080D01000800000000A4
:100020000000000000000000000000000F010008B8
:10003000110100080000000013010008150100086C
:100040001701000817010008170100081701000830
:100050001701000817010008170100081701000820
:100060001701000817010008170100081701000810
:100070001701000817010008170100081701000800
:1000800017010008170100081701000817010008F0
:1000900017010008170100081701000817010008E0
:1000A00017010008170100081701000817010008D0
:1000B00017010008170100081701000817010008C0
:1000C00017010008170100081701000817010008B0
:1000D00017010008170100081701000817010008A0
:1000E000170100081701000817010008DFF80CD0FD
:1000F00000F024FA0048004725580008282F002067
:1001000005480047FEE7FEE7FEE7FEE7FEE7FEE7FD
:10011000FEE7FEE7FEE7FEE7ED0000082DE9F0410F
:100120000024061B254671F1000605DA012400278C
:10013000D0EB070067EB0101161E73F1000605DA2C
:100140000027D2EB0702012567EB030300F057F904
:1001500086460E4617469C46AC4204D00025D0EB9E
:10016000050E65EB010624B10020D2EB000760EB21
:10017000030C704631463A466346BDE8F08140EADA
:1001800001039B0703D009E008C9121F08C0042A15
:10019000FAD203E011F8013B00F8013B521EF9D2FC
:1001A0007047D2B201E000F8012B491EFBD2704724
:1001B0000022F6E710B513460A4604461946FFF733
:1001C000F0FF204610BD034611F8012B00F8012B6B
:1001D000002AF9D1184670472DE9FE4F81EA030441
:1001E00004F0004421F0004100944FF0000B23F094
:1001F000004350EA01045ED052EA03045BD0C3F32B
:100200000A54C1F30A552C44A4F2F3340194A0FB20
:100210000254C1F3130141F48011C3F3130343F4F7
:10022000801301FB024400FB034E840A970A44EA50
:10023000815447EA8357A4FB076802958D0A05FBA2
:1002400007854FEA932C04FB0C542705029D4FEAC7
:10025000065847EA1637B5EB08056EEB070C870E14
:10026000920E47EA811742EA8312A7FB0201B6EB1E
:100270000B0164EB00042B0D43EA0C335E1844EBD6
:100280001C50DA465146E7FB0201C5F313044FEA5E
:100290000B3343EA14534FEA0432019C43EA06034A
:1002A000A4F10C040294009CCDE900B400F0F7F82E
:1002B00003B0BDE8F08F00200146F9E72DE9F04DCD
:1002C00081EA030404F0004B21F0004514464FF08E
:1002D000000A23F0004150EA050220D054EA01024E
:1002E0001DD0C5F30A570246C5F31303C1F313002B
:1002F000C1F30A5640F4801543F48013A7EB0608B7
:10030000101BD64608F2FD3873EB050002D308F146
:10031000010801E092185B41B8F1000F03DA0020F8
:100320000146BDE8F08D00204FF48011064684465A
:100330000EE0171B73EB050705D3121B63EB0503D8
:1003400006434CEA010C49084FEA300092185B4121
:1003500050EA0107EDD152EA030012D082EA04000C
:1003600083EA0501084305D0101BAB4106D20122E8
:10037000002306E000224FF0004302E06FF001028C
:1003800053101AEB06004CEB085110EB0A0041EB3E
:100390000B01BDE8F04D00F073B80EB540F23341EB
:1003A00002910021CDE900110A460B4600F077F8D2
:1003B00003B000BD0EB540F2334202920022CDE9F7
:1003C0000022134600F06BF803B000BDC1F30A52DF
:1003D00010B5C1F3130140F2FF3341F480119A428A
:1003E00001DA002010BD40F233439A42A2F23342B8
:1003F00003DC524200F034F810BD904010BD2DE9EE
:10040000F05F0546002092469B4688460646814698
:1004100040241BE0284641464746224600F020F88B
:1004200053465A46C01A914110D3114618462246E7
:1004300000F096F82D1A67EB01084F46224601207E
:10044000002100F08DF817EB00094E41201EA4F1A9
:100450000104DFDC484631462A464346BDE8F09FAA
:10046000202A04DB203A21FA02F00021704721FA09
:1004700002F3D040C2F12002914008431946704770
:1004800010B5141E73F1000408DA401C41F100019C
:1004900092185B411A4301D120F0010010BD2DE9F3
:1004A000F04D92469B4611B1B1FA81F202E0B0FAEA
:1004B00080F22032904600F053F804460F4640EA9E
:1004C0000A0041EA0B0153465A46084313D011462D
:1004D00053EA010019D0C8F140025046FFF7C0FFAF
:1004E00005460E4650465946424600F039F8084344
:1004F00005D0012004E020463946BDE8F08D0020FB
:10050000054346EAE0762C4337430A986305E40A3C
:10051000A0EB08000022FD0A44EA47540A3002D545
:1005200000200146E9E7010510196941DDE90845A8
:1005300000196941BDE8F04DA2E70000064C074DE7
:1005400006E0E06840F0010394E8070098471034A3
:10055000AC42F6D3FFF7CEFD80690008A069000821
:10056000202A04DB203A00FA02F100207047914073
:10057000C2F1200320FA03F31943904070470000B2
:1005800010B54168084C8142616007D20820B0EB89
:10059000116F03D005A003F0B7FDFEE701F0E1F80D
:1005A0006068BDE810400047000000204552524FEF
:1005B00052202041505020416464726573730D0ACB
:1005C000000000002DE9F04F0025ADF2744D074604
:1005D000AB462C462E46012282A18BA8CDF8605452
:1005E00004F0F8FC0122394601A804F019FD20B1FD
:1005F00040B20DF2744DBDE8F08F4FF6FF784FF426
:100600008059049F13E078A0009043460022FA210D
:100610000A2001F0CFFA0AE00A2C08D173A000905A
:1006200043460022FA210A2001F0C4FA0024641C87
:10063000E4B20DF25C434A466D4901A804F095FD11
:1006400060B9DDF85C1449B16948DDF8602401F057
:100650003BF8CDF86004052CDED1D4E7002101A8D9
:1006600004F0ACFB052C02D00A2C0AD013E05EA0EB
:1006700000904FF6FF730022FA210A2001F09AFA47
:1006800009E05AA000904FF6FF730022FA210A20D9
:1006900001F090FA002464206843B0FBF7F0641C7A
:1006A000C1B2E4B2642900D163210DF2644005F0C7
:1006B00000FB0DF264404FF6FF78009043460022A5
:1006C000642140F2131001F075FA4FF000090DF2A9
:1006D0005C434FF40062464901A804F046FDE8B9C6
:1006E000DDF85C14D1B10022414800F0EDFFCDF8F7
:1006F0007004404805EB000A3F480090DDF85C04B8
:100700003B49C0F34F02DFF8EC80504602F0A2FEF6
:100710000020374A4346DDF85C140FE001A804F0DE
:100720003FFB4FF47A691FE005EB000C1CF803C097
:1007300002EB0008401C88F800C880B28842F3D35E
:100740000022009800F0C0FFDDF87014814207D04D
:1007500009F1010000F0FF09B9F1030FCED13BE030
:10076000DDF85C0405447DE7052C02D00A2C09D095
:1007700011E01DA0009043460022FA210A2001F05A
:1007800019FA08E019A0009043460022FA210A2035
:1007900001F010FA0024641CB81B4D46E4B2A842D4
:1007A00001D3002002E085B2002006E01149321892
:1007B000525C0F490A54401C80B2A842F6D35A46F4
:1007C00029460B4800F080FF2E448346BE42CBD121
:1007D000DDF860148B4502D04FF0FF3009E70020B0
:1007E00007E70000303A00002A200000202A00001D
:1007F0006404002000800008640C002070B50C46E2
:100800000546C1B25A2001F0B8F8290A5B2001F070
:10081000B4F8E1B25C2001F0B0F8210ABDE8704004
:100820005D2001F0AAB870B50C460546C1B256204D
:1008300001F0A3F8290A572001F09FF8E1B25820EF
:1008400001F09BF8210ABDE87040592001F095B8ED
:1008500010B50446D52001F00BF8200A01F00CF881
:10086000D62001F005F8C4F3C70001F005F8D72041
:1008700000F0FEFFE006BDE81040000E00F0FCBFF7
:1008800010B5CC2000F0F4FF00F0F4FFBDE81040FC
:1008900000F03F0000F0F0BF10B50446C1B2502098
:1008A00001F06BF8C4F30721512001F066F8C4F39E
:1008B0000741522001F061F8210EBDE8104053209D
:1008C00001F05BB810B50446C1B2542001F055F8F0
:1008D000210ABDE81040552001F04FB82DE9104025
:1008E00001F054F80007FBD410BD00002DE9F05FC3
:1008F000440483460025264603F0A3F94FF48059AB
:100900004FF400672A4649464048FFF74AFC3A46FA
:1009100031463E4803F0DBFA6D1CADB206F50066C9
:10092000402DEFD3DFF8E4A026460025B846424626
:100930003146364803F04BFA00205746395CA9424D
:1009400054D1401C80B24045F8D36D1CADB206F5C1
:100950000066402DEBD3584603F073F92646002578
:10096000A52249462948FFF71CFC42463146274844
:1009700003F0ADFA6D1CADB206F50066402DEFD365
:100980002646002542463146204803F020FA002042
:10099000395CA5292AD1401C80B24045F8D36D1C92
:1009A000ADB206F50066402DECD3584603F049F988
:1009B00026460025FF2249461448FFF7F2FB42462F
:1009C0003146124803F083FA6D1CADB206F500669D
:1009D000402DEFD3254600244646324629460B4893
:1009E00003F0F5F90020395CFF2902D00120BDE8B1
:1009F000F09F401C80B2B042F5D3641CA4B205F550
:100A00000065402CE9D30020F1E7000064040020D9
:100A10002DE9104000F0BAFF0007FBD410BD000024
:100A20002DE9104000F0B2FF0006FBD410BD00001D
:100A30002DE9104000F0AAFF4007FBD510BD70B5AE
:100A400000254FF4803405E0802001F0C9FB08B197
:100A500044B101E0641EF7D240F2FF5001F07CFB8C
:100A6000284670BD032070BD70B5124C0546606B02
:100A700010F0450FFBD0042001F0B2FB20B10420A0
:100A800001F06AFB032070BD012001F0A9FB20B139
:100A9000012001F061FB012070BD2069A84201D056
:100AA000102070BD40F2FF50A063606900F00800A4
:100AB00070BD00000080014010B500244FF480316B
:100AC0000E4A09E0506B10F0450F05D009B1400700
:100AD00005D5032404200CE0491EF3D2F7E70120DA
:100AE00001F07EFB18B10124204601F035FB40F2F5
:100AF000FF5001F031FB204610BD00000080014096
:100B000010B50A49486B10F0450FFBD0042001F0E6
:100B100067FB20B1042001F01FFB032010BD40F251
:100B2000FF5001F019FB002010BD000000800140C3
:100B30002DE9F0411B4C0E4607460025606B10F076
:100B4000450FFBD0042001F04BFB28B1042001F03D
:100B500003FB0320BDE8F081012001F041FB20B13F
:100B6000012001F0F9FA0120F4E72069B84210D120
:100B700040F2FF5001F0F0FA626912F4604F03D0C6
:100B8000900404D51320E5E7100C308007E05004F2
:100B900001D51020DEE7100401D50F20DAE7284642
:100BA000D8E700000080014010B500244FF48031E8
:100BB0000B4809E0426B12F0450F05D009B1500710
:100BC00005D50324042006E0491EF3D2F7E75006BA
:100BD00003D50024402001F0BFFA204610BD0000DC
:100BE0000080014010B5132000F042FE00F042FEEC
:100BF000BDE8104000F0DF0000F03EBE00290168B3
:100C000002D041F0010102E04FF6FE721140016096
:100C10007047000001684FF6FE721140016000212C
:100C2000016041608160C1603149314A08399042B8
:100C300003D1486840F00F0006E02D4A143290427C
:100C400004D1486840F0F00048607047284A2832D4
:100C5000904203D1486840F47060F5E7244A3C3282
:100C6000904203D1486840F47040EDE7204A50328A
:100C7000904203D1486840F47020E5E71C4A643292
:100C8000904203D1486840F47000DDE7184A78329A
:100C9000904203D1486840F07060D5E7154A111FB3
:100CA000904203D1086840F00F0006E0114A143268
:100CB000904204D1086840F0F000086070470D4A87
:100CC0002832904203D1086840F47060F5E7094A81
:100CD0003C32904203D1086840F47040EDE7054A89
:100CE00050329042EAD1086840F47020E5E70000F5
:100CF000080002400804024030B5036847F6F0726D
:100D000093430C6A8A682243D1E904452C43224369
:100D10008C692243CC6922434C6A22438C6A224369
:100D20001A430260CA6842600A6882604968C1600A
:100D300030BD000004494FF0883008600249FF20B0
:100D40000C31086070470000000C01400148006849
:100D5000C0B27047080C014010B5CD2000F088FDEE
:100D600000F088FDBDE8104000F07F0000F084BD79
:100D700010B5122000F07CFD00F07CFDBDE81040B5
:100D800040F0400000F078BD10B5CD2000F070FDBF
:100D900000F070FDBDE8104040F0800000F06CBD38
:100DA00010B5012000F064FD00F064FDBDE81040C6
:100DB00040F0020000F060BD70B505464FF43026EB
:100DC000304600F059F8042811D1094C206940F050
:100DD000020020616561206940F0400020613046DA
:100DE00000F04AF8216941F6FD721140216170BDA1
:100DF0000020024008490420CA68D20701D001201F
:100E00007047CA68520701D502207047C968C906F1
:100E1000FBD5032070470000002002400248016912
:100E200041F080010161704700200240F0B50646A4
:100E30004FF400570D46384600F01EF804280CD138
:100E4000064C206940F0010020613580384600F0F2
:100E500013F82169BA1E11402161F0BD0020024043
:100E600003480249416003494160704723016745D7
:100E700000200240AB89EFCD00B50346FFF7BAFF73
:100E800003E000BFFFF7B6FF5B1E012803D0002B75
:100E900000D1052000BD002BF4D1FAE72DE9FC5F5D
:100EA0000025494C00954FF4806801954027C4F80F
:100EB0001080C4E902750E464FF0080B1021C4E9FA
:100EC00000B1A946204601F0B9F91020FFF7CCFD8A
:100ED00000284DD13D48BA464F46008900042060A5
:100EE0003720C4E9010AC4E90398204601F0A6F9B5
:100EF0003720FFF7B9FD00283AD1411E04F1140054
:100F0000C0E9001B302181600221C0E903170121E3
:100F1000416101F03DF93320C4F808A0C4E9007034
:100F2000C4E90378204601F089F93320FFF79CFDDE
:100F300004001DD1264F4FF4001AE94640F22A68FA
:100F4000786B10EA080F0BD1504601F049F90028E0
:100F5000F6D001F06DF949F825006D1C022DEFD394
:100F6000082001F03DF928B1082001F0F5F804202F
:100F7000BDE8FC9F022001F033F920B1022001F00E
:100F8000EBF80220F4E7202001F02AF920B120201C
:100F900001F0E2F80620EBE74FF40075284601F077
:100FA0001FF920B1284601F0D7F80720E0E740F20A
:100FB000FF5001F0D1F8009800BA7060019800BAB3
:100FC00030602046D4E70000801C00204000002054
:100FD000008001402DE9F34F0024ADF2A44D80467E
:100FE0002646CDF86C44274625460122AEA18BA8A3
:100FF000CDF8684403F0EEFF0122414601A804F059
:101000000FF820B140B20DF2AC4DBDE8F08F4FF4B7
:101010008058DDF8109015E0A4A000904FF6FF7303
:101020000022FA210A2000F0C5FD0BE00A2D09D1AB
:101030009FA000904FF6FF730022FA210A2000F0D3
:10104000B9FD00256D1CEDB20DF27443424699497D
:1010500001A804F08AF860B9DDF8741449B1954824
:10106000DDF86C2400F030FBCDF86C04052DDDD1EB
:10107000D2E7002101A803F0A1FE8F48CDF8780443
:101080004846FFF78AF9CDF88414CDF87C04052D85
:1010900002D00A2D0AD013E084A000904FF6FF730F
:1010A0000022FA210A2000F085FD09E080A00090CE
:1010B0004FF6FF730022FA210A2000F07BFD002585
:1010C0006D1CEDB220463146DDF884A4DDF87C8449
:1010D000FFF770F90022794BFFF77EF8424653463E
:1010E000FFF7ECF8FFF772F9C1B2642900D1632170
:1010F0000DF2944004F0DDFDDDF8A80401280AD1CA
:101100000DF2944000904FF6FF730022322140F21E
:10111000131000F04FFD4FF000084FF4006A0DF27D
:1011200074435246634901A8CDF8908404F01DF839
:1011300098B9DDF8741481B100225E4800F0C4FA59
:1011400082465F48007878B1600C40EAC6301FFAEA
:1011500080FBE003C00B22D024E001A803F020FEB6
:101160005646DFF85C815BE0200C40EA06401FFA3F
:1011700080FB2004000C02D1584602F0E1FEDDF8AD
:101180007404214682B24B4802F06FFFDDF874040C
:10119000214682B2DDF8780402F000FF11E05846E3
:1011A00002F04FFDDDF87404214682B2414802F09E
:1011B0008EFEDDF87404214682B2DDF8780402F078
:1011C00006FE0022DDF87414DDF8780400F07CFAE5
:1011D000824513D008F1010000F0FF08B8F1030FB9
:1011E000AFD137480078E8B3584602F04DFC10B153
:1011F0006FF0010007E70120CDF89004DDF87404DA
:101200002418DDF8900446F1000600283FF43FAFB3
:101210004FEA4B44214601A803F0D0FDE61736E71C
:10122000052D02D00A2D0AD013E020A000904FF621
:10123000FF730022FA210A2000F0BCFC09E01CA088
:1012400000904FF6FF730022FA210A2000F0B2FC52
:1012500000256D1CA9EB07003446EDB2A04200D278
:1012600084B200E018E098F80000224600281148F7
:10127000394614D002F0ABFD21460E48DDF8682453
:1012800000F022FA2744CDF868044F45C8D10DF587
:101290008D6003C8884205D04FF0FF30B3E602F0FE
:1012A0007DFEE9E70020AEE6303A00002A2000008B
:1012B000202A000064040020640C00200000594033
:1012C00014000020FEB502F093FE404D404C022178
:1012D000286021700021A0F56F42133A25D0A0F5B7
:1012E0006F42143A24D0A0F56F42153A25D0A0F5EC
:1012F0006F42163A28D0A0F56F42173A27D0012640
:10130000A0F56F42183A29D0A0F53062163A34D0D1
:1013100002F0BAFC2F492860884232D12EA02670F4
:1013200090E807008DE8070005E021702DA110E08E
:1013300021702EA10DE0694624E02EA02170D0E995
:101340000010CDE90010F6E721702CA101E021701A
:101350002CA1D1E90001CDE90001ECE721702BA11E
:10136000D1E90001CDE9000169462A48FEF72BFFCB
:101370002948067002F008FE07E028A2217007CA7B
:10138000D0E729A12348FEF71EFF4FF6FF75222361
:10139000F0220A210020009500F021FB25A0002268
:1013A00000902B460A21104600F004FC19480090DA
:1013B0002B464FF478420A21902000F0FBFB207866
:1013C000022801D00020FEBD0120FEBD000000204B
:1013D0001400002021AAEF005732354E3031475615
:1013E0000000000057323551383000005732355177
:1013F0003136000057323551333200005732355103
:1014000036340000573235513132380057323551B9
:101410003235360058000020130000205854323571
:1014200046363442000000004E6F20466C617368FF
:1014300000000000466C617368204D6F64656C3A73
:101440000000000010B5CD2000F012FA00F012FAF2
:10145000BDE8104000F0BF0000F00EBA10B5CD207E
:1014600000F006FA00F006FABDE8104040F0400037
:1014700000F002BA10B5CD2000F0FAF900F0FAF948
:10148000BDE8104000F0FC0000F0F6B910B5CD202A
:1014900000F0EEF900F0EEF900F0FD00BDE81040BC
:1014A00040F0010000F0E8B910B5CD2000F0E0F9FF
:1014B00000F0E0F900F0FE00BDE8104040F002004E
:1014C00000F0DAB910B5CD2000F0D2F900F0D2F971
:1014D000BDE8104040F0030000F0CEB910B5CC20BC
:1014E00000F0C6F900F0C6F900F0DF00BDE81040DA
:1014F00040F0100000F0C0B910B5CC2000F0B8F9F1
:1015000000F0B8F900F0EF00BDE8104040F0200016
:1015100000F0B2B910B5CC2000F0AAF900F0AAF999
:10152000BDE8104000F0CF0000F0A6B910B5CD2006
:1015300000F09EF900F09EF9BDE8104000F0F300C5
:1015400000F09AB910B5CD2000F092F900F092F9B0
:1015500000F0F700BDE8104040F0040000F08CB946
:1015600010B5CD2000F084F900F084F900F0FB0004
:10157000BDE8104040F0080000F07EB910B5CD2065
:1015800000F076F900F076F9BDE8104040F00C006C
:1015900000F072B910B50446D22000F069F9200AB3
:1015A00000F06AF9D32000F063F9C4F3C70000F03B
:1015B00063F9D42000F05CF9E006BDE81040000EAD
:1015C00000F05AB9F0B5CA78002502F00F03D20630
:1015D00001D58A7813430A784FF00F0E12F0FF0FEF
:1015E0004FF001021CD004680F8802FA05F637405C
:1015F000B74211D14FEA850C0EFA0CF724EA07071F
:1016000003FA0CF43C43CF78282F02D0482F02D0A5
:1016100002E0466100E006616D1C082DE4D3046021
:101620000C88FF2C1ED944685FF0000606F10807FD
:1016300002FA07F50F882F40AF420FD14FEA860C10
:101640000EFA0CF7BC4303FA0CF73C43CF78282F73
:1016500000D14561CF78482F00D10561761C082E56
:10166000E4D34460F0BD0000F0B5144C002801DA6A
:10167000E36900E06368420D120185B2C0F30157CF
:101680009540C0F30346032F05D0C2020AD50322BA
:10169000B240934307E023F07062636823F0706305
:1016A000636002E0AB4343F0706201B12A4300285B
:1016B00001DAE261F0BD6260F0BD000000000140AF
:1016C000416170470161704730B5034610460029FB
:1016D0000AD0064A13F8015BC4B26C40491E52F8A6
:1016E000244084EA1020F5D130BD000064000020C1
:1016F00070B50C460546C1B2632000F03EF9290AD8
:10170000642000F03AF9E1B2652000F036F9210AD0
:10171000BDE87040662000F030B910B5032000F03D
:10172000A7F800F0A7F8BDE8104000F0FB0000F0BB
:10173000A3B810B5132000F09BF800F09BF8BDE8AB
:10174000104000F07F0000F097B810B5012000F0C5
:101750008FF800F08FF8BDE8104000F0FE0000F0B8
:101760008BB872B6704762B67047000038B5012179
:101770001D2000F0B1FB01211848FFF775FFFF2085
:10178000ADF8000010248DF8034003258DF80250B9
:1017900069461348FFF716FF7020ADF800008DF87A
:1017A00003408DF8025069460E48FFF70BFFE00238
:1017B000ADF800008DF803400B4C8DF802506946DF
:1017C0002046FFF7FFFEA015ADF8000004208DF8BD
:1017D000030069462046FFF7F5FE38BD00023000E1
:1017E000000C0140001001400008014038B50546DA
:1017F0001C490020009009890A041B490A600D2237
:101800004A604022C1E9022010010861084600F048
:1018100015FD164C606B009010F0450FFAD00120BA
:1018200000F0DEFC20B1012000F096FC012038BD64
:10183000042000F0D5FC20B1042000F08DFC032032
:1018400038BD20690D2801D0102038BD40F2FF506E
:1018500000F082FC60690090C0F3432028700020F3
:1018600038BD000040000020801C002000800140A6
:1018700000F0A0BB00F0BEBB00F0E0BB10B5082834
:1018800004D21920FFF7F4FF002007E0FF2101EB4D
:10189000D000C4B21920FFF7EBFF2046BDE810408E
:1018A000FFF7EABF10B5082804D21820FFF7E0FFC1
:1018B000002007E0FF2101EBD000C4B21820FFF7A1
:1018C000D7FF2046BDE81040FFF7D6BF2DE9F04115
:1018D0004E1E0546C6F3072408280AD21420FFF737
:1018E000C7FF0020FFF7C8FF1520FFF7C1FFE8B2D0
:1018F0000FE0FF2000EBD500C7B21420FFF7B8FFC0
:101900003846FFF7B9FF05F007051520FFF7B0FFD0
:101910002846FFF7B1FFF5B21A20FFF7A9FF2846C6
:10192000FFF7AAFF1B20FFF7A3FF2046BDE8F04109
:10193000FFF7A2BF70B5044608280AD21620FFF7A9
:1019400097FF0020FFF798FF1720FFF791FFE0B205
:101950000FE0FF2000EBD400C5B21620FFF788FF90
:101960002846FFF789FF04F007041720FFF780FFE0
:101970002046BDE87040FFF77FBF10B50C46FFF76B
:1019800077FF2046BDE81040FFF776BF00F076BB3A
:1019900010B5401EC4B21F20FFF76AFF2046BDE805
:1019A0001040FFF769BF10B5401EC4B21E20FFF7FC
:1019B0005FFF2046BDE81040FFF75EBF10B5401E38
:1019C000C4B21C20FFF754FF2046FFF755FF1D202F
:1019D000FFF74EFFBDE810400020FFF74DBF2DE997
:1019E000F041054606981E4617460C4680B2FFF7A2
:1019F000D1FD2146284601F00DFF3146384601F061
:101A0000ECFE01F030FFBDE8F041FEF767BF0000DB
:101A100038B50121042000F05FFA0820ADF800007D
:101A200010208DF8030003200A4C8DF8020069464F
:101A30002046FFF7C7FD08212046FFF741FE322070
:101A400002F004FF08212046FFF73CFE642002F06C
:101A5000FDFE38BD0008014010B5642002F0F6FE1E
:101A6000FFF7D6FF01F04AFF642002F0EFFE00BF4F
:101A7000FFF78CFF8007FBD4BDE8104000F042B9AF
:101A80002E482F492F4BB0FBF1F201FB1202B2FBA3
:101A9000F3F2B0FBF1F170B5052A00D3491CCAB2CC
:101AA000294801EB4101C9B282704170017064297B
:101AB00002D9642101704170412A01D9412181700C
:101AC00041784D00017880784C0046000520FFF7F2
:101AD000CFFE300A40F0CA00FFF7CEFE0720FFF726
:101AE000C7FE280A40F0CA00FFF7C6FE0920FFF72C
:101AF000BFFE200A40F0CA00FFF7BEFE0620FFF737
:101B0000B7FEF0B2FFF7B8FE0820FFF7B1FEE8B26B
:101B1000FFF7B2FE0A20FFF7ABFEE0B2FFF7ACFE24
:101B20000020FFF7A5FE012002F0AAFE8020FFF7AB
:101B3000A3FEBDE87040012002F088BE80131002B1
:101B400040420F00A0860100100000202DE9F04166
:101B50001E4617460C460546DDF8188001F0FEFCCF
:101B6000384601F0FAFD34B1012C07D0022C08D020
:101B7000032C09D00AE001F0FFFC07E001F008FDAA
:101B800004E001F013FD01E001F01EFD304601F01C
:101B9000FEFD404601F0EBFD012D05D0002D07D1E3
:101BA000BDE8F04101F06ABEBDE8F04101F04FBE72
:101BB000BDE8F0812DE9F0411C4615460F468046F0
:101BC000069E01F0D1FEFEF75BFEA8B2FFF7E2FC35
:101BD000A0B2FEF73DFE39464046FFF789FD30468C
:101BE000BDE8F04101F0E3BD10B504462921E02035
:101BF000FFF7C3FE0321E120FFF7BFFE4FF47A7029
:101C0000B0FBF4F041F68461B1FBF0F0801E84B2C9
:101C1000E1B2E220FFF7B1FE210AE320FFF7ADFEBB
:101C20000121E420FFF7A9FEFEF702FFBDE8104006
:101C3000012002F00BBE10B50C4650B101F0DCFCE7
:101C400001F0F2FC204601F0CFFBBDE81040FFF7A9
:101C5000A7B801F0C5FC01F0DBFCF3E72DE9F0418A
:101C60001E46069F14460D46102804D0182805D09D
:101C7000202806D007E0FFF74DFC04E0FFF72EFC1C
:101C800001E0FFF739FC012D06D0022D07D0032D0E
:101C900008D0042D09D00AE0FFF748FC07E0FFF761
:101CA00051FC04E0FFF75CFC01E0FFF767FC012C4E
:101CB00006D0022C07D0032C08D0042C09D00AE04F
:101CC000FFF7D8FB07E0FFF7E1FB04E0FFF7ECFBD1
:101CD00001E0FFF7F7FB16B1012E03D004E0FFF798
:101CE000B1FB01E0FFF7BAFB2FB1012F07D1BDE82F
:101CF000F041FFF749B8BDE8F041FFF72DB8BDE866
:101D0000F081000010B5FFF7BBFE04484078FFF7F4
:101D10006BFFBDE8104001F0E7BC000010000020A0
:101D200010B50446C1B22020FFF727FEC4F30721F7
:101D30002120FFF722FEC4F307412220FFF71DFEFA
:101D4000210EBDE810402320FFF717BE10B5044652
:101D5000C1B22420FFF711FE210ABDE81040252062
:101D6000FFF70BBE70B50C460546C1B22620FFF743
:101D700004FE290A2720FFF700FEE1B22820FFF722
:101D8000FCFD210ABDE870402920FFF7F6BD0000E8
:101D900030B50A4B0A4C002108460022C50702D084
:101DA00083EA500000E04008521C082AF6D344F8A9
:101DB0002100491CFF29EFD930BD00002083B8ED78
:101DC0006400002010B50220FFF752FDFFF752FD1E
:101DD000BDE8104000F0F900FFF74EBD10B55E20E1
:101DE000FFF746FDFFF746FD00F0FD00BDE810409F
:101DF00040F00100FFF740BD10B50320FFF738FDAC
:101E0000FFF738FDBDE8104000F0FC00FFF734BDDF
:101E100010B55E20FFF72CFDFFF72CFDBDE810404C
:101E200000F0FB00FFF728BD70B50F23C4780178E0
:101E30000122F4B1144C2468457804F4E064C4F53C
:101E4000E064240AC4F10406E3408478B5401C40F1
:101E50002C4301F1E021230181F80034007800F0E7
:101E60001F018A404009800000F1E020C0F80021F5
:101E700070BD01F01F0082404809800000F1E020A1
:101E8000C0F8802170BD00000CED00E010B51220FC
:101E9000FFF7EEFCFFF7EEFCBDE8104040F08000DD
:101EA000FFF7EABC10B51220FFF7E2FCFFF7E2FCF7
:101EB000BDE8104000F0F800FFF7DEBCFFF756BCAD
:101EC000044A0029516901D0014300E08143516176
:101ED0007047000000100240044A0029916901D0B7
:101EE000014300E08143916170470000001002400F
:101EF00030B51F494A6812F00C031E4A03D0042B68
:101F000001D0082B21D002604A680F231A4C03EA43
:101F10001212A35C0268DA4042604B68072505EAAA
:101F20001323E35C22FA03F383604B6805EAD323AF
:101F3000E35CDA40C2604968032303EA9131231F5E
:101F4000595CB2FBF1F1016130BD4A684B6802F4A3
:101F500070124FF0020413F4803F04EB924202D05F
:101F60004B689B0301D5054B00E0024B5A43CAE77F
:101F70000010024000127A003000002000093D00ED
:101F800010B50220FFF774FCFFF774FC00F07F002F
:101F9000BDE8104040F04000FFF76EBC10B5BA201D
:101FA000FFF766FCFFF766FC800601D5012010BD37
:101FB000002010BD0C494A6942F020024A614A697A
:101FC00042F010024A61094A10600948026842F46E
:101FD00000420260001F026842F400420260086989
:101FE00040F0100008617047001001400C0C0140E7
:101FF0001408014000B5FEF79DFE0E49086940F047
:1020000020000861486940F010004861486940F0CC
:1020100040004861FEF79AFE0A6942F040020A61F8
:102020000A6942F010020A61034A4FF0333111602D
:1020300000BD000000100140000C01400C490A697D
:1020400042F020020A614A6942F010024A61094ADC
:1020500010600948026842F400420260001F0268F2
:1020600042F400420260086940F0100008617047C5
:10207000001001400C0C01401408014010B5FEF79F
:1020800059FE1049486940F010004861486940F025
:1020900020004861486940F040004861FEF756FE64
:1020A0000446086940F040000861086940F01000EB
:1020B000086105494FF033300860012002F0E0FB71
:1020C000204610BD00100140000C01402DE9FC41EC
:1020D000002500952E46019500B102261B48406957
:1020E000800102D50E20BDE8FC81194C694620898B
:1020F00080B2FEF7D3FE0028F5D10198400322D527
:102100002089144C00044FF0400820603720C4E9B7
:1021100001084FF48067C4E90357204600F08EF8A9
:102120003720FEF7A1FC0028DDD10620C4F8088086
:10213000C4E90060C4E90357204600F07FF8062098
:10214000FEF792FCCFE72520CDE70000008001409C
:1021500040000020801C0020014988637047000077
:10216000008001400149C1F8A000704700003042E2
:10217000034A516821F0FF0101435160704700009C
:102180000080014001490860704700008C05304222
:1021900010B5094A0168516241689162D16A21F023
:1021A000F703D0E902142143D0E90440044321435A
:1021B0001943D16210BD0000008001400648002193
:1021C000016041608160C16041628162C162034A15
:1021D0008263C1637047000000800140FF07C000B8
:1021E000034A01460020526B0A4200D0012070478A
:1021F000008001400248006800F0030070470000C2
:102200000080014030B5094B5A6847F6FF618A43A8
:10221000017D8468C568214344682C4321430468D8
:102220000069214301431143596030BD00800140E2
:102230000148D0F8800070470080014010B5084A7E
:1022400001689160D168CB0AD0E901142143D0E93B
:1022500003400443DB0221431943D16010BD000059
:102260000080014004490A6822F003020A600A68FB
:1022700002430A6070470000008001400149C1F834
:102280008000704700800140F0B50D4607468BB0D6
:10229000144601210220FFF713FE124E3046FEF7CE
:1022A000B9FC00213046FEF7A9FC0F48CDE9000734
:1022B0000294A8080021CDE9030180200590800048
:1022C00006908000CDE907018000CDE9090169464B
:1022D0003046FEF711FD00213046FEF78FFC0BB0B3
:1022E000F0BD0000440402408080014010B5104958
:1022F000044600200978032906D019B1012901D02C
:10230000022902D1022C01D3272010BDE0B2FFF731
:10231000DDFE0028F9D107494A6822F4C0524A601C
:102320004A68A3B242EAC3224A604A684A6010BDC2
:1023300040000020008001402DE9F0478049DFF88F
:1023400004A24FF001090E7880F856600989A0F8C0
:102350005410DAF8001053460A0E94090470C2F3C0
:102360008304447002F0030282700A0CC2700A0AED
:1023700002714171DAF80450290E0A01C5F30741D0
:1023800042EA111201F00F08C280C5F3072180F85C
:102390000880CA094272C1F380128272C1F34012EE
:1023A000C272C1F300120273002242739F683C0E96
:1023B000C7F30743C7F3072C36B1012E04D0032E11
:1023C00002D0022E30D03EE08907090DEDB241EA7D
:1023D000850141EA9415C4F3C2010561017504F059
:1023E0000701417559098175C3F38201C1759907C8
:1023F0004B0F614643EAD1140476A41C09FA04F396
:10240000DE176D1CA5FB034C02FB03C305FB063561
:1024100009FA08F3A4FB036C036505FB03C304FB83
:102420000233C0E912630EE0A906890A41EA0424D6
:102430001C430461641C630BE404C0E912434FF4C1
:10244000007361460365C1F38013437689064B0E22
:10245000F9B243EAD11300F81A3F01F07F0141704D
:10246000DAF80C30190ECC098470C1F34114C47031
:10247000C1F38204047189070C0FC3F3074144EAD6
:1024800091144471C1F340148471C27101F00101CF
:102490000172C3F30721CC094472C1F38014847222
:1024A000C1F34014C472C1F300140473C1F3810476
:1024B000447301F003018173C3F34601214BC173DF
:1024C000103380F8109019684C460D0E85740D0C71
:1024D000C1F3072646EA052585820D0659680E0ECA
:1024E00045EA0645C1F3074645EA0625C1F3072636
:1024F0003543C0F8165000F81A1F99680D0E457044
:102500000D0CC1F307262D0645EA0645C9B245EA7A
:102510000125D96845EA1165C1F307434560057A8D
:1025200045EA13150572C1F307251B0745EA135346
:102530004381C1F34601017344731046BDE8F0873F
:1025400040000020AC1C00207CB501213020FFF7AA
:10255000C3FC012140F20240FFF7B2FC4FF4F850F7
:10256000ADF8000018248DF8034003258DF80250C3
:1025700069462248FFF726F80420ADF800008DF8E0
:1025800003408DF8025069461D48FFF71BF8FFF71E
:1025900015FE31208DF8040000208DF805008DF81F
:1025A000060001208DF8070001A8FFF73DFC00F0B0
:1025B000B7F8144C80B900F029F868B92046FFF745
:1025C000BBFE48B9B4F85400000400F0D1FB18B9C0
:1025D0000120FFF78BFE18B10B49097803290AD1B6
:1025E00094F8560040B1012806D00220FFF7C0FD44
:1025F000012000F0D3FB7CBD0820F7E7001001406C
:1026000000140140D01C0020400000202DE9F84FAC
:102610000120ADF80000FFF7EDFD88B3DFF8F4907E
:1026200099F80000042872D03B4C02204FF0C00BF8
:102630000026C4F808B0C4E9006047022046C4E997
:102640000367FFF7FBFDFEF737FA00281AD1334D79
:10265000696904F13C000160A9694160E969816030
:10266000296AC16099F800004FF0030A4FF0400852
:1026700050B1012808D0062806D0022804D012E064
:10268000FFE72520BDE8F88FC4F80880C4E9006A98
:102690002148C4E90367FFF7D1FD69460320FEF72F
:1026A00047FA0028EED199F8000003280FD1BDF8B1
:1026B0000000C4F808800004C4E9000A1648C4E910
:1026C0000367FFF7BBFDFEF7F7F90028DAD199F8A9
:1026D000001004291BD0BDF80010C9F80810080428
:1026E00020600920C4E9010BC4E903670A48FFF729
:1026F000A5FDFEF7E1F90028C4D1696906482C3030
:102700000160A9694160E9698160296AC1600020AE
:10271000B8E7000040000020801C0020008001403D
:102720002DE9F05F00275948B2213E460175076048
:1027300047608760C760B9463D460761FFF762FDA5
:102740000320FFF78FFD0120FFF70CFD4F4C4FF4E6
:10275000806818344D4825606560A560C4E9035859
:102760001830FFF76BFDFEF76AF928B17F1CFFB246
:102770004A2FEFD3BDE8F09F4FF4D57020600820BA
:102780004027C4E901074148C4E903581830FFF75E
:1027900055FDFEF709FADFF8F8A020B901208AF804
:1027A00000004FF080494FF0370BC4E9005BC4F8DC
:1027B00010803648C4E902751830FFF73FFD372016
:1027C000FEF752F978B3AB4645464FF00109DFF802
:1027D000C48039E03720C4F80880C4E900502B4891
:1027E000C4E9035B5F461830FFF728FD3720FEF78A
:1027F0003BF90028BED1284949EA01002060292080
:10280000C4E901082148C4E903571830FFF716FD51
:10281000FEF776F90028ADD12049496906F1010695
:10282000CA0F04D007E0FFE7C346B846D2E74FF629
:10283000FF729642CED34FF6FF72964220D211F02D
:10284000804F97D002221EE0C4F80080C4E903B58F
:102850000E48C4E901971830FFF7F0FCFEF750F975
:10286000002887D10D49496906F10106C90F03D136
:102870004FF6FF718E42E7D34FF6FF718E4201D3C0
:102880001B2077E703228AF8002073E7681C0020EA
:10289000400000200080FF80000010800080014088
:1028A0002DE9F84F17460A9C06004FF0FF3563D01C
:1028B000DFF8D0810020C8F82C00DFF8CCA19AF80E
:1028C0000010022903D10C02570A47EAC357834676
:1028D00001466E480122A9468160C0E90051C160ED
:1028E000C0E90412FFF754FCD8F81400800102D5A7
:1028F0000E20BDE8F88F601EB0F5006F3CD2044298
:102900003AD1204601F02AFE009060481021143888
:10291000C0E900414021C0E9021B09010161FFF744
:102920008DFC1020FEF7A0F80028E2D100980101EC
:102930005648C0F80090C0E90141012141610221DF
:10294000C0E9031BD946FFF723FC50481121143876
:10295000C0E900714021C0E9021909010161FFF7D6
:102960006DFC1120FEF780F80700C2D19AF8011023
:10297000012903D099B37EE02620BAE7FEF7F1FEE5
:1029800044464FF4004ADFF8089140F22A6811E00B
:102990005046FFF725FC58B15FF00000D4F88010D6
:1029A00046F82010401C0828F8D34D46203601E098
:1029B000E5B36D1E606B10EA080FE9D00820FFF741
:1029C0000FFC18B10820FFF7C7FB58E00220FFF703
:1029D00007FC28B10220FFF7BFFB022089E726E0B1
:1029E0002020FFF7FDFB20B12020FFF7B5FB0620DC
:1029F0007FE74FF400742046FFF7F2FB40B120461A
:102A0000FFF7AAFB072074E7FFF712FC01C601E0FD
:102A10004FF400142046FFF7E3FB0028F4D1FEF743
:102A2000A2FE40F2FF50FFF797FB24E027E00022D0
:102A300021463046FFF728FC54468AF803908AF86E
:102A400002908AF80490D8F83C1040F22A321143E0
:102A5000C8F83C100120FFF795FB0E4800E06D1E02
:102A60000168890403D4217909B9E17829B135B124
:102A7000E07800B1E77838463BE7002DEFD104203D
:102A800037E700000080014040000020941C002037
:102A9000FFFF7F00000402402DE9FC470027CC0D1A
:102AA0004D028146810790464FF4007018D00026F1
:102AB000824612E07002421944EBE073CDF800A0A8
:102AC0001248FFF7EDFE0746524610494846FDF70B
:102AD00056FB761C09F50079F6B24645EAD30AE0C2
:102AE000B8F1010F0AD0CDE900082A46234648462E
:102AF00000F00EF807463846BDE8FC8700902A46ED
:102B000023464846FFF7CCFEF4E70000281D0020CE
:102B10002DE9FF5F82B09149DDE91058DFF840A24E
:102B200002980026C86017464FF0FF34CAF82C60A0
:102B30000878022803D10502570A47EAC357894893
:102B40000121A1468660C0E90046C660C0E9046173
:102B5000FFF71EFBDAF81400800103D50E2006B043
:102B6000BDE8F09F681EB0F5006F20D205421ED16F
:102B7000284601F0F3FC00907A4810211438B3463F
:102B8000C0E900514021C0E9021609010161FFF7C7
:102B900055FB1020FDF768FF0600E0D14046B8F174
:102BA000010F31D900FB05F8B8F1007F01D32620D1
:102BB000D5E700985D4601016A48C0F80090C0E979
:102BC0000181012141610221C0E9031BD946FFF7C0
:102BD000DFFADFF890B11221ABF1140B5846C0E9CF
:102BE00000714021CBE902150901CBF81010FFF765
:102BF00025FB1220FDF738FF0600B0D1574D68784D
:102C0000012802D000287BD0A6E0FEF7AAFD574697
:102C100040F22A3817E000BF4FF40040FFF7E0FA17
:102C200070B1D5F80C200020D7F8801042F82010A1
:102C3000401C0828F8D3E8684B4C2030E86002E0DC
:102C4000002C7FD0641E796B11EA080FE4D00820B5
:102C5000FFF7C6FA18B10820FFF77EFA72E00220EB
:102C6000FFF7BEFA20B10220FFF776FA022076E7DE
:102C70002020FFF7B5FA20B12020FFF76DFA0620DB
:102C80006DE74FF400742046FFF7AAFA58B12046CA
:102C9000FFF762FA072062E7FFF7CAFA0146E86821
:102CA00002C0E86001E04FF400142046FFF798FAF4
:102CB0000028F1D14FF48070FFF792FAC0B1287864
:102CC00018B1012801D0022812D158460C22C0E9BF
:102CD00000924022CBE90229224811011438CBF896
:102CE0001010FFF7ABFA0C20FDF7BEFE0600BED1B8
:102CF000FEF739FD40F2FF50FFF72EFA2CE0FFE718
:102D0000414600220298FFF7BFFA85F8039001219F
:102D1000A97085F80490DAF83C1040F22A32114389
:102D2000CAF83C10DAF82C1041F00801CAF82C104F
:102D30000E4800E0641E0168890402D4002CF9D119
:102D400000E00CB904200AE7287910B9E8780028D7
:102D5000FAD0E87800B1EE78304600E74000002075
:102D600000800140941C0020FFFF7F00000402400F
:102D7000094910B50860072048604020886000209D
:102D8000C8604FF4806008610846FFF757FABDE855
:102D900010400720FDF768BE801C0020002120B1F4
:102DA000012802D0262108467047014A5070FAE7F0
:102DB000400000202DE9FE4F4FF000060C9C90468D
:102DC0009B4605008DF800603746029458D0DFF826
:102DD000A892C9F82C60A948711E8660C0E9001647
:102DE0000121C660C0E90461FFF7D2F9D9F81400E7
:102DF000800102D50E20BDE8FE8FDFF884A29AF88C
:102E0000000002283ED0601EB0F5006F38D2601E70
:102E1000044235D1204601F0A1FBDFF86092019019
:102E2000A9F1140948461021C0E900414021C9E92F
:102E300002164FF4806BC9F810B0FFF7FFF91020AD
:102E4000FDF712FE0028D6D18D48B2460089010454
:102E5000C9F800100D21C9F804104021C9E9021673
:102E60004846C9F810B0FFF7E9F90D20FDF7FCFD61
:102E70000028C0D1804948694FF0FF3689461EE0DE
:102E80002620B8E74FEA58204FF4007440EACB58A8
:102E9000BDE77B48761E008901047848143802C0DB
:102EA0000D2102C0402180E8020C0838FFF7C6F966
:102EB0000D20FDF7D9FD00289DD1D9F81400C005DB
:102EC00002D4002EE5D12FE076B36C4818211438D7
:102ED0005646E0E80281402180E8420867481438FD
:102EE000FFF7ACF91820FDF7BFFD002883D1DFF80C
:102EF00090814FF0FF3A314688F802600198B3465E
:102F000002015E485646C0F800A0C0E90142012215
:102F1000C160C0E90412FFF73BF998F801000128ED
:102F200004D04746E8B397E0292064E7FEF719FC90
:102F3000C84640F21A6927E04FF48040FFF750F985
:102F400000B30298C01B20280FD281074FEA9006D9
:102F500000D0761C002405E02868FFF78FF9641C78
:102F60002D1D3F1DB442F7D309E0002455F824007D
:102F7000FFF784F9641C082CF8D3203520376FF054
:102F8000404601E096B3761ED8F8340010EA090FE7
:102F9000D2D00820FFF724F920B10820FFF7DCF891
:102FA00058E024E00220FFF71BF920B10220FFF7D0
:102FB000D3F802201FE71020FFF712F920B11020EC
:102FC000FFF7CAF8052016E74FF400742046FFF714
:102FD00007F920B12046FFF7BFF807200BE7FEF7FF
:102FE000C2FB40F2FF50C8F8380035E032E0102252
:102FF00021462846FFF748F987F803B087F802B062
:1030000087F804B0D9F83C1040F21A321143C9F8DD
:103010003C10D9F82C1041F00801C9F82C101948BF
:1030200000E0761E0168890402D4002EF9D102E086
:103030000EB1504603E0FFF787FA0BE0401E3979E6
:1030400009B9F97821B128B1F87828B1F878D2E631
:103050000028F3D10420CEE640F2FF50FFF77CF8C1
:103060006846FEF7C3FB0028A4D19DF8001007298D
:10307000F6D00629F4D0BEE600800140941C002062
:1030800040000020000402402DE9FC478046CC0DA2
:103090004D02174600205FEA88724FF4007118D085
:1030A0000026894611E04A4641461248FDF767F876
:1030B0007002421944EBE073CDF800900D48FFF721
:1030C00079FE761C08F50078F6B2BE42EBD3BDE877
:1030D000FC87012F07D0CDE900172A46234640463A
:1030E00000F00AF8F3E72A46234640460091FFF72E
:1030F00061FEECE7281D00202DE9FE4F0600DDE90A
:103100000C454FF0000105FB04F091469B468DF8FD
:1031100000100F4602903FD0DFF8BC828A46C8F804
:103120002C10AE484A1E8160C0E900210122C16016
:10313000C0E90412FFF72CF8D8F81400800102D57A
:103140000E20BDE8FE8FA6480078022826D0601E1B
:10315000B0F5006F20D2601E04421DD1204601F060
:10316000FDF901909D484FF0400B14381021C0F834
:1031700008B0C0E900418901C0E903A1FFF75EF88A
:103180001020FDF771FC0028DBD1012D63D905FB70
:1031900004F8B8F1007F08D32620D2E74FEA59207F
:1031A0004FF4007440EACB59D5E78D48007818B148
:1031B000012801D0022823D189484FF48064008976
:1031C00001048648143801603721C0E9011BC0E9B9
:1031D00003A4FFF733F83720FDF746FC0028B0D1F1
:1031E0007E4817211438C0F808B0C0E90051C0E982
:1031F00003A4FFF723F81720FDF736FC0028A0D121
:103200007648192114384FF4806BE0E80291402190
:1032100080E8020C71481438FFF710F81920FDF708
:1032200023FC00288DD101984FF0FF3401016B4839
:103230000460C0E901810121C0F80CA0C0E904A12B
:10324000FEF7A6FFDFF8989199F80100012803D056
:103250004D4600287ED0AEE0FEF783FADFF8788195
:1032600027E0406B400421D50298C01B20280FD2D4
:1032700081074FEA900500D06D1C002405E03068FE
:10328000FEF7FCFF641C361D3F1DAC42F7D30AE07D
:103290005FF0000456F82400FEF7F0FF641C082CD1
:1032A000F8D3203620376FF0404402E0002C0ED0D7
:1032B000641ED8F83410404640F21A321142D0D081
:1032C0000820FEF78DFF18B10820FEF745FF70E0DB
:1032D0000220FEF785FF20B10220FEF73DFF02200D
:1032E0002FE71020FEF77CFF20B11020FEF734FFFF
:1032F000052026E74FF400742046FEF771FF20B149
:103300002046FEF729FF07201BE74FF48070FEF7E9
:1033100067FFB8B199F8000018B1012801D0022860
:1033200010D12E480C221438C0E900A24022C0F867
:1033300010B0C0E9022AFEF781FF0C20FDF794FBD4
:103340000028CDD1FEF70FFA40F2FF50FEF704FF40
:1033500031E0FFE7414610223046FEF795FF85F841
:1033600003A00121A97085F804A01B48C16B40F29D
:103370001A321143C163C16A41F00801C16220469B
:10338000184900E0401E0A68920402D40028F9D1CE
:1033900000E018B9FFF7D8F80BE0641E287908B9E7
:1033A000E87820B12CB1E87828B1E878C9E6002C9B
:1033B000F3D10420C5E640F2FF50FEF7CDFE68468B
:1033C000FEF714FA00288BD19DF800100729F6D0DB
:1033D0000629F4D0B5E6000000800140941C0020CE
:1033E000400000200004024010B50446BB20FEF758
:1033F0003FFA2046BDE81040FEF73EBA2DE91040E6
:10340000FEF7CCFD0128FBD0B820FEF731FABDE86D
:103410001040FEF72FBA10B50446B820FEF728FA80
:103420002046FEF729FA00F0ABFA0028FBD0BDE8F1
:103430001040FFF7E3BF000010B5002306E000BF17
:1034400030F8024B21F813405B1C9BB29342F7D338
:1034500010BD00002DE9F05FA0F1006415468A461A
:103460008346B4F5002F52D2FDF7FAFCE70AC4F305
:103470004906C6F58064A54200D82C46DFF8949032
:103480004FF0006000EBC72080464FF48062214976
:10349000FFF7D2FF00204FF6FF7106E0331839F82E
:1034A00013208A4203D1401C80B2A042F6D3A0422E
:1034B00025D24046FDF780FC0020494607E000BFCA
:1034C0003AF810208319401C21F8132080B2A04242
:1034D000F6D3104940464FF4806200BF00F01CF85C
:1034E000A54210D0281B0AEB440AA344002685B24B
:1034F0004FF480647F1CA542C2D82C46C0E7224608
:1035000051465846EAE7BDE8F05FFDF787BCBDE8E5
:10351000F09F0000641400202DE9F04116460F468C
:103520000546002408E000BF37F814102846FDF7D0
:103530007DFC641CA4B2AD1CB442F5D3BDE8F0819F
:1035400010B51020FEF794F9FEF794F900F0F7009B
:10355000BDE8104040F00400FEF78EB910B585209C
:10356000FEF786F9FEF786F900F0FB00BDE8104093
:1035700040F00800FEF780B910B58520FEF778F915
:10358000FEF778F9BDE8104000F03F00FEF774B98F
:1035900010B58520FEF76CF9FEF76CF900F07F009E
:1035A000BDE8104040F04000FEF766B910B5852038
:1035B000FEF75EF9FEF75EF900F0BF00BDE81040CF
:1035C00040F08000FEF758B910B58520FEF750F99D
:1035D000FEF750F9BDE8104040F0C000FEF74CB9CE
:1035E00010B5B720FEF744F9FEF744F9BDE81040E6
:1035F00000F07F00FEF740B910B5B720FEF738F9AC
:10360000FEF738F9BDE8104040F08000FEF734B90D
:1036100010B5B920FEF72CF9FEF72CF9BDE81040E3
:1036200000F0DF00FEF728B910B5B920FEF720F949
:10363000FEF720F9BDE8104040F02000FEF71CB96D
:103640000CB50021264801910091026842F48032B5
:1036500002604FF4A063026802F400320092019A03
:10366000521C0192009A12B9019A9A42F3D102684F
:10367000920333D5012100911A490A6842F01002E1
:103680000A600A6822F003020A600A6842F0020235
:103690000A604168416041684160416841F480616D
:1036A0004160416821F47C114160416841F4E811B6
:1036B0004160016841F08071016001688901FCD5B9
:1036C000416821F003014160416841F0020141601D
:1036D0004168C1F381010229FAD10CBD00910CBDF2
:1036E000001002400020024010B5FEF72EF8FEF751
:1036F000CDFBFEF71EF800F0BBF9FDF773FA00F002
:10370000ABF94FF4F0714FF44870FEF7DFF88C20FE
:10371000FEF710F9A020FEF7C5F81420FEF7AEF86A
:103720001420FEF74BF90C20FEF73DF90320FEF7BD
:103730002FF9FEF7B7FB00F009F9FEF721FCFEF7C1
:103740004DFBFFF7FDFEFEF73DFBFDF7E6FFFEF745
:1037500053FBBDE81040FEF75BBB10B5441E842050
:10376000FEF786F8E0B2BDE81040FEF785B810B568
:1037700004468C20FEF77CF8E0B2FEF77DF88D2041
:10378000FEF776F8200ABDE81040FEF775B810B5D0
:1037900004468E20FEF76CF8E0B2FEF76DF88F203D
:1037A000FEF766F8200ABDE81040FEF765B810B5D0
:1037B000044600F0D9F80420FEF75AF804E0FEF7BA
:1037C0005BF8FDF72DF9641C20780028F7D1FDF790
:1037D00085F8BDE81040FDF7A0BF70B505460C4662
:1037E0006C20FEF745F8E8B2FEF746F86D20FEF7CC
:1037F0003FF8280AFEF740F86E20FEF739F8E0B2ED
:10380000FEF73AF86F20FEF733F8200ABDE8704063
:10381000FEF732B870B505460C466820FEF728F86A
:10382000E8B2FEF729F86920FEF722F8280AFEF729
:1038300023F86A20FEF71CF8E0B2FEF71DF86B20B3
:10384000FEF716F8200ABDE87040FEF715B810B56F
:103850008620FEF70DF8FEF70DF8BDE8104040F0A9
:103860001000FEF709B810B57620FEF701F8E02049
:10387000FEF702F8BDE81040FDF7CAB810B5862083
:10388000FDF7F6FFFDF7F6FFBDE8104000F0EF0092
:10389000FDF7F2BF4FF0E0210428086903D020F0C3
:1038A00004000861704740F00400FAE70F4810B5C3
:1038B000016841F00101016041680D4A1140416019
:1038C00001680C4A11400160016821F48021016007
:1038D000416821F4FE0141604FF41F018160FFF750
:1038E000AFFE05494FF00060086010BD00100240B7
:1038F0000000FFF8FFFFF6FE08ED00E010B5002421
:10390000FEF744F8800719D4012000F09FFF012042
:10391000FDF7AEFF012000F099FFFDF7ABFF0006B9
:1039200013D4012000F092FF0120FDF7A1FF012038
:1039300000F08CFF8020FDF79FFF01E0641CE4B2E3
:10394000052CDDD1FEF764F8D9E710BD10B50120D4
:10395000FDF78EFFFDF78EFF00F0F700BDE8104089
:1039600040F01000FDF788BF10B50320FDF780FF81
:10397000FDF780FFBDE8104040F00400FDF77CBF7C
:1039800010B5BA20FDF774FFFDF774FF000601D5EE
:10399000012010BD002010BD0029818902D041F412
:1039A000005101E021F400518181704730B5044697
:1039B000008A85B00D464CF6FF710840E988014346
:1039C0002182A1894EF6F3100140A8882A8910436C
:1039D0006A890A431043A081A08A4FF6FF4108403C
:1039E000A9890143A1826846FEF782FA19488442F8
:1039F00001D1039800E00298A189090400EBC001FD
:103A000001EB0010296801D5490000E08900B0FBF6
:103A1000F1F06422B0FBF2F109010B096FF0180517
:103A20006B4300EB8300A3891D044FF0320306D5DE
:103A300003EBC000B0FBF2F000F0070005E003EB81
:103A40000010B0FBF2F000F00F000843208105B039
:103A500030BD00000038014010B51220FDF708FF0E
:103A6000FDF708FFBDE8104000F0F700FDF704BFC8
:103A700010B51320FDF7FCFEFDF7FCFEBDE810407D
:103A800000F0BF00FDF7F8BE2DE9F04796B0804684
:103A9000FCF72CFF002858D0C02000F058F9400651
:103AA00053D401A800F065F9002501AC04EB8500B2
:103AB0002B464088009034F8252019463FA000F09E
:103AC00023FB6D1C142DF1DB42A000F01DFB002731
:103AD00040F2FF353E464FF6FF794FF0020A13E001
:103AE0003DA000904B460022FA210A20FEF762F822
:103AF0000AE00A2F08D139A000904B460022FA2193
:103B00000A20FEF757F800277F1CFFB25FF0000085
:103B100004EB80014988A94209D134F82010BAEB9E
:103B2000913F07D1761CF6B2152E0ED008E0401C4E
:103B30001428EDDB2846FCF7D9FE50B1761CF6B20E
:103B40006D1EADB2052FD4D1CAE7012016B0BDE875
:103B5000F0874FF00109294621A000F0D5FA404630
:103B6000A845F2D2294600F047F801A800F001F973
:103B70005FF0000604EB860733467888009034F83F
:103B8000262019460DA000F0BFFA34F82600C0F335
:103B90000D02424509D17988A94206D1BAEB903F7E
:103BA00001D1002000E001208146761C142EE1DBCB
:103BB000B9F1000FC9D10020C8E700004C42415BB9
:103BC00025645D3A25782020205042415B25645DC4
:103BD0003A2578200D0A00002A200000202A000043
:103BE000426C6F636B5F7265706C6163655F6E756D
:103BF0006D3A25780D0A000070B505460C46C020C8
:103C000000F0A5F840061AD400F057F900F001F9C9
:103C100002F037F8A120FFF7FEFB280AFFF7FBFBB5
:103C2000E8B2FFF7F8FB200AFFF7F5FBE0B2FFF779
:103C3000F2FB02F032F800F0ECF8002070BD012039
:103C400070BD10B584010021A02000F062F900F0E1
:103C500034F900F0DEF802F014F8D820FFF7DBFBAF
:103C6000200CFFF7D8FBC4F30720FFF7D4FBE0B22A
:103C7000FFF7D1FB02F011F800F0CBF87C21BDE892
:103C80001040A02000F045B970B501F0FAFF9F2068
:103C9000FFF7C1FB0020FFF7BEFBFF20FFF7BBFBD8
:103CA0000446FF20FFF7B7FB0546FF20FFF7B3FBF5
:103CB00040EA052501F0F1FF05EB044070BD2DE958
:103CC000F04106461D4614460F46B02000F03FF86E
:103CD00040F00801B02000F01CF901F0D2FF1320E1
:103CE000FFF799FBC4F30740FFF795FBC4F30720E8
:103CF000FFF791FBE0B2FFF78EFB01F0CEFF00F083
:103D000088F8B02000F023F840F00801B02000F05F
:103D100000F901F0B6FF0320FFF77DFB380AFFF73B
:103D20007AFBF8B2FFF777FB0020FFF774FB002463
:103D300005E0FF20FFF76FFB3055641CA4B2AC42D6
:103D4000F7D301F0AAFFBDE8F04100F062B810B56A
:103D5000044601F096FF0F20FFF75DFB2046FFF7BA
:103D60005AFBFF20FFF757FB044601F096FF204661
:103D700010BD70B5054601F084FFA520FFF74BFB91
:103D8000FF20FFF748FB0024FF20FFF744FB000261
:103D900025F82400FF20FFF73EFB35F824100843E8
:103DA00025F82400FF20FFF736FB05EB8406000210
:103DB0007080FF20FFF72FFB7188641C0843E4B27A
:103DC0007080142CE0D3BDE8704001F066BF2DE98F
:103DD000F04115460A46C1F30A01D60AC1F500644E
:103DE0000746AC4200DD2C464FF4006823463246BD
:103DF0003846FFF764FFA54209D0281B274400215D
:103E000085B24446761CA542F0D22C46EEE7BDE8CA
:103E1000F08110B5C020FFF79AFFC007FAD110BD9E
:103E20002DE9F0410C4607461E4615460021A0200C
:103E300000F06FF800F041F801F023FF0220FFF7D7
:103E4000EAFA200AFFF7E7FAE0B2FFF7E4FA002403
:103E500007E0B820FDF70CFD385DFDF70DFD641C93
:103E6000A4B2B442F5D301F018FFFFF7D2FF00F07F
:103E700024F801F006FF1020FFF7CDFAC5F3074044
:103E8000FFF7C9FAC5F30720FFF7C5FAE8B2FFF755
:103E9000C2FA01F002FFFFF7BCFFBDE8F0417C2150
:103EA000A02000F036B810B501F0EBFE0420FFF7BB
:103EB000B2FABDE8104001F0F0BE10B501F0E1FE2D
:103EC0000620FFF7A8FABDE8104001F0E6BE2DE994
:103ED000F04115460A46C1F30A01D60AC1F500644D
:103EE0000746AC4200DD2C464FF4006823463246BC
:103EF0003846FFF795FFA54209D0281B274400212B
:103F000085B24446761CA542F0D22C46EEE7BDE8C9
:103F1000F08170B50D460446FFF7CFFF01F0B1FE0A
:103F20001F20FFF778FA2046FFF775FA2846FFF7BB
:103F300072FA01F0B2FEBDE87040FFF7B4BF0000B6
:103F400010B5040400F087F800F07EF801F099FE47
:103F5000D820FFF760FA0B48007810B1200EFFF769
:103F60005AFAC4F30740FFF756FAC4F30720FFF7E5
:103F700052FAE0B2FFF74FFA01F08FFEBDE81040B1
:103F800000F062B81300002010B501F07AFEB720EF
:103F9000FFF741FABDE8104001F07FBE70B515464D
:103FA0000C46064601F06DFE0320FFF734FA0F4879
:103FB000007810B1200EFFF72EFAC4F30740FFF788
:103FC0002AFAC4F30720FFF726FAE0B2FFF723FA34
:103FD000002405E0FF20FFF71EFA3055641CA4B250
:103FE000AC42F7D3BDE8704001F057BE130000208B
:103FF00010B5002401F045FE9020FFF70CFA0020D8
:10400000FFF709FA0020FFF706FA0020FFF703FA8E
:10401000FF20FFF700FA44EA0024FF20FFF7FBF936
:10402000044301F03AFE204610BD10B501F029FE10
:104030000520FFF7F0F9FF20FFF7EDF9044601F046
:104040002CFE204610BD00002DE91040FFF7EDFFCB
:10405000C007FBD110BD10B501F013FE0620FFF71D
:10406000DAF9BDE8104001F018BE2DE9F04107462D
:10407000C8B2C0F580740E461546A24200D8144658
:104080004FF4807822463146384600F00DF8A542BC
:1040900008D0281B2744264485B24446A542F1D8BF
:1040A0002C46EFE7BDE8F08170B515460C46064694
:1040B000FFF7D1FF01F0E5FD0220FFF7ACF9114851
:1040C000007810B1200EFFF7A6F9C4F30740FFF700
:1040D000A2F9C4F30720FFF79EF9E0B2FFF79BF9BE
:1040E000002407E0B820FDF7C3FB305DFDF7C4FBFB
:1040F000641CA4B2AC42F5D301F0CFFDBDE8704022
:10410000FFF7A2BF130000200FB4054B10B503A9A1
:10411000044A029800F02CF810BC5DF814FB000073
:104120007D5600080C0000200FB4084B10B504A900
:1041300002AA039800F01CF8044602A9002000F02F
:1041400077F9204610BC5DF814FB000031440008EC
:1041500002E008C8121F08C1002AFAD17047704750
:10416000002001E001C1121F002AFBD170470000AE
:104170002DE9FF4F8DB09B460F460446002606E012
:1041800025280BD05A460F999047641C761C20783E
:104190000028F5D111B03046BDE8F08F0025A846C3
:1041A0000122984900E0054314F8013F203B02FA40
:1041B00003F00842F7D120782E2817D114F8010F08
:1041C00045F004052A280ED06FF02F022078A0F1C8
:1041D000300109290AD808EB880102EB410100EB04
:1041E0000108641CF2E757F8048B641C20786C28E3
:1041F0000DD004DC4C2812D06A2811D104E07428B8
:104200000DD07A280CD10AE045F4001507E061785A
:1042100045F48015814202D1641C05F58015641CAB
:104220002278692A45D008DC002AB3D0582A69D000
:10423000632A10D0642A08D13BE0702A67D0732A21
:1042400013D0752A5CD0782A5CD010465A460F9954
:104250009047761CD3E017F8040B8DF8000000207F
:104260008DF80100E946012003E057F8049B4FF068
:10427000FF3069074FF0000501D40AE06D1C454589
:104280000DDA8542FADB19F805100029F6D106E0AF
:104290006D1C8542FCDB19F805100029F8D12E446D
:1042A00004E019F8010B5A460F9990476D1EF8D299
:1042B000A5E00A200021CDE90801C5F3025002283B
:1042C0000DD001CFC117031E71F100030DDA4FF0BD
:1042D000000CD0EB0C006CEB01012D2308E0FF1D5E
:1042E00027F00707F7E80201EDE72B0504D52B239C
:1042F0008DF8283001233BE0EB0739D02023F7E786
:104300000A2000E010200021CDE9080107E010207C
:10431000002145F00405CDE908014FF00808C5F378
:10432000025002280FD001CF00214FF0000A2B07C6
:104330001FD5702A0DD0DDE908C38CF0100C5CEAA3
:10434000030C0CD015E0FF1D27F00707F7E802016A
:10435000EBE740228DF828204FF0010A0BE050EAED
:10436000010306D030238DF828308DF82920022350
:104370009A46582A04D024A20DF120090B9209E094
:1043800026A2F9E7DDE90823FCF739F80B9B9B5CD3
:1043900009F8013D50EA0102F4D1ADEB09002030EB
:1043A0000890680701D44FF001080899884502DD9C
:1043B000A8EB010000E000208046002506E00AA8E6
:1043C0005A46405D0F9990476D1C761C5545F6DBAB
:1043D00004E030205A460F999047761CB8F100014E
:1043E000A8F10108F5DC05E019F8010B5A460F9910
:1043F0009047761C0899481E08900029F4DC641C3C
:10440000C5E6000009280100303132333435363733
:104410003839616263646566000000003031323310
:1044200034353637383941424344454600000000B0
:104430000A68531C0B6010707047000010B50446EA
:1044400000202071401EE062204601F001FC08B10E
:10445000032010BDB4F82E02A0F52A41553901D031
:10446000022010BD94F86600B4F8671040EA0121FC
:104470000848B0EB012F08D094F88210B4F88320DC
:1044800041EA0221B0EB012F01D1002010BD012033
:1044900010BD00000046415400E0401C02780AB103
:1044A0008A42FAD1D0B27047426A0068490A8078DD
:1044B000B1FBF0F0121D02CA19B1884203D3401AB1
:1044C000F8E7002070471168084470474269891E68
:1044D000921E8A4201D800207047826A807801FBD0
:1044E000002070472DE9F05F8246488B0E4670BB76
:1044F0003078DFF8649000F03F00401E00EB800150
:1045000001EBC004012000254FF6FF7B19F80510D0
:1045100031440988884670B1FF2C18D2084600F053
:1045200035FF07463AF81400641C00F02FFF87425D
:104530000DD1404601E0D84509D16D1C0D2DE5D3C4
:104540003178490606D528B13AF8140010B1002098
:10455000BDE8F09F0120FBE78E600008002102E02B
:104560004008491CC9B20128FAD1084670472DE914
:10457000F0410F00054606D001F0CCF8022809D220
:104580000120BDE8F081EE6816B16869B04207D835
:10459000012605E0411CF4D069698142F1D83E460C
:1045A00034466869641CA04202D80224022E0AD351
:1045B0002146284601F0AEF838B1411CE1D001286F
:1045C000DFD0B442EDD10020DBE76FF0704221462E
:1045D000284601F08BFB30B957B1224639462846B0
:1045E00001F084FB20B101280DD001242046C8E74A
:1045F000EC602869411CF9D0401E2861687940F0C0
:1046000001006871F2E74FF0FF34EFE72DE9F84F52
:10461000884682460D6800E06D1C28782F28FBD064
:104620005C28F9D00024DAF81C702646A85D761CB8
:10463000202817D32F2815D05C2813D0FF2C32D276
:10464000012100F087FE5FEA00092CD0B9F1800F4C
:1046500004D2014668A0FFF71FFF20BB27F8149083
:10466000641CE3E7AA19C8F80020202801D2042519
:1046700017E0002515E000BF07EB440030F8020CFE
:1046800020280DD02E280BD06CB1002027F8140064
:104690000B222021DAF8180001F0D3FA002606E0F8
:1046A000641E002CE8D10620BDE8F88F761C37F890
:1046B00016002028FAD02E28F8D01EB145F00305A8
:1046C00000E0641E2CB107EB440030F8020C2E28E9
:1046D000F7D1002081464FF0080B009037F8160004
:1046E00006F101065FEA000824D0B8F1200F04D0DB
:1046F000B8F12E0F04D1A64202D045F00305EDE734
:104700000098584501D2A6421AD1BBF10B0F0FD029
:10471000A64201D045F003050CD84FF008000090E8
:104720004FEA896026464FF00B0B4FEA1069D5E738
:1047300045F00305DAF818000178E52938D039E0AA
:104740004046B8F1800F10D3002100F003FE5FEA6D
:10475000000805D02B4901EB080010F8800C8046BA
:1047600045F00205B8F1000F04D0014626A0FFF77E
:1047700093FE20B14FF05F0845F003050FE0A8F16C
:104780004100192802D849F0020908E0A8F16100A7
:10479000192804D8413049F001091FFA80F8DAF8E5
:1047A0001820009902F801800098401C009095E7BD
:1047B00005210170BBF1080F03D14FEA89604FEA70
:1047C0001069C9F38100032803D06FEA0901890742
:1047D00001D145F00205A90709D409F00301012917
:1047E00001D145F01005012801D145F00805DAF89E
:1047F0001800C572002057E7222A3A3C3E3F7C7FD2
:10480000000000000E6000082B2C3B3D5B5D0000AB
:1048100010B56FF00400FFF73DF80948094900683A
:10482000B0FBF1F0C1B2084801EB41020170C2EBEC
:10483000C1114FF6FF7202EAC101418010BD0000B4
:104840001800002000127A00080000200B49498857
:1048500048434FF0E021486100228A61086940F036
:10486000010008610869C30701D0C003FAD50869CF
:1048700020F0010008618A617047000008000020F4
:104880000B49097848434FF0E021486100228A61D2
:10489000086940F0010008610869C30701D0C0033E
:1048A000FAD5086920F0010008618A6170470000AC
:1048B0000800002070B50E460446002100F0A8F95B
:1048C00088B900252169206801F0C2F958B96169E9
:1048D0000978E5290BD051B100250121204600F0CF
:1048E0006CF80028EED0042800D1072070BD6D1CA4
:1048F000B542F2D170BD2DE9F0470646002100F027
:1049000087F9002857D1FF244FF6FF78A146A6F873
:1049100020803169306801F09BF907004AD1756940
:10492000287848B1E97AE52801F03F0139D00A0733
:1049300004D50F2935D105E004273BE00F2901D02C
:10494000D4B11EE0F2697AB3410606D595F80D9010
:1049500020F04000F18804463184A04209D1697BEF
:10496000494506D129461046FFF7BCFD08B1641E33
:1049700000E0FF24E4B217E0284601F06AFA484557
:1049800018D0B069C17AC9070BD10A2101E0491ECC
:1049900006D315F8012B10F8013BD21AF7D000E02E
:1049A00042B1FF24A6F820800021304600F005F82F
:1049B0000700AED03846BDE8F0872DE9F041C68843
:1049C0000446761C30040F46000C2CD0206950B3EE
:1049D00031075AD1401C2061E168206829B18278F2
:1049E000521E12EA161F04D04FE00089B0421AD9B5
:1049F0004BE000F08FFE0546012819D9681C30D025
:104A000020684169A9423AD86FB1E168FFF7AFFD6C
:104A100005000BD0012D0BD0681C22D0206801F0BE
:104A20007DFAF0B906E00420BDE8F0810720FBE73D
:104A30000220F9E720684FF400720021303001F0C5
:104A400000F929462068FFF741FD216800274FF053
:104A50000108C8620CE080F80480206801F05EFA6A
:104A600008B10120E0E72068C16A491C7F1CC162CF
:104A700020688178B942EED8C16AC91BC162E5607D
:104A800029462068FFF722FD2061E68006F00F012D
:104A90003022206802EB4111084460610020C3E726
:104AA0002DE9FF5F04460C22D4E9067639466846B4
:104AB00001F0BEF89DF80B00C00718D00020F87276
:104AC0000125E0612B4632466946384600F0E2FD9A
:104AD0002046FFF710FF10B96D1C642DF2D3642D32
:104AE0000BD004280AD19DF80B00F872E6619DF8FE
:104AF0000B0080070FD5002004E0072004B0BDE8BC
:104B0000F09F401C36F810100029FAD10D21193001
:104B1000B0FBF1F600E0012631462046FFF7CAFE61
:104B2000050070D1761E5FEA060A53D0E188204660
:104B3000A1EB0A0100F06CF8050064D1A06901F056
:104B400088F903902169206801F082F805005AD1A4
:104B50006169D4F81C90039848730F20C872002034
:104B6000087388760AF0FF0BC876ABF1010000EB02
:104B7000800202EBC00500234FF6FF7E234E4A1C45
:104B800001E0604503D039F81500F4466D1CF75C70
:104B9000C85516F80380070A08F8027000B9604685
:104BA0005B1C0D2BEDD3704502D039F8150008B908
:104BB0004BF0400B81F800B0216801200871002102
:104BC0002046FFF7FAFE05001DD1AAF101005FEAB9
:104BD000000AB7D12169206801F03AF8050012D126
:104BE00020220021606901F02CF8D4E905010B2294
:104BF00001F01EF8A0696169C07A00F0180008731E
:104C0000216801200871284678E700008E600008BE
:104C100070B5C18083680D460446012B35D02068ED
:104C20004169994231D923B90178032904D1436AF2
:104C300013B18078060111E00189A94225D9406AA3
:104C400012E000BF00F066FD0346401C1BD0022BA3
:104C50001BD320684069984217D9AD1B2068B54224
:104C60001946EFD2FFF732FCE36070B100EB15108C
:104C7000206105F00F013022206802EB4111084449
:104C80006061002070BD012070BD022070BD10B5B4
:104C900020B9FDF759FC08B1012010BD002010BD5E
:104CA00010B5144608B1012010BD51B10C4B4FF4A2
:104CB000007201290DD0022905D0032905D0042056
:104CC00010BD002010BD2260FBE7B3F8500020802B
:104CD000F7E7D3E912010023FBF720FA2060F0E7A1
:104CE000D01C00202DE9F0411D0016460F4603D0D0
:104CF00020B10120BDE8F0810420FBE7EAB2314693
:104D00003846FDF7C9FE04460CE000BFFDF71CFC69
:104D1000EAB231463846FDF7BFFE0446014603A01D
:104D2000FFF7F2F9002CF1D10020E3E77364207261
:104D300064206572726F723A25640D0A00000000EB
:104D4000002070472DE9F0411D0016460F4603D0A4
:104D500020B10120BDE8F0810420FBE7EAB2314632
:104D60003846FEF791F904460CE000BFFDF7ECFB76
:104D7000EAB231463846FEF787F90446014603A0F9
:104D8000FFF7C2F9002CF1D10020E3E7736420772C
:104D900072206572726F723A25640D0A000000007D
:104DA00010B5044600F08AFA002806D1204601F02A
:104DB0001DF9002801D10021216010BD2DE9FC5F03
:104DC0000D46044601F012F95FEA000976D1E07958
:104DD000002873D1606A01274FF0020A04F1280B02
:104DE00000286DD0691C29D0E068A84200D2054691
:104DF000A560002D4FD02046691EFFF755FB0146E8
:104E000060612068FFF762FB002878D021686D1E82
:104E10008A78521E02EA552215182089C005E9D069
:104E2000A269AA42E6D0A07940063CD54878012381
:104E30005946FFF787FF002871D130E002C8009182
:104E4000216983460225F1B10026AD1C01918846F7
:104E5000761C206800F05EFC014601284FD9481CF2
:104E60005DD008F101008142F1D00098854206D85A
:104E7000CBF800600BF10400019A04C0834620685F
:104E800040698842E0D8606A05600098854203D88E
:104E90000021CBF800109AE04FF0110997E0A079BB
:104EA00020F04000A071206801232A46407859462E
:104EB000FFF718FF00287CD1A56188E06BE0FFE7D1
:104EC000E068A84203D2A179890700D405464FF0D3
:104ED0000008A068C4F8088005B3226891784E02E3
:104EE00070B1691E401EB1FBF6F1B0FBF6F39942BA
:104EF00006D3711E8843A0602D1A61690DE047E05A
:104F0000216949B900211046FFF731FB014601280C
:104F10003ED0481C4DD021616161D9B927E048E0FD
:104F2000A0798007206805D5FFF721FB010004D197
:104F3000354611E000F0EEFB0146481C39D001294E
:104F400026D920684069884222D96161A068AD1BDA
:104F50003044A060B542E3D8A0682844A060E805CA
:104F600005D02068FFF7B2FA90B100EB55282089F0
:104F7000C00523D0A269424520D0A079400610D5B3
:104F80002068012359464078FFF7DCFE88B904E029
:104F900084F807A00220BDE8FC9FA07920F0400023
:104FA000A07120680123424640785946FFF79AFED7
:104FB00010B1E7710120EEE7C4F81880D4E90201CE
:104FC000884204D9E060A07940F02000A0714846F2
:104FD000E1E7000017B581B01446029800906846DA
:104FE00000F0F9FB002802DA0B2004B010BD0B4AD8
:104FF000002352F8201001B10B700199002900D054
:105000000B7042F8201001D0012C01D00020ECE7F9
:10501000002202A901A800F0E1F9E6E7540000200F
:105020002DE9F747ADF5137D06000ED04FF00008CF
:1050300002F01F0727F0010294A905A8C6F8008016
:1050400000F0CCF9050005D08DE009200DF5167DA6
:10505000BDE8F0878FA80B900FA80C9005A8949935
:1050600000F0D8FA0A9C050001D104B9062517F012
:105070001C0F50D055B1042D03D105A8FFF710FD2A
:1050800005460A9C47F0080755B16CE0E07A10F03D
:10509000110F01D0072566E0780701D5082562E0E9
:1050A000380746D500F095FBA073010AE173020CA6
:1050B0002274030E6374A075E1752276637684F81A
:1050C0000B8084F81C8084F81D8084F81E8084F88E
:1050D0001F802146059800F09CFB81460021204658
:1050E00000F0AFFE05990120B9F1000F08711ED044
:1050F00005984946D0F82CA000F072FE050032D188
:105100000599A9F10100C8605146059800F0A0FD7D
:1051100005000AD027E035BBE07AC10601D5042599
:1051200021E0B90701D5C007B4D1380701D547F050
:10513000200705982146C06AC6E90704B77186F8BA
:1051400007804746059800F064FB3061207FD4F863
:105150001D1040EA0120C6E90270B7617762059828
:105160003060C088B080284670E72DE9FC5F884633
:105170000021994615460446196000F037FF0028C3
:1051800012D1E07900280FD1A079C0070BD0D4E963
:105190000210401A01274FF0020A04F1280B854241
:1051A00000D9054685E00720BDE8FC9FA168C80539
:1051B00067D120688278521E02EA512212F0FF065F
:1051C00010D129B1626A2AB12046FFF76DF904E0D7
:1051D000206902E0616900F09DFA02281BD3411C9E
:1051E0004AD0606161692068FFF770F998B1304476
:1051F0000190680A009025D03218206881788A4290
:1052000001D9891B0091DDE9003240784146FFF762
:1052100069FD88BB03E084F807A00220C4E7A079F9
:1052200040060CD5A1690198081A0099884206D257
:1052300008EB40204FF40072594600F0F9FC00984A
:1052400046022CE0A2690198824218D0A07940065B
:105250000AD52068012359464078FFF773FD58B9F5
:10526000A07920F04000A0712068012359464078C1
:10527000019AFFF737FD10B1E771012094E701981B
:10528000A0612089C0F30800C0F50076AE4200D9C5
:105290002E46011932464046283100F0C9FCA0686C
:1052A000B0443044A060D9F800008119AD1BC9F8A2
:1052B0000010002D7FF47AAF002075E770B504462A
:1052C00000F094FE00280ED1A1798A060BD548067D
:1052D0000ED52068012304F128014078A269FFF768
:1052E00031FD08B1012070BDA07920F04000A0710F
:1052F000E169206800F0ACFC0028F4D1256AE87A66
:1053000040F02000E872207B2877A089000A6877A7
:10531000E068000CA877E068000EE877284621696D
:1053200000F08FFD00F055FAA875010AE975010C2F
:105330002976000E68760020A874E874A07920F021
:105340002000A0712168012008712068BDE870402C
:1053500000F08CBD802804D30B4A51B1FF2801D93D
:105360000020704702EB4000A0F58050B0F8000F1D
:10537000704732F81130834203D0491C89B280292A
:10538000F7D38031C8B27047C860000870B5802874
:1053900006D2A0F16101192901D8203880B270BD70
:1053A0000C240C4D00224FF4F773991A02EB5101B3
:1053B00035F81160864206D001D20A4600E00B465D
:1053C000641EF2D170BD002CFCD0034830F81100EF
:1053D00070BD0000C8610008A46500082DE9FF4702
:1053E0004FF000090746C0F800901646084600F046
:1053F000F2F9050003D50B2004B0BDE8F087824820
:1054000050F825408CB13C60207820B16078FFF7DF
:1054100097FCC1070BD084F80090E8B26070FFF7EA
:1054200036FCC10708D00320E6E70C20E4E70EB104
:10543000400704D40020DFE71EB1400701D50A2051
:10544000DAE7002529462046FEF7F8FF012822D199
:1054500000206F4604EB001191F8F22101F5F7717D
:105460002AB10A7AD1F8091042EA012100E00021AC
:1054700047F82010401C0428ECD3002657F826508B
:105480002DB129462046FEF7D9FF08B909E00220D0
:10549000761C042EF2D3032801D0E8BB01E00120E2
:1054A000AAE7B4F83B00B0F5007F5CD1B4F8462021
:1054B0002AB994F85400D4F8551040EA0122A261A8
:1054C00094F84010E170012901D002294BD194F8E1
:1054D0003D005143A070F8B1431E184243D1B4F8C7
:1054E000413023811E073ED1B4F843602EB994F8B1
:1054F0005060D4F8517046EA0726B4F83EC0BCF1BB
:10550000000F30D00CEB010707EB1317BE422AD374
:10551000F61BB6FBF0F000E025E020B3012640F6D4
:10552000F678404500D302264FF6F678404500D382
:105530000326801C2F44A762AC446061C4E9075C69
:10554000032E12D07BB161446162022E18D000F0AC
:10555000010100EB400001EB500000BF00F2FF1022
:10556000B2EB502F0ED20D2046E7002BFBD194F862
:105570005C10D4F85D30800041EA03216162EDE700
:105580004000EBE74FF0FF302061E0608020607169
:10559000032E30D1B4F8600001282CD12046691CBC
:1055A00000F056FB38BB84F80590B4F82E02A0F545
:1055B0002A4155391FD194F83000D4F8311040EA0F
:1055C00001201249884216D194F81402D4F8151219
:1055D00040EA01200E4988420DD194F81802D4F80F
:1055E000191240EA0120206194F81C02D4F81D121F
:1055F00040EA0120E06004492670091F0888401C29
:105600000880E08016E700005400002052526141FB
:105610007272416173B50446019801782F2901D057
:105620005C2901D1401C01900025A56001980078FB
:10563000202805D200212046FFF7EAFA65617CBDEB
:1056400001A92046FEF7E2FF0028F8D12046FFF727
:1056500052F9A169C97A28B10428F0D14907EED4DA
:1056600005207CBD4907FCD46169C87AC006F7D51E
:10567000206800F0CEF8A060E2E7000004490A8844
:105680005206FCD5024AC1B2121D118070470000BB
:10569000003801407CB516461C4605460B2200F03A
:1056A000C7FA052C11D91A4A0CE00021B61C234672
:1056B000044663F35F044008E30300D55440491CEB
:1056C0001029F4D330880028EFD107214FEA0D02CA
:1056D00004F00F003030392800D9C01D5054491E45
:1056E0002409F5D17E205054002000E0401C88425F
:1056F00002D22B5C202BF9D1082902D2535C491C21
:1057000000E020232B54401C0828F5D37CBD00006A
:10571000211001002DE9F0410D46044602290BD36A
:105720006069A84208D920784FF0FF36012807D0D9
:1057300002282BD0032836D001263046BDE8F08160
:10574000206A05EB550700EB5721204600F080FA50
:105750000028F2D1C7F3080020447F1C90F8308065
:10576000206A00EB5721204600F072FA0028E4D1AD
:10577000C7F30800204490F8301048EA0120E907F8
:1057800001D00609D9E7C0F30B06D6E7206A00EB83
:105790001521204600F05CFA0028CED1E8B204EBD7
:1057A0004000068EC9E7206A00EBD511204600F0C4
:1057B0004FFA0028C1D140F2FF1000EA85002044D2
:1057C00090F83010D0F8310041EA002020F0704607
:1057D000B3E70020704710B504464FF0FF30226851
:1057E000002A13D0114600E0491C0B78202B0ED361
:1057F0003A2BF9D112F8013B303B0A2B06D28A42F0
:1058000004D1002B02D1491C1846216010BD002094
:1058100010BD0246488B1278032A02D1898A40EAD9
:10582000014070472DE9F84FFEF740F8FEF7F0FF12
:105830004FF4E13000F09CFBC1A0FEF765FCC548C9
:10584000816941F010018161C348016821F0704114
:1058500041F0004101608021016180684FF47A7954
:1058600000067DD40026BDA0FEF74EFCFCF790FAA2
:10587000FCF724FBFCF7F0F801210846FCF7DBF904
:105880000020FCF74DFA4FF448742046FCF75EFA0E
:1058900000210846FCF766FA0020FAF7FDFF2046D3
:1058A000FBF710F800210846FAF7BDFF4FF4F0713E
:1058B0002046FAF7A3FF4FF6FF75002140F2DF13F1
:1058C000621E08460095FCF78AF800200346012274
:1058D000009011461820FCF7C1F960100090234693
:1058E000052200210120FCF731F9FBF741FA9EA0C7
:1058F000002200902B4632211046FCF75BF9A0A055
:10590000002200902B4664211046FCF753F9FBF768
:10591000D9FC00B1FEE701219DA0FBF75BFBDFF89E
:1059200094A204004FF478484FF4967740F2131B8A
:1059300017D0601E122827D89FA15046FAF743FCC3
:10594000224654469EA1601DFEF7EEFB2B4648F210
:105950001002322140F24F100094FCF72BF917E0AF
:10596000D9E098A000902B461F22322140F24F1020
:10597000FCF720F994A000902B46002232215846D3
:10598000FCF718F9012603E0601C1DD0A41C3ED0D2
:105990008FA0FAF717FE04005CD0601E12286CD8A6
:1059A00085A18448FAF70FFC2246544684A1601D65
:1059B000FEF7BAFB2B4648F21002642140F24F106A
:1059C0000094FCF7F7F85AE088A000902B46444674
:1059D0004246322140F24F10FCF7ECF884A00090D0
:1059E0002B460022FA212420FCF7E4F884A0009042
:1059F0002B46002239462420FCF7DCF882A00090D8
:105A00002B46224639467820FCF7D4F8FEE777A0EB
:105A100000902B4644464246322140F24F10FCF79C
:105A2000C9F87BA000902B460022FA212420FCF725
:105A3000C1F873A000902B46002239462420FCF7C1
:105A4000B9F871A000902B46224639467820FCF721
:105A5000B1F8FEE75BA000902B461F22642140F2C4
:105A60004F10FCF7A7F858A000902B4600226421A5
:105A70005846FCF79FF8761C01E0641C20D060A01B
:105A800000902B464FF0000239464FF02400D6B369
:105A9000FCF790F84BA02B461F2200903946782047
:105AA000FCF788F800244D462846FEF7CFFE641C1C
:105AB000032CF9DB5A48FAF763FD0020BDE8F88FA4
:105AC0004AA000902B4644464246642140F24F10C3
:105AD000FCF770F846A000902B460022FA21242003
