:020000040000FA
:0400000006EF00F017
:020008001000E6
:10000C008ED96ADAC89AC896C6941DEEEBF2900E99
:10001C00F66E050EF76E000EF86EA1DAEB0E186E8A
:10002C00360E196E010E046E4FD969D8C70E356E97
:10003C00D6D80A0E026E036A54D8366A376A386A02
:10004C00396A6BD8106A116A126A136A10C507F5FF
:10005C0011C508F582D90D6E10C507F511C508F547
:10006C0023DA0E6E970E2B6E030E2C6E000E2D6E79
:10007C00000E2E6E0DC52FF50EC530F568D81DEE91
:10008C00EBF29A0EF66E050EF76E000EF86E67DA4E
:10009C00EB0E186E360E196E010E046E15D9366AFB
:1000AC00376A020E386E396A38D82F6A306A0C0EED
:1000BC00316E326A3A6AF80E3B6EA2D81DEEEBF244
:1000CC00B00EF66E050EF76E000EF86E48DAEB0EFB
:1000DC00186E360E196E010E046EF6D800D00300A1
:1000EC00FED7032A810E016E280E006E002EFED75D
:1000FC00012EFAD7022EF6D7032EF4D71200640E77
:10010C00026E036AEEDF990E3A6E660E3B6E179026
:10011C00C2D8640E026E036AE4D7BE9436C53CF5B1
:10012C0037C53DF538C53EF539C53FF5180E256E7A
:10013C003EAE02D0C08A01D0C09AC0863C363D3655
:10014C003E363F36C096252EF3D7BE841200336A56
:10015C00346A060E356E43D8BE942FC520F530C5D3
:10016C0021F520C505F521C506F5010E096E0A6AB3
:10017C00D2D900B032D02052D8A4212A33502B240B
:10018C00F66E34502C20F76E000E2D20F86E000EFB
:10019C002E20296EAED92AC535F5332AD8B4342A87
:1001AC002FC505F530C506F533C509F534C50AF577
:1001BC00A9D900B0356A35C53CF5080E226E3CAEA7
:1001CC0002D0C08A01D0C09AC0863C36C096222E7E
:1001DC00F6D7202ED3D7212ED1D7BE841200BE94B1
:1001EC0035C53CF5080E236E3CAE02D0C08A01D05A
:1001FC00C09AC0863C36C096232EF6D7BE84120019
:10020C00060E356EECDFBE942FC51BF530C51CF504
:10021C0031C51DF532C51EF51BC505F51CC506F50A
:10022C001DC507F51EC508F5010E096E0A6A0B6A95
:10023C000C6A7FD900B02DD01B52D8A41C2A1C529A
:10024C00D8A41D2A1D52D8A41E2A3BC53CF5080E65
:10025C001F6E3CAE02D0C08A01D0C09AC0863C361C
:10026C00C0961F2EF6D73AC53CF5080E1F6E3CAE55
:10027C0002D0C08A01D0C09AC0863C36C0961F2ED0
:10028C00F6D71B2EE2D71C2EE0D71D2EDED71E2E46
:10029C00DCD7BE84120017A003D0060E356E9FDF8C
:1002AC00BE943AC53CF53BC53DF5100E246E3DAEF3
:1002BC0002D0C08A01D0C09AC0863C363D36C0966A
:1002CC00242EF5D7BE84120018C5E9F419C5EAF43A
:1002DC00EFC414F51452D8B417D0010E1A6E1A507C
:1002EC001824E96E000E1920EA6EEFC415F512D829
:1002FC001A50145C266E26C505F5096AFED8001E38
:10030C0000A002D01A2AEBD70D0E156E03D80A0ED8
:10031C00156E00D0B2A2FED715C5A3F212000001D3
:10032C00600EAD6FAF6BB36BB06B600EAD6FAD9716
:10033C00AD95AD93AD91080EB16FF86A0301F395CD
:10034C00F39F0401006B086B106B0001749F709F8E
:10035C00CE6ACF6AD06AD26A120007C505F508C505
:10036C0006F51D0E096E010E0A6ED5D800A0000C04
:10037C000750960FF66E030E0820F76E000ED8B0DD
:10038C00010FF86E0800F55012001D61727763774B
:10039C006278671105138A110613311107138A113C
:1003AC000813641109138A110A13641100138011C4
:1003BC000113821101128211021340AAAAAAAA11D6
:1003CC00E0132911E1130311E2130B11E3130311D1
:1003DC00E41301AAAAAAAA1110130411121385116D
:1003EC001313031114137F11151300111A13FF119A
:1003FC001B130211201300112113001122130011E1
:10040C0023130011241300112513041126130011BA
:10041C002713001128130011291300AAAAAAAA1144
:10042C0050130011511300115213001153130011EA
:10043C0054130011551304115613001157130011C6
:10044C0058130011591300115A1300115B130411A6
:10045C005C1300115D1303115E130211BC13001128
:10046C00BD130211BE130011BF130011C0130011F4
:10047C00C1130011C2130011C3130011C6130011D4
:10048C00C7130411C8130011C9130311CA130011A7
:10049C00CB130411B713C011B61301AAAAAAAA113F
:1004AC00B61200111213400007C505F508C506F574
:1004BC00010E096E0A6A2FD800A0000C0750E20F3B
:1004CC00F66E040E0820F76E000ED8B0010FF86E11
:1004DC000800F55012000100010E046E060E020118
:1004EC00AF6F810EAE6FAB8FAB8BAB89AC8F000156
:1004FC0012000900F5C42AF51200006809500562C3
:10050C00006A1200006A0950056212000A50066265
:10051C00120000681200006A06500A5CD8A0120093
:10052C000A50065C04E30950055CD8B01200001EAA
:10053C001200006A08500C5CD8A012000EE10750A3
:10054C000B5CD8A0120009E106500A5CD8A012007E
:10055C0004E10950055CD8B01200001E120009001D
:10056C00F5C405F5F5C4E7F404D00900F550056EA3
:10057C0006260552D8B412000900F5C4E4F4052E81
:10058C00FBD7120009436F6D6D656E636564144390
:10059C006F6D706C6574656420626F6F746C6F61E5
:1005AC00646572000F436F6D706C657465642063D5
:0405BC006F6C6F727F
:020000040030CA
:0A000000EC2FE6D79FFFFFFFFFFF84
:00000001FF
