:020000040000FA
:060000008A110A12052816
:100008000900DB2038228316031387128711051194
:100018001D3083120313A1000130A2002108A7009C
:100028002208A8000130A0004E200130A400A5013C
:100038002408F7002508F800F120AD003D20240829
:100048002102AA002208AB002508031C250FAB02D9
:100058002A08F5002B08F600F901FA014422F009F4
:10006800701C3A28A40A0319A50A1C283B28630017
:100078003B2805112D08AE000830A900AE1F462800
:100088008716472887128715AE0D8711A90B4228B6
:1000980005150800A3012708F5002808F600103008
:1000A800F9002730FA004F22F009701C6F28270842
:1000B800F5002808F6001030F9002730FA005E2213
:1000C8007508A3007008A7007108A800303023073E
:1000D800A600D0207B282708F5002808F600E8307D
:1000E800F9000330FA004F22F009701C8F28270806
:1000F800F5002808F600E830F9000330FA005E221F
:100108007508A3007008A7007108A80030302307FD
:10011800A600D0209A282708F5002808F6006430A1
:10012800F900FA014F22F009701CAD282708F500E4
:100138002808F6006430F900FA015E227508A30069
:100148007008A7007108A80030302307A600D02047
:10015800B8282708F5002808F6000A30F900FA013F
:100168004F22F009701CCA282708F5002808F60055
:100178000A30F900FA015E227508A3007008A7008A
:100188007108A80030302307A600D0202708A30054
:1001980030302307A600D0280C1ED028831603135E
:1001A800981CD22883120313260899000800831686
:1001B80003139F13831203131F10831603139F1136
:1001C8001F159F141F1007309C008312031385010D
:1001D800860187018801890108007708F5007808F9
:1001E800F6001D30F9000130FA004F22701C00346F
:1001F8007708063EF70001300318013E78078A00A9
:10020800770882001D34613472347734633477346C
:100218006234783467341134053413348A34113431
:100228000634133431341134073413348A34113416
:100238000834133464341134093413348A341134CF
:100248000A341334643411340034133480341134D0
:1002580001341334823411340134123482341134A9
:10026800023413344034AA34AA34AA34AA341134D8
:10027800E034133429341134E134133403341134A1
:10028800E23413340B341134E334133403341134AB
:10029800E43413340134AA34AA34AA34AA34113405
:1002A80010341334043411341234133485341134B3
:1002B8001334133403341134143413347F341134A5
:1002C80015341334003411341A341334FF34113410
:1002D8001B341334023411342034133400341134F1
:1002E80021341334003411342234133400341134DB
:1002F80023341334003411342434133400341134C7
:1003080025341334043411342634133400341134AE
:10031800273413340034113428341334003411349E
:10032800293413340034AA34AA34AA34AA34113430
:10033800503413340034113451341334003411342C
:100348005234133400341134533413340034113418
:100358005434133400341134553413340434113400
:1003680056341334003411345734133400341134F0
:1003780058341334003411345934133400341134DC
:100388005A341334003411345B34133404341134C4
:100398005C341334003411345D34133403341134B1
:1003A8005E34133402341134BC3413340034113441
:1003B800BD34133402341134BE34133400341134D0
:1003C800BF34133400341134C034133400341134BE
:1003D800C134133400341134C234133400341134AA
:1003E800C334133400341134C63413340034113494
:1003F800C734133404341134C8341334003411347A
:10040800C934133403341134CA3413340034113466
:10041800CB34133404341134B7341334C0341134A6
:10042800B63413340134AA34AA34AA34AA341134A1
:10043800B63412340034113412341334403477088B
:10044800F5007808F6000130F900FA014F22701C17
:1004580000347708373EF70002300318013E78076A
:100468008A007708820001348130831603139900CB
:1004780018151812981683120313981718160800DF
:10048800F00175087902031D080076087A02031D39
:100498000800F0090800F00176087A02031C080039
:1004A8007A087602031C5C2A79087502031808008A
:1004B800F00908007508F7007608F8007908FB00CD
:1004C8007A08FC00F201F3017B08F5007C08F600CD
:1004D800F901FA014422701C742AF501F60108009A
:1004E8001030F4000310F70DF80DF20DF30D7B0832
:1004F800F2027C08031C7C0FF302771403188B2A82
:1005080077107B08F2077C0803187C0FF307F40BBD
:10051800762A7708F5007808F6007208F000730864
:04052800F1000800D6
:02400E007A3FF7
:00000001FF
