:020000040000FA
:0400000006EF00F017
:020008001000E6
:10000C003BD934D953D9010E046E29D81DEEEBF22D
:10001C00120EF66E070EF76E000EF86E61DBEB0E2D
:10002C002C6E360E2D6E010E0D6E6BD891D8126A99
:10003C00F80E136E146A156A2FD8FFD700D0030080
:10004C00FED7032A810E016E280E006E002EFED7FD
:10005C00012EFAD7022EF6D7032EF4D71200E80E93
:10006C00026E030E036EEDDF042EF9D7120026C5C7
:10007C0033F53352D8B407D0D8900C320B320A3245
:10008C000932332EF9D709C50EF50AC50FF50BC584
:10009C0010F50CC511F51200226A236AD20E386EC7
:1000AC0089DA12C509F513C50AF514C50BF515C582
:1000BC000CF50B0E266EDBDF0EC538F5B0DAD30E61
:1000CC00386E78DA12C509F513C50AF514C50BF5A7
:1000DC0015C50CF50B0E266ECADF3F0E0E14386ECE
:1000EC009EDAD40E386E66DA1F0E1214386E97DA5A
:1000FC00EAD8760E386E5EDAE00E386E90DAE3D01F
:10010C0012002CC5E9F42DC5EAF4EFC427F52752EB
:10011C00D8B413D02E6A010E275CD8A00ED02E2A8C
:10012C002E502C24E96E000E2D20EA6EEFC428F51B
:10013C000AD827502E5CD8A0F2D70D0E286E03D803
:10014C000A0E286E00D0B2A2FED728C5A3F2120068
:10015C00C790C888C896C696C79ABF80C088BE8606
:10016C00C08660D9E7D9D2D82A902BB62A80126AD9
:10017C00136A146A156A12C507F564D91E6E1F6AD4
:10018C00122AD8B4132AD8B4142AD8B4152A12C5F2
:10019C0007F558D9166E122AD8B4132AD8B4142AD3
:1001AC00D8B4152A110E165CD8A40FD012C507F5B9
:1001BC0049D9166E122AD8B4132AD8B4142AD8B432
:1001CC00152A16C538F5F6D926D0130E165CD8A408
:1001DC000FD012C507F536D9166E122AD8B4132AC9
:1001EC00D8B4142AD8B4152A16C538F518DA13D091
:1001FC00AA0E165CD8A40FD012C507F523D9166E1B
:10020C00122AD8B4132AD8B4142AD8B4152A0F0E2B
:10021C00026E036A16DF12C509F513C50AF514C57B
:10022C000BF515C50CF51EC505F51FC506F5076ABA
:10023C00086A30DA00B001D0AAD71E681F68206A9D
:10024C00216A126A136A146A156A200E186E030E5C
:10025C00196E580E166E020E176E060E1D6E1A6A69
:10026C00020E1C6E070E1B6E4BDF16D7C89C200EA1
:10027C000201176F000112000001600EAD6FAF6B31
:10028C00B36BB06B600EAD6F080EB16FF86A030103
:10029C00F395F39F0401006B086B106B0001749FC6
:1002AC00709FCE6ACF6AD06AD26A1200010E0D6EB0
:1002BC00060E0201AF6F810EAE6FAB8FAB8BAB89AD
:1002CC00AC8F000112003DD925C537F52CDA1DEE97
:1002DC00D6F2066A1C0EF66E070EF76E000EF86E5E
:1002EC0005DA0DEEBDF2F1D90DEED6F206C5EFF43E
:1002FC00D60E2C6E360E2D6E010E0D6E02DF21D930
:10030C00080E2514356E35B0DED712002A9219D995
:10031C00020E2514356E35C505F5096AB6D900A04F
:10032C0028D0010E026E036A8CDE010E386E42D9A3
:10033C00010E026E036A85DE32D8800E2414356EEF
:10034C0035C505F5800E096EA0D900A003D02A8210
:10035C00176A0ED0010E026E036A73DE010E386E40
:10036C0029D9010E026E036A6CDE800E386E57D9E5
:10037C0002D02A92172A2AB2D8A4001E00C535F53D
:10038C0017C505F5050E096E80D935500014366E6B
:10039C0036A002D047D8176A2AA2B9D71200246A0D
:1003AC00BE967A0E006E002EFED70000C00E396E7F
:1003BC003A6A3B6A3C6A080E316E39AE02D0BF8095
:1003CC0001D0BF90C0967A0E006E002EFED70000B2
:1003DC0039363A363B363C36C0867A0E006E002EE5
:1003EC00FED70000312EE9D7080E316EC096D8909A
:1003FC0024367A0E006E002EFED70000D0A802D054
:10040C00248001D02490C0867A0E006E002EFED778
:10041C000000312EEBD77A0E006E002EFED70000B6
:10042C00BE861200C79ABF8A320E026E036A09DEBC
:10043C00BF9A320E026E036A04DEBF8A320E026E5F
:10044C00036AFFD5CD0E0760000C0750720FF66ED5
:10045C00040ED8B0010FF76E000ED8B0010FF86E75
:10046C000800F5501200CC110513061106134111AA
:10047C0007138A110813641109138A110A136411E2
:10048C000013801101138211021340AAAAAAAA1107
:10049C00E0132911E1130311E2130B11E313031100
:1004AC00E41301AAAAAAAA1110130411121385119C
:1004BC001313031114137F11151300111A13FF11C9
:1004CC001B13021120130011211300112213001110
:1004DC0023130011241300112513041126130011EA
:1004EC002713001128130011291300AAAAAAAA1174
:1004FC00501300115113001152130011531300111A
:10050C0054130011551304115613001157130011F5
:10051C0058130011591300115A1300115B130411D5
:10052C005C1300115D1303115E1302AAAAAAAA118F
:10053C001213C500010E386E3DD8010E026E036A0F
:10054C0080D5256ABE96400E396E3A6A3B6A3C6A83
:10055C00080E326E39AE02D0BF8001D0BF90C0966B
:10056C007A0E006E002EFED7000039363A363B3636
:10057C003C36C0867A0E006E002EFED70000322E5E
:10058C00E9D7080E326EC096D89025367A0E006EDA
:10059C00002EFED70000D0A802D0258001D02590D7
:1005AC00C0867A0E006E002EFED70000322EEBD7DE
:1005BC00BE861200BE96396A080E2F6E39AE02D076
:1005CC00BF8001D0BF90C0967A0E006E002EFED771
:1005DC0000003936C0867A0E006E002EFED7000061
:1005EC002F2EECD738C539F5080E2F6E39AE02D048
:1005FC00BF8001D0BF90C0967A0E006E002EFED741
:10060C0000003936C0867A0E006E002EFED7000030
:10061C002F2EECD7BE86010E026E036A12D5BE9643
:10062C00800E396E080E306E39AE02D0BF8001D00C
:10063C00BF90C0967A0E006E002EFED700003936A1
:10064C00C0867A0E006E002EFED70000302EECD73E
:10065C0038C539F5080E306E39AE02D0BF8001D0E6
:10066C00BF90C0967A0E006E002EFED70000393671
:10067C00C0867A0E006E002EFED70000302EECD70E
:10068C00BE86010E026E036ADCD400680950056256
:10069C00006A1200006A08500C5CD8A012000EE12F
:1006AC0007500B5CD8A0120009E106500A5CD8A0D8
:1006BC00120004E10950055CD8B01200001E1200B3
:1006CC00EFC405F505C5E7F403D0EF50056E06261B
:1006DC000552D8B41200ECC4E4F4052EFCD7120079
:1006EC000900F5C405F5F5C4E7F404D00900F5508C
:1006FC00056E06260552D8B412000900F5C4E4F4C0
:10070C00052EFBD7120009436F6D6D656E63656432
:10071C00144C54373638365F5374617475735265A4
:10072C00616428292000020E3601BD6F0F0E3714AC
:10073C000501346F0908D8B002D0070E3427300EEB
:10074C0034253601BF6F0501346B342B3732040E60
:10075C00345DD8A0FAD70F0E3714346F0908D8B00F
:10076C0002D0070E3427300E34253601BE6F00013F
:02077C00120069
:020000040030CA
:0A000000EC2FE6D79FFFFFFFFFFF84
:00000001FF
