:0400000006EF00F017
:020008001000E6
:10000C0068D94ED98CD948D981908280818A8490C4
:10001C008492849484968290829282948296859E15
:10002C00859A8394839A7B9A83967B96246A0A6A30
:10003C00010E196E010E0B6EEBD81DEED1F0060EF3
:10004C00F66E060EF76E000EF86EC4DAD10E266E42
:10005C000D0E276E010E0B6EBAD8010E196E010E25
:10006C000B6ED6D81DEED1F01C0EF66E060EF76E8A
:10007C00000EF86EAFDAD10E266E0D0E276E010E45
:10008C000B6EA5D8010E196E010E0B6EC1D81DEEAC
:10009C00D1F0360EF66E060EF76E000EF86E9ADA8A
:1000AC00D10E266E0D0E276E37DA010E1C6E1B6AF2
:1000BC001EDA1DEED1F0480EF66E060EF76E000E2F
:1000CC00F86E88DAD10E266E0D0E276E25DA010E2B
:1000DC00046E74D847D81DEED1F05A0EF66E060E8B
:1000EC00F76E000EF86E76DAD10E266E0D0E276EB8
:1000FC0013DA010E1C6E1B6AFAD91DEED1F06C0ED0
:10010C00F66E060EF76E000EF86E64DAD10E266EE1
:10011C000D0E276E01DA050E046E50D823D81DEE95
:10012C00D1F0360EF66E060EF76E000EF86E52DA41
:10013C00D10E266E0D0E276EEFD9010E1C6E1B6AAA
:10014C00D6D91DEED1F0480EF66E060EF76E000EE7
:10015C00F86E40DAD10E266E0D0E276EDDD96FD8F3
:10016C000300FED72592010E1A6E5CD9040E026EA6
:10017C00036A16D8800E1A6E55D9010E016E006AEC
:10018C00002EFED7012EFBD7090E006E002EFED7D7
:10019C001200340E006E002EFED7052EFAD7120078
:1001AC00032A810E016E280E006E002EFED7012E42
:1001BC00FAD7022EF6D7032EF4D71200E80E026EF1
:1001CC00030E036EEDDF042EF9D71200120026C0C9
:1001DC00E9FF27C0EAFFEFCF1FF01F52D8B417D0AA
:1001EC00010E286E28502624E96E000E2720EA6E98
:1001FC00EFCF20F01BD828501F5C2B6E2BC005F0C6
:10020C00096AE3D9001E00A002D0282AEBD71200FD
:10021C0019C02AF02A52D8B408D00D0E206E06D878
:10022C000A0E206E03D82A2EF8D712000E0136A91A
:10023C00FDD79DA2FED720C099FF000112000D0E24
:10024C00226E216A8BD97980320E026E036AA8DF86
:10025C007A800F0E026E036AA3DF7A90500E006E46
:10026C00002EFED77A800F0E026E036A99DF0C6A9D
:10027C000D6A16681768106A040E116E200E0E6E49
:10028C00030E0F6E060E156E126A010E146E070E1B
:10029C00136E040E186E9AD777D80C0E1E6E1200C1
:1002AC000C0E0E01686F130E196F190E656F1A0E76
:1002BC00676F140E1A6F050E646F120E026F050E27
:1002CC00776F250E026F050E796F270E026F0001F6
:1002DC001200778E779C0001600E0E01436F456B08
:1002EC00476B486B600E436F439743954393439121
:1002FC00080E496FF86A6094609E926B9A6BA76BBC
:10030C00AF6BB46BBC6BCC9FD09F896A8A6A8B6ACB
:10031C008C6A8D6A8E6A8F6A906A00011200010ED7
:10032C000B6E060E9B6E810E9A6E810E9A6E9E86D9
:10033C009D849D989D8A9C8E9C88120025921DC040
:10034C001AF070D81DC005F0010E096E3ED900C020
:10035C002BF01DC005F0020E096E37D92B50001082
:10036C002C6E2CA005D0020E026E036A19DF0BD086
:10037C00010E016E006A002EFED7012EFBD7090E6E
:10038C00006E002EFED71200829A0A0E026E036ACD
:10039C0007DF7A9A1A0E006E002EFED700007A8ABA
:1003AC008194839A83960D0E226E216AD7D82E6A79
:1003BC002D6A76D80A0E026E036AF2DE010E2E6EDC
:1003CC002D6A6ED80A0E026E036AEADE120E2E6ECB
:1003DC00200E2D6E65D80A0E026E036AE1DE3C0E0D
:1003EC001D6EACDF0A0E026E036ADADE0C0E1D6E99
:1003FC00A5DF0A0E026E036AD3DE010E1D6E9EDFB0
:10040C000A0E026E036ACCDE0C0E1D6E97DF820E96
:10041C00026E036AC5DE800E1D6E90DF010E026E49
:10042C00036ABED625B212D0120E2E6E600E2D6E41
:10043C0037D8130E2E6E1AC02DF032D82DC01AF0EC
:10044C00120E2E6E200E2D6E2BD811D0120E2E6E7B
:10045C00E00E2D6E25D8130E2E6E1AC02DF020D85E
:10046C002DC01AF0120E2E6EA00E2D6E19D80C0E79
:10047C001E6E010E016E006A002EFED7012EFBD7F8
:10048C00090E006E002EFED725B209D0100E1A5C94
:10049C00D8B005D01A500708D8A01AC01EF0120008
:1004AC0079943068302A3052D8A403D0400E2F6E85
:1004BC000CD03004D8A403D02EC02FF006D0020EDE
:1004CC00305CD8A402D02DC02FF0080E296E2FAEB0
:1004DC0002D07B8A01D07B9A7B862F367B96292E85
:1004EC00F6D7020E305CD8A0DDD7798412002592A5
:1004FC001C500108D8B004D0020E1C5E140E1B2632
:10050C001C50400D1B50F3242B6E800E2B101A6EBA
:10051C0089DF050E056E3DD626C0E9FF27C0EAFF30
:10052C00EFCF1FF01F52D8B412002582010E286E97
:10053C0028502624E96E000E2720EA6EEFCF1AF021
:10054C0071DF28501F5C2B6E2BC005F0096A3DD85B
:10055C00001E00A002D0282AEBD71200959A949E78
:10056C00949C21A0948C959821B2958895969594FD
:10057C0095929590100E225CD8A405D09586958204
:10058C00010E926E20D00E0E225CD8A401D01BD08E
:10059C000D0E225CD8A401D016D00C0E225CD8A46F
:1005AC0002D0958010D00B0E225CD8A402D095827C
:1005BC000AD02252D8A403D09584958004D022046A
:1005CC00D8A401D09584958A120000680950056260
:1005DC00006A12000900F5CF05F0F5CFE7FF04D053
:1005EC000900F550056E06260552D8B41200090014
:1005FC00F5CFE4FF052EFBD712001557656C636F22
:10060C006D6520746F204578706C6F726572203840
:10061C001847434241534943202D20416E6F626974
:10062C00756D2020203230323300102020202057CE
:10063C00656C636F6D6520202020200010202074D5
:10064C006F204578706C6F72657220382000102016
:10065C0020202047434241534943202020202000A2
:10066C001020416E6F6269756D202020323032335C
:02067C0020005C
:020000040030CA
:0C000000ECFFFFF79FFFFFDFFFFFFFFF9B
:00000001FF
