:020000040000FA
:0400000006EF00F017
:020008001000E6
:10000C0010EC04F0F0DB09EC04F0A0DBC80E306E51
:10001C00C6EC07F0030E0501BF6FC06BC36BC46B5E
:10002C000F0EBB6FBC6B0F0EA36FA46B030E1F5C8C
:10003C00826F000E2058836F82C505F583C506F5C7
:10004C000F0E096E0A6A00015EEC0CF005C5B1F5E5
:10005C0006C5B2F5000E1D5C0501826F000E1E5820
:10006C00836F82C505F583C506F50F0E096E0A6A06
:10007C0000015EEC0CF005C5B3F506C5B4F5010E38
:10008C000501B76FB86B030EB96FBA6B030EA76F90
:10009C00436AF80E446E456A466A1F0E376E386A1C
:1000AC00396A3A6A31683268336A346A0001C1ECE1
:1000BC0008F00501A969AA69AB6BAC6B00012CECCB
:1000CC0008F0640E306EC6EC07F0020E046E1BD9FD
:1000DC00106A79EC0AF06CC566F50501676B0001D6
:1000EC0064EC0AF03BEC0AF061C562F50501636B48
:1000FC00D890080E7F6F623763377F2FFCD70001D3
:10010C003BEC0AF061C54DF54E6A4B6A4C6A496886
:10011C004A6A010E576E586A030E1F5C0501826F06
:10012C00000E2058836F82C505F583C506F50F0EAA
:10013C00096E0A6A00015EEC0CF0010E055C556E4E
:10014C00000E0658566E476A486A5CEC0BF06DC59B
:10015C0068F56EC569F53BEC0AF061C54DF54E6A64
:10016C004B6A4C6A49684A6A010E576E586A000E0F
:10017C001D5C0501826F000E1E58836F82C505F54C
:10018C0083C506F50F0E096E0A6A00015EEC0CF0D1
:10019C00010E055C556E000E0658566E476A486A8D
:1001AC005CEC0BF06DC56AF56EC56BF568C505F5B5
:1001BC0069C506F50F0E096E0A6A0FEC0DF000C545
:1001CC0059F501C55AF56AC505F56BC506F50F0E4F
:1001DC00096E0A6A0FEC0DF000C55BF501C55CF504
:1001EC00030E59240501826F000E5A20836F030EF3
:1001FC0082255D6E000E83215E6E000E5B24826F85
:10020C00000E5C20836F030E82255F6E000E83212F
:10021C00606F62C505F563C506F5096A0A6A0001D7
:10022C00F4EC0BF000A003D0050162696369030EC6
:10023C0059240501826F000E5A20836F020E82250D
:10024C008C6F000E83218D6F000E5B24826F000E6D
:10025C005C20836F020E8225926F000E8321936FB8
:10026C00030E5924826F000E5A20836F0F0E8225C5
:10027C00866F000E8321876F020E865D8E6F000ED7
:10028C0087598F6F000E5B24826F000E5C20836F8A
:10029C000F0E8225866F000E8321876F020E865DFE
:1002AC00946F000E8759956F62C53BF563C53CF59D
:1002BC003D6A3E6A000138D815D70300FED706AE5A
:1002CC0008D0051C0E6E061C0F6E0E2AD8B40F2A11
:1002DC0004D005C50EF506C50FF51200340E006EE0
:1002EC00002EFED7052EFAD71200032A810E016EBE
:1002FC00280E006E002EFED7012EFAD7022EF6D74E
:10030C00032EF4D71200E80E026E030E036EEDDF1F
:10031C00042EF9D71200010E826F72C581F0B1A0C4
:10032C00FED780C071F51200680E0501A86F0001A0
:10033C00A0EC08F08CC5A8F5B0EC08F0690E05012E
:10034C00A86F0001A0EC08F08DC5A8F5B0EC08F082
:10035C006A0E0501A86F0001A0EC08F092C5A8F583
:10036C00B0EC08F06B0E0501A86F0001A0EC08F0D2
:10037C0093C5A8F5B0EC08F06C0E0501A86F000150
:10038C00A0EC08F08EC5A8F5B0EC08F06D0E0501D8
:10039C00A86F0001A0EC08F08FC5A8F5B0EC08F030
:1003AC006E0E0501A86F0001A0EC08F094C5A8F52D
:1003BC00B0EC08F06F0E0501A86F0001A0EC08F07E
:1003CC0095C5A8F5B0EC08F03BC5ADF53CC5AEF550
:1003DC003DC5AFF53EC5B0F5D20E0501A86F0001C5
:1003EC00A0EC08F0AEC5A8F5B0EC08F0D89005016B
:1003FC00AD37AE37AF37B037AD37AE37AF37B037C5
:10040C00AD37AE37AF37B037D40EA86F0001A0ECC4
:10041C0008F0ADC5A8F5B0EC08F0D8900501AD37E3
:10042C00AE37AF37B037AD37AE37AF37B037D30E97
:10043C00A86F0001A0EC08F0AEC5A8F5B0EC08F070
:10044C00760E0501A86F0001A0EC08F0E00E050186
:10045C00A86F0001B0EC08F034D33BC515F53CC5D2
:10046C0016F53DC517F53EC518F531C511F532C564
:10047C0012F533C513F534C514F59BC58CF59CC525
:10048C008DF59FC592F5A0C593F59DC58EF59EC5BE
:10049C008FF5A1C594F5A2C595F515C53BF516C507
:1004AC003CF517C53DF518C53EF53EDF05019951E4
:1004BC009B258C6F9A519C218D6F99519F25926F22
:1004CC009A51A021936F99519D5D8E6F9A519E59AF
:1004DC008F6F9951A15D946F9A51A259956F11C567
:1004EC003BF512C53CF513C53DF514C53EF50001B1
:1004FC001BDF15C53BF516C53CF517C53DF518C5F5
:10050C003EF511C531F512C532F513C533F514C5D9
:10051C0034F512002A6A2B6AD4DA680E0501A86F2A
:10052C000001A0EC08F00501A86B0001B0EC08F08C
:10053C00690E0501A86F0001A0EC08F00501A86B7D
:10054C000001B0EC08F06A0E0501A86F0001A0ECE8
:10055C0008F00501A86B0001B0EC08F06B0E05016A
:10056C00A86F0001A0EC08F00501A86B0001B0EC2D
:10057C0008F06C0E0501A86F0001A0EC08F01FC577
:10058C00A8F5B0EC08F06D0E0501A86F0001A0EC09
:10059C0008F020C5A8F5B0EC08F06E0E0501A86FA8
:1005AC000001A0EC08F01DC5A8F5B0EC08F06F0E2A
:1005BC000501A86F0001A0EC08F01EC5A8F5B0EC71
:1005CC0008F019C53BF51AC53CF51BC53DF51CC516
:1005DC003EF53BC5ADF53CC5AEF53DC5AFF53EC5ED
:1005EC00B0F5D20E0501A86F0001A0EC08F0AEC565
:1005FC00A8F5B0EC08F0D8900501AD37AE37AF37A1
:10060C00B037AD37AE37AF37B037AD37AE37AF37B2
:10061C00B037D40EA86F0001A0EC08F0ADC5A8F55A
:10062C00B0EC08F0D8900501AD37AE37AF37B03726
:10063C00AD37AE37AF37B037D30EA86F0001A0EC93
:10064C0008F0AEC5A8F5B0EC08F03BDA760E050163
:10065C00A86F0001A0EC08F0E00E0501A86F0001E6
:10066C00B0EC08F02ED2020E0501A86F0001A0EC30
:10067C0008F0D9DA2FC5B5F5120E0501A86F0001E7
:10068C00A0EC08F0D0DA2FC598F5040E295CD8A49C
:10069C0008D01F6A040E206E580E1D6E020E1E6EC0
:1006AC0036D02904D8A40CD01F6A040E206E580E24
:1006BC001D6E020E1E6E05019897B595B59327D049
:1006CC00020E295CD8A408D01F6A040E206E580EA6
:1006DC001D6E020E1E6E1BD0030E295CD8A40CD00E
:1006EC001F6A040E206E580E1D6E020E1E6E050142
:1006FC009887B595B5830BD01F6A040E206E580EE3
:10070C001D6E020E1E6E05019897B595B593020EDF
:10071C000501A86F0001A0EC08F0B5C5A8F5B0EC78
:10072C0008F0CFD9120E0501A86F0001A0EC08F05B
:10073C0098C5A8F5B0EC08F0C4D1010E826F72C553
:10074C0081F0B1A0FED780C071F51200C888C790A7
:10075C00C896C696C79ABF90C088BE860C0E050177
:10076C00706F030E6F6F0001ABEC0BF0030E050105
:10077C00816FBF8A320E026E036A0001B6DDBF9A2A
:10078C00640E026E036AB1DDBF8A320E026E036A1A
:10079C00ACDD0501812FEDD700017AEC08F00A0ED3
:1007AC00026E036AA2DD43DBA0D92C52D8A401D07F
:1007BC00FBD725682668276A286A196A1A6A1B6A91
:1007CC001C6A1F6A040E206E580E1D6E020E1E6EE1
:1007DC00216A020E236E070E226E010E296E43DF74
:1007EC00060E246E97D604011397C89C200E0201A6
:1007FC00176F140E6B6F320E096F310E146F130ED0
:10080C006A6F00011200910E0501646F060E656F90
:10081C00000112000001600EAD6FAF6BB36BB06BDB
:10082C00600EAD6F080EB16FF86A0301F395F39F7C
:10083C000401006B086B106B206B0001749F709FA0
:10084C00CE6ACF6AD06AD16AD26A1200680E0501EC
:10085C00A86F0001A0EC08F08CC5A8F5B0EC08F06E
:10086C00690E0501A86F0001A0EC08F08DC5A8F574
:10087C00B0EC08F06A0E0501A86F0001A0EC08F0BE
:10088C0092C5A8F5B0EC08F06B0E0501A86F00013D
:10089C00A0EC08F093C5A8F5B0EC08F06C0E0501BF
:1008AC00A86F0001A0EC08F08EC5A8F5B0EC08F01C
:1008BC006D0E0501A86F0001A0EC08F08FC5A8F51E
:1008CC00B0EC08F06E0E0501A86F0001A0EC08F06A
:1008DC0094C5A8F5B0EC08F06F0E0501A86F0001E7
:1008EC00A0EC08F095C5A8F5B0EC08F03BC5ADF54B
:1008FC003CC5AEF53DC5AFF53EC5B0F5D20E050114
:10090C00A86F0001A0EC08F0AEC5A8F5B0EC08F09B
:10091C00D8900501AD37AE37AF37B037AD37AE37FE
:10092C00AF37B037AD37AE37AF37B037D40EA86F5F
:10093C000001A0EC08F0ADC5A8F5B0EC08F0D8901B
:10094C000501AD37AE37AF37B037AD37AE37AF3750
:10095C00B037D30EA86F0001EDDBAEC5A8F5FADBFE
:10096C00670E0501A86F0001E5DB800E0501A86F7D
:10097C000001F0DBA6D005019B519D5D906F9C5151
:10098C009E59916F9F51A15D866FA051A259876F9F
:10099C0086C505F587C506F50A0E096E0A6A0001BB
:1009AC0063EC0DF000C596F501C597F505018A6B52
:1009BC008B6B90C505F591C506F5096A0A6A0001AD
:1009CC00F4EC0BF000A005D0140E0501886F896BB8
:1009DC000ED096C505F597C506F590C509F591C5D8
:1009EC000AF5F0EC0CF005C588F506C589F588C547
:1009FC0005F589C506F5000162DC0EC509F50FC5C4
:100A0C000AF50A0E056E066A35EC0CF0001E00A005
:100A1C002CD099C509F59AC50AF5056A066A000134
:100A2C0011EC0CF000A020D0010E0501995F000E16
:100A3C009A5B9BC58CF59CC58DF58A519F25926F51
:100A4C008B51A021936F9DC58EF59EC58FF58A5154
:100A5C00A125946F8B51A221956F0001F7DE050142
:100A6C008A2BD8B48B2BD5D72BD099C509F59AC521
:100A7C000AF5056A066A000111EC0CF000A020D002
:100A8C00010E0501995F000E9A5B8A519B258C6FB4
:100A9C008B519C218D6F9FC592F5A0C593F58A5102
:100AAC009D258E6F8B519E218F6FA1C594F5A2C58C
:100ABC0095F50001CBDE05018A2BD8B48B2BD5D74D
:100ACC00120020DB080E41140501826F82C505F56A
:100ADC00080E096E0001EFEC0BF000A005D0350EEE
:100AEC00006E002EFED7EDD712002C6A2D6A2E6AEE
:100AFC002D2A2E2A000106DB41C542F5020E4214B6
:100B0C000501826F82C505F5096A0001EFEC0BF057
:100B1C0000C586F52EC505F5140E096E0CEC0CF00F
:100B2C00050186510014826F82A120D0020E016E45
:100B3C00006A002EFED7012EFBD7130E006E002E7E
:100B4C00FED7010EA86F0001F5DA6DD8800E2F14B8
:100B5C000501826F82C505F5800E096E0001EFEC70
:100B6C000BF000A002D02C68120014D0020E016E03
:100B7C00006A002EFED7012EFBD7130E006E002E3E
:100B8C00FED7010EA86F0001D5DA800E0501A86F03
:100B9C000001E0DA2CC505F5096AEFEC0BF000C595
:100BAC0082F52EC505F5050E096EEFEC0BF005016F
:100BBC0082510014866F86A11ED0000143D80A0E04
:100BCC00026E036A7BEC01F08FDA0A0E026E036A86
:100BDC007BEC01F02CD9E40E0501A86F0001AADA18
:100BEC00010E0501A86F0001B5DA640E026E036AEE
:100BFC007BEC01F02E6A2CC505F5096A0001EFECBF
:100C0C000BF000C582F52DC505F5140E096EEFEC41
:100C1C000BF0001E050182510014866F86B168D757
:100C2C002C6800011200BE96C00E0501726F000107
:100C3C0091EC01F00501726B00017FDD71C52FF5A0
:100C4C00BE861200BF8A1E0E026E036A7BEC01F098
:100C5C00BF9AC80E026E036A7BEC01F0BF8A1E0EAF
:100C6C00026E036A7BEF01F007C505F508C506F5B2
:100C7C00620E096E010E0A6E11EC0CF000A0000C55
:100C8C000750A60FF66E0C0E0820F76E000ED8B0AB
:100C9C00010FF86E0800F550120061001105138A5F
:100CAC00110613331107138A110813641109138ADF
:100CBC00110A135011001380AAAAAAAA11011392A7
:100CCC001101129211021340AAAAAAAA11E0132927
:100CDC0011E1130311E2130B11E3130311E41301DC
:100CEC00AAAAAAAAAAAAAAAAAAAAAAAA11101304C8
:100CFC0011121380111313001114137F111513000B
:100D0C00111A1357111B1302111613101117130478
:100D1C001118131311191301111C1313111D1300A6
:100D2C00111E130B111F130211BB13011120130001
:100D3C00112113001122130011231300112413008D
:100D4C001125130411261300112713001128130069
:100D5C0011291300AAAAAAAA1150130011511300A9
:100D6C001152130011531300115413001155130495
:100D7C001156130011571300115813001159130079
:100D8C00115A1300115B1304115C1358115D1302FB
:100D9C00115E130111BC130011BD130211BE13001F
:100DAC0011BF130011C0130011C1130011C21300A5
:100DBC0011C3130011C6130011C7130411C8135823
:100DCC0011C9130211CA130011CB130411B713C0AC
:100DDC00AAAAAAAA111213C0AAAAAAAA1184131306
:100DEC001185130A11871300118C1364118D1300D4
:100DFC00118E1346118F13001186133007C505F59C
:100E0C0008C506F5010E096E0A6A11EC0CF000A07B
:100E1C00000C0750380FF66E0E0E0820F76E000E01
:100E2C00D8B0010FF86E0800F550120001001E6AD0
:100E3C003F6A406A3FC507F540C508F515DF256ECA
:100E4C003FC507F540C508F5D9DF266E3F2AD8B453
:100E5C00402A010E026E036A7BEC01F03FC507F5D8
:100E6C0040C508F501DF1D6E3F2AD8B4402A110E8B
:100E7C001D5CD8A416D0320E026E036A7BEC01F016
:100E8C003FC507F540C508F5EFDE1D6E1DC51EF507
:100E9C003F2AD8B4402A1DC5A8F54CD91DC520F54C
:100EAC0060D0120E1D5CD8A433D03FC507F540C5E9
:100EBC0008F5DADE1D6E3F2AD8B4402A010E026E08
:100ECC00036A7BEC01F0AFDE2FC505F51DC509F5F6
:100EDC00EFEC0BF0001E00C582F535C505F536C5E7
:100EEC0006F5F40E096E010E0A6E11EC0CF00501FC
:100EFC0082510014866F86A10AD0352AD8B4362ABE
:100F0C00010E026E036A00017BEC01F0DCD729D0E4
:100F1C00130E1D5CD8A411D03FC507F540C508F5CC
:100F2C00A3DE1D6E1DC51EF5356A366A3F2AD8B480
:100F3C00402A1DC5A8F50ED914D0AA0E1D5CD8A444
:100F4C0010D03FC507F540C508F58EDE1D6E3F2A53
:100F5C00D8B4402A1D501E5CD8B403D0E6D81DC5A9
:100F6C001EF53FC509F540C50AF525C505F526C58D
:100F7C0006F5000111EC0CF000B001D06AD712009C
:100F8C003050C808D8B002D0630E306E860E050102
:100F9C00A86F0001CFD847DE2FC588F505018899C9
:100FAC0088C5A8F50001D6D88CDD850E0501A86F83
:100FBC000001C0D838DE2FC588F50501889F889DB3
:100FCC0088C5A8F50001C6D87CDD840E0501A86F84
:100FDC000001B0D8C80E0501A86F0001BBD871DDA7
:100FEC008E0E0501A86F0001A5D8640E0501A86F2F
:100FFC000001B0D88F0E0501A86F00019BD8050128
:10100C00A86B0001A7D85DDD8C0E0501A86F00014F
:10101C0091D830C5A8F59ED88D0E0501A86F00019A
:10102C0089D80501A86B000195D84BDD860E05010A
:10103C00A86F00017FD8F7DD2FC588F50501888BD7
:10104C00888988C5A8F5000185D83BD5A9C519F5AF
:10105C00AAC51AF5D70E0501A86F00016BD81F0E93
:10106C000501A915A86F000175D80501AC33AB3388
:10107C00AA33A933AC33AB33AA33A933AC33AB3378
:10108C00AA33A933AC33AB33AA33A933AC33AB3368
:10109C00AA33A933D60EA86F00014CD83F0E050118
:1010AC00A915A86F000156D80501AC33AB33AA3390
:1010BC00A933AC33AB33AA33A933AC33AB33AA3338
:1010CC00A933AC33AB33AA33A933AC33AB33AA3328
:1010DC00A933AC33AB33AA33A933D50EA86F0001B7
:1010EC0029D8A9C5A8F536D00501A86B000122D8CE
:1010FC00010E0501A86F00012DD8010E026E036AC6
:10110C007BEF01F0416ABE96400E0501726F000143
:10111C0091EC01F00501726B0001A3EC03F071C5B9
:10112C00A6F5A6C541F5BE8612000A0E026E036A2C
:10113C007BEF01F00501A56BA8C5A6F5BE96A5C56C
:10114C0072F5000191EC01F0A6C572F591EC01F07D
:10115C00BE861200800E0501A56FA8C5A6F5BE9629
:10116C00A5C572F5000191EC01F0A6C572F591ECE4
:10117C0001F0BE8612003BC515F5166A176A186A8F
:10118C0031C511F532C512F533C513F534C514F557
:10119C000501B56BB66BBBC505F5BCC506F5B1C590
:1011AC0009F5B2C50AF500010FEC0DF000C586F586
:1011BC0001C587F505018651BF25BD6F8751C0213B
:1011CC00BE6FA3C505F5A4C506F5B3C509F5B4C531
:1011DC000AF500010FEC0DF000C586F501C587F589
:1011EC0005018651C325C16F8751C421C26FBFC58C
:1011FC009BF5C0C59CF5C3C59FF5C4C5A0F5BDC581
:10120C009DF5BEC59EF5C1C5A1F5C2C5A2F5B9C572
:10121C0099F5BAC59AF543C53BF544C53CF545C5AA
:10122C003DF546C53EF511C531F512C532F513C570
:10123C0033F514C534F5000133EC02F00501A7A118
:10124C001DD0BFC58CF5C0C58DF5C3C592F5C4C501
:10125C0093F5BB51BF258E6FBC51C0218F6FC1C59B
:10126C0094F5C2C595F537C53BF538C53CF539C580
:10127C003DF53AC53EF500019AEC01F00501A7A336
:10128C001DD0BFC58CF5C0C58DF5C3C592F5C4C5C1
:10129C0093F5BDC58EF5BEC58FF5A351C325946FCF
:1012AC00A451C421956F37C53BF538C53CF539C5FC
:1012BC003DF53AC53EF500019AEC01F00501B56922
:1012CC00B669010EB35D866F000EB459876F096A5B
:1012DC000A6A86C505F587C506F500019CDA00B0DB
:1012EC0058D00501B52BD8B4B62BBFC59BF5C0C5DE
:1012FC009CF5B5C505F5B6C506F5A3C509F5A4C598
:10130C000AF5000186DB00C586F501C587F50501E8
:10131C008651C3259F6F8751C421A06FBDC59DF514
:10132C00BEC59EF5B5C505F5B6C506F5A3C509F54B
:10133C00A4C50AF500016DDB00C586F501C587F56E
:10134C0005018651C325A16F8751C421A26FB7C572
:10135C0099F5B8C59AF543C53BF544C53CF545C56B
:10136C003DF546C53EF50001C1EC04F0010E05014A
:10137C00B35D866F000EB459876FB5C505F5B6C55C
:10138C0006F586C509F587C50AF5000144DA00B0F3
:10139C00A8D70501B569B669010EB15D866F000E5F
:1013AC00B259876F096A0A6A86C505F587C506F5BD
:1013BC00000131DA00B058D00501B52BD8B4B62BEA
:1013CC00B5C505F5B6C506F5BBC509F5BCC50AF529
:1013DC0000011FDB00C586F501C587F505018651A7
:1013EC00BF259B6F8751C0219C6FC3C59FF5C4C59A
:1013FC00A0F5B5C505F5B6C506F5BBC509F5BCC563
:10140C000AF5000106DB00C586F501C587F5050167
:10141C008651BF259D6F8751C0219E6FC1C5A1F517
:10142C00C2C5A2F5B7C599F5B8C59AF543C53BF544
:10143C0044C53CF545C53DF546C53EF50001C1EC3E
:10144C0004F0010E0501B15D866F000EB259876F75
:10145C00B5C505F5B6C506F586C509F587C50AF502
:10146C000001D9D900B0A8D71200070E0501806F72
:10147C0064C566F565C567F5673566376737010E70
:10148C006415866F876B861D826F871D836F010EB7
:10149C008225866F000E8321876F826BB40E8715B1
:1014AC00836F66518219646F67518319656F61513F
:1014BC006519616F802FDCD70001120005016651A0
:1014CC0064276751652364C505F565C506F5096A8A
:1014DC000A6A000183D900A004D0010E0501646FD3
:1014EC00656B000112000301F39510C5ECF310526B
:1014FC00D8A403D004010081B4D01004D8A403D024
:10150C0004010083AED0020E105CD8A403D00401F9
:10151C000085A7D0030E105CD8A403D0040100876B
:10152C00A0D0040E105CD8A403D00401008999D07B
:10153C00050E105CD8A403D00401008B92D0060ECB
:10154C00105CD8A403D00401008D8BD0070E105C66
:10155C00D8A403D00401008F84D0080E105CD8A44A
:10156C0003D0040108817DD0090E105CD8A403D0EF
:10157C000401088376D00A0E105CD8A403D00401B1
:10158C0008856FD00B0E105CD8A403D0040108871B
:10159C0068D00C0E105CD8A403D00401088961D06B
:1015AC000D0E105CD8A403D00401088B5AD00E0E7B
:1015BC00105CD8A403D00401088D53D00F0E105C1E
:1015CC00D8A403D00401088F4CD0100E105CD8A402
:1015DC0003D00401108145D0110E105CD8A403D0A7
:1015EC00040110833ED0120E105CD8A403D0040169
:1015FC00108537D0130E105CD8A403D004011087CB
:10160C0030D0140E105CD8A403D00401108929D05A
:10161C00150E105CD8A403D00401108B22D0160E2A
:10162C00105CD8A403D00401108D1BD0170E105CD5
:10163C00D8A403D00401108F14D0200E105CD8A4B1
:10164C0003D0040120810DD0210E105CD8A403D04E
:10165C000401208306D0220E105CD8A402D0040111
:10166C0020850301F399010EFA6FF3990F0EFA6FAF
:10167C00FA95FA93FA81F395F39510C5ECF3F38F81
:10168C00020E056E000174EC01F00301F381000001
:10169C00F3B1FED7F39F0401006B086B106B206B4A
:1016AC00EBC36CF50301F395000112004B504D5C3C
:1016BC000501826F4C504E58836F5750555C866FA6
:1016CC0058505658876F82C505F583C506F5076ACD
:1016DC00086A86C509F587C50AF50B6A0C6A00010C
:1016EC00A9D900C551F501C552F502C553F503C57D
:1016FC0054F54B50495C4F6E4C504A58506E51C586
:10170C0005F552C506F553C507F554C508F54FC583
:10171C0009F550C50AF50B6A0C6AFED805C582F5A9
:10172C0006C583F507C584F508C585F55750050131
:10173C008225866F58508321876F475086256D6FA1
:10174C00485087216E6F00011200849F859F859DF4
:10175C00859B05016FB102D00001858D05016FA33A
:10176C0002D00001858B400E0001856F030E86139D
:10177C008C6B70C505F50D0E096E2BD80E0E001076
:10178C000501826F82A105D0030E0001896F84834D
:10179C001DD00C0E705DD8A405D0090E0001896F08
:1017AC00848314D00B0E705DD8A405D0210E0001DB
:1017BC00896F84830BD07053D8A403D00001849319
:1017CC0005D07005D8A402D0000184930001848F49
:1017DC001200006809500562006A1200006A095084
:1017EC00056212000A500662120000681200006ABC
:1017FC000950056212000A50066212000B50076273
:10180C0012000C50086212000068120000680950A7
:10181C000560006A1200006A06500A5CD8A012002B
:10182C000A50065C04E30950055CD8B01200001E97
:10183C001200006A08500C5CD8A012000EE1075090
:10184C000B5CD8A0120009E106500A5CD8A012006B
:10185C0004E10950055CD8B01200001E1200006AA9
:10186C0006AE17D00ABE02D0001E1200051C076E71
:10187C00061C086E072AD8B4082A091C056E0A1C17
:10188C00066E052AD8B4062A07C509F508C50AF557
:10189C0002D00ABE120006500A5CD8A012000A50F0
:1018AC00065C04E30950055CD8B01200001E12005F
:1018BC0005C507F506C508F509C50BF50AC50CF5F0
:1018CC00026A036A0BC505F50CC506F5096A0A6AB6
:1018DC0085DF00A003D0056A066A1200100E046EA4
:1018EC00D89007360836023603360B50025E0C5081
:1018FC00035A0780D8B005D007900B5002260C5025
:10190C000322042EEDD707C505F508C506F502C55B
:10191C0000F503C501F5120005C573F506C574F590
:10192C0007C575F508C576F509C577F50AC578F5C7
:10193C000BC579F50CC57AF505017B6B7C6B7D6B62
:10194C007E6B77C505F578C506F579C507F57AC5BB
:10195C0008F5096A0A6A0B6A0C6A000148DF00A0E4
:10196C0005D0056A066A076A086A1200200E046E22
:10197C00D890050173377437753776377B377C37DA
:10198C007D377E3777517B5F78517C5B79517D5BFE
:10199C007A517E5B7381D8B009D0739177517B27D4
:1019AC0078517C2379517D237A517E23042EE0D704
:1019BC0073C505F574C506F575C507F576C508F547
:1019CC007BC500F57CC501F57DC502F57EC503F52B
:1019DC000001120006500A180D6E06AE05D0051E49
:1019EC00061E052AD8B4062A0AAE05D0091E0A1E00
:1019FC00092AD8B40A2A5CDF0DAE0AD0051E061ED1
:101A0C00052AD8B4062A001E011E002AD8B4012AC1
:101A1C00120005500902F3C400F5F4C401F5055099
:101A2C000A02F350012606500902F3500126065211
:101A3C000A02120005C573F506C574F507C575F5E0
:101A4C0008C576F509C577F50AC578F50BC579F59E
:101A5C000CC57AF505017B6B7C6B7D6B7E6B050190
:101A6C0077A108D073517B2774517C2375517D234A
:101A7C0076517E23D8907A33793378337733D89074
:101A8C00733774377537763777C509F578C50AF526
:101A9C0079C50BF57AC50CF5056A066A076A086AFA
:101AAC000001C7DE00B0DBD77BC500F57CC501F5B6
:101ABC007DC502F57EC503F5120006500A180D6EA1
:101ACC0006AE05D0051E061E052AD8B4062A0AAE97
:101ADC0005D0091E0A1E092AD8B40A2A9ADF0DAEAF
:0E1AEC0005D0001E011E002AD8B4012A1200E7
:020000040030CA
:0A000000ECFFE6D79FFFFFFFFFFFB4
:00000001FF
