:020000040000FA
:1000000006EF00F0FFFFFFFF1000FFFF57EC26F0A8
:1000100040EC26F073EC26F0EDEC25F0EEEC25F04C
:1000200050EC26F0B4EC21F019EE4CF0066A740E98
:10003000F66E6D0EF76E000EF86EADEC36F009EE52
:1000400021F07DEC35F009EE4CF006C5EFF4BEEC86
:1000500021F019EE4CF0066A09EE4CF07DEC35F01B
:100060007C0EF66E6D0EF76E000EF86EADEC36F08F
:1000700009EE38F07DEC35F009EE4CF006C5EFF4F2
:10008000010E4E6E010E2C6E9BEC25F019EEC7F0A2
:10009000066A800EF66E6D0EF76E000EF86EADEC11
:1000A00036F009EE4CF07DEC35F009EEC7F006C5F0
:1000B000EFF4C70E0501C36F240EC46F010E2C6E42
:1000C0000001AFEC25F019EEC7F09C0EF66E6D0E38
:1000D000F76E000EF86EA7EC36F0C70E0501C36F81
:1000E000240EC46F010E2C6E000173EC25F0010E7E
:1000F0004E6E010E2C6E9BEC25F06DC515F573EC64
:1001000014F019EEC7F0066ABC0EF66E6D0EF76EAF
:10011000000EF86EADEC36F009EE2FF07DEC35F008
:1001200009EEC7F006C5EFF4C70E0501C36F240E34
:10013000C46F010E2C6E000173EC25F0010E4E6EA3
:10014000010E2C6E9BEC25F019EEC7F0E00EF66E5A
:100150006D0EF76E000EF86EA7EC36F0C70E0501B7
:10016000C36F240EC46F010E2C6E000173EC25F0DA
:10017000020E4E6E010E2C6E9BEC25F064C5D6F57A
:100180000501D76B000158EC34F019EEC7F0066A90
:10019000F80EF66E6D0EF76E000EF86EADEC36F0E2
:1001A00009EE1BF07DEC35F009EEC7F006C5EFF463
:1001B000C70E0501C36F240EC46F010E2C6E000123
:1001C000AFEC25F0010E4E6E010E2C6E9BEC25F06F
:1001D00003C4D6F50FEC39F019EEC7F0066A320EFB
:1001E000F66E6E0EF76E000EF86EADEC36F009EEA0
:1001F00011F07DEC35F009EEC7F006C5EFF4C70E3F
:100200000501C36F240EC46F010E2C6E000173EC48
:1002100025F00BC4D6F50FEC39F019EEC7F0066ADD
:10022000400EF66E6E0EF76E000EF86EADEC36F008
:1002300009EE11F07DEC35F009EEC7F006C5EFF4DC
:10024000C70E0501C36F240EC46F010E2C6E000192
:1002500073EC25F013C4D6F50FEC39F019EEC7F0A6
:10026000066A500EF66E6E0EF76E000EF86EADEC6E
:1002700036F009EE11F07DEC35F009EEC7F006C559
:10028000EFF4C70E0501C36F240EC46F010E2C6E70
:10029000000173EC25F0020E4E6E010E2C6E9BECED
:1002A00025F0010E4E6E010E2C6E9BEC25F0060122
:1002B000056B052B0501DA6BDB6BE96BA10ED86FC3
:1002C000010ED96F030E06011A6F1B6B040E050198
:1002D000AF6FB06B1AC607F51BC608F500012BEC13
:1002E0002BF00501EA6F060105510501EA5DD8A46E
:1002F0000FD0020E06011A25076E000E1B21086E94
:1003000000012BEC2BF00501EA6F010EE96F4CD0D8
:10031000B0AF29D0AF1DA96FB01DAA6FA92BD8B45B
:10032000AA2BD85106011A5D0501CF6FD9510601DC
:100330001B590501D06FCFC505F5D0C506F5A9C578
:1003400009F5AAC50AF500012BEC35F0001E00A046
:1003500009D00501AF5106011A270501B051060168
:100360001B23B4D721D006011A510501D85DCF6FE8
:1003700006011B510501D959D06FCFC505F5D0C570
:1003800006F5AFC509F5B0C50AF500012BEC35F04F
:10039000001E00A009D00501AF5106011A27050172
:1003A000B05106011B2392D719EEC7F0600EF66E0E
:1003B0006E0EF76E000EF86E0001A7EC36F0C70E59
:1003C0000501C36F240EC46F010E2C6E000173EC87
:1003D00025F005C64CF6C4EC2EF005C6D6F50FEC9C
:1003E00039F0110E0501C36F240EC46F010E2C6E7F
:1003F000000173EC25F019EEC7F0680EF66E6E0E74
:10040000F76E000EF86EA7EC36F0C70E0501C36F4D
:10041000240EC46F010E2C6E000173EC25F007EC66
:100420002AF05DC593F593C5D6F50FEC39F0110EA2
:100430000501C36F240EC46F010E2C6E000173EC16
:1004400025F093C505F5EAC509F509EC35F0001E60
:1004500000C5CFF5E9C505F5010E096E09EC35F0CB
:100460000501CF510014D36FD3A142D1120E060162
:10047000055DD8A437D019EEC7F06E0EF66E6E0E7D
:10048000F76E000EF86E0001A7EC36F0C70E0501FE
:10049000C36F240EC46F010E2C6E000173EC25F0A7
:1004A000EAC5D6F50FEC39F019EEC7F0066A8A0EE8
:1004B000F66E6E0EF76E000EF86EADEC36F009EECD
:1004C00011F07DEC35F009EEC7F006C5EFF4C70E6C
:1004D0000501C36F240EC46F010E2C6E000173EC76
:1004E00025F005D16C0E055DD8A03BD005516F08F5
:1004F000D8A037D019EEC7F08E0EF66E6E0EF76EDE
:10050000000EF86E0001A7EC36F0C70E0501C36FB0
:10051000240EC46F010E2C6E000173EC25F0EAC5A9
:10052000D6F50FEC39F019EEC7F0066A8A0EF66EB2
:100530006E0EF76E000EF86EADEC36F009EE11F0AF
:100540007DEC35F009EEC7F006C5EFF4C70E0501E6
:10055000C36F240EC46F010E2C6E000173EC25F0E6
:10056000C6D08A0E055DD8A437D019EEC7F0B60EF6
:10057000F66E6E0EF76E000EF86E0001A7EC36F008
:10058000C70E0501C36F240EC46F010E2C6E00014F
:1005900073EC25F0EAC5D6F50FEC39F019EEC7F08B
:1005A000066A8A0EF66E6E0EF76E000EF86EADECF1
:1005B00036F009EE11F07DEC35F009EEC7F006C516
:1005C000EFF4C70E0501C36F240EC46F010E2C6E2D
:1005D000000173EC25F08BD08E0E055DD8A437D0CA
:1005E00019EEC7F0D40EF66E6E0EF76E000EF86EB2
:1005F0000001A7EC36F0C70E0501C36F240EC46FCF
:10060000010E2C6E000173EC25F0EAC5D6F50FEC57
:1006100039F019EEC7F0066A8A0EF66E6E0EF76EA6
:10062000000EF86EADEC36F009EE11F07DEC35F011
:1006300009EEC7F006C5EFF4C70E0501C36F240E1F
:10064000C46F010E2C6E000173EC25F050D0AA0E81
:10065000055DD8A416D019EEC7F0F20EF66E6E0E38
:10066000F76E000EF86E0001A7EC36F0C70E05011C
:10067000C36F240EC46F010E2C6E000173EC25F0C5
:1006800036D019EEC7F0100EF66E6F0EF76E000E34
:10069000F86E0001A7EC36F0C70E0501C36F240EFB
:1006A000C46F010E2C6E000173EC25F0EAC5D6F57F
:1006B0000FEC39F019EEC7F0066A8A0EF66E6E0E70
:1006C000F76E000EF86EADEC36F009EE11F07DEC31
:1006D00035F009EEC7F006C5EFF4C70E0501C36F8C
:1006E000240EC46F010E2C6E000173EC25F026D091
:1006F000E905D8A423D019EEC7F0260EF66E6F0ECA
:10070000F76E000EF86E0001A7EC36F0C70E05017B
:10071000C36F240EC46F010E2C6E000173EC25F024
:10072000EAC5D6F50FEC39F0110E0501C36F240EA2
:10073000C46F010E2C6E000173EC25F00501E95326
:10074000D8A415D019EEC7F0F20EF66E6E0EF76E45
:10075000000EF86E0001A7EC36F0C70E0501C36F5E
:10076000240EC46F010E2C6E000173EC25F0010EF7
:100770004E6E010E2C6E00019BEC25F0FF0E060163
:10078000055DD8A096D5190E0501A36FA46B3BC5D6
:10079000D6F53CC5D7F5000158EC34F019EE27F03A
:1007A000066A09EE1BF07DEC35F0380EF66E6F0E22
:1007B000F76E000EF86EADEC36F009EE27F006C5C8
:1007C000EFF439C5D6F53AC5D7F558EC34F019EE43
:1007D00027F0066A09EE27F07DEC35F009EE1BF0F4
:1007E0007DEC35F009EE27F006C5EFF4100E06019A
:1007F000266F010E3A6F010E3B6F010E256F010E41
:10080000246F00013EEC2EF006012E6B2F6B3C6B2B
:100810003D6B19EEC7F03A0EF66E6F0EF76E000ED6
:10082000F86E0001A7EC36F0C70E0501B56F240E77
:10083000B66F66696769686B696B0001E8EC2CF05C
:1008400006012E6B2F6B100E3C6F3D6B270E0501C2
:10085000B56F240EB66FE00E666F6769686B696BE3
:100860000001E8EC2CF0200E0601266F040E3A6F12
:10087000040E3B6F010E256F010E246F00013EEC4C
:100880002EF0C80E06012E6F2F6BC80E3C6F3D6B0D
:1008900019EEC7F0480EF66E6F0EF76E000EF86E8A
:1008A0000001A7EC36F0C70E0501B56F240EB66F38
:1008B00066696769686B696B0001E8EC2CF0100EE3
:1008C0000601266F010E3A6F010E3B6F010E256F78
:1008D000010E246F00013EEC2EF0C80E06012E6FB3
:1008E0002F6B540E3C6F010E3D6F19EEC7F0500E8A
:1008F000F66E6F0EF76E000EF86E0001A7EC36F084
:10090000C70E0501B56F240EB66F66696769686B1F
:10091000696B0001E8EC2CF0C80E06012E6F2F6BFE
:10092000680E3C6F010E3D6F19EEC7F0100EF66EAB
:10093000700EF76E000EF86E0001A7EC36F0C70ED1
:100940000501B56F240EB66F66696769686B696BE0
:100950000001E8EC2CF0C80E06012E6F2F6B7C0E08
:100960003C6F010E3D6FE50E0501D66F3E0ED76F51
:10097000000158EC34F019EEC7F0066A5E0EF66E10
:100980006F0EF76E000EF86EADEC36F009EE1BF050
:100990007DEC35F009EEC7F006C5EFF4C70E050192
:1009A000B56F240EB66F66696769686B696B000185
:1009B000E8EC2CF0A3C505F5A4C506F5096A0A6A9A
:1009C0000EEC35F000A022D0780E0501876F020EE4
:1009D000886F896B8A6B19EEC7F06A0EF66E6F0E20
:1009E000F76E000EF86E0001A7EC36F0C70E050199
:1009F000B56F240EB66FE00E576E58680001C1EC5B
:100A000024F0050E046EE8EC16F004D0010E046E1E
:100A1000E8EC16F03AEC23F0326A336AA3C505F528
:100A2000A4C506F50F0E096E0A6A2BEC35F000A07E
:100A30009AD107EC30F08DC574F50501756B726BBA
:100A4000736B7069716B7E6B7F6B010E3B5C7C6FAF
:100A5000000E3C587D6F6E6B6F6B000121EC33F024
:100A600099C5FDF59AC5FEF507EC30F08DC574F516
:100A70000501756B726B736B7069716B7E6B7F6B4D
:100A8000010E3B5CCF6F000E3C58D06FFD51CF5D27
:100A90007C6FFE51D0597D6F6E6B6F6B000121EC46
:100AA00033F099C5FFF59AC500F60501FF51FD2504
:100AB000FF6F060100510501FE210601006F0001D4
:100AC00007EC30F08DC574F50501756B726B736BB7
:100AD0007069716B7E6B7F6B010E395C7C6F000EF1
:100AE0003A587D6F6E6B6F6B000121EC33F099C546
:100AF00016F69AC517F607EC30F08DC574F50501AA
:100B0000756B726B736B7069716B7E6B7F6B010EB3
:100B1000395CCF6F000E3A58D06F060116510501AF
:100B2000CF5D7C6F060117510501D0597D6F6E6B4B
:100B30006F6B000121EC33F099C518F69AC519F6D0
:100B4000060118511625186F19511721196F000148
:100B500007EC30F08DC574F50501756B726B736B26
:100B60007069716B7E6B7F6B010E3B5C7C6F000E5E
:100B70003C587D6F6E6B6F6B000121EC33F099C5B3
:100B800001F69AC502F607EC30F08DC574F5050143
:100B9000756B726B736B7069716B7E6B7F6B010E23
:100BA0003B5CCF6F000E3C58D06F06010151050130
:100BB000CF5D7C6F060102510501D0597D6F6E6BD0
:100BC0006F6B000121EC33F099C503F69AC504F66A
:100BD000060103510125036F04510221046F000136
:100BE00007EC30F08DC574F50501756B726B736B96
:100BF0007069716B7E6B7F6B010E395C7C6F000ED0
:100C00003A587D6F6E6B6F6B000121EC33F099C524
:100C10001CF69AC51DF607EC30F08DC574F505017C
:100C2000756B726B736B7069716B7E6B7F6B010E92
:100C3000395CCF6F000E3A58D06F06011C51050188
:100C4000CF5D7C6F06011D510501D0597D6F6E6B24
:100C50006F6B000121EC33F099C51EF69AC51FF6A3
:100C600006011E511C251E6F1F511D211F6F000103
:100C700007EC30F08DC574F50501756B726B736B05
:100C80007069716B7E6B7F6B010E395C7C6F000E3F
:100C90003A587D6F6E6B6F6B000121EC33F099C594
:100CA00022F69AC523F607EC30F08DC574F50501E0
:100CB000756B726B736B7069716B7E6B7F6B010E02
:100CC000395CCF6F000E3A58D06F060122510501F2
:100CD000CF5D7C6F060123510501D0597D6F6E6B8E
:100CE0006F6B000121EC33F099C520F69AC521F60F
:100CF000060120511625206F21511721216F000177
:100D000007EC30F08DC574F50501756B726B736B74
:100D10007069716B010E7E6F7F6B140E7C6F7D6B43
:100D20006E6B6F6B000121EC33F099C595F59AC598
:100D300096F507EC30F08DC574F50501756B726B97
:100D4000736B7069716B010E7E6F7F6B140E7C6F1D
:100D50007D6B6E6B6F6B000121EC33F099C597F5DD
:100D60009AC598F56CD007EC30F08DC574F5050187
:100D7000756B726B736B7069716B010E7E6F7F6B3D
:100D8000640E7C6F7D6B6E6B6F6B000121EC33F03A
:100D900099C595F59AC596F507EC30F08DC574F5B3
:100DA0000501756B726B736B7069716B010E7E6FF1
:100DB0007F6B640E7C6F7D6B6E6B6F6B000121EC43
:100DC00033F099C597F59AC598F507EC30F08DC5C5
:100DD00074F50501756B726B736B7069716B95C5FA
:100DE0007EF596C57FF595513B5C7C6F96513C58DE
:100DF0007D6F6E6B6F6B000121EC33F099C5FDF5D3
:100E00009AC5FEF507EC30F08DC574F50501756BDC
:100E1000726B736B7069716B97C57EF598C57FF5C2
:100E20009751395C7C6F98513A587D6F6E6B6F6B40
:100E3000000121EC33F099C516F69AC517F607ECB8
:100E400030F08DC574F50501756B726B736B70694D
:100E5000716B7E6B7F6B7C697D696E6B6F6B000164
:100E600021EC33F099C52AF59AC52BF5A3C505F5F4
:100E7000A4C506F5096A0A6A0EEC35F000A00DD08B
:100E80005E6817EC2AF0050E046EE8EC16F005011A
:100E9000A32BD8B4A42B99EF11F0A3C505F5A4C5D5
:100EA00006F5010E096E0A6A0EEC35F000A00CD0B2
:100EB0005E6A17EC2AF00501A32BD8B4A42B00011D
:100EC0003AEC23F099EF11F0A3C505F5A4C506F59A
:100ED000020E096E0A6A0EEC35F000A039D03428F3
:100EE000D8A41ED006012E6B2F6B3C6B3D6B19EE08
:100EF000C7F0780EF66E6F0EF76E000EF86E0001FA
:100F0000A7EC36F0C70E0501B56F240EB66F666903
:100F10006769686B696B0001E8EC2CF0346A16D0E5
:100F2000FDC5F1F5FEC5F2F516C60AF617C60BF6B5
:100F300095C54FF596C550F52AC566F52BC567F5DD
:100F40000501686B696B0001B1EC14F099EF11F0C9
:100F5000A3C505F5A4C506F5030E096E0A6A0EECD5
:100F600035F000A018D0FDC5F1F5FEC5F2F516C6A6
:100F70000AF617C60BF695C54FF596C550F52AC566
:100F800066F52BC567F50501686B696B00012DECF3
:100F900018F099EF11F0A3C505F5A4C506F5040EE8
:100FA000096E0A6A0EEC35F000A01CD0FDC5F1F503
:100FB000FEC5F2F516C60AF617C60BF6FFC5F3F521
:100FC00000C6F4F518C60CF619C60DF62AC566F566
:100FD0002BC567F50501686B696B0001F3EC27F021
:100FE00099EF11F0A3C505F5A4C506F5050E096E28
:100FF0000A6A0EEC35F000A01CD0FDC5F1F5FEC567
:10100000F2F516C60AF617C60BF6FFC5F3F500C6CD
:10101000F4F518C60CF619C60DF62AC566F52BC5EB
:1010200067F50501686B696B0001D9EC13F099EF66
:1010300011F0A3C505F5A4C506F5060E096E0A6AEA
:101040000EEC35F000A01CD0FDC5F1F5FEC5F2F5A3
:1010500016C60AF617C60BF6FFC5F3F500C6F4F57B
:1010600018C60CF619C60DF62AC566F52BC567F528
:101070000501686B696B000193EC17F099EF11F0B3
:10108000A3C505F5A4C506F5070E096E0A6A0EECA0
:1010900035F000A030D0FDC5F1F5FEC5F2F516C65D
:1010A0000AF617C60BF607EC30F08DC505F5066A93
:1010B000020E096E0A6A88EC35F005C54FF506C5C3
:1010C00050F507EC30F08DC505F5066A020E096E85
:1010D0000A6A88EC35F005C551F506C552F52AC5F2
:1010E00066F52BC567F50501686B696B0001F0ECCF
:1010F00016F099EF11F0A3C505F5A4C506F5080E85
:10110000096E0A6A0EEC35F000A030D0FDC5F1F58D
:10111000FEC5F2F516C60AF617C60BF607EC30F058
:101120008DC505F5066A020E096E0A6A88EC35F06F
:1011300005C54FF506C550F507EC30F08DC505F532
:10114000066A020E096E0A6A88EC35F005C551F58B
:1011500006C552F52AC566F52BC567F50501686B0E
:10116000696B0001C1EC19F099EF11F0A3C505F509
:10117000A4C506F5090E096E0A6A0EEC35F000A04A
:1011800024D0FDC5F1F5FEC5F2F516C60AF617C660
:101190000BF6FFC5F3F500C6F4F518C60CF619C634
:1011A0000DF695C54FF596C550F595C551F596C503
:1011B00052F52AC566F52BC567F50501686B696BA5
:1011C00000012DEC32F099EF11F0A3C505F5A4C58F
:1011D00006F50A0E096E0A6A0EEC35F000A024D05E
:1011E000FDC5F1F5FEC5F2F516C60AF617C60BF6F3
:1011F000FFC5F3F500C6F4F518C60CF619C60DF6D2
:1012000095C54FF596C550F595C551F596C552F55E
:101210002AC566F52BC567F50501686B696B00018A
:10122000BFEC1EF099EF11F0A3C505F5A4C506F5B6
:101230000B0E096E0A6A0EEC35F000A045D034287A
:10124000D8A41ED006012E6B2F6B3C6B3D6B19EEA4
:10125000C7F0800EF66E6F0EF76E000EF86E00018E
:10126000A7EC36F0C70E0501B56F240EB66F6669A0
:101270006769686B696B0001E8EC2CF0346A22D076
:10128000FDC5F1F5FEC5F2F516C60AF617C60BF652
:10129000FFC5F3F500C6F4F518C60CF619C60DF631
:1012A00022C6F5F523C6F6F520C60EF621C60FF6C2
:1012B0002AC566F52BC567F50501686B696B0001EA
:1012C0000DEC38F099EF11F0A3C505F5A4C506F5AE
:1012D0000C0E096E0A6A0EEC35F000A045D03428D9
:1012E000D8A41ED006012E6B2F6B3C6B3D6B19EE04
:1012F000C7F08A0EF66E6F0EF76E000EF86E0001E4
:10130000A7EC36F0C70E0501B56F240EB66F6669FF
:101310006769686B696B0001E8EC2CF0346A22D0D5
:10132000FDC5F1F5FEC5F2F516C60AF617C60BF6B1
:10133000FFC5F3F500C6F4F518C60CF619C60DF690
:1013400022C6F5F523C6F6F520C60EF621C60FF621
:101350002AC566F52BC567F50501686B696B000149
:1013600081EC1FF099EF11F0A3C505F5A4C506F5B2
:101370000D0E096E0A6A0EEC35F000A064D0342818
:10138000D8A41ED006012E6B2F6B3C6B3D6B19EE63
:10139000C7F09A0EF66E6F0EF76E000EF86E000133
:1013A000A7EC36F0C70E0501B56F240EB66F66695F
:1013B0006769686B696B0001E8EC2CF0346A41D016
:1013C000FDC5F1F5FEC5F2F516C60AF617C60BF611
:1013D000FFC5F3F500C6F4F518C60CF619C60DF6F0
:1013E0002AC566F52BC567F50501686B696B0001B9
:1013F00093EC17F006010569052B05C674F5050188
:10140000756B726B736B7069716B010E7E6F7F6BA6
:10141000C80E7C6F7D6B6E6B6F6B000121EC33F03F
:1014200099C55FF5D1EC2DF0190E026E036ADAEC66
:1014300016F0FF0E0601055DD8A0DED7FA0E326E5B
:10144000336A99EF11F0A3C505F5A4C506F50E0E94
:10145000096E0A6A0EEC35F000A063D13428D8A4D6
:101460001ED006012E6B2F6B3C6B3D6B19EEC7F047
:10147000A60EF66E6F0EF76E000EF86E0001A7EC6A
:1014800036F0C70E0501B56F240EB66F6669676941
:10149000686B696B0001E8EC2CF0346A40D1040EF3
:1014A0000501C66F0601166B176B050E0501B16FBE
:1014B000B26BC80E06012E6F2F6B2C0E3C6F010E07
:1014C0003D6F320E276F286B050E296F2A6B960E23
:1014D000486F496B35C566F536C567F50501686B1C
:1014E000696B35C560F536C561F5626B636B0001EC
:1014F000BEEC15F0C80E06012E6F2F6B2C0E3C6F44
:10150000010E3D6F320E276F286B050E296F2A6B77
:1015100016C648F617C649F60501666BF80E676FE2
:10152000686B696B1F0E606F616B626B636B0001B0
:10153000BEEC15F0190E026E036ADAEC16F0050126
:10154000B2AF29D0B11DAB6FB21DAC6FAB2BD8B40D
:10155000AC2B960E0601165D0501CF6F000E06013D
:1015600017590501D06FCFC505F5D0C506F5ABC538
:1015700009F5ACC50AF500012BEC35F0001E00A002
:1015800009D00501B151060116270501B251060126
:1015900017238BD722D00601165196080501CF6F6D
:1015A000D36B060117510501D359D06FCFC505F58F
:1015B000D0C506F5B1C509F5B2C50AF500012BEC99
:1015C00035F0001E00A009D00501B1510601162713
:1015D0000501B2510601172368D7950E0601166F53
:1015E000176BFB0E0501B36FB469C80E06012E6FB1
:1015F0002F6B2C0E3C6F010E3D6F320E276F286B48
:10160000050E296F2A6B960E486F496B35C566F536
:1016100036C567F50501686B696B35C560F536C57C
:1016200061F5626B636B0001BEEC15F0C80E06013C
:101630002E6F2F6B2C0E3C6F010E3D6F320E276FFD
:10164000286B050E296F2A6B16C648F617C649F691
:101650000501666BF80E676F686B696B1F0E606F34
:10166000616B626B636B0001BEEC15F0190E026ECC
:10167000036ADAEC16F00501B4AF29D0B31DAD6FE3
:10168000B41DAE6FAD2BD8B4AE2B000E0601165DA7
:101690000501CF6F000E060117590501D06FCFC5A8
:1016A00005F5D0C506F5ADC509F5AEC50AF50001CD
:1016B0002BEC35F0001E00A009D00501B351060146
:1016C00016270501B451060117238BD722D0060136
:1016D000165100080501CF6FD36B060117510501A4
:1016E000D359D06FCFC505F5D0C506F5B3C509F5FB
:1016F000B4C50AF500012BEC35F0001E00A009D09E
:101700000501B351060116270501B451060117233F
:1017100068D70501C62FC6D6FA0E326E336A99EF26
:1017200011F0A3C505F5A4C506F50F0E096E0A6AEA
:101730000EEC35F000A01CD0FDC5F1F5FEC5F2F5AC
:1017400016C60AF617C60BF695C54FF596C550F5A1
:1017500097C551F598C552F52AC566F52BC567F5AD
:101760000501686B696B00015AEC27F099EF11F0E5
:10177000A3C505F5A4C506F5100E096E0A6A0EECA0
:1017800035F000A01CD0FDC5F1F5FEC5F2F516C67A
:101790000AF617C60BF695C54FF596C550F597C5D1
:1017A00051F598C552F52AC566F52BC567F50501B3
:1017B000686B696B0001C1EC26F099EF11F0A3C5CD
:1017C00005F5A4C506F5110E096E0A6A0EEC35F092
:1017D00000A01CD0FDC5F1F5FEC5F2F516C60AF64F
:1017E00017C60BF695C54FF596C550F597C551F53B
:1017F00098C552F52AC566F52BC567F50501686BD6
:10180000696B0001ABEC31F099EF11F0A3C505F560
:10181000A4C506F5120E096E0A6A0EEC35F000A09A
:101820001CD0FDC5F1F5FEC5F2F516C60AF617C6C1
:101830000BF695C54FF596C550F597C551F598C56A
:1018400052F52AC566F52BC567F50501686B696B0E
:10185000000129EC31F099EF11F0A3C505F5A4C5FD
:1018600006F5130E096E0A6A0EEC35F000A01CD0C6
:10187000FDC5F1F5FEC5F2F516C60AF617C60BF65C
:1018800095C54FF596C550F597C551F598C552F5D4
:101890002AC566F52BC567F50501686B696B000104
:1018A000F5EC1AF099EF11F0A3C505F5A4C506F5FE
:1018B000140E096E0A6A0EEC35F000A01CD0FDC5AE
:1018C000F1F5FEC5F2F516C60AF617C60BF695C574
:1018D0004FF596C550F597C551F598C552F52AC5EF
:1018E00066F52BC567F50501686B696B00015BEC5C
:1018F0001AF099EF11F0A3C505F5A4C506F5150E6C
:10190000096E0A6A0EEC35F000A01CD0FDC5F1F599
:10191000FEC5F2F516C60AF617C60BF695C54FF5C5
:1019200096C550F597C551F598C552F52AC566F587
:101930002BC567F50501686B696B000125EC1EF08E
:1019400099EF11F0A3C505F5A4C506F5160E096EAD
:101950000A6A0EEC35F000A01CD0FDC5F1F5FEC5FD
:10196000F2F516C60AF617C60BF695C54FF596C5DD
:1019700050F597C551F598C552F52AC566F52BC5A2
:1019800067F50501686B696B00018BEC1DF099EF41
:1019900011F0A3C505F5A4C506F5170E096E0A6A70
:1019A0000EEC35F000A053D03428D8A41DD0060189
:1019B0002E6B2F6B3C6B3D6B19EEC7F0B40EF66EC1
:1019C0006F0EF76E000EF86E0001A7EC36F0C70E32
:1019D0000501B56F240EB66F66696769686B696B40
:1019E0000001E8EC2CF0346A320E0501F16FF26B65
:1019F000320E06010A6F0B6BC80E0501F36FF46B14
:101A0000500E06010C6F0D6B960E0501F56FF66B0F
:101A1000820E06010E6F0F6B3C0E0501F76FF86B1F
:101A2000640E0601106F116B2AC566F52BC567F5AC
:101A30000501686B696B000145EC2FF0050E046E23
:101A4000E8EC16F0FA0E326E336A99EF11F0A3C586
:101A500005F5A4C506F5180E096E0A6A0EEC35F0F8
:101A600000A054D03428D8A41DD006012E6B2F6BB3
:101A70003C6B3D6B19EEC7F0C60EF66E6F0EF76E3F
:101A8000000EF86E0001A7EC36F0C70E0501B56F29
:101A9000240EB66F66696769686B696B0001E8ECD4
:101AA0002CF0346A960E0501F16FF26B320E0601CE
:101AB0000A6F0B6B2C0E0501F36F010EF46F500EC5
:101AC00006010C6F0D6BFA0E0501F56FF66B820EB9
:101AD00006010E6F0F6BA00E0501F76FF86B640E19
:101AE0000601106F116B2AC566F52BC567F5050158
:101AF000686B696B0001A1EC1CF0020E046EE8EC4F
:101B000016F0FA0E326E336A99EF11F0A3C505F59F
:101B1000A4C506F5190E096E0A6A0EEC35F000A090
:101B20007CD13428D8A43FD1160E0501F16FF26B99
:101B3000350E06010A6F0B6B4B0E0501F36FF46B4C
:101B40005C0E06010C6F0D6B2B0E0501F56FF66B2D
:101B5000600E06010E6F0F6B1F0E0501666F676B3F
:101B6000686B696B000181EC1FF05D0E0501F16F80
:101B7000F26B630E06010A6F0B6BAA0E0501F36F81
:101B8000F46B420E06010C6F0D6B0B0E0501F56F29
:101B9000010EF66FDB0E06010E6F0F6BEF0E0501E7
:101BA000666F7B0E676F686B696B000181EC1FF0DD
:101BB0005E0E0501F16FF26B6F0E06010A6F0B6B83
:101BC000E70E0501F36FF46BCE0E06010C6F0D6B83
:101BD0009F0E0501F56FF66B4A0E06010E6F010EA2
:101BE0000F6FEF0E0501666F7B0E676F686B696B99
:101BF000000181EC1FF0C40E0501F16FF26B5B0E6A
:101C000006010A6F0B6B6D0E0501F36F010EF46F89
:101C10006A0E06010C6F0D6B5A0E0501F56F010E71
:101C2000F66F480E06010E6F010E0F6F1F0E0501B5
:101C3000666F676B686B696B000181EC1FF0700E5B
:101C40000501F16F010EF26F7F0E06010A6F0B6B3B
:101C5000750E0501F36F010EF46FBB0E06010C6FDC
:101C60000D6B8D0E0501F56F010EF66FD30E06019B
:101C70000E6F0F6BEF0E0501666F7B0E676F686B63
:101C8000696B000181EC1FF02E0E0501F16FF26B04
:101C9000660E06010A6F0B6B4F0E0501F36FF46BB6
:101CA000650E06010C6F0D6B6B0E0501F56FF66B83
:101CB000BA0E06010E6F0F6B0C0E0501F76FF86B75
:101CC000BA0E0601106F116B020E0501F96FFA6B67
:101CD0009B0E0601126F136B1F0E0501666F676B7B
:101CE000686B696B00018FEC1BF0200E0601266FFC
:101CF000040E3A6F040E3B6F010E256F010E246F28
:101D000000013EEC2EF02C0E06012E6F010E2F6FFF
:101D10005E0E3C6F010E3D6F19EEC7F0480EF66E79
:101D20006F0EF76E000EF86E0001A7EC36F0C70ECE
:101D30000501B56F240EB66F66696769686B696BDC
:101D40000001E8EC2CF0100E0601266F010E3A6F30
:101D5000010E3B6F010E256F010E246F00013EEC5A
:101D60002EF0B20E06012E6F020E2F6FD60E3C6FB4
:101D7000010E3D6F19EEC7F0DE0EF66E6F0EF76EB8
:101D8000000EF86E0001A7EC36F0C70E0501B56F26
:101D9000240EB66F66696769686B696B0001E8ECD1
:101DA0002CF0346A39D00A0E06012E6F2F6BC20E4A
:101DB0003C6F010E3D6FA3C553F5A4C554F5556A9C
:101DC000566A41C566F542C567F50501686B696BE2
:101DD0000001C4EC2DF00A0E06012E6F2F6BCE0E03
:101DE0003C6F010E3D6F32C553F533C554F5556A4E
:101DF000566A41C566F542C567F50501686B696BB2
:101E00000001C4EC2DF00A0E3226000E3322190E0A
:101E1000026E036ADAEC16F08CD2A3C505F5A4C5F0
:101E200006F51A0E096E0A6A0EEC35F000A0A5D16F
:101E300006012E6B2F6B640E3C6F3D6B010E3B5CFD
:101E4000306F000E3C58316F640E3E6F3F6B2C6B51
:101E50002D6B050166696769686B696B00018CEC25
:101E600028F006012E6B2F6B960E3C6F3D6B010E1A
:101E70003B5C306F000E3C58316F960E3E6F3F6BEF
:101E8000010E2C6F2D6B050166696769686B696BC4
:101E900000018CEC28F006012E6B2F6BC80E3C6FF6
:101EA0003D6B010E3B5C306F000E3C58316FC80E2D
:101EB0003E6F3F6B020E2C6F2D6B050166696769E3
:101EC000686B696B00018CEC28F006012E6B2F6BA0
:101ED000FA0E3C6F3D6B010E3B5C306F000E3C58C0
:101EE000316FFA0E3E6F3F6B040E2C6F2D6B0501A8
:101EF00066696769686B696B00018CEC28F0060104
:101F00002E6B2F6B2C0E3C6F010E3D6F010E3B5C58
:101F1000306F000E3C58316F2C0E3E6F010E3F6F3C
:101F2000050E2C6F2D6B050166696769686B696B1F
:101F300000018CEC28F006012E6B2F6B3C6B3D6B87
:101F4000010E3B5C306F000E3C58316F640E3E6FEB
:101F50003F6B2C6B2D6B050166696769686B696B5C
:101F600000018CEC28F006012E6B2F6B3C6B3D6B57
:101F7000010E3B5C306F000E3C58316F960E3E6F89
:101F80003F6B010E2C6F2D6B050166696769686BED
:101F9000696B00018CEC28F006012E6B2F6B3C6BFB
:101FA0003D6B010E3B5C306F000E3C58316FC80E2C
:101FB0003E6F3F6B020E2C6F2D6B050166696769E2
:101FC000686B696B00018CEC28F006012E6B2F6B9F
:101FD0003C6B3D6B010E3B5C306F000E3C58316F2B
:101FE000FA0E3E6F3F6B040E2C6F2D6B0501666978
:101FF0006769686B696B00018CEC28F006012E6B39
:102000002F6B3C6B3D6B010E3B5C306F000E3C5800
:10201000316F2C0E3E6F010E3F6F050E2C6F2D6B36
:10202000050166696769686B696B00018CEC28F0D3
:10203000010E3B5C06012E6F000E3C582F6F3C6B6F
:102040003D6B306B316B640E3E6F3F6B2C6B2D6BB9
:10205000050166696769686B696B00018CEC28F0A3
:10206000010E3B5C06012E6F000E3C582F6F3C6B3F
:102070003D6B306B316B960E3E6F3F6B010E2C6FDC
:102080002D6B050166696769686B696B00018CECF3
:1020900028F0010E3B5C06012E6F000E3C582F6F9E
:1020A0003C6B3D6B306B316BC80E3E6F3F6B020E6D
:1020B0002C6F2D6B050166696769686B696B0001A0
:1020C0008CEC28F0010E3B5C06012E6F000E3C5894
:1020D0002F6F3C6B3D6B306B316BFA0E3E6F3F6B7D
:1020E000040E2C6F2D6B050166696769686B696B5F
:1020F00000018CEC28F0010E3B5C06012E6F000EF7
:102100003C582F6F3C6B3D6B306B316B2C0E3E6F30
:10211000010E3F6F050E2C6F2D6B05016669676917
:10212000686B696B00018CEC28F006012E6B2F6B3D
:10213000900E3C6F010E3D6F010E3B5C306F000E48
:102140003C58316F900E3E6F010E3F6F500E2C6F5A
:102150002D6B1F0E0501666F676B686B696B000165
:102160008CEC28F03428D8A407D00A0E046EE8ECD2
:1021700016F0FA0E326E336ADCD0A3C505F5A4C59D
:1021800006F51B0E096E0A6A0EEC35F000A0D1D0E0
:10219000FDC5F1F5FEC5F2F516C60AF617C60BF633
:1021A00095C527F696C528F695C505F596C506F595
:1021B000140E096E0A6A88EC35F005C52CF606C5C2
:1021C0002DF6050166696769686B696B2AC560F55C
:1021D0002BC561F5626B636B0001AAEC20F0C80EA1
:1021E00006012E6F2F6B3C0E3C6F3D6B900E306FD7
:1021F000010E316F960E3E6F3F6B050E2C6F2D6BEF
:102200000501666BF80E676F686B696B60696169E1
:10221000626B636B000143EC20F0260E06012E6F0B
:10222000020E2F6F3C0E3C6F3D6BF40E306F010EB3
:10223000316F5E0E3E6F010E3F6F1E0E4F6E506A85
:10224000140E516E526A050E2C6F2D6B0501666BD4
:10225000F80E676F686B696B60696169626B636BCD
:102260000001EBEC20F0640E06012E6F2F6B640E64
:102270003C6F3D6B320E306F316BC80E3E6F3F6B63
:10228000960E326F336B960E406F416B0501666B95
:10229000F80E676F686B696B60696169626B636B8D
:1022A000000150EC21F02C0E06012E6F010E2F6F55
:1022B0002C0E3C6F010E3D6F5E0E306F010E316FC4
:1022C000FA0E3E6F3F6B900E326F010E336FFA0EB7
:1022D000406F416B5E0E346F010E356F2C0E426FF6
:1022E000010E436F5E0E366F010E376F5E0E446F48
:1022F000010E456F900E386F010E396F2C0E466F30
:10230000010E476F0501666BF80E676F686B696BAE
:1023100060696169626B636B0001C7EC18F0342877
:10232000D8A407D00A0E046EE8EC16F0FA0E326E4E
:10233000336A32C505F533C506F5FA0E096E0A6A29
:1023400000012BEC35F0001E00A028D0356A366A5B
:10235000376A386A3AEC23F03468FA0E026E036A80
:10236000DAEC16F0326A336A18C390F50501916B06
:10237000000130EC30F00501A32BD8B4A42BA3C589
:1023800005F5A4C506F51E0E096E0A6A00010EECDD
:1023900035F000A003D00501A36BA46B322AD8B49A
:1023A000332A0A0E026E036A0001DAEC16F00EEF11
:1023B00005F0EED10501ED6B020EEE6F260E060163
:1023C000066F020E076F040E596E00013AEC23F0FF
:1023D000450E05018B6F010E8C6F136A146A680E2F
:1023E000806F010E816F200E0601266F040E3A6F7A
:1023F000040E3B6F256B246B00013EEC2EF0356A1A
:10240000366AEDC5F1F5EEC5F2F506C60AF607C661
:102410000BF6010E05018B254F6E000E8C21506EC0
:10242000010E8B25516E000E8C21526E666BF80EDC
:10243000676F686B696B00015AEC27F0EDC5F1F529
:10244000EEC5F2F506C60AF607C60BF6010E050143
:102450008B254F6E000E8C21506E010E8B25516E18
:10246000000E8C21526E666BF80E676F686B696B9D
:102470000001ABEC31F0126A46EC30F092C510F579
:10248000116A10C574F511C575F50501726B736B92
:102490007069716BB00E7E6F7F69500E7C6F7D6BC3
:1024A0006E6B6F6B0001D0EC32F099C513F59AC5D5
:1024B00014F510C574F511C575F50501726B736BD4
:1024C0007069716B7E6B7F6BF40E7C6F010E7D6F9C
:1024D0006E6B6F6B0001D0EC32F099C510F59AC5A8
:1024E00011F510C5D6F511C5D7F558EC34F019EE35
:1024F00015F009EE1BF078EC35F010C505F511C5A7
:1025000006F50A0E096E0A6A4FEC35F000A01ED0DF
:10251000150E0501CD6F240ECE6F010EA76F0001C1
:1025200080EC26F019EE15F0066AE80EF66E6F0ED6
:10253000F76E000EF86EADEC36F009EE9EF07DEC15
:1025400035F009EE15F006C5EFF458D010C505F5C5
:1025500011C506F5640E096E0A6A4FEC35F000A04D
:1025600020D0150E0501CD6F240ECE6F010EA86F81
:10257000020EA76F0001E5EC2EF019EE15F0066AC9
:10258000EC0EF66E6F0EF76E000EF86EADEC36F0D8
:1025900009EE75F07DEC35F009EE15F006C5EFF4A7
:1025A0002DD0150E0501CD6F240ECE6F010EA76F35
:1025B000000180EC26F0150E0501CD6F240ECE6FC4
:1025C000020EA86F020EA76F0001E5EC2EF019EEC7
:1025D00015F0066A09EE9EF07DEC35F0F00EF66E11
:1025E0006F0EF76E000EF86EADEC36F009EE75F07A
:1025F0007DEC35F009EE15F006C5EFF413C5E0F5F6
:1026000014C5E1F572EC33F08BC505F58CC506F504
:102610009CC509F59DC50AF58DEC36F000C5CFF5D2
:1026200001C5D0F5CFC505F5D0C506F5640E096E18
:102630000A6A1AEC36F005500501ED25EF6F0650D9
:10264000EE21F06F13C5E0F514C5E1F5000123DAC2
:102650008BC505F58CC506F52DC509F52EC50AF502
:102660008DEC36F000C5CFF501C5D0F5CFC505F529
:10267000D0C506F5640E096E0A6A1AEC36F00550EC
:102680000601065D086F06500759096F80C505F5FC
:1026900081C506F513C509F514C50AF500010EEC50
:1026A00035F0001E00A073D006012E6B2F6B3C6B23
:1026B0003D6B150E0501B56F240EB66F666967692F
:1026C000686B696B0001E8EC2CF0EDC52EF6EEC5E9
:1026D0002FF606C63CF607C63DF682C530F683C522
:1026E00031F684C53EF685C53FF659C52CF6060180
:1026F0002D6B0501666B676B686B696B00018CEC79
:1027000028F0EDC5F1F5EEC5F2F506C60AF607C6E6
:102710000BF659C505F5066A030E096E0A6A39EC0F
:1027200036F000C54FF501C550F50501666BF80E92
:10273000676F686B696B00012DEC18F0EDC52EF624
:10274000EEC52FF606C63CF607C63DF6EFC530F6D9
:10275000F0C531F608C63EF609C63FF659C52CF657
:1027600006012D6B0501666BF80E676F686B696B70
:1027700000018CEC28F013C580F514C581F5EFC578
:1027800082F5F0C583F508C684F509C685F573D6CC
:102790000300FED706AE08D0051C0E6E061C0F6E99
:1027A0000E2AD8B40F2A04D005C50EF506C50FF5BC
:1027B0001200680E06014C6F0001C4EC2EF0F1C54A
:1027C0004CF6D4EC2EF0690E06014C6F0001C4ECFF
:1027D0002EF0F2C54CF6D4EC2EF06A0E06014C6FCA
:1027E0000001C4EC2EF00AC64CF6D4EC2EF06B0EB1
:1027F00006014C6F0001C4EC2EF00BC64CF6D4EC75
:102800002EF06C0E06014C6F0001C4EC2EF0F3C5E7
:102810004CF6D4EC2EF06D0E06014C6F0001C4ECAA
:102820002EF0F4C54CF6D4EC2EF06E0E06014C6F73
:102830000001C4EC2EF00CC64CF6D4EC2EF06F0E5A
:1028400006014C6F0001C4EC2EF00DC64CF6D4EC22
:102850002EF066C54DF667C54EF668C54FF669C5DC
:1028600050F6D20E06014C6F0001C4EC2EF04EC69D
:102870004CF6D4EC2EF0D89006014D374E374F373A
:1028800050374D374E374F3750374D374E374F371C
:102890005037D40E4C6F0001C4EC2EF04DC64CF6F0
:1028A000D4EC2EF0D89006014D374E374F375037C5
:1028B0004D374E374F375037D30E4C6F0001C4ECB5
:1028C0002EF04EC64CF6D4EC2EF0760E06014C6F70
:1028D0000001C4EC2EF0A00E06014C6F0001D4ECF8
:1028E0002EF04BEF29F019EE2FF00C0EF66E700E55
:1028F000F76E000EF86EA7EC36F0080E0501C86FF3
:1029000015AE15D019EE2FF0066A09EE2FF0000172
:102910007DEC35F00E0EF66E700EF76E000EF86E52
:10292000ADEC36F009EE2FF006C5EFF414D019EE39
:102930002FF0066A09EE2FF000017DEC35F00A0E4B
:10294000F66E700EF76E000EF86EADEC36F009EE16
:102950002FF006C5EFF415360501C82FD1D70001B9
:1029600012007B0E06014C6F0001C4EC2EF0F1C585
:102970004CF6D4EC2EF07C0E06014C6F0001C4EC3A
:102980002EF0F2C54CF6D4EC2EF07D0E06014C6F05
:102990000001C4EC2EF00AC64CF6D4EC2EF07E0EEC
:1029A00006014C6F0001C4EC2EF00BC64CF6D4ECC3
:1029B0002EF0770E06014C6F0001C4EC2EF04FC5CF
:1029C0004CF6D4EC2EF0780E06014C6F0001C4ECEE
:1029D0002EF050C54CF6D4EC2EF0790E06014C6F5B
:1029E0000001C4EC2EF04FC54CF6D4EC2EF07A0E5C
:1029F00006014C6F0001C4EC2EF050C54CF6D4EC2F
:102A00002EF066C54DF667C54EF668C54FF669C52A
:102A100050F6D20E06014C6F0001C4EC2EF04EC6EB
:102A20004CF6D4EC2EF0D89006014D374E374F3788
:102A300050374D374E374F3750374D374E374F376A
:102A40005037D40E4C6F0001C4EC2EF04DC64CF63E
:102A5000D4EC2EF0D89006014D374E374F37503713
:102A60004D374E374F375037D30E4C6F0001C4EC03
:102A70002EF04EC64CF6D4EC2EF0760E06014C6FBE
:102A80000001C4EC2EF0800E06014C6F0001D4EC66
:102A90002EF04BEF29F0E0C505F5E1C506F5096A12
:102AA0000A6A4FEC35F000A00CD0E0C505F5E1C591
:102AB00006F509680A688DEC36F000C5E0F501C539
:102AC000E1F5E0C505F5E1C506F5680E096E010EF4
:102AD0000A6E1AEC36F000C5E0F501C5E1F5010E0D
:102AE0000501E56FE66BE0C509F5E1C50AF55A0E8B
:102AF000056E066A00014FEC35F000C5D5F5E0C55E
:102B000005F5E1C506F50E0E096E010E0A6E4FECD5
:102B100035F00501D5510014CF6FCFA102D0E56982
:102B2000E669E0C5DEF5E1C5DFF50001CFEC38F080
:102B3000E3C5E0F5E4C5E1F50501E0515A08E06FB1
:102B4000D56BE151D559E16FE029E26FE2C507F598
:102B50000001D5EC33F00501E76FE86BE5C505F53D
:102B6000E6C506F5E7C509F5E8C50AF500018DECEF
:102B700036F000C52DF501C52EF512003CC605F551
:102B80003DC606F548C609F549C60AF52BEC35F0F1
:102B900000B0120066C51AF567C51BF568C51CF5BF
:102BA00069C51DF560C516F561C517F562C518F54F
:102BB00063C519F52EC6F1F52FC6F2F53CC60AF627
:102BC0003DC60BF627C64FF528C650F529C651F568
:102BD0002AC652F516C566F517C567F518C568F516
:102BE00019C569F5CEDB2EC6F1F52FC6F2F53CC648
:102BF0000AF63DC60BF627C64FF528C650F529C67E
:102C000051F52AC652F51AC566F51BC567F51CC5F0
:102C100068F51DC569F5E4D84F5006012E5D050124
:102C2000F16F000E06012F590501F26F06014851A0
:102C30003C5D0A6F49513D590B6F27512E25050107
:102C4000F36F060128512F210501F46F3CC60CF6E5
:102C50003DC60DF616C566F517C567F518C568F5C6
:102C600019C569F500015FD92EC6F1F52FC6F2F539
:102C7000060148513C5D0A6F49513D590B6F27C60B
:102C80004FF528C650F529C651F52AC652F516C586
:102C900066F517C567F518C568F519C569F500012A
:102CA00070DB2EC6F1F52FC6F2F5060148513C5DEA
:102CB0000A6F49513D590B6F27C64FF528C650F58D
:102CC00029C651F52AC652F51AC566F51BC567F522
:102CD0001CC568F51DC569F5000182D8060127519C
:102CE0002E5D0501F16F060128512F590501F26F84
:102CF0003CC60AF63DC60BF6060127512E5D0501BE
:102D0000F36F060128512F590501F46F0601485150
:102D10003C5D0C6F49513D590D6F1AC566F51BC5D9
:102D200067F51CC568F51DC569F50001F3EC27F0D2
:102D3000060127512E250501F16F060128512F218B
:102D40000501F26F3CC60AF63DC60BF60601275197
:102D50002E250501F36F060128512F210501F46F7F
:102D6000060148513C5D0C6F49513D590D6F1AC524
:102D700066F51BC567F51CC568F51DC569F500013D
:102D8000F3EC27F01AC566F51BC567F51CC568F599
:102D90001DC569F516C560F517C561F518C562F55D
:102DA00019C563F51200340E006E002EFED7052EF5
:102DB000FAD71200032A810E016E280E006E002E33
:102DC000FED7012EFAD7022EF6D7032EF4D7120023
:102DD000E80E026E030E036EEDDF042EF9D712002B
:102DE0007B0E06014C6F0001C4EC2EF0F1C54CF6D1
:102DF000D4EC2EF07C0E06014C6F0001C4EC2EF0DA
:102E0000F2C54CF6D4EC2EF07D0E06014C6F00019D
:102E1000C4EC2EF00AC64CF6D4EC2EF07E0E060161
:102E20004C6F0001C4EC2EF00BC64CF6D4EC2EF027
:102E3000770E06014C6F0001C4EC2EF04FC54CF626
:102E4000D4EC2EF0780E06014C6F0001C4EC2EF08D
:102E500050C54CF6D4EC2EF0790E06014C6F0001F3
:102E6000C4EC2EF051C54CF6D4EC2EF07A0E0601CF
:102E70004C6F0001C4EC2EF052C54CF6D4EC2EF091
:102E800066C54DF667C54EF668C54FF669C550F67E
:102E9000D20E06014C6F0001C4EC2EF04EC64CF66B
:102EA000D4EC2EF0D89006014D374E374F375037BF
:102EB0004D374E374F3750374D374E374F375037E6
:102EC000D40E4C6F0001C4EC2EF04DC64CF6D4EC81
:102ED0002EF0D89006014D374E374F3750374D37CB
:102EE0004E374F375037D30E4C6F0001C4EC2EF0E5
:102EF0004EC64CF6D4EC2EF0760E06014C6F000157
:102F0000C4EC2EF0800E06014C6F0001D4EC2EF0C4
:102F10004BEF29F0010E826FA1C581F0B1A0FED761
:102F200080C0A0F51200680E06014C6F0001C4ECD1
:102F30002EF0F1C54CF6D4EC2EF0690E06014C6F64
:102F40000001C4EC2EF0F2C54CF6D4EC2EF06A0E63
:102F500006014C6F0001C4EC2EF00AC64CF6D4EC0E
:102F60002EF06B0E06014C6F0001C4EC2EF00BC668
:102F70004CF6D4EC2EF06C0E06014C6F0001C4EC44
:102F80002EF0F3C54CF6D4EC2EF06D0E06014C6F0E
:102F90000001C4EC2EF0F4C54CF6D4EC2EF06E0E0D
:102FA00006014C6F0001C4EC2EF00CC64CF6D4ECBC
:102FB0002EF06F0E06014C6F0001C4EC2EF00DC612
:102FC0004CF6D4EC2EF066C54DF667C54EF668C5D6
:102FD0004FF669C550F6D20E06014C6F0001C4ECE5
:102FE0002EF04EC64CF6D4EC2EF0D89006014D379C
:102FF0004E374F3750374D374E374F3750374D37A5
:103000004E374F375037D40E4C6F0001C4EC2EF0C2
:103010004DC64CF6D4EC2EF0D89006014D374E3705
:103020004F3750374D374E374F375037D30E4C6FE1
:103030000001C4EC2EF04EC64CF6D4EC2EF0760E09
:1030400006014C6F0001C4EC2EF0E00E06014C6F3F
:103050000001D4EC2EF04BEF29F07B0E06014C6FF3
:103060000001C4EC2EF0F1C54CF6D4EC2EF07C0E31
:1030700006014C6F0001C4EC2EF0F2C54CF6D4EC06
:103080002EF07D0E06014C6F0001C4EC2EF00AC636
:103090004CF6D4EC2EF07E0E06014C6F0001C4EC11
:1030A0002EF00BC64CF6D4EC2EF0770E06014C6FCA
:1030B0000001C4EC2EF04FC54CF6D4EC2EF0780E87
:1030C00006014C6F0001C4EC2EF050C54CF6D4EC58
:1030D0002EF0790E06014C6F0001C4EC2EF04FC5A6
:1030E0004CF6D4EC2EF07A0E06014C6F0001C4ECC5
:1030F0002EF050C54CF6D4EC2EF066C54DF667C5E3
:103100004EF668C54FF669C550F6D20E06014C6FF3
:103110000001C4EC2EF04EC64CF6D4EC2EF0D89044
:1031200006014D374E374F3750374D374E374F37F3
:1031300050374D374E374F375037D40E4C6F000154
:10314000C4EC2EF04DC64CF6D4EC2EF0D89006010F
:103150004D374E374F3750374D374E374F37503743
:10316000D30E4C6F0001C4EC2EF04EC64CF6D4ECDE
:103170002EF0760E06014C6F0001C4EC2EF0C00E4E
:1031800006014C6F0001D4EC2EF04BEF29F066C520
:103190001AF567C51BF568C51CF569C51DF560C541
:1031A00016F561C517F562C518F563C519F52EC684
:1031B000F1F52FC6F2F53CC60AF63DC60BF636C64B
:1031C000F3F537C6F4F544C60CF645C60DF616C53C
:1031D00066F517C567F518C568F519C569F5A3DE65
:1031E0002EC6F1F52FC6F2F53CC60AF63DC60BF623
:1031F00036C6F3F537C6F4F544C60CF645C60DF6EB
:103200001AC566F51BC567F51CC568F51DC569F5CA
:10321000D9EC13F02EC6F1F52FC6F2F53CC60AF62E
:103220003DC60BF630C6F3F531C6F4F53EC60CF6D6
:103230003FC60DF632C6F5F533C6F6F540C60EF6B6
:1032400041C60FF634C6F7F535C6F8F542C610F696
:1032500043C611F616C566F517C567F518C568F5B6
:1032600019C569F56EDB2EC6F1F52FC6F2F53CC621
:103270000AF63DC60BF630C6F3F531C6F4F53EC688
:103280000CF63FC60DF632C6F5F533C6F6F540C668
:103290000EF641C60FF634C6F7F535C6F8F542C648
:1032A00010F643C611F61AC566F51BC567F51CC5B1
:1032B00068F51DC569F545EC2FF032C6F1F533C64A
:1032C000F2F540C60AF641C60BF634C6F3F535C62C
:1032D000F4F542C60CF643C60DF636C6F5F537C60C
:1032E000F6F544C60EF645C60FF638C6F7F539C6EC
:1032F000F8F546C610F647C611F616C566F517C5A9
:1033000067F518C568F519C569F51BDB32C6F1F517
:1033100033C6F2F540C60AF641C60BF634C6F3F5DD
:1033200035C6F4F542C60CF643C60DF636C6F5F5BD
:1033300037C6F6F544C60EF645C60FF638C6F7F59D
:1033400039C6F8F546C610F647C611F61AC566F531
:103350001BC567F51CC568F51DC569F545EC2FF063
:103360001AC566F51BC567F51CC568F51DC569F569
:1033700016C560F517C561F518C562F519C563F581
:1033800012007B0E06014C6F0001C4EC2EF0F1C55B
:103390004CF6D4EC2EF07C0E06014C6F0001C4EC10
:1033A0002EF0F2C54CF6D4EC2EF07D0E06014C6FDB
:1033B0000001C4EC2EF00AC64CF6D4EC2EF07E0EC2
:1033C00006014C6F0001C4EC2EF00BC64CF6D4EC99
:1033D0002EF0770E06014C6F0001C4EC2EF04FC5A5
:1033E0004CF6D4EC2EF0780E06014C6F0001C4ECC4
:1033F0002EF050C54CF6D4EC2EF0790E06014C6F31
:103400000001C4EC2EF051C54CF6D4EC2EF07A0E2F
:1034100006014C6F0001C4EC2EF052C54CF6D4EC02
:103420002EF066C54DF667C54EF668C54FF669C500
:1034300050F6D20E06014C6F0001C4EC2EF04EC6C1
:103440004CF6D4EC2EF0D89006014D374E374F375E
:1034500050374D374E374F3750374D374E374F3740
:103460005037D40E4C6F0001C4EC2EF04DC64CF614
:10347000D4EC2EF0D89006014D374E374F375037E9
:103480004D374E374F375037D30E4C6F0001C4ECD9
:103490002EF04EC64CF6D4EC2EF0760E06014C6F94
:1034A0000001C4EC2EF0C00E06014C6F0001D4ECFC
:1034B0002EF04BEF29F07B0E06014C6F0001C4EC9F
:1034C0002EF0F1C54CF6D4EC2EF07C0E06014C6FBC
:1034D0000001C4EC2EF0F2C54CF6D4EC2EF07D0EBB
:1034E00006014C6F0001C4EC2EF00AC64CF6D4EC79
:1034F0002EF07E0E06014C6F0001C4EC2EF00BC6C0
:103500004CF6D4EC2EF0770E06014C6F0001C4ECA3
:103510002EF04FC54CF6D4EC2EF0780E06014C6F11
:103520000001C4EC2EF050C54CF6D4EC2EF0790E10
:1035300006014C6F0001C4EC2EF051C54CF6D4ECE2
:103540002EF07A0E06014C6F0001C4EC2EF052C52D
:103550004CF6D4EC2EF066C54DF667C54EF668C540
:103560004FF669C550F6D20E06014C6F0001C4EC4F
:103570002EF04EC64CF6D4EC2EF0D89006014D3706
:103580004E374F3750374D374E374F3750374D370F
:103590004E374F375037D40E4C6F0001C4EC2EF02D
:1035A0004DC64CF6D4EC2EF0D89006014D374E3770
:1035B0004F3750374D374E374F375037D30E4C6F4C
:1035C0000001C4EC2EF04EC64CF6D4EC2EF0760E74
:1035D00006014C6F0001C4EC2EF0D00E06014C6FBA
:1035E0000001D4EC2EF04BEF29F07B0E06014C6F5E
:1035F0000001C4EC2EF0F1C54CF6D4EC2EF07C0E9C
:1036000006014C6F0001C4EC2EF0F2C54CF6D4EC70
:103610002EF07D0E06014C6F0001C4EC2EF00AC6A0
:103620004CF6D4EC2EF07E0E06014C6F0001C4EC7B
:103630002EF00BC64CF6D4EC2EF0770E06014C6F34
:103640000001C4EC2EF04FC54CF6D4EC2EF0780EF1
:1036500006014C6F0001C4EC2EF050C54CF6D4ECC2
:103660002EF0790E06014C6F0001C4EC2EF051C50E
:103670004CF6D4EC2EF07A0E06014C6F0001C4EC2F
:103680002EF052C54CF6D4EC2EF066C54DF667C54B
:103690004EF668C54FF669C550F6D20E06014C6F5E
:1036A0000001C4EC2EF04EC64CF6D4EC2EF0D890AF
:1036B00006014D374E374F3750374D374E374F375E
:1036C00050374D374E374F375037D40E4C6F0001BF
:1036D000C4EC2EF04DC64CF6D4EC2EF0D89006017A
:1036E0004D374E374F3750374D374E374F375037AE
:1036F000D30E4C6F0001C4EC2EF04EC64CF6D4EC49
:103700002EF0760E06014C6F0001C4EC2EF0D10EA7
:1037100006014C6F0001D4EC2EF04BEF29F0680E3F
:1037200006014C6F0001C4EC2EF0F1C54CF6D4EC50
:103730002EF0690E06014C6F0001C4EC2EF0F2C5AC
:103740004CF6D4EC2EF06A0E06014C6F0001C4EC6E
:103750002EF00AC64CF6D4EC2EF06B0E06014C6F20
:103760000001C4EC2EF00BC64CF6D4EC2EF06C0E1F
:1037700006014C6F0001C4EC2EF0F3C54CF6D4ECFE
:103780002EF06D0E06014C6F0001C4EC2EF0F4C556
:103790004CF6D4EC2EF06E0E06014C6F0001C4EC1A
:1037A0002EF00CC64CF6D4EC2EF06F0E06014C6FCA
:1037B0000001C4EC2EF00DC64CF6D4EC2EF0700EC9
:1037C00006014C6F0001C4EC2EF0F5C54CF6D4ECAC
:1037D0002EF0710E06014C6F0001C4EC2EF0F6C500
:1037E0004CF6D4EC2EF0720E06014C6F0001C4ECC6
:1037F0002EF00EC64CF6D4EC2EF0730E06014C6F74
:103800000001C4EC2EF00FC64CF6D4EC2EF0770E6F
:1038100006014C6F0001C4EC2EF0F7C54CF6D4EC59
:103820002EF0780E06014C6F0001C4EC2EF0F8C5A6
:103830004CF6D4EC2EF0790E06014C6F0001C4EC6E
:103840002EF010C64CF6D4EC2EF07A0E06014C6F1A
:103850000001C4EC2EF011C64CF6D4EC2EF07B0E19
:1038600006014C6F0001C4EC2EF0F9C54CF6D4EC07
:103870002EF07C0E06014C6F0001C4EC2EF0FAC550
:103880004CF6D4EC2EF07D0E06014C6F0001C4EC1A
:103890002EF012C64CF6D4EC2EF07E0E06014C6FC4
:1038A0000001C4EC2EF013C64CF6D4EC2EF066C525
:1038B0004DF667C54EF668C54FF669C550F6D20E8F
:1038C00006014C6F0001C4EC2EF04EC64CF6D4EC51
:1038D0002EF0D89006014D374E374F3750374D37C1
:1038E0004E374F3750374D374E374F375037D40E4E
:1038F0004C6F0001C4EC2EF04DC64CF6D4EC2EF00B
:10390000D89006014D374E374F3750374D374E3729
:103910004F375037D30E4C6F0001C4EC2EF04EC61B
:103920004CF6D4EC2EF0670E06014C6F0001C4EC8F
:103930002EF0A90E06014C6F0001D4EC2EF04BEFD7
:1039400029F0680E06014C6F0001C4EC2EF0F1C5A1
:103950004CF6D4EC2EF0690E06014C6F0001C4EC5D
:103960002EF0F2C54CF6D4EC2EF06A0E06014C6F28
:103970000001C4EC2EF00AC64CF6D4EC2EF06B0E0F
:1039800006014C6F0001C4EC2EF00BC64CF6D4ECD3
:103990002EF06C0E06014C6F0001C4EC2EF0F3C546
:1039A0004CF6D4EC2EF06D0E06014C6F0001C4EC09
:1039B0002EF0F4C54CF6D4EC2EF06E0E06014C6FD2
:1039C0000001C4EC2EF00CC64CF6D4EC2EF06F0EB9
:1039D00006014C6F0001C4EC2EF00DC64CF6D4EC81
:1039E0002EF0700E06014C6F0001C4EC2EF0F5C5F0
:1039F0004CF6D4EC2EF0710E06014C6F0001C4ECB5
:103A00002EF0F6C54CF6D4EC2EF0720E06014C6F7B
:103A10000001C4EC2EF00EC64CF6D4EC2EF0730E62
:103A200006014C6F0001C4EC2EF00FC64CF6D4EC2E
:103A30002EF0770E06014C6F0001C4EC2EF0F7C596
:103A40004CF6D4EC2EF0780E06014C6F0001C4EC5D
:103A50002EF0F8C54CF6D4EC2EF0790E06014C6F22
:103A60000001C4EC2EF010C64CF6D4EC2EF07A0E09
:103A700006014C6F0001C4EC2EF011C64CF6D4ECDC
:103A80002EF066C54DF667C54EF668C54FF669C59A
:103A900050F6D20E06014C6F0001C4EC2EF04EC65B
:103AA0004CF6D4EC2EF0D89006014D374E374F37F8
:103AB00050374D374E374F3750374D374E374F37DA
:103AC0005037D40E4C6F0001C4EC2EF04DC64CF6AE
:103AD000D4EC2EF0D89006014D374E374F37503783
:103AE0004D374E374F375037D30E4C6F0001C4EC73
:103AF0002EF04EC64CF6D4EC2EF0670E06014C6F3D
:103B00000001C4EC2EF0A60E06014C6F0001D4ECAF
:103B10002EF04BEF29F07B0E06014C6F0001C4EC38
:103B20002EF0F1C54CF6D4EC2EF07C0E06014C6F55
:103B30000001C4EC2EF0F2C54CF6D4EC2EF07D0E54
:103B400006014C6F0001C4EC2EF00AC64CF6D4EC12
:103B50002EF07E0E06014C6F0001C4EC2EF00BC659
:103B60004CF6D4EC2EF0770E06014C6F0001C4EC3D
:103B70002EF04FC54CF6D4EC2EF0780E06014C6FAB
:103B80000001C4EC2EF050C54CF6D4EC2EF0790EAA
:103B900006014C6F0001C4EC2EF051C54CF6D4EC7C
:103BA0002EF07A0E06014C6F0001C4EC2EF052C5C7
:103BB0004CF6D4EC2EF066C54DF667C54EF668C5DA
:103BC0004FF669C550F6D20E06014C6F0001C4ECE9
:103BD0002EF04EC64CF6D4EC2EF0D89006014D37A0
:103BE0004E374F3750374D374E374F3750374D37A9
:103BF0004E374F375037D40E4C6F0001C4EC2EF0C7
:103C00004DC64CF6D4EC2EF0D89006014D374E3709
:103C10004F3750374D374E374F375037D30E4C6FE5
:103C20000001C4EC2EF04EC64CF6D4EC2EF0760E0D
:103C300006014C6F0001C4EC2EF0D30E06014C6F50
:103C40000001D4EC2EF04BEF29F07B0E06014C6FF7
:103C50000001C4EC2EF0F1C54CF6D4EC2EF07C0E35
:103C600006014C6F0001C4EC2EF0F2C54CF6D4EC0A
:103C70002EF07D0E06014C6F0001C4EC2EF00AC63A
:103C80004CF6D4EC2EF07E0E06014C6F0001C4EC15
:103C90002EF00BC64CF6D4EC2EF0770E06014C6FCE
:103CA0000001C4EC2EF04FC54CF6D4EC2EF0780E8B
:103CB00006014C6F0001C4EC2EF050C54CF6D4EC5C
:103CC0002EF0790E06014C6F0001C4EC2EF051C5A8
:103CD0004CF6D4EC2EF07A0E06014C6F0001C4ECC9
:103CE0002EF052C54CF6D4EC2EF066C54DF667C5E5
:103CF0004EF668C54FF669C550F6D20E06014C6FF8
:103D00000001C4EC2EF04EC64CF6D4EC2EF0D89048
:103D100006014D374E374F3750374D374E374F37F7
:103D200050374D374E374F375037D40E4C6F000158
:103D3000C4EC2EF04DC64CF6D4EC2EF0D890060113
:103D40004D374E374F3750374D374E374F37503747
:103D5000D30E4C6F0001C4EC2EF04EC64CF6D4ECE2
:103D60002EF0760E06014C6F0001C4EC2EF0D20E40
:103D700006014C6F0001D4EC2EF04BEF29F0680ED9
:103D800006014C6F0001C4EC2EF0F1C54CF6D4ECEA
:103D90002EF0690E06014C6F0001C4EC2EF0F2C546
:103DA0004CF6D4EC2EF06A0E06014C6F0001C4EC08
:103DB0002EF00AC64CF6D4EC2EF06B0E06014C6FBA
:103DC0000001C4EC2EF00BC64CF6D4EC2EF06C0EB9
:103DD00006014C6F0001C4EC2EF0F3C54CF6D4EC98
:103DE0002EF06D0E06014C6F0001C4EC2EF0F4C5F0
:103DF0004CF6D4EC2EF06E0E06014C6F0001C4ECB4
:103E00002EF00CC64CF6D4EC2EF06F0E06014C6F63
:103E10000001C4EC2EF00DC64CF6D4EC2EF0770E5B
:103E200006014C6F0001C4EC2EF04FC54CF6D4ECEB
:103E30002EF0780E06014C6F0001C4EC2EF050C538
:103E40004CF6D4EC2EF0790E06014C6F0001C4EC58
:103E50002EF051C54CF6D4EC2EF07A0E06014C6FC4
:103E60000001C4EC2EF052C54CF6D4EC2EF066C521
:103E70004DF667C54EF668C54FF669C550F6D20EC9
:103E800006014C6F0001C4EC2EF04EC64CF6D4EC8B
:103E90002EF0D89006014D374E374F3750374D37FB
:103EA0004E374F3750374D374E374F375037D40E88
:103EB0004C6F0001C4EC2EF04DC64CF6D4EC2EF045
:103EC000D89006014D374E374F3750374D374E3764
:103ED0004F375037D30E4C6F0001C4EC2EF04EC656
:103EE0004CF6D4EC2EF0760E06014C6F0001C4ECBB
:103EF0002EF0F00E06014C6F0001D4EC2EF04BEFCB
:103F000029F0680E06014C6F0001C4EC2EF0F1C5DB
:103F10004CF6D4EC2EF0690E06014C6F0001C4EC97
:103F20002EF0F2C54CF6D4EC2EF06A0E06014C6F62
:103F30000001C4EC2EF00AC64CF6D4EC2EF06B0E49
:103F400006014C6F0001C4EC2EF00BC64CF6D4EC0D
:103F50002EF06C0E06014C6F0001C4EC2EF0F3C580
:103F60004CF6D4EC2EF06D0E06014C6F0001C4EC43
:103F70002EF0F4C54CF6D4EC2EF06E0E06014C6F0C
:103F80000001C4EC2EF00CC64CF6D4EC2EF06F0EF3
:103F900006014C6F0001C4EC2EF00DC64CF6D4ECBB
:103FA0002EF0700E06014C6F0001C4EC2EF0F5C52A
:103FB0004CF6D4EC2EF0710E06014C6F0001C4ECEF
:103FC0002EF0F6C54CF6D4EC2EF0720E06014C6FB6
:103FD0000001C4EC2EF00EC64CF6D4EC2EF0730E9D
:103FE00006014C6F0001C4EC2EF00FC64CF6D4EC69
:103FF0002EF066C54DF667C54EF668C54FF669C525
:1040000050F6D20E06014C6F0001C4EC2EF04EC6E5
:104010004CF6D4EC2EF0D89006014D374E374F3782
:1040200050374D374E374F3750374D374E374F3764
:104030005037D40E4C6F0001C4EC2EF04DC64CF638
:10404000D4EC2EF0D89006014D374E374F3750370D
:104050004D374E374F375037D30E4C6F0001C4ECFD
:104060002EF04EC64CF6D4EC2EF0670E06014C6FC7
:104070000001C4EC2EF0A20E06014C6F0001D4EC3E
:104080002EF04BEF29F066C51AF567C51BF568C51C
:104090001CF569C51DF560C516F561C517F562C546
:1040A00018F563C519F52EC6F1F52FC6F2F53CC615
:1040B0000AF63DC60BF630C6F3F531C6F4F53EC63A
:1040C0000CF63FC60DF61AC566F51BC567F51CC58F
:1040D00068F51DC569F593EC17F006012C512E25E6
:1040E0000501F16F06012D512F210501F26F060127
:1040F0002C513C250A6F2D513D210B6F2C51305D09
:104100000501F36F06012D5131590501F46F0601C8
:104110002C513E5D0C6F2D513F590D6F16C566F544
:1041200017C567F518C568F519C569F5000193EC61
:1041300017F01AC566F51BC567F51CC568F51DC5E2
:1041400069F516C560F517C561F518C562F519C59D
:1041500063F5120066C51AF567C51BF568C51CF541
:1041600069C51DF560C516F561C517F562C518F579
:1041700063C519F527C64FF528C650F51AC566F56B
:104180001BC567F51CC568F51DC569F52DEC18F054
:1041900006012C51275D4F6E2D512859506E16C5C2
:1041A00066F517C567F518C568F519C569F5000105
:1041B0002DEC18F01AC566F51BC567F51CC568F52A
:1041C0001DC569F516C560F517C561F518C562F519
:1041D00019C563F5120066C51AF567C51BF568C5F4
:1041E0001CF569C51DF560C516F561C517F562C5F5
:1041F00018F563C519F52EC6F1F52FC6F2F53CC6C4
:104200000AF63DC60BF630C6F3F531C6F4F53EC6E8
:104210000CF63FC60DF61AC566F51BC567F51CC53D
:1042200068F51DC569F5ABDD06012C512E2505018C
:10423000F16F06012D512F210501F26F06012C515E
:104240003C250A6F2D513D210B6F2C51305D05012E
:10425000F36F06012D5131590501F46F06012C5100
:104260003E5D0C6F2D513F590D6F16C566F517C594
:1042700067F518C568F519C569F5000180DD1AC52F
:1042800066F51BC567F51CC568F51DC569F516C53E
:1042900060F517C561F518C562F519C563F512001B
:1042A00066C51AF567C51BF568C51CF569C51DF51A
:1042B00060C516F561C517F562C518F563C519F532
:1042C0002EC6F1F52FC6F2F53CC60AF63DC60BF632
:1042D00030C6F3F531C6F4F53EC60CF63FC60DF612
:1042E00032C6F5F533C6F6F540C60EF641C60FF6F2
:1042F00016C566F517C567F518C568F519C569F5DA
:1043000000DE2EC6F1F52FC6F2F53CC60AF63DC614
:104310000BF630C6F3F531C6F4F53EC60CF63FC6D3
:104320000DF632C6F5F533C6F6F540C60EF641C6B3
:104330000FF61AC566F51BC567F51CC568F51DC5E2
:1043400069F50DEC38F01AC566F51BC567F51CC597
:1043500068F51DC569F516C560F517C561F518C581
:1043600062F519C563F5120019EE21F0F20EF66E32
:104370006F0EF76E000EF86EA7EF36F019EE38F0FC
:10438000F60EF66E6F0EF76E000EF86EA7EF36F0B3
:10439000710E0760000C0750B20FF66E430ED8B0D6
:1043A000010FF76E000ED8B0010FF86E0800F5503F
:1043B00012007000100C0A8822382008201010808B
:1043C0008040040000002848466C000000281000CF
:1043D0001000407C008482304E78066C0C00001087
:1043E00028000464F8FE7CFEFEFE7CFE0040FEFE1B
:1043F000FEFE7CFE7CFE4C027E3E7EC60EC20004AB
:104400000008800040FE7070701010FE0040FE003A
:10441000F8F870F810F8901078387888188800004C
:1044200000207800710E0760000C0750460FF66EF2
:10443000440ED8B0010FF76E000ED8B0010FF86E21
:104440000800F550120070FE380A06CC667C700435
:1044500040103888A2701C00000EFE5426920A38C4
:10446000821010A010C020A284C282288A940292D6
:10447000926CAC282882029224928282921282103C
:10448000828010800408821282129202804080286A
:1044900010A2FE0882048002A8908888A8FCA810B8
:1044A00090802082081088282810A87C80408050A6
:1044B000A0C8100082104400710E0760000C075065
:1044C000DA0FF66E440ED8B0010FF76E000ED8B0BA
:1044D000010FF86E0800F5501200707C7C0000EEB1
:1044E000EE7CA8FEFE545494947C7C009E0028FE32
:1044F00010AA0644447C7C6010C01092FEA28A245C
:104500008A92E292926C6C442844A2F222928282B5
:1045100092129210FE82288018108212A23292FE0D
:1045200080807010E092821082028004A8888888BF
:10453000A812A808FA8850FEF00888282808A89031
:1045400080806020A0A86CFE6C104200710E076095
:10455000000C07506E0FF66E450ED8B0010FF76EC7
:10456000000ED8B0010FF86E0800F5501200703838
:10457000FE0C0ACC667C2004403810A288701C0017
:10458000000EFE54C8440082381010001000088A43
:10459000809296FE8A9212925200008228281282FD
:1045A0002492824492129210827E448004208212CD
:1045B0004252920280408028108A8220FE048008A5
:1045C000A8888890A802A808807A88800808882887
:1045D0003008A88040408050A098820010204400FD
:1045E000710E0760000C0750020FF66E460ED8B031
:1045F000010FF76E000ED8B0010FF86E0800F550ED
:1046000012007010000A068822383E082010108020
:104610008040040000002824C4A0000000281000EE
:104620001000047C008C622072600E6C3C00000064
:1046300028100C7CF86C44388202F4FE0002828060
:10464000FEFE7C0CBC8C64027E3E7EC60E86004064
:1046500000088000F07040FE300478F00000000098
:10466000F0F07010F8104040F83878887888000032
:10467000001078004C6A4D6A4BEC29F0680E060178
:104680004C6F0001C4EC2EF006014C6B0001D4EC21
:104690002EF0690E06014C6F0001C4EC2EF00601ED
:1046A0004C6B0001D4EC2EF06A0E06014C6F000139
:1046B000C4EC2EF006014C6B0001D4EC2EF06B0E16
:1046C00006014C6F0001C4EC2EF006014C6B00019A
:1046D000D4EC2EF06C0E06014C6F0001C4EC2EF0F1
:1046E0003BC54CF6D4EC2EF06D0E06014C6F00016C
:1046F000C4EC2EF03CC54CF6D4EC2EF06E0E060148
:104700004C6F0001C4EC2EF039C54CF6D4EC2EF001
:104710006F0E06014C6F0001C4EC2EF03AC54CF64A
:10472000D4EC2EF035C566F536C567F537C568F5A6
:1047300038C569F566C54DF667C54EF668C54FF6CE
:1047400069C550F6D20E06014C6F0001C4EC2EF084
:104750004EC64CF6D4EC2EF0D89006014D374E37AD
:104760004F3750374D374E374F3750374D374E371D
:104770004F375037D40E4C6F0001C4EC2EF04DC6AD
:104780004CF6D4EC2EF0D89006014D374E374F370B
:1047900050374D374E374F375037D30E4C6F0001DF
:1047A000C4EC2EF04EC64CF6D4EC2EF04BEC29F0B7
:1047B000760E06014C6F0001C4EC2EF0E00E0601EF
:1047C0004C6F0001D4EC2EF04BEF29F00F0E1E5E63
:1047D0001F6A206A1EC505F5B20E096E26EC35F07B
:1047E000001E00C5D5F51EC509F5CA0E056E26ECDE
:1047F00035F0001E0501D5510014CF6FCFA104D0B4
:10480000010E245E000E255A2F6A2F2A2F04D8A4E9
:1048100006D01EC507F50001BBDD316E27D0020EA4
:104820002F5CD8A406D01EC507F50001FBDD316E54
:104830001DD0030E2F5CD8A406D01EC507F50001BD
:104840003BDE316E13D0040E2F5CD8A406D01EC5FB
:1048500007F500017BDE316E09D0050E2F5CD8A470
:1048600005D01EC507F50001BBDE316E266A276A3A
:10487000306A302A216A010E296E212A286A010E27
:104880000501946F282A31A026D01F502224CF6F13
:1048900020502320D06F2150CF25F16F000ED02162
:1048A000F26F26502424CF6F27502520D06F285038
:1048B000CF2506010A6F000E0501D02106010B6FFE
:1048C00057C566F558C567F50501686B696B00014A
:1048D00039EC2FF025D01F502224CF6F20502320F9
:1048E000D06F2150CF25F16F000ED021F26F2650EE
:1048F0002424CF6F27502520D06F2850CF250601C4
:104900000A6F000E0501D02106010B6F35C566F553
:1049100036C567F50501686B696B000139EC2FF04E
:10492000050194513F5CD56FD5C505F5096A0001B5
:1049300009EC35F0001E00A003D00501942BA2D78E
:1049400029503F5C0501D56FD5C505F5096A000101
:1049500009EC35F0001E00A002D0292A8ED7313292
:104960003F502626000E2722080E305CD8A081D7A3
:104970003F501F26000E2022050E2F5CD8A045D7E1
:104980001200B5C5E9F4B6C5EAF4EFC445F54552E1
:10499000D8B4120087C547F588C548F5010E496EA1
:1049A00047C522F548C523F589C524F58AC525F5EF
:1049B00049500501B525E96E000EB621EA6EEFC437
:1049C0001EF5000103DF40503F02F3C4D5F5050199
:1049D000D5514724CF6F000E4820D06F010ECF2550
:1049E000476E000ED021486E4950455CD56FD5C545
:1049F00005F5096A000109EC35F0001E00A002D09F
:104A0000492ACED747C587F548C588F51200020E5A
:104A100006014C6F0001C4EC2EF007EC2AF05DC5D6
:104A200051F6120E06014C6F0001C4EC2EF007EC9B
:104A30002AF05DC52BF6040E4B5CD8A408D03B6A67
:104A4000040E3C6E580E396E020E3A6E36D04B0490
:104A5000D8A40CD03B6A040E3C6E580E396E020E80
:104A60003A6E06012B975195519327D0020E4B5C5D
:104A7000D8A408D03B6A040E3C6E580E396E020E64
:104A80003A6E1BD0030E4B5CD8A40CD03B6A040ECC
:104A90003C6E580E396E020E3A6E06012B87519508
:104AA00051830BD03B6A040E3C6E580E396E020ED9
:104AB0003A6E06012B9751955193020E06014C6FE9
:104AC0000001C4EC2EF051C64CF6D4EC2EF0E3DB22
:104AD000120E06014C6F0001C4EC2EF02BC64CF6F2
:104AE000D4EC2EF0D8D3C3C5E9F4C4C5EAF4EFC4BE
:104AF00086F505018653D8B41CD0010EC56FC5518B
:104B0000C325E96E000EC421EA6EEFC49BF50001D7
:104B100056D80501C551865DD56FD5C505F5096A1D
:104B2000000109EC35F0001E00A003D00501C52BE3
:104B3000E6D7000112004EC5C9F50501C953D8B426
:104B40000CD00D0E9B6F00013AD80A0E05019B6F29
:104B5000000135D80501C92FF4D700011200C3C5E3
:104B6000E9F4C4C5EAF4EFC486F505018653D8B468
:104B70001CD0010EC56FC551C325E96E000EC421BE
:104B8000EA6EEFC49BF500011AD80501C551865D98
:104B9000D56FD5C505F5096A000109EC35F0001E91
:104BA00000A003D00501C52BE6D70D0E05019B6FB4
:104BB000000105D80A0E05019B6F000100D0B2A2CA
:104BC000FED79BC5A3F21200010E826FA1C581F032
:104BD000B1A0FED780C0A0F512001200C888C7900F
:104BE000C896C696C79ABF90C088BE860C0E0501AF
:104BF0009F6F030E9E6F000114EC34F0030E05014D
:104C0000CA6FBF8A320E026E036A0001DAEC16F038
:104C1000BF9A640E026E036ADAEC16F0BF8A320E97
:104C2000026E036ADAEC16F00501CA2FEAD700011A
:104C30009EEC2EF00A0E026E036ADAEC16F02EECF1
:104C40002CF03EDB5A52D8A401D0FBD74168426811
:104C5000436A446A356A366A376A386A3B6A040EC0
:104C60003C6E580E396E020E3A6E3D6A020E3F6E71
:104C7000070E3E6E010E4B6ECADE060E406EFAD473
:104C800004011397C89C200E0201176F140E6B6F5E
:104C9000320E096F310E146F130E6A6F000112008D
:104CA0000D0E05018E6F100E8F6F000112000001B6
:104CB000600EAD6FAF6BB36BB06B600EAD6F080E77
:104CC000B16FF86A0301F395F39F0401006B086B61
:104CD000106B206B0001749F709FCE6ACF6AD06A00
:104CE000D16AD26A1200010E2C6E060E0201AF6F5D
:104CF000810EAE6FAB8FAB8BAB89AC8F0001120016
:104D0000CDC5E9F4CEC5EAF4EF52D8A404D024010D
:104D10009E6B00011200CDC5E9F4CEC5EAF4050191
:104D2000A751EF5CD8B006D0CDC5E9F4CEC5EAF402
:104D3000EFC4A7F5010ECC6FCC51CD25E96E000E66
:104D4000CE21EA6EEEC4A6F5A6C5A5F509EE9EF045
:104D5000CC51E926000EEA22A5C5EEF4CC51A75DA0
:104D6000D56FD5C505F5096A000109EC35F0001EBF
:104D700000A003D00501CC2BDFD761009EF69EF486
:104D800012007B0E06014C6F0001C4EC2EF0F1C541
:104D90004CF6D4EC2EF07C0E06014C6F0001C4ECF6
:104DA0002EF0F2C54CF6D4EC2EF07D0E06014C6FC1
:104DB0000001C4EC2EF00AC64CF6D4EC2EF07E0EA8
:104DC00006014C6F0001C4EC2EF00BC64CF6D4EC7F
:104DD0002EF0770E06014C6F0001C4EC2EF04FC58B
:104DE0004CF6D4EC2EF0780E06014C6F0001C4ECAA
:104DF0002EF050C54CF6D4EC2EF0790E06014C6F17
:104E00000001C4EC2EF051C54CF6D4EC2EF07A0E15
:104E100006014C6F0001C4EC2EF052C54CF6D4ECE8
:104E20002EF066C54DF667C54EF668C54FF669C5E6
:104E300050F6D20E06014C6F0001C4EC2EF04EC6A7
:104E40004CF6D4EC2EF0D89006014D374E374F3744
:104E500050374D374E374F3750374D374E374F3726
:104E60005037D40E4C6F0001C4EC2EF04DC64CF6FA
:104E7000D4EC2EF0D89006014D374E374F375037CF
:104E80004D374E374F375037D30E4C6F0001C4ECBF
:104E90002EF04EC64CF6D4EC2EF0760E06014C6F7A
:104EA0000001C4EC2EF0900E06014C6F0001D4EC12
:104EB0002EF0F1D17B0E06014C6F0001C4EC2EF0F8
:104EC000F1C54CF6D4EC2EF07C0E06014C6F0001BF
:104ED000C4EC2EF0F2C54CF6D4EC2EF07D0E06019B
:104EE0004C6F0001C4EC2EF00AC64CF6D4EC2EF048
:104EF0007E0E06014C6F0001C4EC2EF00BC64CF682
:104F0000D4EC2EF0770E06014C6F0001C4EC2EF0AD
:104F10004FC54CF6D4EC2EF0780E06014C6F000114
:104F2000C4EC2EF050C54CF6D4EC2EF0790E0601F0
:104F30004C6F0001C4EC2EF051C54CF6D4EC2EF0B1
:104F40007A0E06014C6F0001C4EC2EF052C54CF6EF
:104F5000D4EC2EF066C54DF667C54EF668C54FF623
:104F600069C550F6D20E06014C6F0001C4EC2EF05C
:104F70004EC64CF6D4EC2EF0D89006014D374E3785
:104F80004F3750374D374E374F3750374D374E37F5
:104F90004F375037D40E4C6F0001C4EC2EF04DC685
:104FA0004CF6D4EC2EF0D89006014D374E374F37E3
:104FB00050374D374E374F375037D30E4C6F0001B7
:104FC000C4EC2EF04EC64CF6D4EC2EF0760E060154
:104FD0004C6F0001C4EC2EF0910E06014C6F0001E5
:104FE000D4EC2EF058D1680E06014C6F0001C4ECD1
:104FF0002EF0F1C54CF6D4EC2EF0690E06014C6F84
:105000000001C4EC2EF0F2C54CF6D4EC2EF06A0E82
:1050100006014C6F0001C4EC2EF00AC64CF6D4EC2D
:105020002EF06B0E06014C6F0001C4EC2EF00BC687
:105030004CF6D4EC2EF06C0E06014C6F0001C4EC63
:105040002EF0F3C54CF6D4EC2EF06D0E06014C6F2D
:105050000001C4EC2EF0F4C54CF6D4EC2EF06E0E2C
:1050600006014C6F0001C4EC2EF00CC64CF6D4ECDB
:105070002EF06F0E06014C6F0001C4EC2EF00DC631
:105080004CF6D4EC2EF066C54DF667C54EF668C5F5
:105090004FF669C550F6D20E06014C6F0001C4EC04
:1050A0002EF04EC64CF6D4EC2EF0D89006014D37BB
:1050B0004E374F3750374D374E374F3750374D37C4
:1050C0004E374F375037D40E4C6F0001C4EC2EF0E2
:1050D0004DC64CF6D4EC2EF0D89006014D374E3725
:1050E0004F3750374D374E374F375037D30E4C6F01
:1050F0000001C4EC2EF04EC64CF6D4EC2EF0670E38
:1051000006014C6F0001C4EC2EF0800E06014C6FBE
:105110000001D4EC2EF0BFD006012E51305D050108
:10512000FB6F06012F5131590501FC6F06013C51FF
:105130003E5D0501CF6F06013D513F590501D06F1E
:10514000CFC505F5D0C506F50A0E096E0A6A00013D
:105150008DEC36F000C514F601C515F60501EB6BB4
:10516000EC6BFBC505F5FCC506F5096A0A6A00018A
:105170000EEC35F000A005D0140E0501DC6FDD6BE0
:105180000ED014C605F515C606F5FBC509F5FCC518
:105190000AF51AEC36F005C5DCF506C5DDF5DCC50B
:1051A00005F5DDC506F50001CAEC13F00EC509F5DD
:1051B0000FC50AF50A0E056E066A4FEC35F0001EA3
:1051C00000A034D02CC609F52DC60AF5056A066A7A
:1051D00000012BEC35F000A028D0010E06012C5F59
:1051E000000E2D5B2EC6F1F52FC6F2F50501EB5131
:1051F00006013C250A6F0501EC5106013D210B6FAC
:1052000030C6F3F531C6F4F50501EB5106013E2534
:105210000C6F0501EC5106013F210D6F0001E3DE2B
:105220000501EB2BD8B4EC2BCDD734D02CC609F527
:105230002DC60AF5056A066A00012BEC35F000A0C0
:1052400029D0010E06012C5F000E2D5B0501EB51EC
:1052500006012E250501F16FEC5106012F210501F4
:10526000F26F3CC60AF63DC60BF6EB51060130253F
:105270000501F36FEC51060131210501F46F3EC6C3
:105280000CF63FC60DF60001AEDE0501EB2BD8B4DF
:10529000EC2BCCD71200ACEC2EF0080E05016C15EF
:1052A000D56FD5C505F5080E096E000109EC35F07E
:1052B00000A005D0350E006E002EFED7ECD71200F0
:1052C0005A6A5B6A5C6A5B2A5C2A0001ACEC2EF0CD
:1052D0006CC56DF5020E05016D15D56FD5C505F5CB
:1052E000096A000109EC35F000C5CFF55CC505F58C
:1052F000140E096E26EC35F00501CF510014D56F60
:10530000D5A122D0020E016E006A002EFED7012E1A
:10531000FBD7130E006E002EFED7010E06014C6F58
:105320000001C4EC2EF073D8800E5D140501D56F1A
:10533000D5C505F5800E096E000109EC35F000A019
:1053400002D05A68120017D0020E016E006A002EB9
:10535000FED7012EFBD7130E006E002EFED7010ED6
:1053600006014C6F0001C4EC2EF0800E06014C6F5C
:105370000001D4EC2EF05AC505F5096A09EC35F0A8
:1053800000C5D5F55CC505F5050E096E09EC35F0CF
:105390000501D5510014CF6FCFA121D0000166D8EF
:1053A0000A0E026E036ADAEC16F09EEC2EF00A0E7C
:1053B000026E036ADAEC16F051DAE40E06014C6F65
:1053C0000001C4EC2EF0010E06014C6F0001D4EC7C
:1053D0002EF0640E026E036ADAEC16F05C6A5AC5AF
:1053E00005F5096A000109EC35F000C5D5F55BC586
:1053F00005F5140E096E09EC35F0001E0501D551B6
:105400000014CF6FCFB15FD75A6800011200BE966B
:10541000C00E0501A16F00018AEC17F00501A16B18
:105420000001E4EC25F0A0C55DF5BE861200120E69
:1054300006014C6F0001C4EC2EF05E28D8A406D003
:10544000E6DF5DC55EF5200E5E1205D0E0DF5DC5CE
:105450005EF5DF0E5E16120E06014C6F0001C4EC05
:105460002EF05EC54CF6D4EC2EF015D7BF8A1E0E7A
:10547000026E036ADAEC16F0BF9AC80E026E036A77
:10548000DAEC16F0BF8A1E0E026E036ADAEF16F02F
:1054900007C505F508C506F5620E096E010E0A6E10
:1054A0002BEC35F000A0000C0750C20FF66E540E26
:1054B0000820F76E000ED8B0010FF86E0800F55006
:1054C000120061001105138A110613331107138AA4
:1054D000110813641109138A110A13501100138063
:1054E000AAAAAAAA11011392110112921102134041
:1054F000AAAAAAAA11E0132911E1130311E2130BBE
:1055000011E3130311E41301AAAAAAAAAAAAAAAA38
:10551000AAAAAAAA111013041112138011131300BE
:105520001114137F11151300111A1357111B1302B5
:105530001116131011171304111813131119130155
:10554000111C1313111D1300111E130B111F130235
:1055500011BB13011120130011211300112213009C
:105560001123130011241300112513041126130015
:10557000112713001128130011291300AAAAAAAA9F
:105580001150130011511300115213001153130045
:105590001154130011551304115613001157130021
:1055A0001158130011591300115A1300115B130401
:1055B000115C1358115D1302115E130111BC13002D
:1055C00011BD130211BE130011BF130011C013004F
:1055D00011C1130011C2130011C3130011C613002F
:1055E00011C7130411C8135811C9130211CA1300AB
:1055F00011CB130411B713C0AAAAAAAA111213C07F
:10560000AAAAAAAA118413131185130A11871300D9
:10561000118C1364118D1300118E1346118F13001A
:105620001186133007C505F508C506F5010E096E8C
:105630000A6A2BEC35F000A0000C0750540FF66EF0
:10564000560E0820F76E000ED8B0010FF86E080055
:10565000F5501200010007C505F508C506F5A20EB4
:10566000096E010E0A6E2BEC35F000A0000C0750FD
:10567000880FF66E560E0820F76E000ED8B0010F98
:10568000F86E0800F5501200A1001105138A1106EA
:1056900013211107138A110813641109138A110ABF
:1056A000135011001380AAAAAAAA11011392110182
:1056B000129211021340AAAAAAAA11E0132911E119
:1056C000130311E2130B11E3130311E41301AAAA4C
:1056D000AAAAAAAAAAAAAAAAAAAA111013051112CA
:1056E0001300111313C01114136311151300111AB1
:1056F00013DF111B130111161304111713061118D0
:10570000131911191300111C1316111D1300111E6A
:105710001315111F130011BB1301112013001121C8
:10572000130011221300112313001124132011253B
:105730001303112613001127130011281300112938
:105740001300AAAAAAAA1150130011511300115252
:105750001300115313001154132011551303115644
:105760001300115713001158130011591300115A47
:105770001320115B1303115C13E0115D1301115E23
:10578000130111BC130011BD130211BE130011BF90
:10579000130011C0130011C1130011C2130011C373
:1057A000130011C6132011C7130311C813E011C948
:1057B000130111CA132011CB130311B713C0AAAAE6
:1057C000AAAA11121340AAAAAAAA11841313118516
:1057D000130A11871300118C1364118D13001188A3
:1057E000136411891300118E1332118F1300118A63
:1057F0001332118B130011861333AAAAAAAA1168B7
:10580000130011691300116A1300116B1300116C5E
:10581000131FAAAAAAAA116D1303116E13DFAAAA55
:10582000AAAA116F1301AAAAAAAA07C505F508C555
:1058300006F5010E096E0A6A2BEC35F000A0000C8B
:1058400007505A0FF66E580E0820F76E000ED8B0AB
:10585000010FF86E0800F550120001003A6A0501C8
:105860006A6B6B6B6AC507F56BC508F5000110DE46
:10587000416E6AC507F56BC508F5D4DE426E0501B9
:105880006A2BD8B46B2B010E026E036A0001DAECAE
:1058900016F06AC507F56BC508F5FADD396E050126
:1058A0006A2BD8B46B2B110E395CD8A419D0320EE8
:1058B000026E036A0001DAEC16F06AC507F56BC5E3
:1058C00008F5E6DD396E39C53AF505016A2BD8B41D
:1058D0006B2B39C54CF6000157DA39C53CF569D058
:1058E000120E395CD8A436D06AC507F56BC508F529
:1058F0000001CEDD396E05016A2BD8B46B2B010E89
:10590000026E036A0001DAEC16F081DD5DC505F573
:1059100039C509F509EC35F0001E00C5D5F564C59B
:1059200005F565C506F5F40E096E010E0A6E2BEC41
:1059300035F00501D5510014CF6FCFA10AD0642BEB
:10594000D8B4652B010E026E036A0001DAEC16F082
:10595000DCD72FD0130E395CD8A414D06AC507F554
:105960006BC508F5000194DD396E39C53AF50501BE
:10597000646B656B6A2BD8B46B2B39C54CF6000190
:1059800013DA17D0AA0E395CD8A413D06AC507F56C
:105990006BC508F500017CDD396E05016A2BD8B4B2
:1059A0006B2B39503A5CD8B404D00001E8D939C522
:1059B0003AF56AC509F56BC50AF541C505F542C555
:1059C00006F500012BEC35F000B001D05CD71200D9
:1059D000B5C5E9F4B6C5EAF4EFC445F5466A45C570
:1059E00005F546C506F5096A0A6A0EEC35F000B001
:1059F0001200630E06014C6F0001C6D92EC64CF68C
:105A0000D3D9640E06014C6F0001BED92FC64CF6E7
:105A1000CBD941DC650E06014C6F0001B5D93CC6FF
:105A20004CF6C2D9660E06014C6F0001ADD93DC6D9
:105A30004CF6BAD930DCCC0E06014C6F0001A4D96B
:105A4000E6DC5DC5DCF50501DC9FDC9DDCC54CF6C4
:105A50000001AAD920DC66C54DF667C54EF668C5BB
:105A60004FF669C550F6D20E06014C6F00018CD975
:105A70004EC64CF699D9D89006014D374E374F3760
:105A800050374D374E374F3750374D374E374F37EA
:105A90005037D40E4C6F000177D94DC64CF684D9DF
:105AA000D89006014D374E374F3750374D374E3768
:105AB0004F375037D30E4C6F000166D94EC64CF6A7
:105AC00073D9030E06014C6F00015ED9A0DC5DC5E1
:105AD000DCF50501DC85DC93DC91DCC54CF60001CE
