:020000040000FA
:0400000006EF00F017
:020008001000E6
:10000C00DCEC20F0CDEC20F0F8EC20F0AAEC1FF0AA
:10001C00D5EC20F0ABEC1FF0010E476E010E276EF5
:10002C0069EC1FF019EEC7F0A20EF66E640EF76EB7
:10003C00000EF86E3EEC32F0C70E0501A96F240ECF
:10004C00AA6F010E276E00017DEC1FF0A1EC1BF0D6
:10005C0019EE03F0066AAE0EF66E640EF76E000E25
:10006C00F86E44EC32F008EEAFF314EC31F009EE1C
:10007C0003F006C5EFF4ABEC1BF019EE03F0066AC7
:10008C0009EE03F014EC31F0B60EF66E640EF76E5A
:10009C00000EF86E44EC32F008EEC6F314EC31F0BE
:1000AC0009EE03F006C5EFF4C4EC2CF0010E0501CB
:1000BC008C6F8D6B34C5BEF535C5BFF50001EFEC0B
:1000CC002FF018EEB5F3066A09EE2CF014EC31F0B3
:1000DC00BA0EF66E640EF76E000EF86E44EC32F04B
:1000EC0008EEB5F306C5EFF432C5BEF533C5BFF562
:1000FC00EFEC2FF018EEB5F3066A08EEB5F314EC3E
:10010C0031F009EE2CF014EC31F008EEB5F306C525
:10011C00EFF4100E0501FC6F010E0601106F010EBD
:10012C00116F010E0501FB6F010EFA6F000171ECEE
:10013C0028F00601046B056B126B136B19EEC7F0FC
:10014C00BC0EF66E640EF76E000EF86E00013EECFF
:10015C0032F0C70E05019B6F240E9C6F5E685F68C2
:10016C00606B616B000119EC27F00601046B056BE9
:10017C00100E126F136BB50E05019B6F230E9C6F47
:10018C00E00E5E6E5F68606B616B000119EC27F02E
:10019C00200E0501FC6F040E0601106F040E116F8A
:1001AC00010E0501FB6F010EFA6F000171EC28F0D6
:1001BC00C80E0601046F056BC80E126F136B19EE97
:1001CC00C7F0CA0EF66E640EF76E000EF86E0001E4
:1001DC003EEC32F0C70E05019B6F240E9C6F5E68DF
:1001EC005F68606B616B000119EC27F0100E050164
:1001FC00FC6F010E0601106F010E116F010E05014F
:10020C00FB6F010EFA6F000171EC28F0C80E0601AD
:10021C00046F056B540E126F010E136F19EEC7F0BD
:10022C00D20EF66E640EF76E000EF86E00013EEC08
:10023C0032F0C70E05019B6F240E9C6F5E685F68E1
:10024C00606B616B000119EC27F0C80E0601046F9E
:10025C00056B680E126F010E136F19EEC7F0680E66
:10026C00F66E680EF76E000EF86E00013EEC32F082
:10027C00C70E05019B6F240E9C6F5E685F68606BF8
:10028C00616B000119EC27F0C80E0601046F056BB9
:10029C007C0E126F010E136FE50E0501BE6F3E0E44
:1002AC00BF6F0001EFEC2FF019EEC7F0066AE00EFD
:1002BC00F66E640EF76E000EF86E44EC32F009EE3A
:1002CC002CF014EC31F009EEC7F006C5EFF4C70EB4
:1002DC0005019B6F240E9C6F5E685F68606B616BA1
:1002EC00000119EC27F08CC505F58DC506F5096ADA
:1002FC000A6AA5EC30F000A022D0780E0501796FC7
:10030C00020E7A6F7B6B7C6B19EEC7F0EC0EF66EFF
:10031C00640EF76E000EF86E00013EEC32F0C70E64
:10032C0005019B6F240E9C6FE00E506E516800010E
:10033C0099EC1EF0010E046ECDEC10F004D0010E01
:10034C00046ECDEC10F027EC1DF02B6A2C6A8CC5DA
:10035C0005F58DC506F50F0E096E0A6AC2EC30F074
:10036C0000A087D18CEC2AF07DC56CF505016D6B76
:10037C006A6B6B6B6869696B766B776B010E345CBF
:10038C00746F000E3558756F666B676B000171ECFE
:10039C002CF088C5D7F589C5D8F58CEC2AF07DC52D
:1003AC006CF505016D6B6A6B6B6B6869696B766BD1
:1003BC00776B010E345CB76F000E3558B86FD751A0
:1003CC00B75D746FD851B859756F666B676B000168
:1003DC0071EC2CF088C5D9F589C5DAF50501D95130
:1003EC00D725D96FDA51D821DA6F00018CEC2AF0BD
:1003FC007DC56CF505016D6B6A6B6B6B6869696B20
:10040C00766B776B010E325C746F000E3358756F20
:10041C00666B676B000171EC2CF088C5ECF589C537
:10042C00EDF58CEC2AF07DC56CF505016D6B6A6BF6
:10043C006B6B6869696B766B776B010E325CB76FAF
:10044C00000E3358B86FEC51B75D746FED51B8595D
:10045C00756F666B676B000171EC2CF088C5EEF55F
:10046C0089C5EFF50501EE51EC25EE6FEF51ED214D
:10047C00EF6F00018CEC2AF07DC56CF505016D6BFE
:10048C006A6B6B6B6869696B766B776B010E345CAE
:10049C00746F000E3558756F666B676B000171ECED
:1004AC002CF088C5DBF589C5DCF58CEC2AF07DC514
:1004BC006CF505016D6B6A6B6B6B6869696B766BC0
:1004CC00776B010E345CB76F000E3558B86FDB518B
:1004DC00B75D746FDC51B859756F666B676B000153
:1004EC0071EC2CF088C5DDF589C5DEF50501DD5113
:1004FC00DB25DD6FDE51DC21DE6F00018CEC2AF098
:10050C007DC56CF505016D6B6A6B6B6B6869696B0E
:10051C00766B776B010E325C746F000E3358756F0F
:10052C00666B676B000171EC2CF088C5F2F589C520
:10053C00F3F58CEC2AF07DC56CF505016D6B6A6BDF
:10054C006B6B6869696B766B776B010E325CB76F9E
:10055C00000E3358B86FF251B75D746FF351B85940
:10056C00756F666B676B000171EC2CF088C5F4F548
:10057C0089C5F5F50501F451F225F46FF551F32118
:10058C00F56F00018CEC2AF07DC56CF505016D6BE7
:10059C006A6B6B6B6869696B766B776B010E325C9F
:1005AC00746F000E3358756F666B676B000171ECDE
:1005BC002CF088C5F8F589C5F9F58CEC2AF07DC5C9
:1005CC006CF505016D6B6A6B6B6B6869696B766BAF
:1005DC00776B010E325CB76F000E3358B86FF85161
:1005EC00B75D746FF951B859756F666B676B000125
:1005FC0071EC2CF088C5F6F589C5F7F50501F651B7
:10060C00EC25F66FF751ED21F76F00018CEC2AF019
:10061C007DC56CF505016D6B6A6B6B6B6869696BFD
:10062C00010E766F776B140E746F756B666B676B60
:10063C00000171EC2CF088C584F589C585F58CEC2E
:10064C002AF07DC56CF505016D6B6A6B6B6B686987
:10065C00696B010E766F776B140E746F756B666B2E
:10066C00676B000171EC2CF088C586F589C587F5A0
:10067C006CD08CEC2AF07DC56CF505016D6B6A6B4A
:10068C006B6B6869696B010E766F776B640E746FB8
:10069C00756B666B676B000171EC2CF088C584F58B
:1006AC0089C585F58CEC2AF07DC56CF505016D6B63
:1006BC006A6B6B6B6869696B010E766F776B640E96
:1006CC00746F756B666B676B000171EC2CF088C5F1
:1006DC0086F589C587F58CEC2AF07DC56CF505018E
:1006EC006D6B6A6B6B6B6869696B84C576F585C5D8
:1006FC0077F58451345C746F85513558756F666B22
:10070C00676B000171EC2CF088C5D7F589C5D8F55D
:10071C008CEC2AF07DC56CF505016D6B6A6B6B6B0F
:10072C006869696B86C576F587C577F58651325C45
:10073C00746F87513358756F666B676B000171EC82
:10074C002CF088C5ECF589C5EDF58CEC2AF07DC54F
:10075C006CF505016D6B6A6B6B6B6869696B766B1D
:10076C00776B74697569666B676B000171EC2CF0C3
:10077C0088C525F589C526F58CC505F58DC506F505
:10078C00096A0A6AA5EC30F000A00DD0566896EC08
:10079C0024F0050E046ECDEC10F005018C2BD8B4B2
:1007AC008D2BD6EF0DF08CC505F58DC506F5010E1C
:1007BC00096E0A6AA5EC30F000A00CD0566A96ECD3
:1007CC0024F005018C2BD8B48D2B000127EC1DF0E7
:1007DC00D6EF0DF08CC505F58DC506F5020E096E2C
:1007EC000A6AA5EC30F000A039D02D28D8A41ED070
:1007FC000601046B056B126B136B19EEC7F0FA0E46
:10080C00F66E640EF76E000EF86E00013EEC32F0E0
:10081C00C70E05019B6F240E9C6F5E685F68606B52
:10082C00616B000119EC27F02D6A16D0D7C5CBF5FA
:10083C00D8C5CCF5ECC5E0F5EDC5E1F584C548F5BA
:10084C0085C549F525C55EF526C55FF50501606BC7
:10085C00616B0001FEEC0EF0D6EF0DF08CC505F5CA
:10086C008DC506F5030E096E0A6AA5EC30F000A0E2
:10087C0018D0D7C5CBF5D8C5CCF5ECC5E0F5EDC592
:10088C00E1F584C548F585C549F525C55EF526C550
:10089C005FF50501606B616B000109EC12F0D6EF9E
:1008AC000DF08CC505F58DC506F5040E096E0A6AAA
:1008BC00A5EC30F000A01CD0D7C5CBF5D8C5CCF535
:1008CC00ECC5E0F5EDC5E1F5D9C5CDF5DAC5CEF54C
:1008DC00EEC5E2F5EFC5E3F525C55EF526C55FF57A
:1008EC000501606B616B000137EC22F0D6EF0DF067
:1008FC008CC505F58DC506F5050E096E0A6AA5ECC5
:10090C0030F000A01CD0D7C5CBF5D8C5CCF5ECC5C4
:10091C00E0F5EDC5E1F5D9C5CDF5DAC5CEF5EEC5F9
:10092C00E2F5EFC5E3F525C55EF526C55FF50501D6
:10093C00606B616B000126EC0EF0D6EF0DF08CC5F0
:10094C0005F58DC506F5060E096E0A6AA5EC30F0A4
:10095C0000A01CD0D7C5CBF5D8C5CCF5ECC5E0F5BF
:10096C00EDC5E1F5D9C5CDF5DAC5CEF5EEC5E2F5A7
:10097C00EFC5E3F525C55EF526C55FF50501606B92
:10098C00616B00016FEC11F0D6EF0DF08CC505F525
:10099C008DC506F5070E096E0A6AA5EC30F000A0AD
:1009AC0030D0D7C5CBF5D8C5CCF5ECC5E0F5EDC549
:1009BC00E1F58CEC2AF07DC505F5066A020E096E90
:1009CC000A6A1FEC31F005C548F506C549F58CECF3
:1009DC002AF07DC505F5066A020E096E0A6A1FEC3F
:1009EC0031F005C54AF506C54BF525C55EF526C59E
:1009FC005FF50501606B616B0001D5EC10F0D6EF73
:100A0C000DF08CC505F58DC506F5080E096E0A6A44
:100A1C00A5EC30F000A030D0D7C5CBF5D8C5CCF5BF
:100A2C00ECC5E0F5EDC5E1F58CEC2AF07DC505F5DE
:100A3C00066A020E096E0A6A1FEC31F005C548F50C
:100A4C0006C549F58CEC2AF07DC505F5066A020E43
:100A5C00096E0A6A1FEC31F005C54AF506C54BF55F
:100A6C0025C55EF526C55FF50501606B616B000160
:100A7C009DEC13F0D6EF0DF08CC505F58DC506F584
:100A8C00090E096E0A6AA5EC30F000A024D0D7C577
:100A9C00CBF5D8C5CCF5ECC5E0F5EDC5E1F5D9C580
:100AAC00CDF5DAC5CEF5EEC5E2F5EFC5E3F584C5B7
:100ABC0048F585C549F584C54AF585C54BF525C569
:100ACC005EF526C55FF50501606B616B0001CFEC2F
:100ADC002BF0D6EF0DF08CC505F58DC506F50A0E7D
:100AEC00096E0A6AA5EC30F000A024D0D7C5CBF56E
:100AFC00D8C5CCF5ECC5E0F5EDC5E1F5D9C5CDF51E
:100B0C00DAC5CEF5EEC5E2F5EFC5E3F584C548F5DB
:100B1C0085C549F584C54AF585C54BF525C55EF5F2
:100B2C0026C55FF50501606B616B00019BEC18F04D
:100B3C00D6EF0DF08CC505F58DC506F50B0E096EBF
:100B4C000A6AA5EC30F000A045D02D28D8A41ED000
:100B5C000601046B056B126B136B19EEC7F0020EDA
:100B6C00F66E650EF76E000EF86E00013EEC32F07C
:100B7C00C70E05019B6F240E9C6F5E685F68606BEF
:100B8C00616B000119EC27F02D6A22D0D7C5CBF58B
:100B9C00D8C5CCF5ECC5E0F5EDC5E1F5D9C5CDF57D
:100BAC00DAC5CEF5EEC5E2F5EFC5E3F5F8C5CFF540
:100BBC00F9C5D0F5F6C5E4F5F7C5E5F525C55EF53F
:100BCC0026C55FF50501606B616B000139EC34F0F3
:100BDC00D6EF0DF08CC505F58DC506F50C0E096E1E
:100BEC000A6AA5EC30F000A045D02D28D8A41ED060
:100BFC000601046B056B126B136B19EEC7F00C0E30
:100C0C00F66E650EF76E000EF86E00013EEC32F0DB
:100C1C00C70E05019B6F240E9C6F5E685F68606B4E
:100C2C00616B000119EC27F02D6A22D0D7C5CBF5EA
:100C3C00D8C5CCF5ECC5E0F5EDC5E1F5D9C5CDF5DC
:100C4C00DAC5CEF5EEC5E2F5EFC5E3F5F8C5CFF59F
:100C5C00F9C5D0F5F6C5E4F5F7C5E5F525C55EF59E
:100C6C0026C55FF50501606B616B00015DEC19F049
:100C7C00D6EF0DF08CC505F58DC506F50D0E096E7C
:100C8C000A6AA5EC30F000A063D02D28D8A41ED0A1
:100C9C000601046B056B126B136B19EEC7F01C0E7F
:100CAC00F66E650EF76E000EF86E00013EEC32F03B
:100CBC00C70E05019B6F240E9C6F5E685F68606BAE
:100CCC00616B000119EC27F02D6A40D0D7C5CBF52C
:100CDC00D8C5CCF5ECC5E0F5EDC5E1F5D9C5CDF53C
:100CEC00DAC5CEF5EEC5E2F5EFC5E3F525C55EF543
:100CFC0026C55FF50501606B616B00016FEC11F0AF
:100D0C000501DF69DF2BDFC56CF56D6B6A6B6B6BF7
:100D1C006869696B010E766F776BC80E746F756BB3
:100D2C00666B676B000171EC2CF088C557F504EC11
:100D3C0028F0190E026E036ABFEC10F0FF0E0501CD
:100D4C00DF5DD8A0DFD7500E2B6E2C6AD6EF0DF0DE
:100D5C008CC505F58DC506F50E0E096E0A6AA5EC57
:100D6C0030F000A04CD12D28D8A41ED00601046B65
:100D7C00056B126B136B19EEC7F0280EF66E650E31
:100D8C00F76E000EF86E00013EEC32F0C70E050156
:100D9C009B6F240E9C6F5E685F68606B616B0001DB
:100DAC0019EC27F02D6A29D1040E0501AC6FEC6B00
:100DBC00ED6B050E956F966BC80E0601046F056BF7
:100DCC002C0E126F010E136F320E0501FD6FFE6BB0
:100DDC00050EFF6F0601006B960E1E6F1F6B2EC566
:100DEC005EF52FC55FF50501606B616B2EC558F57F
:100DFC002FC559F55A6A5B6A000198EC0FF0C80EC2
:100E0C000601046F056B2C0E126F010E136F320E60
:100E1C000501FD6FFE6B050EFF6F0601006BECC547
:100E2C001EF6EDC51FF65E6AF80E5F6E0501606B6F
:100E3C00616B1F0E586E596A5A6A5B6A000198EC16
:100E4C000FF0190E026E036ABFEC10F0050196AF9D
:100E5C0022D0951D8F6F961D906F8F2BD8B4902B31
:100E6C00960EEC5DB76F000EED59B86FB7C505F572
:100E7C00B8C506F58FC509F590C50AF50001C2EC99
:100E8C0030F0001E00A006D005019551EC279651BC
:100E9C00ED238FD71BD0EC519608B76FBB6BED5180
:100EAC00BB59B86FB7C505F5B8C506F595C509F5B5
:100EBC0096C50AF50001C2EC30F0001E00A006D069
:100ECC0005019551EC279651ED2373D7950E05012D
:100EDC00EC6FED6BFB0E976F9869C80E0601046FF3
:100EEC00056B2C0E126F010E136F320E0501FD6F88
:100EFC00FE6B050EFF6F0601006B960E1E6F1F6BCF
:100F0C002EC55EF52FC55FF50501606B616B2EC5B7
:100F1C0058F52FC559F55A6A5B6A000198EC0FF029
:100F2C00C80E0601046F056B2C0E126F010E136FA9
:100F3C00320E0501FD6FFE6B050EFF6F0601006B97
:100F4C00ECC51EF6EDC51FF65E6AF80E5F6E050168
:100F5C00606B616B1F0E586E596A5A6A5B6A0001AE
:100F6C0098EC0FF0190E026E036ABFEC10F005013D
:100F7C0098AF22D0971D916F981D926F912BD8B47A
:100F8C00922B000EEC5DB76F000EED59B86FB7C524
:100F9C0005F5B8C506F591C509F592C50AF5000128
:100FAC00C2EC30F0001E00A006D005019751EC27D2
:100FBC009851ED238FD71BD0EC510008B76FBB6B4A
:100FCC00ED51BB59B86FB7C505F5B8C506F597C552
:100FDC0009F598C50AF50001C2EC30F0001E00A01E
:100FEC0006D005019751EC279851ED2373D70501D5
:100FFC00AC2FDDD6500E2B6E2C6AD6EF0DF08CC5B7
:10100C0005F58DC506F50F0E096E0A6AA5EC30F0D4
:10101C0000A01CD0D7C5CBF5D8C5CCF5ECC5E0F5F8
:10102C00EDC5E1F584C548F585C549F586C54AF594
:10103C0087C54BF525C55EF526C55FF50501606BCB
:10104C00616B00019EEC21F0D6EF0DF08CC505F51F
:10105C008DC506F5100E096E0A6AA5EC30F000A0DD
:10106C001CD0D7C5CBF5D8C5CCF5ECC5E0F5EDC596
:10107C00E1F584C548F585C549F586C54AF587C5AA
:10108C004BF525C55EF526C55FF50501606B616BFB
:10109C00000105EC21F0D6EF0DF08CC505F58DC5E2
:1010AC0006F5110E096E0A6AA5EC30F000A01CD0F2
:1010BC00D7C5CBF5D8C5CCF5ECC5E0F5EDC5E1F55C
:1010CC0084C548F585C549F586C54AF587C54BF5F0
:1010DC0025C55EF526C55FF50501606B616B0001EA
:1010EC004DEC2BF0D6EF0DF08CC505F58DC506F546
:1010FC00120E096E0A6AA5EC30F000A01CD0D7C500
:10110C00CBF5D8C5CCF5ECC5E0F5EDC5E1F584C55E
:10111C0048F585C549F586C54AF587C54BF525C5FE
:10112C005EF526C55FF50501606B616B0001CBECCC
:10113C002AF0D6EF0DF08CC505F58DC506F5130E0E
:10114C00096E0A6AA5EC30F000A01CD0D7C5CBF50F
:10115C00D8C5CCF5ECC5E0F5EDC5E1F584C548F591
:10116C0085C549F586C54AF587C54BF525C55EF598
:10117C0026C55FF50501606B616B0001D1EC14F0C5
:10118C00D6EF0DF08CC505F58DC506F5140E096E60
:10119C000A6AA5EC30F000A01CD0D7C5CBF5D8C599
:1011AC00CCF5ECC5E0F5EDC5E1F584C548F585C594
:1011BC0049F586C54AF587C54BF525C55EF526C5A7
:1011CC005FF50501606B616B000137EC14F0D6EF35
:1011DC000DF08CC505F58DC506F5150E096E0A6A60
:1011EC00A5EC30F000A01CD0D7C5CBF5D8C5CCF5FC
:1011FC00ECC5E0F5EDC5E1F584C548F585C549F5C7
:10120C0086C54AF587C54BF525C55EF526C55FF540
:10121C000501606B616B000101EC18F0D6EF0DF06D
:10122C008CC505F58DC506F5160E096E0A6AA5EC7A
:10123C0030F000A01CD0D7C5CBF5D8C5CCF5ECC58B
:10124C00E0F5EDC5E1F584C548F585C549F586C5DC
:10125C004AF587C54BF525C55EF526C55FF5050135
:10126C00606B616B000167EC17F0D6EF0DF08CC56D
:10127C0005F58DC506F5170E096E0A6AA5EC30F05A
:10128C0000A04BD02D28D8A41DD00601046B056BF3
:10129C00126B136B19EEC7F0360EF66E650EF76E09
:1012AC00000EF86E00013EEC32F0C70E05019B6F8C
:1012BC00240E9C6F5E685F68606B616B000119ECBB
:1012CC0027F02D6A320E0501CB6FCC6B320EE06F1E
:1012DC00E16BC80ECD6FCE6B500EE26FE36B960ECA
:1012EC00CF6FD06B820EE46FE56B3C0ED16FD26B7F
:1012FC00640EE66FE76B25C55EF526C55FF5606B82
:10130C00616B0001CAEC29F0050E046ECDEC10F0F7
:10131C00500E2B6E2C6AD6EF0DF08CC505F58DC5D5
:10132C0006F5180E096E0A6AA5EC30F000A04BD039
:10133C002D28D8A41DD00601046B056B126B136B02
:10134C0019EEC7F0480EF66E650EF76E000EF86ECD
:10135C0000013EEC32F0C70E05019B6F240E9C6F12
:10136C005E685F68606B616B000119EC27F02D6A99
:10137C00960E0501CB6FCC6B320EE06FE16B2C0E31
:10138C00CD6F010ECE6F500EE26FE36BFA0ECF6F86
:10139C00D06B820EE46FE56BA00ED16FD26B640E36
:1013AC00E66FE76B25C55EF526C55FF5606B616B77
:1013BC0000017DEC16F0020E046ECDEC10F0500E18
:1013CC002B6E2C6AEDD38CC505F58DC506F5190E63
:1013DC00096E0A6AA5EC30F000A058D12D28D8A4CB
:1013EC001BD1160E0501CB6FCC6B350EE06FE16B8C
:1013FC004B0ECD6FCE6B5C0EE26FE36B2B0ECF6F93
:10140C00D06B600EE46FE56B1F0E5E6E5F6A606BF7
:10141C00616B00015DEC19F05D0E0501CB6FCC6BBF
:10142C00630EE06FE16BAA0ECD6FCE6B420EE26FD6
:10143C00E36B0B0ECF6F010ED06FDB0EE46FE56B21
:10144C00EF0E5E6E7B0E5F6E606B616B00015DEC90
:10145C0019F05E0E0501CB6FCC6B6F0EE06FE16B7C
:10146C00E70ECD6FCE6BCE0EE26FE36B9F0ECF6FA0
:10147C00D06B4A0EE46F010EE56FEF0E5E6E7B0EC5
:10148C005F6E606B616B00015DEC19F0C40E0501C1
:10149C00CB6FCC6B5B0EE06FE16B6D0ECD6F010E05
:1014AC00CE6F6A0EE26FE36B5A0ECF6F010ED06FE8
:1014BC00480EE46F010EE56F1F0E5E6E5F6A606B87
:1014CC00616B00015DEC19F0700E0501CB6F010E24
:1014DC00CC6F7F0EE06FE16B750ECD6F010ECE6F92
:1014EC00BB0EE26FE36B8D0ECF6F010ED06FD30E80
:1014FC00E46FE56BEF0E5E6E7B0E5F6E606B616B87
:10150C0000015DEC19F02E0E0501CB6FCC6B660E55
:10151C00E06FE16B4F0ECD6FCE6B650EE26FE36B40
:10152C006B0ECF6FD06BBA0EE46FE56B0C0ED16FF8
:10153C00D26BBA0EE66FE76B020ED36FD46B9B0EB9
:10154C00E86FE96B1F0E5E6E5F6A606B616B00018A
:10155C006BEC15F0200E0501FC6F040E0601106FEC
:10156C00040E116F010E0501FB6F010EFA6F0001E5
:10157C0071EC28F02C0E0601046F010E056F5E0E47
:10158C00126F010E136F19EEC7F0CA0EF66E640ED1
:10159C00F76E000EF86E00013EEC32F0C70E05013E
:1015AC009B6F240E9C6F5E685F68606B616B0001C3
:1015BC0019EC27F0100E0501FC6F010E0601106FDF
:1015CC00010E116F010E0501FB6F010EFA6F000188
:1015DC0071EC28F0B20E0601046F020E056FD60EE8
:1015EC00126F010E136F19EEC7F0600EF66E650EDA
:1015FC00F76E000EF86E00013EEC32F0C70E0501DE
:10160C009B6F240E9C6F5E685F68606B616B000162
:10161C0019EC27F02D6A39D00A0E0601046F056B00
:10162C00C20E126F010E136F8CC54CF58DC54DF5A6
:10163C004E6A4F6A3AC55EF53BC55FF50501606BB6
:10164C00616B0001F7EC27F00A0E0601046F056BC5
:10165C00CE0E126F010E136F2BC54CF52CC54DF52C
:10166C004E6A4F6A3AC55EF53BC55FF50501606B86
:10167C00616B0001F7EC27F00A0E2B26000E2C22D2
:10168C00190E026E036ABFEC10F08AD28CC505F5F8
:10169C008DC506F51A0E096E0A6AA5EC30F000A08D
:1016AC00A4D10601046B056B640E126F136B010E53
:1016BC00345C066F000E3558076F640E146F156B93
:1016CC00026B036B5E685F680501606B616B000108
:1016DC00D0EC22F00601046B056B960E126F136BA7
:1016EC00010E345C066F000E3558076F960E146FA2
:1016FC00156B010E026F036B5E685F680501606B12
:10170C00616B0001D0EC22F00601046B056BC80E76
:10171C00126F136B010E345C066F000E3558076F99
:10172C00C80E146F156B020E026F036B5E685F6858
:10173C000501606B616B0001D0EC22F00601046BBB
:10174C00056BFA0E126F136B010E345C066F000EF4
:10175C003558076FFA0E146F156B040E026F036B7E
:10176C005E685F680501606B616B0001D0EC22F074
:10177C000601046B056B2C0E126F010E136F010E1C
:10178C00345C066F000E3558076F2C0E146F010E6B
:10179C00156F050E026F036B5E685F680501606B69
:1017AC00616B0001D0EC22F00601046B056B126B2F
:1017BC00136B010E345C066F000E3558076F640E08
:1017CC00146F156B026B036B5E685F680501606BD1
:1017DC00616B0001D0EC22F00601046B056B126BFF
:1017EC00136B010E345C066F000E3558076F960EA6
:1017FC00146F156B010E026F036B5E685F68050159
:10180C00606B616B0001D0EC22F00601046B056B80
:10181C00126B136B010E345C066F000E3558076F9C
:10182C00C80E146F156B020E026F036B5E685F6857
:10183C000501606B616B0001D0EC22F00601046BBA
:10184C00056B126B136B010E345C066F000E355872
:10185C00076FFA0E146F156B040E026F036B5E6844
:10186C005F680501606B616B0001D0EC22F0060132
:10187C00046B056B126B136B010E345C066F000E60
:10188C003558076F2C0E146F010E156F050E026F75
:10189C00036B5E685F680501606B616B0001D0ECE7
:1018AC0022F0010E345C0601046F000E3558056FF2
:1018BC00126B136B066B076B640E146F156B026B5C
:1018CC00036B5E685F680501606B616B0001D0ECB7
:1018DC0022F0010E345C0601046F000E3558056FC2
:1018EC00126B136B066B076B960E146F156B010E58
:1018FC00026F036B5E685F680501606B616B0001D2
:10190C00D0EC22F0010E345C0601046F000E355849
:10191C00056F126B136B066B076BC80E146F156B90
:10192C00020E026F036B5E685F680501606B616B92
:10193C000001D0EC22F0010E345C0601046F000EA5
:10194C003558056F126B136B066B076BFA0E146F21
:10195C00156B040E026F036B5E685F680501606BAC
:10196C00616B0001D0EC22F0010E345C0601046FB7
:10197C00000E3558056F126B136B066B076B2C0E34
:10198C00146F010E156F050E026F036B5E685F68B6
:10199C000501606B616B0001D0EC22F00601046B59
:1019AC00056B900E126F010E136F010E345C066FF7
:1019BC00000E3558076F900E146F010E156F500EF8
:1019CC00026F036B1F0E5E6E5F6A0501606B616BCD
:1019DC000001D0EC22F02D28D8A406D00A0E046EFB
:1019EC00D6DB500E2B6E2C6ADBD08CC505F58DC565
:1019FC0006F51B0E096E0A6AA5EC30F000A0D0D0DB
:101A0C00D7C5CBF5D8C5CCF5ECC5E0F5EDC5E1F502
:101A1C0084C5FDF585C5FEF584C505F585C506F5BA
:101A2C00140E096E0A6A1FEC31F005C502F606C5E4
:101A3C0003F65E685F680501606B616B25C558F540
:101A4C0026C559F55A6A5B6A00018DEC1AF0C80E6E
:101A5C000601046F056B3C0E126F136B900E066F34
:101A6C00010E076F960E146F156B050E026F036B4C
:101A7C005E6AF80E5F6E0501606B616B58685968A1
:101A8C005A6A5B6A00011FEC1AF0260E0601046FFD
:101A9C00020E056F3C0E126F136BF40E066F010EE7
:101AAC00076F5E0E146F010E156F1E0E486E496A9D
:101ABC00140E4A6E4B6A050E026F036B5E6AF80ECB
:101ACC005F6E0501606B616B586859685A6A5B6A96
:101ADC000001D1EC1AF0640E0601046F056B640E64
:101AEC00126F136B320E066F076BC80E146F156BEB
:101AFC00960E086F096B960E166F176B5E6AF80ED2
:101B0C005F6E0501606B616B586859685A6A5B6A55
:101B1C0000013DEC1BF02C0E0601046F010E056F4D
:101B2C002C0E126F010E136F5E0E066F010E076FF7
:101B3C00FA0E146F156B900E086F010E096FFA0EEA
:101B4C00166F176B5E0E0A6F010E0B6F2C0E186F53
:101B5C00010E196F5E0E0C6F010E0D6F5E0E1A6F7B
:101B6C00010E1B6F900E0E6F010E0F6F2C0E1C6F63
:101B7C00010E1D6F5E6AF80E5F6E0501606B616B86
:101B8C00586859685A6A5B6A0001A3EC12F02D2858
:101B9C00D8A406D00A0E046EFADA500E2B6E2C6AFC
:101BAC002BC505F52CC506F5500E096E0A6A000109
:101BBC00C2EC30F0001E00A027D02E6A2F6A306ACB
:101BCC00316A27EC1DF02D68FA0E026E036AD1DA29
:101BDC002B6A2C6A18C380F50501816B0001B5ECEA
:101BEC002AF005018C2BD8B48D2B8CC505F58DC531
:101BFC0006F51E0E096E0A6A0001A5EC30F000A075
:101C0C0003D005018C6B8D6B2B2AD8B42C2A0A0EB1
:101C1C00026E036A0001ADDAADEF01F000D00300F3
:101C2C00FED706AE08D0051C0E6E061C0F6E0E2AD3
:101C3C00D8B40F2A04D005C50EF506C50FF5120051
:101C4C00680E0601226F000133EC29F0CBC522F699
:101C5C0078EC29F0690E0601226F000133EC29F0B3
:101C6C00CCC522F678EC29F06A0E0601226F000131
:101C7C0033EC29F0E0C522F678EC29F06B0E060166
:101C8C00226F000133EC29F0E1C522F678EC29F043
:101C9C006C0E0601226F000133EC29F0CDC522F643
:101CAC0078EC29F06D0E0601226F000133EC29F05F
:101CBC00CEC522F678EC29F06E0E0601226F0001DB
:101CCC0033EC29F0E2C522F678EC29F06F0E060110
:101CDC00226F000133EC29F0E3C522F678EC29F0F1
:101CEC005EC523F65FC524F660C525F661C526F6EC
:101CFC00D20E0601226F000133EC29F024C622F625
:101D0C0078EC29F0D890060123372437253726376D
:101D1C0023372437253726372337243725372637DB
:101D2C00D40E226F000133EC29F023C622F678EC96
:101D3C0029F0D89006012337243725372637233747
:101D4C00243725372637D30E226F000133EC29F0C8
:101D5C0024C622F678EC29F0760E0601226F0001DB
:101D6C0033EC29F0A00E0601226F000178EC29F06B
:101D7C0090EF23F018EEBDF3200EF66E670EF76EA3
:101D8C00000EF86E3EEC32F0080E0501B06F10AE8E
:101D9C0015D018EEBDF3066A08EEBDF3000114EC85
:101DAC0031F0220EF66E670EF76E000EF86E44ECF4
:101DBC0032F008EEBDF306C5EFF414D018EEBDF307
:101DCC00066A08EEBDF3000114EC31F0240EF66E39
:101DDC00670EF76E000EF86E44EC32F008EEBDF3B1
:101DEC0006C5EFF410360501B02FD1D70001120053
:101DFC007B0E0601226F000133EC29F0CBC522F6D5
:101E0C0078EC29F07C0E0601226F000133EC29F0EE
:101E1C00CCC522F678EC29F07D0E0601226F00016C
:101E2C0033EC29F0E0C522F678EC29F07E0E0601A1
:101E3C00226F000133EC29F0E1C522F678EC29F091
:101E4C00770E0601226F000133EC29F048C522F60B
:101E5C0078EC29F0780E0601226F000133EC29F0A2
:101E6C0049C522F678EC29F0790E0601226F0001A3
:101E7C0033EC29F048C522F678EC29F07A0E0601ED
:101E8C00226F000133EC29F049C522F678EC29F0D9
:101E9C005EC523F65FC524F660C525F661C526F63A
:101EAC00D20E0601226F000133EC29F024C622F673
:101EBC0078EC29F0D89006012337243725372637BC
:101ECC00233724372537263723372437253726372A
:101EDC00D40E226F000133EC29F023C622F678ECE5
:101EEC0029F0D89006012337243725372637233796
:101EFC00243725372637D30E226F000133EC29F017
:101F0C0024C622F678EC29F0760E0601226F000129
:101F1C0033EC29F0800E0601226F000178EC29F0D9
:101F2C0090EF23F012C605F513C606F51EC609F58B
:101F3C001FC60AF5C2EC30F000B012005EC515F5F4
:101F4C005FC516F560C517F561C518F558C511F5CF
:101F5C0059C512F55AC513F55BC514F504C6CBF576
:101F6C0005C6CCF512C6E0F513C6E1F5FDC548F57E
:101F7C00FEC549F5FFC54AF500C64BF511C55EF522
:101F8C0012C55FF513C560F514C561F5D0DB04C649
:101F9C00CBF505C6CCF512C6E0F513C6E1F5FDC5CB
:101FAC0048F5FEC549F5FFC54AF500C64BF515C504
:101FBC005EF516C55FF517C560F518C561F5EFD868
:101FCC0048500601045D0501CB6F000E0601055952
:101FDC000501CC6F06011E51125D0501E06F060173
:101FEC001F5113590501E16FFD510601042505012F
:101FFC00CD6FFE51060105210501CE6F12C6E2F52B
:10200C0013C6E3F511C55EF512C55FF513C560F592
:10201C0014C561F500015DD904C6CBF505C6CCF538
:10202C0006011E51125D0501E06F06011F51135987
:10203C000501E16FFDC548F5FEC549F5FFC54AF53B
:10204C0000C64BF511C55EF512C55FF513C560F5FD
:10205C0014C561F500016BDB04C6CBF505C6CCF5E8
:10206C0006011E51125D0501E06F06011F51135947
:10207C000501E16FFDC548F5FEC549F5FFC54AF5FB
:10208C0000C64BF515C55EF516C55FF517C560F5B1
:10209C0018C561F5000183D80501FD510601045DE9
:1020AC000501CB6FFE51060105590501CC6F12C617
:1020BC00E0F513C6E1F5FD510601045D0501CD6F98
:1020CC00FE51060105590501CE6F06011E51125D28
:1020DC000501E26F06011F5113590501E36F15C588
:1020EC005EF516C55FF517C560F518C561F50001FD
:1020FC0037EC22F00501FD51060104250501CB6FDB
:10210C00FE51060105210501CC6F12C6E0F513C680
:10211C00E1F5FD51060104250501CD6FFE510601C7
:10212C0005210501CE6F06011E51125D0501E26FFE
:10213C0006011F5113590501E36F15C55EF516C550
:10214C005FF517C560F518C561F5000137EC22F095
:10215C0015C55EF516C55FF517C560F518C561F5B3
:10216C0011C558F512C559F513C55AF514C55BF5CB
:10217C001200032A810E016E280E006E002EFED76F
:10218C00012EFAD7022EF6D7032EF4D71200E80E42
:10219C00026E030E036EEDDF042EF9D712007B0ED8
:1021AC000601226F000133EC29F0CBC522F678EC46
:1021BC0029F07C0E0601226F000133EC29F0CCC50E
:1021CC0022F678EC29F07D0E0601226F000133EC2B
:1021DC0029F0E0C522F678EC29F07E0E0601226F7C
:1021EC00000133EC29F0E1C522F678EC29F0770EEA
:1021FC000601226F000133EC29F048C522F678EC79
:10220C0029F0780E0601226F000133EC29F049C544
:10221C0022F678EC29F0790E0601226F000133ECDE
:10222C0029F04AC522F678EC29F07A0E0601226FC5
:10223C00000133EC29F04BC522F678EC29F05EC591
:10224C0023F65FC524F660C525F661C526F6D20EC9
:10225C000601226F000133EC29F024C622F678EC3B
:10226C0029F0D89006012337243725372637233712
:10227C002437253726372337243725372637D40EEE
:10228C00226F000133EC29F023C622F678EC29F0FA
:10229C00D8900601233724372537263723372437A0
:1022AC0025372637D30E226F000133EC29F024C6D4
:1022BC0022F678EC29F0760E0601226F000133EC41
:1022CC0029F0800E0601226F000178EC29F090EFC6
:1022DC0023F0680E0601226F000133EC29F0CBC508
:1022EC0022F678EC29F0690E0601226F000133EC1E
:1022FC0029F0CCC522F678EC29F06A0E0601226F83
:10230C00000133EC29F0E0C522F678EC29F06B0ED5
:10231C000601226F000133EC29F0E1C522F678ECBE
:10232C0029F06C0E0601226F000133EC29F0CDC5AB
:10233C0022F678EC29F06D0E0601226F000133ECC9
:10234C0029F0CEC522F678EC29F06E0E0601226F2C
:10235C00000133EC29F0E2C522F678EC29F06F0E7F
:10236C000601226F000133EC29F0E3C522F678EC6C
:10237C0029F05EC523F65FC524F660C525F661C558
:10238C0026F6D20E0601226F000133EC29F024C68A
:10239C0022F678EC29F0D89006012337243725371C
:1023AC002637233724372537263723372437253745
:1023BC002637D40E226F000133EC29F023C622F607
:1023CC0078EC29F0D89006012337243725372637A7
:1023DC002337243725372637D30E226F000133ECF1
:1023EC0029F024C622F678EC29F0760E0601226F2D
:1023FC00000133EC29F0E00E0601226F000178ECAD
:10240C0029F090EF23F07B0E0601226F000133ECD4
:10241C0029F0CBC522F678EC29F07C0E0601226F50
:10242C00000133EC29F0CCC522F678EC29F07D0EB6
:10243C000601226F000133EC29F0E0C522F678EC9E
:10244C0029F07E0E0601226F000133EC29F0E1C564
:10245C0022F678EC29F0770E0601226F000133EC9E
:10246C0029F048C522F678EC29F0780E0601226F87
:10247C00000133EC29F049C522F678EC29F0790EED
:10248C000601226F000133EC29F048C522F678ECE6
:10249C0029F07A0E0601226F000133EC29F049C5B0
:1024AC0022F678EC29F05EC523F65FC524F660C5EC
:1024BC0025F661C526F6D20E0601226F000133EC1B
:1024CC0029F024C622F678EC29F0D890060123379F
:1024DC002437253726372337243725372637233714
:1024EC00243725372637D40E226F000133EC29F020
:1024FC0023C622F678EC29F0D8900601233724372E
:10250C00253726372337243725372637D30E226F26
:10251C00000133EC29F024C622F678EC29F0760E73
:10252C000601226F000133EC29F0C00E0601226F68
:10253C00000178EC29F090EF23F05EC515F55FC52E
:10254C0016F560C517F561C518F558C511F559C5CF
:10255C0012F55AC513F55BC514F504C6CBF505C6C3
:10256C00CCF512C6E0F513C6E1F50CC6CDF50DC6DB
:10257C00CEF51AC6E2F51BC6E3F511C55EF512C51C
:10258C005FF513C560F514C561F5A3DE04C6CBF584
:10259C0005C6CCF512C6E0F513C6E1F50CC6CDF5B3
:1025AC000DC6CEF51AC6E2F51BC6E3F515C55EF5EC
:1025BC0016C55FF517C560F518C561F526EC0EF06C
:1025CC0004C6CBF505C6CCF512C6E0F513C6E1F58D
:1025DC0006C6CDF507C6CEF514C6E2F515C6E3F56D
:1025EC0008C6CFF509C6D0F516C6E4F517C6E5F54D
:1025FC000AC6D1F50BC6D2F518C6E6F519C6E7F52D
:10260C0011C55EF512C55FF513C560F514C561F50E
:10261C006EDB04C6CBF505C6CCF512C6E0F513C6C9
:10262C00E1F506C6CDF507C6CEF514C6E2F515C61E
:10263C00E3F508C6CFF509C6D0F516C6E4F517C6FE
:10264C00E5F50AC6D1F50BC6D2F518C6E6F519C6DE
:10265C00E7F515C55EF516C55FF517C560F518C528
:10266C0061F5CAEC29F008C6CBF509C6CCF516C63F
:10267C00E0F517C6E1F50AC6CDF50BC6CEF518C6C2
:10268C00E2F519C6E3F50CC6CFF50DC6D0F51AC6A2
:10269C00E4F51BC6E5F50EC6D1F50FC6D2F51CC682
:1026AC00E6F51DC6E7F511C55EF512C55FF513C558
:1026BC0060F514C561F51BDB08C6CBF509C6CCF576
:1026CC0016C6E0F517C6E1F50AC6CDF50BC6CEF574
:1026DC0018C6E2F519C6E3F50CC6CFF50DC6D0F554
:1026EC001AC6E4F51BC6E5F50EC6D1F50FC6D2F534
:1026FC001CC6E6F51DC6E7F515C55EF516C55FF5F6
:10270C0017C560F518C561F5CAEC29F015C55EF55D
:10271C0016C55FF517C560F518C561F511C558F5F7
:10272C0012C559F513C55AF514C55BF512007B0E8D
:10273C000601226F000133EC29F0CBC522F678ECB0
:10274C0029F07C0E0601226F000133EC29F0CCC578
:10275C0022F678EC29F07D0E0601226F000133EC95
:10276C0029F0E0C522F678EC29F07E0E0601226FE6
:10277C00000133EC29F0E1C522F678EC29F0770E54
:10278C000601226F000133EC29F048C522F678ECE3
:10279C0029F0780E0601226F000133EC29F049C5AF
:1027AC0022F678EC29F0790E0601226F000133EC49
:1027BC0029F04AC522F678EC29F07A0E0601226F30
:1027CC00000133EC29F04BC522F678EC29F05EC5FC
:1027DC0023F65FC524F660C525F661C526F6D20E34
:1027EC000601226F000133EC29F024C622F678ECA6
:1027FC0029F0D8900601233724372537263723377D
:10280C002437253726372337243725372637D40E58
:10281C00226F000133EC29F023C622F678EC29F064
:10282C00D89006012337243725372637233724370A
:10283C0025372637D30E226F000133EC29F024C63E
:10284C0022F678EC29F0760E0601226F000133ECAB
:10285C0029F0C00E0601226F000178EC29F090EFF0
:10286C0023F07B0E0601226F000133EC29F0CBC55F
:10287C0022F678EC29F07C0E0601226F000133EC75
:10288C0029F0CCC522F678EC29F07D0E0601226FDA
:10289C00000133EC29F0E0C522F678EC29F07E0E2D
:1028AC000601226F000133EC29F0E1C522F678EC29
:1028BC0029F0770E0601226F000133EC29F048C590
:1028CC0022F678EC29F0780E0601226F000133EC29
:1028DC0029F049C522F678EC29F0790E0601226F11
:1028EC00000133EC29F04AC522F678EC29F07A0E77
:1028FC000601226F000133EC29F04BC522F678EC6F
:10290C0029F05EC523F65FC524F660C525F661C5C2
:10291C0026F6D20E0601226F000133EC29F024C6F4
:10292C0022F678EC29F0D890060123372437253786
:10293C0026372337243725372637233724372537AF
:10294C002637D40E226F000133EC29F023C622F671
:10295C0078EC29F0D8900601233724372537263711
:10296C002337243725372637D30E226F000133EC5B
:10297C0029F024C622F678EC29F0760E0601226F97
:10298C00000133EC29F0D00E0601226F000178EC27
:10299C0029F090EF23F07B0E0601226F000133EC3F
:1029AC0029F0CBC522F678EC29F07C0E0601226FBB
:1029BC00000133EC29F0CCC522F678EC29F07D0E21
:1029CC000601226F000133EC29F0E0C522F678EC09
:1029DC0029F07E0E0601226F000133EC29F0E1C5CF
:1029EC0022F678EC29F0770E0601226F000133EC09
:1029FC0029F048C522F678EC29F0780E0601226FF2
:102A0C00000133EC29F049C522F678EC29F0790E57
:102A1C000601226F000133EC29F04AC522F678EC4E
:102A2C0029F07A0E0601226F000133EC29F04BC518
:102A3C0022F678EC29F05EC523F65FC524F660C556
:102A4C0025F661C526F6D20E0601226F000133EC85
:102A5C0029F024C622F678EC29F0D8900601233709
:102A6C00243725372637233724372537263723377E
:102A7C00243725372637D40E226F000133EC29F08A
:102A8C0023C622F678EC29F0D89006012337243798
:102A9C00253726372337243725372637D30E226F91
:102AAC00000133EC29F024C622F678EC29F0760EDE
:102ABC000601226F000133EC29F0D10E0601226FC2
:102ACC00000178EC29F090EF23F0680E0601226FDC
:102ADC00000133EC29F0CBC522F678EC29F0690E15
:102AEC000601226F000133EC29F0CCC522F678ECFC
:102AFC0029F06A0E0601226F000133EC29F0E0C5C3
:102B0C0022F678EC29F06B0E0601226F000133ECF3
:102B1C0029F0E1C522F678EC29F06C0E0601226F43
:102B2C00000133EC29F0CDC522F678EC29F06D0EBE
:102B3C000601226F000133EC29F0CEC522F678ECA9
:102B4C0029F06E0E0601226F000133EC29F0E2C56C
:102B5C0022F678EC29F06F0E0601226F000133EC9F
:102B6C0029F0E3C522F678EC29F0700E0601226FED
:102B7C00000133EC29F0CFC522F678EC29F0710E68
:102B8C000601226F000133EC29F0D0C522F678EC57
:102B9C0029F0720E0601226F000133EC29F0E4C516
:102BAC0022F678EC29F0730E0601226F000133EC4B
:102BBC0029F0E5C522F678EC29F0770E0601226F94
:102BCC00000133EC29F0D1C522F678EC29F0780E0F
:102BDC000601226F000133EC29F0D2C522F678EC05
:102BEC0029F0790E0601226F000133EC29F0E6C5BD
:102BFC0022F678EC29F07A0E0601226F000133ECF4
:102C0C0029F0E7C522F678EC29F07B0E0601226F3D
:102C1C00000133EC29F0D3C522F678EC29F07C0EB8
:102C2C000601226F000133EC29F0D4C522F678ECB2
:102C3C0029F07D0E0601226F000133EC29F0E8C566
:102C4C0022F678EC29F07E0E0601226F000133EC9F
:102C5C0029F0E9C522F678EC29F05EC523F65FC5AC
:102C6C0024F660C525F661C526F6D20E0601226F44
:102C7C00000133EC29F024C622F678EC29F0D89028
:102C8C0006012337243725372637233724372537B2
:102C9C0026372337243725372637D40E226F0001E9
:102CAC0033EC29F023C622F678EC29F0D8900601F3
:102CBC00233724372537263723372437253726372C
:102CCC00D30E226F000133EC29F024C622F678ECE7
:102CDC0029F0670E0601226F000133EC29F0A90ED2
:102CEC000601226F000178EC29F090EF23F0680EBA
:102CFC000601226F000133EC29F0CBC522F678ECEB
:102D0C0029F0690E0601226F000133EC29F0CCC5C5
:102D1C0022F678EC29F06A0E0601226F000133ECE2
:102D2C0029F0E0C522F678EC29F06B0E0601226F33
:102D3C00000133EC29F0E1C522F678EC29F06C0E99
:102D4C000601226F000133EC29F0CDC522F678EC98
:102D5C0029F06D0E0601226F000133EC29F0CEC56F
:102D6C0022F678EC29F06E0E0601226F000133EC8E
:102D7C0029F0E2C522F678EC29F06F0E0601226FDD
:102D8C00000133EC29F0E3C522F678EC29F0700E43
:102D9C000601226F000133EC29F0CFC522F678EC46
:102DAC0029F0710E0601226F000133EC29F0D0C519
:102DBC0022F678EC29F0720E0601226F000133EC3A
:102DCC0029F0E4C522F678EC29F0730E0601226F87
:102DDC00000133EC29F0E5C522F678EC29F0770EEA
:102DEC000601226F000133EC29F0D1C522F678ECF4
:102DFC0029F0780E0601226F000133EC29F0D2C5C0
:102E0C0022F678EC29F0790E0601226F000133ECE2
:102E1C0029F0E6C522F678EC29F07A0E0601226F2D
:102E2C00000133EC29F0E7C522F678EC29F05EC5F9
:102E3C0023F65FC524F660C525F661C526F6D20ECD
:102E4C000601226F000133EC29F024C622F678EC3F
:102E5C0029F0D89006012337243725372637233716
:102E6C002437253726372337243725372637D40EF2
:102E7C00226F000133EC29F023C622F678EC29F0FE
:102E8C00D8900601233724372537263723372437A4
:102E9C0025372637D30E226F000133EC29F024C6D8
:102EAC0022F678EC29F0670E0601226F000133EC54
:102EBC0029F0A60E0601226F000178EC29F090EFA4
:102ECC0023F07B0E0601226F000133EC29F0CBC5F9
:102EDC0022F678EC29F07C0E0601226F000133EC0F
:102EEC0029F0CCC522F678EC29F07D0E0601226F74
:102EFC00000133EC29F0E0C522F678EC29F07E0EC7
:102F0C000601226F000133EC29F0E1C522F678ECC2
:102F1C0029F0770E0601226F000133EC29F048C529
:102F2C0022F678EC29F0780E0601226F000133ECC2
:102F3C0029F049C522F678EC29F0790E0601226FAA
:102F4C00000133EC29F04AC522F678EC29F07A0E10
:102F5C000601226F000133EC29F04BC522F678EC08
:102F6C0029F05EC523F65FC524F660C525F661C55C
:102F7C0026F6D20E0601226F000133EC29F024C68E
:102F8C0022F678EC29F0D890060123372437253720
:102F9C002637233724372537263723372437253749
:102FAC002637D40E226F000133EC29F023C622F60B
:102FBC0078EC29F0D89006012337243725372637AB
:102FCC002337243725372637D30E226F000133ECF5
:102FDC0029F024C622F678EC29F0760E0601226F31
:102FEC00000133EC29F0D30E0601226F000178ECBE
:102FFC0029F090EF23F07B0E0601226F000133ECD9
:10300C0029F0CBC522F678EC29F07C0E0601226F54
:10301C00000133EC29F0CCC522F678EC29F07D0EBA
:10302C000601226F000133EC29F0E0C522F678ECA2
:10303C0029F07E0E0601226F000133EC29F0E1C568
:10304C0022F678EC29F0770E0601226F000133ECA2
:10305C0029F048C522F678EC29F0780E0601226F8B
:10306C00000133EC29F049C522F678EC29F0790EF1
:10307C000601226F000133EC29F04AC522F678ECE8
:10308C0029F07A0E0601226F000133EC29F04BC5B2
:10309C0022F678EC29F05EC523F65FC524F660C5F0
:1030AC0025F661C526F6D20E0601226F000133EC1F
:1030BC0029F024C622F678EC29F0D89006012337A3
:1030CC002437253726372337243725372637233718
:1030DC00243725372637D40E226F000133EC29F024
:1030EC0023C622F678EC29F0D89006012337243732
:1030FC00253726372337243725372637D30E226F2B
:10310C00000133EC29F024C622F678EC29F0760E77
:10311C000601226F000133EC29F0D20E0601226F5A
:10312C00000178EC29F090EF23F0680E0601226F75
:10313C00000133EC29F0CBC522F678EC29F0690EAE
:10314C000601226F000133EC29F0CCC522F678EC95
:10315C0029F06A0E0601226F000133EC29F0E0C55C
:10316C0022F678EC29F06B0E0601226F000133EC8D
:10317C0029F0E1C522F678EC29F06C0E0601226FDD
:10318C00000133EC29F0CDC522F678EC29F06D0E58
:10319C000601226F000133EC29F0CEC522F678EC43
:1031AC0029F06E0E0601226F000133EC29F0E2C506
:1031BC0022F678EC29F06F0E0601226F000133EC39
:1031CC0029F0E3C522F678EC29F0770E0601226F80
:1031DC00000133EC29F048C522F678EC29F0780E82
:1031EC000601226F000133EC29F049C522F678EC78
:1031FC0029F0790E0601226F000133EC29F04AC543
:10320C0022F678EC29F07A0E0601226F000133ECDD
:10321C0029F04BC522F678EC29F05EC523F65FC584
:10322C0024F660C525F661C526F6D20E0601226F7E
:10323C00000133EC29F024C622F678EC29F0D89062
:10324C0006012337243725372637233724372537EC
:10325C0026372337243725372637D40E226F000123
:10326C0033EC29F023C622F678EC29F0D89006012D
:10327C002337243725372637233724372537263766
:10328C00D30E226F000133EC29F024C622F678EC21
:10329C0029F0760E0601226F000133EC29F0F00EB6
:1032AC000601226F000178EC29F090EF23F0680EF4
:1032BC000601226F000133EC29F0CBC522F678EC25
:1032CC0029F0690E0601226F000133EC29F0CCC500
:1032DC0022F678EC29F06A0E0601226F000133EC1D
:1032EC0029F0E0C522F678EC29F06B0E0601226F6E
:1032FC00000133EC29F0E1C522F678EC29F06C0ED4
:10330C000601226F000133EC29F0CDC522F678ECD2
:10331C0029F06D0E0601226F000133EC29F0CEC5A9
:10332C0022F678EC29F06E0E0601226F000133ECC8
:10333C0029F0E2C522F678EC29F06F0E0601226F17
:10334C00000133EC29F0E3C522F678EC29F0700E7D
:10335C000601226F000133EC29F0CFC522F678EC80
:10336C0029F0710E0601226F000133EC29F0D0C553
:10337C0022F678EC29F0720E0601226F000133EC74
:10338C0029F0E4C522F678EC29F0730E0601226FC1
:10339C00000133EC29F0E5C522F678EC29F05EC586
:1033AC0023F65FC524F660C525F661C526F6D20E58
:1033BC000601226F000133EC29F024C622F678ECCA
:1033CC0029F0D890060123372437253726372337A1
:1033DC002437253726372337243725372637D40E7D
:1033EC00226F000133EC29F023C622F678EC29F089
:1033FC00D89006012337243725372637233724372F
:10340C0025372637D30E226F000133EC29F024C662
:10341C0022F678EC29F0670E0601226F000133ECDE
:10342C0029F0A20E0601226F000178EC29F090EF32
:10343C0023F05EC515F55FC516F560C517F561C5BA
:10344C0018F558C511F559C512F55AC513F55BC5D4
:10345C0014F504C6CBF505C6CCF512C6E0F513C6BB
:10346C00E1F506C6CDF507C6CEF514C6E2F515C6D0
:10347C00E3F515C55EF516C55FF517C560F518C5FE
:10348C0061F56FEC11F00601025104250501CB6FBB
:10349C000601035105210501CC6F060102511225CD
:1034AC000501E06F0601035113210501E16F0601CF
:1034BC000251065D0501CD6F060103510759050147
:1034CC00CE6F06010251145D0501E26F0601035136
:1034DC0015590501E36F11C55EF512C55FF513C5EE
:1034EC0060F514C561F500016FEC11F015C55EF5C2
:1034FC0016C55FF517C560F518C561F511C558F50A
:10350C0012C559F513C55AF514C55BF512005EC505
:10351C0015F55FC516F560C517F561C518F558C5E5
:10352C0011F559C512F55AC513F55BC514F5FDC552
:10353C0048F5FEC549F515C55EF516C55FF517C509
:10354C0060F518C561F509EC12F006010251050190
:10355C00FD5D486E060103510501FE59496E11C50A
:10356C005EF512C55FF513C560F514C561F5000174
:10357C0009EC12F015C55EF516C55FF517C560F5BB
:10358C0018C561F511C558F512C559F513C55AF58D
:10359C0014C55BF512005EC515F55FC516F560C563
:1035AC0017F561C518F558C511F559C512F55AC569
:1035BC0013F55BC514F504C6CBF505C6CCF512C6E0
:1035CC00E0F513C6E1F506C6CDF507C6CEF514C673
:1035DC00E2F515C6E3F515C55EF516C55FF517C51D
:1035EC0060F518C561F5A1DD060102510425050140
:1035FC00CB6F0601035105210501CC6F0601025169
:10360C0012250501E06F0601035113210501E16F3D
:10361C0006010251065D0501CD6F060103510759E4
:10362C000501CE6F06010251145D0501E26F060122
:10363C00035115590501E36F11C55EF512C55FF510
:10364C0013C560F514C561F500016FDD15C55EF598
:10365C0016C55FF517C560F518C561F511C558F5A8
:10366C0012C559F513C55AF514C55BF512005EC5A4
:10367C0015F55FC516F560C517F561C518F558C584
:10368C0011F559C512F55AC513F55BC514F504C6E9
:10369C00CBF505C6CCF512C6E0F513C6E1F506C6AA
:1036AC00CDF507C6CEF514C6E2F515C6E3F508C68A
:1036BC00CFF509C6D0F516C6E4F517C6E5F511C564
:1036CC005EF512C55FF513C560F514C561F5EFDD48
:1036DC0004C6CBF505C6CCF512C6E0F513C6E1F56C
:1036EC0006C6CDF507C6CEF514C6E2F515C6E3F54C
:1036FC0008C6CFF509C6D0F516C6E4F517C6E5F52C
:10370C0015C55EF516C55FF517C560F518C561F5ED
:10371C0039EC34F015C55EF516C55FF517C560F5C7
:10372C0018C561F511C558F512C559F513C55AF5EB
:10373C0014C55BF5120018EEAFF3040EF66E670EAF
:10374C00F76E000EF86E3EEF32F018EEC6F30A0E6E
:10375C00F66E670EF76E000EF86E3EEF32F0710EDD
:10376C000760000C07508C0FF66E370ED8B0010FA7
:10377C00F76E000ED8B0010FF86E0800F55012006D
:10378C007000100C0A88223820082010108080400D
:10379C00040000002848466C0000002810001000AF
:1037AC00407C008482304E78066C0C00001028009F
:1037BC000464F8FE7CFEFEFE7CFE0040FEFEFEFE77
:1037CC007CFE7CFE4C027E3E7EC60EC200040008CF
:1037DC00800040FE7070701010FE0040FE00F8F883
:1037EC0070F810F89010783878881888000000204D
:1037FC007800710E0760000C0750200FF66E380E23
:10380C00D8B0010FF76E000ED8B0010FF86E08009B
:10381C00F550120070FE380A06CC667C700440101D
:10382C003888A2701C00000EFE5426920A388210B2
:10383C0010A010C020A284C282288A940292926C9A
:10384C00AC28288202922492828292128210828068
:10385C00108004088212821292028040802810A2EA
:10386C00FE0882048002A8908888A8FCA81090808A
:10387C002082081088282810A87C80408050A0C87E
:10388C00100082104400710E0760000C0750B40F3A
:10389C00F66E380ED8B0010FF76E000ED8B0010FCF
:1038AC00F86E0800F5501200707C7C0000EEEE7C87
:1038BC00A8FEFE545494947C7C009E0028FE10AA12
:1038CC000644447C7C6010C01092FEA28A248A922A
:1038DC00E292926C6C442844A2F22292828292125E
:1038EC009210FE82288018108212A23292FE8080E2
:1038FC007010E092821082028004A8888888A81236
:10390C00A808FA8850FEF00888282808A89080801B
:10391C006020A0A86CFE6C104200710E0760000CB9
:10392C000750480FF66E390ED8B0010FF76E000E27
:10393C00D8B0010FF86E0800F55012007038FE0C6C
:10394C000ACC667C2004403810A288701C00000E43
:10395C00FE54C8440082381010001000088A80926F
:10396C0096FE8A9212925200008228281282249289
:10397C00824492129210827E44800420821242521F
:10398C00920280408028108A8220FE048008A88839
:10399C008890A802A808807A8880080888283008AF
:1039AC00A88040408050A098820010204400710EE6
:1039BC000760000C0750DC0FF66E390ED8B0010F03
:1039CC00F76E000ED8B0010FF86E0800F55012001B
:1039DC007010000A068822383E08201010808040A3
:1039EC00040000002824C4A00000002810001000CF
:1039FC00047C008C622072600E6C3C00000028106D
:103A0C000C7CF86C44388202F4FE00028280FEFECC
:103A1C007C0CBC8C64027E3E7EC60E860040000888
:103A2C008000F07040FE300478F000000000F0F0F0
:103A3C007010F8104040F838788878880000001032
:103A4C007800456A466A90EC23F0680E0601226FF6
:103A5C00000133EC29F00601226B000178EC29F00F
:103A6C00690E0601226F000133EC29F00601226B6E
:103A7C00000178EC29F06A0E0601226F000133EC8C
:103A8C0029F00601226B000178EC29F06B0E06017F
:103A9C00226F000133EC29F00601226B000178EC57
:103AAC0029F06C0E0601226F000133EC29F034C5AD
:103ABC0022F678EC29F06D0E0601226F000133EC32
:103ACC0029F035C522F678EC29F06E0E0601226F2E
:103ADC00000133EC29F032C522F678EC29F06F0E98
:103AEC000601226F000133EC29F033C522F678EC85
:103AFC0029F02EC55EF52FC55FF530C560F531C5D3
:103B0C0061F55EC523F65FC524F660C525F661C573
:103B1C0026F6D20E0601226F000133EC29F024C6E2
:103B2C0022F678EC29F0D890060123372437253774
:103B3C00263723372437253726372337243725379D
:103B4C002637D40E226F000133EC29F023C622F65F
:103B5C0078EC29F0D89006012337243725372637FF
:103B6C002337243725372637D30E226F000133EC49
:103B7C0029F024C622F678EC29F090EC23F0760E8E
:103B8C000601226F000133EC29F0E00E0601226FD2
:103B9C00000178EC29F090EF23F00F0E195E1A6AF1
:103BAC001B6A19C505F5B20E096EBDEC30F0001E8E
:103BBC0000C5BDF519C509F5CA0E056EBDEC30F092
:103BCC00001E0501BD510014B76FB7A104D0010E42
:103BDC001F5E000E205A286A282A2804D8A406D072
:103BEC0019C507F50001BBDD2A6E27D0020E285C33
:103BFC00D8A406D019C507F50001FBDD2A6E1DD02F
:103C0C00030E285CD8A406D019C507F500013BDECD
:103C1C002A6E13D0040E285CD8A406D019C507F55B
:103C2C0000017BDE2A6E09D0050E285CD8A405D0D5
:103C3C0019C507F50001BBDE2A6E216A226A296AC2
:103C4C00292A1C6A246A010E385CD8A059D0242A6F
:103C5C001C2A236A0501836B010E385CD8A04CD05A
:103C6C00832B232A2AA022D01A501D24BB6F1B5051
:103C7C001E20BC6F1C50BB25CB6F000EBC21CC6F23
:103C8C0021501F24BB6F22502020BC6F2350BB251A
:103C9C00E06F000EBC21E16F50C55EF551C55FF5BC
:103CAC00606B616B0001BEEC29F021D01A501D2411
:103CBC00BB6F1B501E20BC6F1C50BB25CB6F000E66
:103CCC00BC21CC6F21501F24BB6F22502020BC6F15
:103CDC002350BB25E06F000EBC21E16F2EC55EF5B5
:103CEC002FC55FF5606B616B0001BEEC29F038509D
:103CFC000501835DD8A0B4D73850245CD8A0A7D7D1
:103D0C002A3238502126000E2222080E295CD8A017
:103D1C0097D738501A26000E1B22050E285CD8A007
:103D2C005BD7000112009BC5E9F49CC5EAF4EFC413
:103D3C003EF53E52D8B4120079C540F57AC541F52E
:103D4C00426A010E3E5CD8A029D0422A40C51DF51E
:103D5C0041C51EF57BC51FF57CC520F542500501FC
:103D6C009B25E96E000E9C21EA6EEFC419F500014B
:103D7C0014DF39503802F3C4BBF50501BB514024A4
:103D8C00B76F000E4120B86F010EB725406E000EC4
:103D9C00B821416E3E50425CD8A0D7D740C579F5CA
:103DAC0041C57AF500011200020E0601226F0001D6
:103DBC0033EC29F04EEC24F055C527F6120E060113
:103DCC00226F000133EC29F04EEC24F055C501F6BE
:103DDC00040E445CD8A408D0346A040E356E580E18
:103DEC00326E020E336E36D04404D8A40CD0346A32
:103DFC00040E356E580E326E020E336E06010197AC
:103E0C002795279327D0020E445CD8A408D0346A97
:103E1C00040E356E580E326E020E336E1BD0030E2E
:103E2C00445CD8A40CD0346A040E356E580E326E35
:103E3C00020E336E06010187279527830BD0346A57
:103E4C00040E356E580E326E020E336E060101975B
:103E5C0027952793020E0601226F000133EC29F0FF
:103E6C0027C622F678EC29F090EC23F0120E06010E
:103E7C00226F000133EC29F001C622F678EC29F010
:103E8C0090EF23F0A9C5E9F4AAC5EAF4EFC478F5DC
:103E9C0005017853D8B415D0AB6B010E785DD8A062
:103EAC0010D0AB2BAB51A925E96E000EAA21EA6EFE
:103EBC00EFC48AF5000143D805017851AB5DD8A059
:103ECC00F0D70001120047C5B1F50501B153D8B4C4
:103EDC000CD00D0E8A6F000132D80A0E05018A6FC4
:103EEC0000012DD80501B12FF4D700011200A9C58E
:103EFC00E9F4AAC5EAF4EFC478F505017853D8B40F
:103F0C0015D0AB6B010E785DD8A010D0AB2BAB519C
:103F1C00A925E96E000EAA21EA6EEFC48AF500010C
:103F2C000ED805017851AB5DD8A0F0D70D0E8A6F75
:103F3C00000105D80A0E05018A6F000100D0B2A25B
:103F4C00FED78AC5A3F212001200010E476E010EB5
:103F5C00276EB9DF19EE8EF0260EF66E670EF76E31
:103F6C00000EF86E3EEC32F08E0E0501A96F240E99
:103F7C00AA6F010E276E0001BADFC888C790C896D9
:103F8C00C696C79ABF90C088BE86C086030E050130
:103F9C00BE6FBF6B0001EFEC2FF019EE8EF0066ACE
:103FAC00380EF66E670EF76E000EF86E44EC32F0BB
:103FBC0009EE2CF014EC31F009EE8EF006C5EFF49E
:103FCC008E0E0501A96F240EAA6F010E276E00013B
:103FDC008EDF030E0501AD6FBF8A320E026E036ACF
:103FEC000001BFEC10F0BF9A640E026E036ABFECC6
:103FFC0010F0BF8A320E026E036ABFEC10F005019E
:10400C00AD2FEAD719EE8EF0600EF66E670EF76ED6
:10401C00000EF86E00013EEC32F08E0E0501A96F19
:10402C00240EAA6F010E276E00012CDFCBEC28F0BA
:10403C000A0E026E036ABFEC10F019EE8EF0800EC1
:10404C00F66E670EF76E000EF86E3EEC32F08E0ECA
:10405C000501A96F240EAA6F010E276E000147DF20
:10406C0019EE8EF0A60EF66E670EF76E000EF86E59
:10407C003EEC32F08E0E0501A96F240EAA6F010ED4
:10408C00276E0001FFDE5BDB5252D8A401D0FBD7B8
:10409C0019EE8EF0C60EF66E670EF76E000EF86E09
:1040AC003EEC32F08E0E0501A96F240EAA6F010EA4
:1040BC00276E00011CDF53C5BEF50501BF6B000167
:1040CC00EFEC2FF019EE8EF0066AE60EF66E670E28
:1040DC00F76E000EF86E44EC32F009EE2CF014EC96
:1040EC0031F01E0EF66E670EF76E000EF86E44EC95
:1040FC0032F009EE8EF006C5EFF48E0E0501A96FB5
:10410C00240EAA6F010E276E0001F1DE140E535C13
:10411C00D8A423D053C5BEF50501BF6B0001EFEC4D
:10412C002FF019EE8EF0066A09EE2CF014EC31F03B
:10413C001E0EF66E680EF76E000EF86E44EC32F042
:10414C0009EE8EF006C5EFF48E0E0501A96F240E54
:10415C00AA6F010E276E0001CADE3A683B683C6A02
:10416C003D6A2E6A2F6A306A316A346A040E356EE3
:10417C00580E326E020E336E366A020E386E070E11
:10418C00376E010E446E10DE060E396E5AD40401E1
:10419C001397C89C200E0201176F00011200010E2C
:1041AC0005017E6FBE0E7F6F000112000001600ED4
:1041BC00AD6FAF6BB36BB06B600EAD6F080EB16FC4
:1041CC00F86A0301F395F39F0401006B086B106B05
:1041DC00206B0001749F709FCE6ACF6AD06AD16A3F
:1041EC00D26A1200010E276E060E0201AF6F810E0D
:1041FC00AE6FAB8FAB8BAB89AC8F000112007B0E1B
:10420C000601226F000133EC29F0CBC522F678ECC5
:10421C0029F07C0E0601226F000133EC29F0CCC58D
:10422C0022F678EC29F07D0E0601226F000133ECAA
:10423C0029F0E0C522F678EC29F07E0E0601226FFB
:10424C00000133EC29F0E1C522F678EC29F0770E69
:10425C000601226F000133EC29F048C522F678ECF8
:10426C0029F0780E0601226F000133EC29F049C5C4
:10427C0022F678EC29F0790E0601226F000133EC5E
:10428C0029F04AC522F678EC29F07A0E0601226F45
:10429C00000133EC29F04BC522F678EC29F05EC511
:1042AC0023F65FC524F660C525F661C526F6D20E49
:1042BC000601226F000133EC29F024C622F678ECBB
:1042CC0029F0D89006012337243725372637233792
:1042DC002437253726372337243725372637D40E6E
:1042EC00226F000133EC29F023C622F678EC29F07A
:1042FC00D890060123372437253726372337243720
:10430C0025372637D30E226F000133EC29F024C653
:10431C0022F678EC29F0760E0601226F000133ECC0
:10432C0029F0900E0601226F000178EC29F0F2D1F1
:10433C007B0E0601226F000133EC29F0CBC522F66F
:10434C0078EC29F07C0E0601226F000133EC29F089
:10435C00CCC522F678EC29F07D0E0601226F000107
:10436C0033EC29F0E0C522F678EC29F07E0E06013C
:10437C00226F000133EC29F0E1C522F678EC29F02C
:10438C00770E0601226F000133EC29F048C522F6A6
:10439C0078EC29F0780E0601226F000133EC29F03D
:1043AC0049C522F678EC29F0790E0601226F00013E
:1043BC0033EC29F04AC522F678EC29F07A0E060186
:1043CC00226F000133EC29F04BC522F678EC29F072
:1043DC005EC523F65FC524F660C525F661C526F6D5
:1043EC00D20E0601226F000133EC29F024C622F60E
:1043FC0078EC29F0D8900601233724372537263757
:10440C0023372437253726372337243725372637C4
:10441C00D40E226F000133EC29F023C622F678EC7F
:10442C0029F0D89006012337243725372637233730
:10443C00243725372637D30E226F000133EC29F0B1
:10444C0024C622F678EC29F0760E0601226F0001C4
:10445C0033EC29F0910E0601226F000178EC29F063
:10446C0059D1680E0601226F000133EC29F0CBC53F
:10447C0022F678EC29F0690E0601226F000133EC6C
:10448C0029F0CCC522F678EC29F06A0E0601226FD1
:10449C00000133EC29F0E0C522F678EC29F06B0E24
:1044AC000601226F000133EC29F0E1C522F678EC0D
:1044BC0029F06C0E0601226F000133EC29F0CDC5FA
:1044CC0022F678EC29F06D0E0601226F000133EC18
:1044DC0029F0CEC522F678EC29F06E0E0601226F7B
:1044EC00000133EC29F0E2C522F678EC29F06F0ECE
:1044FC000601226F000133EC29F0E3C522F678ECBB
:10450C0029F05EC523F65FC524F660C525F661C5A6
:10451C0026F6D20E0601226F000133EC29F024C6D8
:10452C0022F678EC29F0D89006012337243725376A
:10453C002637233724372537263723372437253793
:10454C002637D40E226F000133EC29F023C622F655
:10455C0078EC29F0D89006012337243725372637F5
:10456C002337243725372637D30E226F000133EC3F
:10457C0029F024C622F678EC29F0670E0601226F8A
:10458C00000133EC29F0800E0601226F000178EC5B
:10459C0029F0C0D006010451065D0501D56F060156
:1045AC00055107590501D66F06011251145D05011D
:1045BC00BB6F0601135115590501BC6FBBC505F541
:1045CC00BCC506F50A0E096E0A6A000124EC32F02D
:1045DC0000C5EAF501C5EBF50501C96BCA6BD5C57C
:1045EC0005F5D6C506F5096A0A6A0001A5EC30F096
:1045FC0000A005D0140E0501C46FC56B0ED0EAC522
:10460C0005F5EBC506F5D5C509F5D6C50AF5B1EC2A
:10461C0031F005C5C4F506C5C5F5C4C505F5C5C558
:10462C0006F5000117EC0EF00EC509F50FC50AF5DD
:10463C000A0E056E066AE6EC30F0001E00A035D0BE
:10464C0002C609F503C60AF5056A066A0001C2EC42
:10465C0030F000A029D0010E0601025F000E035BB2
:10466C0004C6CBF505C6CCF50501C95106011225CA
:10467C000501E06FCA51060113210501E16F06C661
:10468C00CDF507C6CEF5C951060114250501E26F1B
:10469C00CA51060115210501E36F0001E2DE050197
:1046AC00C92BD8B4CA2BCCD734D002C609F503C653
:1046BC000AF5056A066A0001C2EC30F000A029D0A8
:1046CC00010E0601025F000E035B0501C9510601D4
:1046DC0004250501CB6FCA51060105210501CC6FDC
:1046EC0012C6E0F513C6E1F5C95106010625050110
:1046FC00CD6FCA51060107210501CE6F14C6E2F534
:10470C0015C6E3F50001ADDE0501C92BD8B4CA2BE3
:10471C00CCD71200EBEC28F0080E05016415BD6F28
:10472C00BDC505F5080E096E0001A0EC30F000A027
:10473C0005D0350E006E002EFED7ECD71200526A53
:10474C00536A546A010E0601226F000133EC29F002
:10475C00800E0601226F000178EC29F0350E006EF8
:10476C00002EFED7532A542A0001EBEC28F064C526
:10477C0065F5020E05016515BD6FBDC505F5096A28
:10478C000001A0EC30F000C5B7F554C505F5140ECA
:10479C00096EBDEC30F00501B7510014BD6FBDA121
:1047AC001BD0350E006E002EFED7010E0601226FB7
:1047BC00000133EC29F06CD8800E55140501BD6F47
:1047CC00BDC505F5800E096E0001A0EC30F000A00F
:1047DC0002D05268120010D0350E006E002EFED79B
:1047EC00010E0601226F000133EC29F0800E060148
:1047FC00226F000178EC29F052C505F5096AA0EC8E
:10480C0030F000C5BDF554C505F5050E096EA0ECDC
:10481C0030F00501BD510014B76FB7A121D00001D4
:10482C009ED80A0E026E036ABFEC10F0CBEC28F097
:10483C000A0E026E036ABFEC10F08AD9E40E060170
:10484C00226F000133EC29F0010E0601226F0001EA
:10485C0078EC29F00A0E026E036ABFEC10F0546A71
:10486C0052C505F5096A0001A0EC30F000C5BDF594
:10487C0053C505F5140E096EA0EC30F0001E0501B1
:10488C00BD510014B76FB7B16DD75268000112005B
:10489C00BE96350E006E002EFED7C00E0601216F9F
:1048AC00080E0501B46F060121AF02D0BF8001D004
:1048BC00BF90C096350E006E002EFED72137C086F5
:1048CC00350E006E002EFED70501B42FECD7C8882C
:1048DC00350E006E002EFED7080EB46FBF90C0963A
:1048EC00350E006E002EFED7D8905536D0A802D0CB
:1048FC00558001D05590C086350E006E002EFED727
:10490C00B42FECD7D0A6FED7350E006E002EFED7F6
:10491C00BF90350E006E002EFED7BE860001120031
:10492C00120E0601226F000133EC29F05628D8A490
:10493C0006D0AEDF55C556F5200E561205D0A8DFB1
:10494C0055C556F5DF0E5616120E0601226F0001E4
:10495C0033EC29F056C522F678EC29F0DBD6BF8A69
:10496C001E0E026E036ABFEC10F0BF9AC80E026EE8
:10497C00036ABFEC10F0BF8A1E0E026E036ABFEF13
:10498C0010F007C505F508C506F56A0E096E010E8F
:10499C000A6EC2EC30F000A0000C0750C00FF66E8F
:1049AC00490E0820F76E000ED8B0010FF86E080003
:1049BC00F550120069001105138AAAAAAAAA1105BA
:1049CC00128A110613331107138A11081364110983
:1049DC00138A110A135011001380AAAAAAAA110152
:1049EC0013921101129211021340AAAAAAAA11E061
:1049FC00132911E1130311E2130B11E3130311E457
:104A0C001301AAAAAAAAAAAAAAAAAAAAAAAA11106D
:104A1C00130411121380111313001114137F1115A9
:104A2C001300111A1357111B13021116131011171F
:104A3C0013041118131311191301111C1313111D45
:104A4C001300111E130B111F130211BB13011120A4
:104A5C001300112113001122130011231300112430
:104A6C00130011251304112613001127130011280C
:104A7C00130011291300AAAAAAAA1150130011514C
:104A8C00130011521300115313001154130011553C
:104A9C001304115613001157130011581300115918
:104AAC001300115A1300115B1304115C1358115DA0
:104ABC001302115E130111BC130011BD130211BEC0
:104ACC00130011BF130011C0130011C1130011C248
:104ADC00130011C3130011C6130011C7130411C81E
:104AEC00135811C9130211CA130011CB130411B7B7
:104AFC0013C0AAAAAAAA111213C0AAAAAAAA1184FC
:104B0C0013131185130A11871300118C1364118D63
:104B1C001300118E1346118F13001186133007C525
:104B2C0005F508C506F5010E096E0A6AC2EC30F0EF
:104B3C0000A0000C07505A0FF66E4B0E0820F76EB3
:104B4C00000ED8B0010FF86E0800F55012000100ED
:104B5C00336A0501626B636B62C507F563C508F5C3
:104B6C0000010FDF3A6E62C507F563C508F5D7DFA4
:104B7C003B6E0501622BD8B4632B010E026E036AE7
:104B8C000001BFEC10F062C507F563C508F5F9DE4E
:104B9C00326E0501622BD8B4632B110E325CD8A493
:104BAC004CD0640E026E036A0001BFEC10F062C5BB
:104BBC0007F563C508F5E5DE326E0501622BD8B446
:104BCC00632B32C522F6000148DB32C535F535C5FD
:104BDC00BEF5FBEC34F019EE55F0066A4E0EF66E8F
:104BEC00680EF76E000EF86E44EC32F008EEDAF355
:104BFC0014EC31F009EE55F006C5EFF4550E050135
:104C0C00A96F240EAA6F010E276E000148EC1FF04D
:104C1C0019EE55F0520EF66E680EF76E000EF86E29
:104C2C003EEC32F0550E0501A96F240EAA6F010E51
:104C3C00276E000148EC1FF0E7D0120E325CD8A4AE
:104C4C00B4D062C507F563C508F500019ADE326E73
:104C5C000501622BD8B4632B00011ADE55C5C6F5CD
:104C6C00C6C505F532C509F5A0EC30F0001E00C52F
:104C7C00BDF55CC505F55DC506F5320E096E0A6A13
:104C8C00C2EC30F00501BD510014B76FB7A18AD04A
:104C9C005C2AD8B45D2A0A0E026E036A0001BFECCE
:104CAC0010F019EE55F0560EF66E680EF76E000EFB
:104CBC00F86E3EEC32F0550E0501A96F240EAA6F6A
:104CCC00010E276E000148EC1FF035C5BEF5FBEC5C
:104CDC0034F019EE55F0066A740EF66E660EF76E29
:104CEC00000EF86E44EC32F008EEDAF314EC31F00E
:104CFC0009EE55F006C5EFF4550E0501A96F240E0B
:104D0C00AA6F010E276E000148EC1FF032C5BEF5EC
:104D1C00FBEC34F019EE55F0066A600EF66E680E78
:104D2C00F76E000EF86E44EC32F008EEDAF314EC89
:104D3C0031F009EE55F006C5EFF4550E0501A96FDB
:104D4C00240EAA6F010E276E000148EC1FF0C6C599
:104D5C00BEF5FBEC34F019EE55F0066A640EF66EF7
:104D6C00680EF76E000EF86E44EC32F008EEDAF3D3
:104D7C0014EC31F009EE55F006C5EFF4550E0501B3
:104D8C00A96F240EAA6F010E276E00017DEC1FF097
:104D9C0035C522F662DA32C522F6A4DA35C522F61A
:104DAC005CDA5ED75C6A5D6A2FD0130E325CD8A4D5
:104DBC0014D062C507F563C508F50001E2DD326E5B
:104DCC0032C533F50501622BD8B4632B5C6A5D6A7E
:104DDC0032C522F6000186DA17D0AA0E325CD8A4AE
:104DEC0013D062C507F563C508F50001CADD326E44
:104DFC000501622BD8B4632B3250335CD8B404D089
:104E0C00000126DA32C533F562C509F563C50AF52A
:104E1C003AC505F53BC506F50001C2EC30F000B013
:104E2C0001D0ABD612009BC5E9F49CC5EAF4EFC4E3
:104E3C003EF53F6A3EC505F53FC506F5096A0A6AA7
:104E4C00A5EC30F000B01200630E0601226F0001D9
:104E5C0004DA04C622F646DA640E0601226F00015B
:104E6C00FCD905C622F63EDA55DC650E0601226F2A
:104E7C000001F3D912C622F635DA660E0601226F4E
:104E8C000001EBD913C622F62DDA44DCCC0E060158
:104E9C00226F0001E2D9FCDC55C5C4F50501C49FA5
:104EAC00C49DC4C522F600011DDA34DC5EC523F6B0
:104EBC005FC524F660C525F661C526F6D20E06013F
:104ECC00226F0001CAD924C622F60CDAD89006014A
:104EDC0023372437253726372337243725372637EA
:104EEC002337243725372637D40E226F0001B5D946
:104EFC0023C622F6F7D9D890060123372437253755
:104F0C0026372337243725372637D30E226F000157
:104F1C00A4D924C622F6E6D9030E0601226F00019D
:104F2C009CD9B6DC55C5C4F50501C485C493C491A0
:104F3C00C4C522F60001D6D990EC23F0010E016E07
:104F4C00006A002EFED7012EFBD7090E006E002E34
:104F5C00FED7426A436A010E096E0A6A3EC505F520
:104F6C003FC506F5C2EC30F000B021D0422AD8B4CF
:104F7C00432A040E0601226F00016FD9425005012D
:104F8C009B25E96E43509C21EA6EEFC422F600018A
:104F9C00A9D990EC23F042C505F543C506F53EC5ED
:104FAC0009F53FC50AF5C2EC30F000B0DFD7030EAF
:104FBC000601226F000151D96BDC55C5C4F5050102
:104FCC00C495C4C522F600018DD9010E016E006A8C
:104FDC00002EFED7012EFBD7090E006E002EFED739
:104FEC0012004CC5BEF54DC5BFF5EFEC2FF02C0EE5
:104FFC0005019B6F240E9C6F000115D75750C808F4
:10500C00D8B002D0630E576E860E0601226F0001D7
:10501C0024D93EDC55C5C4F50501C499C4C522F696
:10502C00000160D990EC23F0850E0601226F00017F
:10503C0014D92EDC55C5C4F50501C49FC49DC4C547
:10504C0022F600014FD990EC23F0840E0601226F5A
:10505C00000103D9C80E0601226F000143D990EC60
:10506C0023F08E0E0601226F0001F7D8640E0601A4
:10507C00226F000137D98F0E0601226F0001EDD887
:10508C000601226B00012ED990EC23F08C0E060148
:10509C00226F0001E2D857C522F624D98D0E0601E5
:1050AC00226F0001DAD80601226B00011BD990ECAB
:1050BC0023F0860E0601226F0001CFD84EEC24F0AF
:1050CC0055C5C4F50501C48BC489C4C522F60001BD
:1050DC0009D990EF23F0CC0E0601226F0001BDD848
:1050EC000501C46B180EFC5DD8A402D0C48905D090
:1050FC00200EFC5DD8A401D0C48BC4C522F60001DF
:10510C00F1D890EC23F0CD0E0601226F0001A5D84A
:10511C000501C46B020E0601105DD8A403D0050175
:10512C00C4850ED0030E105DD8A403D00501C4872E
:10513C0007D0040E105DD8A403D00501C487C48524
:10514C00020E0601115DD8A403D00501C4810ED056
:10515C00030E115DD8A403D00501C48307D0040E3F
:10516C00115DD8A403D00501C483C4810501FB05DE
:10517C00D8A401D0C48DFA05D8A401D0C48FC4C55D
:10518C0022F60001AFD890EF23F00601226B00014C
:10519C0064D8010E0601226F0001A4D80A0E026E1B
:1051AC00036ABFEC10F00601226B000156D84EECDE
:1051BC0024F055C501F60A0E026E036ABFEC10F01E
:1051CC00060101B3F0D7000112000501646BBE9615
:1051DC00350E006E002EFED7400E0601216F080E14
:1051EC000501AE6F060121AF02D0BF8001D0BF9088
:1051FC00C096350E006E002EFED72137C086350EB8
:10520C00006E002EFED70501AE2FECD7350E006ECA
:10521C00002EFED7080EAE6FC888C096D8906437A3
:10522C00350E006E002EFED7D0A802D0648101D0BE
:10523C006491C086350E006E002EFED7AE2FECD7D3
:10524C00350E006E002EFED7C790BE8600011200F0
:10525C000A0E026E036ABFEF10F00601206B22C625
:10526C0021F6BE96350E006E002EFED7C086D89065
:10527C00080E0501B26F060120AF02D0BF8001D02D
:10528C00BF90C096350E006E002EFED72037C0861C
:10529C00350E006E002EFED70501B22FECD7350E61
:1052AC00006E002EFED7D890080EB26FC096060185
:1052BC0021AF02D0BF8001D0BF90350E006E002E02
:1052CC00FED72137C086350E006E002EFED70501A5
:1052DC00B22FECD7BF90350E006E002EFED7BE86D7
:1052EC0000011200800E0601206F22C621F6BE9628
:1052FC00350E006E002EFED7C086D890080E050124
:10530C00B36F060120AF02D0BF8001D0BF90C09612
:10531C00350E006E002EFED72037C086350E006E7F
:10532C00002EFED70501B32FECD7350E006E002EE4
:10533C00FED7D890080EB36FC096060121AF02D0ED
:10534C00BF8001D0BF90350E006E002EFED72137E6
:10535C00C086350E006E002EFED70501B32FECD79C
:10536C00BF90350E006E002EFED7BE8600011200D7
:10537C00CBC5CDF5CCC5CEF5E0C5E2F5E1C5E3F581
:10538C0026EC0EF090EF23F0680E0601226F000160
:10539C0064DFCBC522F6A6DF690E0601226F000181
:1053AC005CDFCCC522F69EDF6A0E0601226F00017F
:1053BC0054DFE0C522F696DF6B0E0601226F00016A
:1053CC004CDFE1C522F68EDF6C0E0601226F000168
:1053DC0044DFCDC522F686DF6D0E0601226F00017B
:1053EC003CDFCEC522F67EDF6E0E0601226F000179
:1053FC0034DFE2C522F676DF6F0E0601226F000164
:10540C002CDFE3C522F66EDF700E0601226F000161
:10541C0024DFCFC522F666DF710E0601226F000174
:10542C001CDFD0C522F65EDF720E0601226F000172
:10543C0014DFE4C522F656DF730E0601226F00015D
:10544C000CDFE5C522F64EDF770E0601226F000158
:10545C0004DFD1C522F646DF780E0601226F00016B
:10546C00FCDED2C522F63EDF790E0601226F00016A
:10547C00F4DEE6C522F636DF7A0E0601226F000155
:10548C00ECDEE7C522F62EDF5EC523F65FC524F6FB
:10549C0060C525F661C526F6D20E0601226F000105
:1054AC00DCDE24C622F61EDFD89006012337243713
:1054BC002537263723372437253726372337243704
:1054CC0025372637D40E226F0001C7DE23C622F6FD
:1054DC0009DFD890060123372437253726372337A1
:1054EC00243725372637D30E226F0001B6DE24C6AB
:1054FC0022F6F8DE670E0601226F0001AEDE8D0E7D
:10550C000601226F0001EEDE90EF23F0070E05017D
:10551C00AF6F7EC580F57FC581F5813580378137CA
:10552C00010E7E15BB6FBC6BBB1DB76FBC1DB86F7E
:10553C00010EB725BB6F000EB821BC6FB76BB40E54
:10554C00BC15B86F8051B7197E6F8151B8197F6F38
:10555C007D517F197D6FAF2FDCD700011200050143
:10556C0080517E2781517F237EC505F57FC506F5C9
:10557C00096A0A6A0001A5EC30F000A004D0010E03
:10558C0005017E6F7F6B000112007B0E0601226FFE
:10559C00000163DECBC522F6A5DE7C0E0601226F70
:1055AC0000015BDECCC522F69DDE7D0E0601226F6E
:1055BC00000153DEE0C522F695DE7E0E0601226F59
:1055CC0000014BDEE1C522F68DDE770E0601226F5F
:1055DC00000143DE48C522F685DE780E0601226FF7
:1055EC0000013BDE49C522F67DDE790E0601226FF5
:1055FC00000133DE4AC522F675DE7A0E0601226FF3
:10560C0000012BDE4BC522F66DDE5EC523F65FC5B1
:10561C0024F660C525F661C526F6D20E0601226F6A
:10562C0000011BDE24C622F65DDED890060123376E
:10563C002437253726372337243725372637233782
:10564C00243725372637D40E226F000106DE23C6F9
:10565C0022F648DED8900601233724372537263723
:10566C002337243725372637D30E226F0001F5DD7B
:10567C0024C622F637DE760E0601226F0001EDDD20
:10568C00930E0601226F00012DDE90EF23F07B0EAE
:10569C000601226F0001E1DDCBC522F623DE7C0E74
:1056AC000601226F0001D9DDCCC522F61BDE7D0E72
:1056BC000601226F0001D1DDE0C522F613DE7E0E5D
:1056CC000601226F0001C9DDE1C522F60BDE770E63
:1056DC000601226F0001C1DD48C522F603DE780EFB
:1056EC000601226F0001B9DD49C522F6FBDD790EFA
:1056FC000601226F0001B1DD4AC522F6F3DD7A0EF8
:10570C000601226F0001A9DD4BC522F6EBDD5EC55B
:10571C0023F65FC524F660C525F661C526F6D20EC4
:10572C000601226F000199DD24C622F6DBDDD8903C
:10573C0006012337243725372637233724372537D7
:10574C0026372337243725372637D40E226F00010E
:10575C0084DD23C622F6C6DDD89006012337243714
:10576C00253726372337243725372637D30E226F94
:10577C00000173DD24C622F6B5DD760E0601226F1C
:10578C0000016BDD920E0601226F0001ABDD90EF84
:10579C0023F0680E0601226F00015FDDCBC522F6F7
:1057AC00A1DD690E0601226F000157DDCCC522F682
:1057BC0099DD6A0E0601226F00014FDDE0C522F66D
:1057CC0091DD6B0E0601226F000147DDE1C522F66B
:1057DC0089DD6C0E0601226F00013FDDCDC522F67E
:1057EC0081DD6D0E0601226F000137DDCEC522F67C
:1057FC0079DD6E0E0601226F00012FDDE2C522F667
:10580C0071DD6F0E0601226F000127DDE3C522F664
:10581C0069DD770E0601226F00011FDD48C522F6F7
:10582C0061DD780E0601226F000117DD49C522F6F5
:10583C0059DD790E0601226F00010FDD4AC522F6F3
:10584C0051DD7A0E0601226F000107DD4BC522F6F1
:10585C0049DD5EC523F65FC524F660C525F661C536
:10586C0026F6D20E0601226F0001F7DC24C622F6C2
:10587C0039DDD890060123372437253726372337CF
:10588C002437253726372337243725372637D40EA8
:10589C00226F0001E2DC23C622F624DDD89006013B
:1058AC002337243725372637233724372537263710
:1058BC00D30E226F0001D1DC24C622F613DD760E46
:1058CC000601226F0001C9DCB00E0601226F000137
:1058DC0009DD90EF23F005016A516C5DB76F6B51D8
:1058EC006D59B86F7651745DBB6F77517559BC6F3C
:1058FC00B7C505F5B8C506F5076A086ABBC509F54D
:10590C00BCC50AF50B6A0C6A0001E1EC31F000C56C
:10591C0070F501C571F502C572F503C573F5050186
:10592C006A51685D6E6F6B5169596F6F70C505F583
:10593C0071C506F572C507F573C508F56EC509F591
:10594C006FC50AF50B6A0C6A000153EC31F005C502
:10595C00B7F506C5B8F507C5B9F508C5BAF505011B
:10596C007651B725BB6F7751B821BC6F6651BB25FB
:10597C00886F6751BC21896F00011200010E476EC0
:10598C00010E276E69EC1FF019EE8EF0066A6A0E96
:10599C00F66E650EF76E000EF86E44EC32F009EE02
:1059AC0003F014EC31F009EE8EF006C5EFF48E0E18
:1059BC000501A96F240EAA6F010E276E00017DEC64
:1059CC001FF019EE8EF0860EF66E650EF76E000E59
:1059DC00F86E3EEC32F08E0E0501A96F240EAA6F04
:1059EC00010E276E000148EC1FF0010E476E010EF0
:1059FC00276E69EC1FF065C510F5C0EC0EF019EEC2
:105A0C008EF0066AA60EF66E650EF76E000EF86E38
:105A1C0044EC32F008EEBDF314EC31F009EE8EF0EC
:105A2C0006C5EFF48E0E0501A96F240EAA6F010EA8
:105A3C00276E000148EC1FF0010E476E010E276E19
:105A4C0069EC1FF019EE8EF0CA0EF66E650EF76E4D
:105A5C00000EF86E3EEC32F08E0E0501A96F240E8E
:105A6C00AA6F010E276E000148EC1FF0020E476E64
:105A7C00010E276E69EC1FF05CC5BEF50501BF6B0E
:105A8C000001A7DA19EE8EF0066AE20EF66E650ECC
:105A9C00F76E000EF86E44EC32F009EE2CF0BEDB23
:105AAC0009EE8EF006C5EFF48E0E0501A96F240EDB
:105ABC00AA6F010E276E00017DEC1FF0010E476EE0
:105ACC00010E276E69EC1FF003C4BEF5FBEC34F03D
