:020000040800F2
:108000004810002005810008098100080B81000844
:108010000D8100080F810008118100080000000098
:1080200000000000000000000000000013810008B4
:108030001581000800000000178100081981000860
:108040001B8100081B8100081B8100081B810008A0
:108050001B8100081B8100081B8100081B81000890
:108060001B8100081B8100081B8100081B81000880
:108070001B8100081B8100081B8100081B81000870
:108080001B8100081B8100081B8100081B81000860
:108090001B8100081B8100081B810008CD8300089C
:1080A0001B8100081B8100081B8100081B81000840
:1080B0001B8100081B8100081B8100081B81000830
:1080C0001B8100081B8100081B8100081B81000820
:1080D0001B8100081B8100081B8100081B81000810
:1080E0001B8100081B8100081B810008DFF810D0ED
:1080F00000F048F800480047CD970008AFF3008033
:108100004810002005480047FEE7FEE7FEE7FEE7CF
:10811000FEE7FEE7FEE7FEE7FEE7FEE7ED8000088C
:108120002DE9F05F0546002092469B4688460646AC
:10813000814640241BE0284641464746224600F03F
:1081400042F853465A46C01A914110D31146184678
:10815000224600F029F82D1A67EB01084F46224607
:108160000120002100F020F817EB00094E41201EED
:10817000A4F10104DFDC484631462A464346BDE807
:10818000F09F0000064C074D06E0E06840F0010358
:1081900094E8070098471034AC42F6D3FFF7AAFFE3
:1081A000E098000800990008202A04DB203A00FA31
:1081B00002F1002070479140C2F1200320FA03F33E
:1081C000194390407047202A04DB203A21FA02F03C
:1081D0000021704721FA02F3D040C2F12002914001
:1081E00008431946704770B50C460546C1B25A207F
:1081F00000F050FA290A5B2000F04CFAE1B25C2052
:1082000000F048FA210ABDE870405D2000F042BA53
:1082100070B50C460546C1B2562000F03BFA290A5B
:10822000572000F037FAE1B2582000F033FA210A63
:10823000BDE87040592000F02DBA10B50446C1B217
:10824000502000F027FAC4F30721512000F022FA51
:10825000C4F30741522000F01DFA210EBDE8104082
:10826000532000F017BA10B50446C1B2542000F0F4
:1082700011FA210ABDE81040552000F00BBA0000A9
:108280002DE9104000F00FFA0007FBD410BD0000EC
:108290002DE9104000F007FA0007FBD410BD10B51F
:1082A000B62000F06FF900F06FF9C007FBD110BDE8
:1082B0002DE9104000F0F7F94007FBD510BD10B5CF
:1082C000132000F05FF900F05FF9BDE8104000F006
:1082D000DF0000F05EB910B5122000F053F900F095
:1082E00053F9BDE8104040F0400000F052B90000E2
:1082F0002DE9F84F4FF485740F260025671E4FF6C1
:10830000FF7800BFC5F11F0008EAC0200090681C7C
:10831000704383B206FB05F081B2BAB2002000F0D0
:108320001DFA6D1C1F2DEDDB002040F2DF1ABAB2E2
:10833000C6EB46115346009000F010FA07260025C0
:10834000681E4FF4FC6900EB440700BFC5F13F0015
:1083500009EA40100090681C704383B206FB05F0E8
:1083600081B2BAB2204600F0F9F96D1C3F2DEDDB69
:108370000020BAB20090C6EB8611204657465346FD
:1083800000F0ECF90F2608EA4404002540F21F38FB
:10839000C5F11F0000F01F000090681C704383B2FD
:1083A00006FB05F081B22046424600F0D7F96D1C6D
:1083B0001F2DEDDB00200090C6EB461120463B460A
:1083C000424600F0CBF9BDE8F88F000010B54FF43D
:1083D0000074204600F014F8002807D0044901205A
:1083E00008702046BDE8104000F004B810BD000041
:1083F0001A00002001490860704700001404014081
:10840000064A014600201268044B0A4014331B68D8
:108410000B4202D0002A00D0012070470004014026
:1084200010B5012000F0AEF800F0AEF8BDE8104045
:1084300040F0020000F0ADB810B50446D22000F0C4
:10844000A1F8200A00F0A5F8D32000F09BF8C4F3AF
:10845000C70000F09EF8D42000F094F8E006BDE8D4
:108460001040000E00F095B8F0B5CA78002502F073
:108470000F03D20601D58A7813430A784FF00F0E06
:1084800012F0FF0F4FF001021CD004680F8802FAAF
:1084900005F63740B74211D14FEA850C0EFA0CF7BA
:1084A00024EA070703FA0CF43C43CF78282F02D0C4
:1084B000482F02D002E0466100E006616D1C082DE5
:1084C000E4D304600C88FF2C1ED944685FF00006DA
:1084D00006F1080702FA07F50F882F40AF420FD1C7
:1084E0004FEA860C0EFA0CF7BC4303FA0CF73C4338
:1084F000CF78282F00D14561CF78482F00D1056172
:10850000761C082EE4D34460F0BD416170470161E0
:10851000704770B50C460546C1B25F2000F0BAF84E
:10852000290A602000F0B6F8E1B2612000F0B2F84C
:10853000210ABDE87040622000F0ACB810B50320FD
:1085400000F020F800F020F8BDE8104000F0FB003B
:1085500000F01FB810B5132000F014F800F014F864
:10856000BDE8104000F07F0000F013B810B5012006
:1085700000F008F800F008F8BDE8104040F00100F5
:1085800000F007B800F0F6BB00B500F007FCC0B281
:1085900000BD00F017BC10B5082804D21920FFF761
:1085A000F1FF002007E0FF2101EBD000C4B2192049
:1085B000FFF7E8FF2046BDE81040FFF7EABF10B51F
:1085C000082804D21820FFF7DDFF002007E0FF2174
:1085D00001EBD000C4B21820FFF7D4FF2046BDE85D
:1085E0001040FFF7D6BF2DE9F0414E1E0546C6F3F9
:1085F000072408280AD21420FFF7C4FF0020FFF741
:10860000C8FF1520FFF7BEFFE8B20FE0FF2000EB28
:10861000D500C7B21420FFF7B5FF3846FFF7B9FF02
:1086200005F007051520FFF7ADFF2846FFF7B1FF5E
:10863000F5B21A20FFF7A6FF2846FFF7AAFF1B2076
:10864000FFF7A0FF2046BDE8F041FFF7A2BF70B5DD
:10865000044608280AD21620FFF794FF0020FFF7EF
:1086600098FF1720FFF78EFFE0B20FE0FF2000EB2E
:10867000D400C5B21620FFF785FF2846FFF789FF13
:1086800004F007041720FFF77DFF2046BDE8704087
:10869000FFF77FBF10B50C46FFF774FF2046BDE81B
:1086A0001040FFF776BF00F0BDBB10B5401EC4B24E
:1086B0001F20FFF767FF2046BDE81040FFF769BFA6
:1086C00010B5401EC4B21E20FFF75CFF2046BDE877
:1086D0001040FFF75EBF10B5401EC4B21C20FFF76C
:1086E00051FF2046FFF755FF1D20FFF74BFFBDE868
:1086F00010400020FFF74DBF2DE9F05F1D46DDE97A
:108700000C98DDE90ABA16460F460446FFF788FEC4
:1087100014B1012C03D004E000F0E8FB01E000F00C
:10872000F1FB00F0FBFB384600F010FB2946304619
:10873000FFF7EFFE2946304600F02AFA5146584628
:1087400000F071FA484600F05EFA404600F03DFA4B
:1087500000F03DFDBDE8F05FFFF7A1BD2DE9F04160
:10876000054606981E4617460C4680B2FFF764FE83
:108770002146284600F002FD3146384600F0E1FC73
:1087800000F031FDBDE8F041FFF77ABD38B50121B9
:10879000042000F09BF90820ADF8000010208DF8AF
:1087A000030003200A4C8DF8020069462046FFF7BB
:1087B0005BFE08212046FFF7A8FE322000F0C6FF2E
:1087C00008212046FFF7A3FE642000F0BFFF38BD5C
:1087D0000008014010B5642000F0B8FFFFF7D6FF95
:1087E00000F04CFD642000F0B1FF00BFFFF75BFF1D
:1087F0008007FBD4BDE8104000F0C2B82E482F49D6
:108800002F4BB0FBF1F201FB1202B2FBF3F2B0FB13
:10881000F1F170B5052A00D3491CCAB2294801EB11
:108820004101C9B2827041700170642902D964218A
:1088300001704170412A01D94121817041784D0078
:10884000017880784C0046000520FFF79BFE300A37
:1088500040F0CA00FFF79DFE0720FFF793FE280AAD
:1088600040F0CA00FFF795FE0920FFF78BFE200AB3
:1088700040F0CA00FFF78DFE0620FFF783FEF0B23E
:10888000FFF787FE0820FFF77DFEE8B2FFF781FEC5
:108890000A20FFF777FEE0B2FFF77BFE0020FFF72C
:1088A00071FE012000F06CFF8020FFF772FEBDE832
:1088B0007040012000F04ABF8013100240420F00B8
:1088C000A0860100080000202DE9F0411E46174651
:1088D0000C460546DDF8188000F0C6FA384600F070
:1088E000C0FB34B1012C07D0022C08D0032C09D0D6
:1088F0000AE000F0C7FA07E000F0D0FA04E000F068
:10890000DBFA01E000F0E6FA304600F0C4FB404636
:1089100000F0B1FB012D05D0002D07D1BDE8F041DD
:1089200000F06CBCBDE8F04100F045BCBDE8F08152
:1089300010B504462921E020FFF7ACFE0321E12019
:10894000FFF7A8FE4FF47A70B0FBF4F041F68461B3
:10895000B1FBF0F0801E84B2E1B2E220FFF79AFE94
:10896000210AE320FFF796FE0121E420FFF792FEA3
:10897000FFF79EFCBDE81040012000F0E7BE0000BC
:1089800010B5FFF73BFF04484078FFF7D1FFBDE883
:10899000104000F02DBB00000800002010B500F0D2
:1089A000A3FC0A2000F0D2FE012010BD10B5044641
:1089B000C1B22020FFF76EFEC4F307212120FFF78C
:1089C00069FEC4F307412220FFF764FE210EBDE8D3
:1089D00010402320FFF75EBE10B50446C1B224202C
:1089E000FFF758FE210ABDE810402520FFF752BED0
:1089F00070B50C460546C1B22620FFF74BFE290A8A
:108A00002720FFF747FEE1B22820FFF743FE210AA7
:108A1000BDE870402920FFF73DBE10B50220FFF7EA
:108A2000B1FDFFF7B1FDBDE8104000F0F900FFF720
:108A3000B0BD10B55E20FFF7A5FDFFF7A5FD00F066
:108A4000FD00BDE8104040F00100FFF7A2BD10B5E9
:108A50000320FFF797FDFFF797FDBDE8104000F0FA
:108A6000FC00FFF796BD10B55E20FFF78BFDFFF70A
:108A70008BFDBDE8104000F0FB00FFF78ABD10B58C
:108A80001220FFF77FFDFFF77FFDBDE8104040F0AB
:108A90008000FFF77EBD10B51220FFF773FDFFF7D2
:108AA00073FDBDE8104000F0F800FFF772BD00F064
:108AB000D7B80000044A0029D16901D0014300E081
:108AC0008143D1617047000000100240044A002930
:108AD000916901D0014300E081439161704700003A
:108AE0000010024030B51F494A6812F00C031E4ABC
:108AF00003D0042B01D0082B21D002604A680F2339
:108B00001A4C03EA1212A35C0268DA4042604B6816
:108B1000072505EA1323E35C22FA03F383604B681D
:108B200005EAD323E35CDA40C2604968032303EA21
:108B30009131231F595CB2FBF1F1016130BD4A68EC
:108B40004B6802F470124FF0020413F4803F04EB00
:108B5000924202D04B689B0301D5054B00E0024BCB
:108B60005A43CAE70010024000127A003800002081
:108B700000093D0010B50220FFF704FDFFF704FDDA
:108B800000F07F00BDE8104040F04000FFF701BD5D
:108B900070B505460C46C020FFF7F4FCE8B2FFF7BD
:108BA000F8FCC120FFF7EEFC280AFFF7F2FCC22018
:108BB000FFF7E8FCE0B2FFF7ECFCC320FFF7E2FCB4
:108BC000200ABDE87040FFF7E4BC10B50446BC20A5
:108BD000FFF7D8FCE0B2FFF7DCFCBD20FFF7D2FCCA
:108BE000C4F30720FFF7D5FCBE20FFF7CBFCC4F38E
:108BF0000740FFF7CEFCBF20FFF7C4FC200EBDE806
:108C00001040FFF7C6BC10B50446CA20FFF7BAFCF7
:108C1000E0B2FFF7BEFCCB20FFF7B4FC200ABDE8B2
:108C20001040FFF7B6BC70B505460C46C620FFF7EE
:108C3000A9FCE8B2FFF7ADFCC720FFF7A3FC280AA8
:108C4000FFF7A7FCC820FFF79DFCE0B2FFF7A1FCEF
:108C5000C920FFF797FC200ABDE87040FFF799BCD8
:108C600070B586B001210820FFF730FF012188038D
:108C7000FFF720FF4FF46045ADF8145018208DF831
:108C80001700204E03248DF8164005A93046FFF743
:108C9000EBFB29463046FFF73AFCB514ADF814500B
:108CA00010208DF817008DF8164005A93046FFF703
:108CB000DBFB29463046FFF72AFC0020ADF8000018
:108CC000ADF804004FF48271ADF802100221ADF846
:108CD00006100121ADF80C00ADF80810ADF80E003B
:108CE00049020720084CADF80A10ADF8100069469B
:108CF000204600F07BF80121204600F031F806B054
:108D000070BD0000000C01400038004010B500218B
:108D10004FF6FE730C4A03E0491C89B299420BD20C
:108D20001488A407F8D50849091D0880002005E02B
:108D3000401C80B2984201D3002010BD1488E40783
:108D4000F6D0088810BD00000838004010B5044671
:108D5000BB20FFF717FC2046BDE81040FFF719BC09
:108D60000029018802D041F0400101E021F04001DA
:108D70000180704730B5084C0546206820F48050CB
:108D800020600020FFF7C2FF2846FFF7BFFF2068E2
:108D900040F48050206030BD0C0C014010B5084CF0
:108DA000206820F480502060C020FFF7AFFFFF2034
:108DB000FFF7ACFF216841F48051216010BD000035
:108DC0000C0C014030B5084C0546206820F480505A
:108DD00020608020FFF79AFF2846FFF797FF206862
:108DE00040F48050206030BD0C0C014030B502884A
:108DF0004C8802F441530A88CD8822438C882C4346
:108E000022430C8922434C8922438C892243CC89FA
:108E100022431A430280828B22F400628283098AF1
:108E2000018230BD10B5084C206820F480502060CD
:108E30004020FFF76BFFFF20FFF768FF2168C0B2FB
:108E400041F48051216010BD0C0C014010B5102080
:108E5000FFF798FBFFF798FB00F0F700BDE8104024
:108E600040F00400FFF795BB10B58520FFF78AFBA3
:108E7000FFF78AFB00F0FB00BDE8104040F008005F
:108E8000FFF787BB10B58520FFF77CFBFFF77CFB66
:108E9000BDE8104000F03F00FFF77BBB10B5852018
:108EA000FFF770FBFFF770FB00F07F00BDE810409C
:108EB00040F04000FFF76DBB10B58520FFF762FB67
:108EC000FFF762FB00F0BF00BDE8104040F08000FB
:108ED000FFF75FBB10B58520FFF754FBFFF754FB8E
:108EE000BDE8104040F0C000FFF753BB10B5B720FD
:108EF000FFF748FBFFF748FBBDE8104000F07F009C
:108F0000FFF747BB10B5B720FFF73CFBFFF73CFB73
:108F1000BDE8104040F08000FFF73BBB10B5B72024
:108F2000FFF730FBFFF730FBBDE8104040F040009A
:108F3000FFF72FBB0CB50021264801910091026874
:108F400042F4803202604FF4A063026802F40032FF
:108F50000092019A521C0192009A12B9019A9A4207
:108F6000F3D10268920333D5012100911A490A68AE
:108F700042F010020A600A6822F003020A600A68DE
:108F800042F002020A604168416041684160416804
:108F900041F480614160416821F47C114160416885
:108FA00041F4E8114160016841F08071016001689D
:108FB0008901FCD5416821F003014160416841F01D
:108FC000020141604168C1F381010229FAD10CBD5F
:108FD00000910CBD001002400020024010B5044674
:108FE000F020FFF7CFFA2046BDE81040FFF7D1BAD6
:108FF00010B5FFF7BBFAFFF742FDFFF7ABFA00F041
:10900000FBF9FFF75CF900F0EBF94FF4F0714FF466
:109010004870FFF7E8FA8C20FFF719FBA020FFF754
:10902000CEFA1420FFF7B7FA1420FFF754FB0C20F8
:10903000FFF746FB0320FFF738FBFFF72CFD00F09E
:1090400045F9FFF797FDFFF7F4FCFFF7FFFEFFF789
:10905000E4FCFFF773FAFFF7FAFCBDE81040FFF7F6
:1090600002BD10B5441E8420FFF78CFAE0B2BDE8C3
:109070001040FFF78EBA10B504468C20FFF782FA35
:10908000E0B2FFF786FA8D20FFF77CFA200ABDE8F0
:109090001040FFF77EBA10B504468E20FFF772FA33
:1090A000E0B2FFF776FA8F20FFF76CFA200ABDE8EE
:1090B0001040FFF76EBA1FB540F21F364FF00008A0
:1090C0004FF4784940F2DF154FF47A774FF4FC6A99
:1090D0004FF01F0B741C00212B4632460846CDF87A
:1090E0000090FFF73BFB384600F030FB00212B4699
:1090F00032460846CDF800A0FFF730FB384600F0B6
:1091000025FB00212B4632460846CDF800B0FFF77C
:1091100025FB384600F01AFBFFF7EAF8384600F066
:1091200015FB4FF4F071CDE900410023CDE9024871
:109130001A4619460120FFF7DFFA384600F006FB11
:10914000C9E770B505460C466C20FFF71BFAE8B27C
:10915000FFF71FFA6D20FFF715FA280AFFF719FA33
:109160006E20FFF70FFAE0B2FFF713FA6F20FFF758
:1091700009FA200ABDE87040FFF70BBA70B5054642
:109180000C466820FFF7FEF9E8B2FFF702FA692003
:10919000FFF7F8F9280AFFF7FCF96A20FFF7F2F960
:1091A000E0B2FFF7F6F96B20FFF7ECF9200ABDE813
:1091B0007040FFF7EEB910B58620FFF7E3F9FFF72F
:1091C000E3F9BDE8104040F01000FFF7E2B910B538
:1091D000B620FFF7D7F9FFF7D7F9BDE8104040F008
:1091E0000100FFF7D6B910B57620FFF7CBF9E020E4
:1091F000FFF7CFF9BDE81040FFF74AB810B5862059
:10920000FFF7C0F9FFF7C0F9BDE8104000F0EF002C
:10921000FFF7BFB94FF0E0210428086903D020F020
:1092200004000861704740F00400FAE70F4810B5E9
:10923000016841F00101016041680D4A114041603F
:1092400001680C4A11400160016821F4802101602D
:10925000416821F4FE0141604FF41F018160FFF776
:1092600069FE05494FF00060086010BD0010024023
:109270000000FFF8FFFFF6FE08ED00E010B5002447
:10928000FFF711FA800719D4012000F05FFA0120DE
:10929000FFF778F9012000F059FAFFF775F9000699
:1092A00013D4012000F052FA0120FFF76BF90120DE
:1092B00000F04CFA8020FFF76CF901E0641CE4B286
:1092C000052CDDD1FFF762FAD9E710BD10B50120FA
:1092D000FFF758F9FFF758F900F0F700BDE8104024
:1092E00040F01000FFF755B938B501210820FFF70D
:1092F000EDFB4FF48074ADF800404820074D8DF829
:10930000030069462846FFF7AFF821462846FFF7D5
:10931000FEF80820FFF762FE38BD0000000C014097
:109320000029818902D041F4005101E021F400516B
:109330008181704730B50446008A85B00D464CF6F1
:10934000FF710840E98801432182A1894EF6F3109C
:109350000140A8882A8910436A890A431043A081E2
:10936000A08A4FF6FF410840A9890143A1826846BF
:10937000FFF7B8FB1948844201D1039800E0029836
:10938000A189090400EBC00101EB0010296801D597
:10939000490000E08900B0FBF1F06422B0FBF2F17B
:1093A00009010B096FF018056B4300EB8300A389DB
:1093B0001D044FF0320306D503EBC000B0FBF2F002
:1093C00000F0070005E003EB0010B0FBF2F000F046
:1093D0000F000843208105B030BD00000038014077
:1093E00010B51220FFF7CEF8FFF7CEF8BDE8104019
:1093F00000F0F700FFF7CDB810B51320FFF7C2F863
:10940000FFF7C2F8BDE8104000F0BF00FFF7C1B899
:109410000FB4054B10B503A9044A029800F018F8E0
:1094200010BC5DF814FB0000B59700080400002094
:1094300002E008C8121F08C1002AFAD1704770471D
:10944000002001E001C1121F002AFBD1704700007B
:109450002DE9FF4F8DB09B460F460446002606E0DF
:1094600025280BD05A460F999047641C761C20780B
:109470000028F5D111B03046BDE8F08F0025A84690
:109480000122984900E0054314F8013F203B02FA0D
:1094900003F00842F7D120782E2817D114F8010FD5
:1094A00045F004052A280ED06FF02F022078A0F195
:1094B000300109290AD808EB880102EB410100EBD1
:1094C0000108641CF2E757F8048B641C20786C28B0
:1094D0000DD004DC4C2812D06A2811D104E0742885
:1094E0000DD07A280CD10AE045F4001507E0617828
:1094F00045F48015814202D1641C05F58015641C79
:109500002078692844D008DC0028B3D0582867D0D8
:1095100063280FD0642808D13AE0702865D07328FA
:1095200012D075285AD078285AD05A460F999047A9
:10953000761CD5E017F8040B8DF8000000208DF89C
:109540000100E946012003E057F8049B4FF0FF308B
:1095500069074FF0000501D40AE06D1C45450DDA9E
:109560008542FADB19F805100029F6D106E06D1CDA
:109570008542FCDB19F805100029F8D12E4404E0DF
:1095800019F8010B5A460F9990476D1EF8D2A7E0C3
:109590000A200021CDE90801C5F3025002280CD0B1
:1095A00001CFC117021E71F100020CDA0023D0EBCB
:1095B000030063EB01012D2208E0FF1D27F00707E0
:1095C000F7E80201EEE72A0504D52B228DF82820C2
:1095D00001223CE0EA073AD02022F7E70A2000E027
:1095E00010200021CDE9080107E01020002145F0FE
:1095F0000405CDE908014FF00808C5F30250022820
:1096000010D001CF00214FF0000A2A0720D5227880
:10961000702A0DD0DDE908C38CF0100C5CEA030C55
:109620000CD015E0FF1D27F00707F7E80201EAE775
:1096300040228DF828204FF0010A0CE050EA010387
:1096400006D030238DF828308DF82920022292464A
:109650002278582A04D024A20DF120090B9209E0A7
:1096600026A2F9E7DDE90823FEF75AFD0B9B9B5C78
:1096700009F8013D50EA0102F4D1ADEB09002030B8
:109680000890680701D44FF001080899884503DD68
:109690000898A8EB000000E000208046002506E0C6
:1096A0000AA85A46405D0F9990476D1C761C554597
:1096B000F6DB04E030205A460F999047761CB8F14B
:1096C0000001A8F10108F5DC05E019F8010B5A4684
:1096D0000F999047761C0899481E08900029F4DCE1
:1096E000641CC4E609280100303132333435363782
:1096F00038396162636465660000000030313233DE
:10970000343536373839414243444546000000007D
:1097100010B56FF00400FFF77DFD094809490068A6
:10972000B0FBF1F0C1B2084801EB41020170C2EB9D
:10973000C1114FF6FF7202EAC101418010BD000065
:109740002000002000127A00000000200B49498808
:1097500048434FF0E021486100228A61086940F0E7
:10976000010008610869C30701D0C003FAD5086980
:1097700020F0010008618A617047000000000020AD
:109780000B49097848434FF0E021486100228A6183
:10979000086940F0010008610869C30701D0C003EF
:1097A000FAD5086920F0010008618A61704700005D
:1097B0000000002004490A885206FCD5024AC1B2C2
:1097C000121D1180704700000038014008B5FFF7F6
:1097D0002DFDFFF79DFF4FF4E13000F043F81EA090
:1097E000FFF716FEFFF763F9FEF7F4FF0020FFF71F
:1097F000DDF84FF448742046FFF7EEF800210846E4
:10980000FFF7F6F80020FEF718FD2046FEF72BFDC7
:1098100000210846FEF7FCFC4FF4F0712046FEF7ED
:10982000E2FC002040F2DF13621E01460090FEF7CA
:1098300095FF642003460090C82200210120FFF715
:1098400043F8FEF748FDFFF7A9F8FFF734FC0A20BC
:10985000FFF77CFFFBE70000417070204D6F6465EF
:109860000D0A000030B5044685B0012144F2040021
:10987000FFF72CF94FF40070ADF8100003208DF8BD
:1098800012001820144D8DF8130004A92846FEF785
:10989000EBFD2815ADF8100004208DF8130004A985
:1098A0002846FEF7E1FD0020ADF804000094ADF875
:1098B0000600ADF80800ADF80C000C20074CADF820
:1098C0000A0069462046FFF735FD01212046FFF7D3
:1098D00027FD05B030BD0000000801400038014000
:1098E00000990008000000204800000030940008A3
:1098F000489900084800002000100000409400082B
:109900000000000000000000000000F00FC0300C5C
:109910000301020408102040800000000000000045
:1099200000A24A040000000000000000010203043D
:1099300006070809020406080000000001020304EB
:089940000102030406070809F7
:04000005080080ED82
:00000001FF
