:020000040800F2
:10000000B01B002071D60008250400082704000852
:100010002B0400082F04000833040008000000002F
:10002000000000000000000000000000370400088D
:1000300039040008000000003B0400083D040008EB
:100040008BD600088BD600088BD600088BD600080C
:100050008BD600088BD600088BD600088BD60008FC
:100060008BD600088BD600088BD600088BD60008EC
:100070008BD600088BD600088BD600088BD60008DC
:100080008BD600088BD600088BD600088BD60008CC
:100090008BD600088BD600088BD600088BD60008BC
:1000A0008BD600088BD600088BD600088BD60008AC
:1000B0008BD600088BD600088BD600088BD600089C
:1000C0008BD600088BD600088BD600088BD600088C
:1000D0008BD60008E7D500088BD600088BD6000821
:1000E0008BD600088BD600088BD600088BD600086C
:1000F0008BD600088BD600088BD600088BD600085C
:100100008BD600088BD600088BD600088BD600084B
:100110008BD600088BD600088BD600088BD600083B
:100120008BD600088BD600088BD600088BD600082B
:100130008BD600088BD600088BD600088BD600081B
:100140008BD600088BD600088BD600088BD600080B
:100150008BD600088BD600088BD600088BD60008FB
:100160008BD600088BD600088BD600088BD60008EB
:100170008BD600088BD600088BD600088BD60008DB
:100180008BD600088BD6000800F002F800F066F865
:100190000AA090E8000C82448344AAF10107DA45E2
:1001A00001D100F05BF8AFF2090EBAE80F0013F0CE
:1001B000010F18BFFB1A43F001031847D4030100D5
:1001C000F40301000A444FF0000C10F8013B13F057
:1001D000070408BF10F8014B1D1108BF10F8015BA0
:1001E000641E05D010F8016B641E01F8016BF9D193
:1001F00013F0080F1EBF10F8014BAD1C0C1B09D1EA
:100200006D1E58BF01F801CBFAD505E014F8016B5B
:1002100001F8016B6D1EF9D59142D6D370470000ED
:100220000023002400250026103A28BF78C1FBD8FF
:10023000520728BF30C148BF0B60704764290EF0D9
:10024000938178290EF0CC81002070471FB50FF004
:100250001CFE0EF08EFA1FBD10B510BD0EF036FB61
:100260001146FFF7F3FF00F023F80EF054FB03B440
:10027000FFF7F2FF03BC0DF057F900000B49D1F86E
:1002800000C04A685CF8043B1068184442F8040B4C
:100290008C4528BFA1F1DC0C8A4228BFA1F1DC0209
:1002A000C1F800C04A6020F00040704744150020AB
:1002B0001FB54FF4A0600DF0FBF9A8200DF0B2F8C7
:1002C0004FF4E1300DF03DF900F0C2F900F0E0F933
:1002D00000F0DDFB00F060FD4FF4967000F0B3FA23
:1002E00003F0AEFB04F008FF05F0AAFD4FF4967092
:1002F00000F0A9FA64200346C822002100900120E2
:1003000002F0BDFB00F01EFA83E04FF461304FF4C1
:10031000A071F022CDE9001200231A46CDE90210A7
:100320001946012001F050FC00F00CFA4FF4E120D6
:100330004FF4A071F022CDE9001200231A46CDE956
:1003400002101946012001F03FFC00F0FBF9314892
:100350004FF4A071F022CDE9001200231A46CDE936
:1003600002101946012001F02FFC00F0EBF94FF4C8
:1003700061204FF4A071F022CDE9001200231A464B
:10038000CDE902101946012001F01EFC00F0DAF957
:1003900021484FF4A071F022CDE9001200231A4643
:1003A000CDE902101946012001F00EFC00F0CAF957
:1003B0001A484FF4A071F022CDE9001200231A462A
:1003C000CDE902101946012001F0FEFB00F0BAF958
:1003D00013484FF4A071F022CDE9001200231A4611
:1003E000CDE902101946012001F0EEFB00F0AAF958
:1003F0004FF4E1104FF4A071F022CDE90012002378
:100400001A46CDE902101946012001F0DDFB00F08B
:1004100099F97AE7008C0A00009411000018150081
:10042000009C1800704700BFFEE700BFFEE700BF5A
:10043000FEE700BFFEE77047704770477047000057
:100440000CB50020019000907648006840F48030A0
:100450007449086000BF7348006800F400300090E1
:100460000198401C0190009818B90198B0F5A04F70
:10047000F1D16C48006800F4003010B10120009008
:1004800001E0002000900098012846D165484030E6
:10049000006840F08050634940310860624800685D
:1004A00040F44040604908605E48083000685D499B
:1004B000083108600846006840F4004008600846BB
:1004C000006840F4A05008605848091F0860081FE1
:1004D000006840F08070091F086000BF5148006844
:1004E00000F000700028F9D040F205705049086013
:1004F0004C480830006820F003004A490831086081
:100500000846006840F00200086000BF4548083017
:10051000006800F00C000828F8D10CBD10B5454863
:10052000006840F47000434908603E48006840F0AD
:1005300001003C49086000203A4908310860394808
:1005400000683D490840374908603C48091D08607B
:10055000081F006820F48020091F0860002031492E
:100560000C310860FFF76CFF4FF0006031498039B3
:10057000086010BD70B50020002202230024022173
:10058000284D08352D6805F00C0020B1042806D050
:10059000082834D107E02A4D2A4E356033E02A4D31
:1005A000284E35602FE01F4D2D1D2D68C5F380545A
:1005B0001C4D2D1D2D6805F03F0154B1224DB5FB9A
:1005C000F1F5184E361D3668C6F3881605FB06F29F
:1005D00009E01B4DB5FBF1F5124E361D3668C6F32A
:1005E000881605FB06F20F4D2D1D2D68C5F301453C
:1005F0006D1C6B00B2FBF3F5124E356003E0104D3D
:10060000104E356000BF00BF064D08352D68C5F39C
:1006100003150E4E705D0B4D2D68C540094E3560BB
:1006200070BD0000003802400070004008544007D0
:10063000003C024088ED00E0FFFFF6FE1030002491
:100640000024F4000000002000127A0004000020C2
:100650001CB5012120200DF0BFFB4FF4C0600090BD
:1006600001208DF8040000208DF8060003208DF88D
:10067000050001208DF80700694604480DF00EF9C9
:100680004FF4C06101480DF085F91CBD0014024013
:100690001CB5012111200DF09FFB1C2000900020B3
:1006A0008DF8040003208DF8050001208DF8070067
:1006B00069465A480DF0F2F80120009002208DF8AA
:1006C0000700694656480DF0E9F81CBD10B55548BD
:1006D0000078E8B1082151480DF042F920B1042119
:1006E0004E480DF03DF998B90A200CF0FDFE0020AF
:1006F0004C490870082149480DF032F908B9022028
:1007000010BD042145480DF02BF978B90320F7E717
:10071000082142480DF024F9012807D104213F485F
:100720000DF01EF9012801D13E4908700020E7E7CD
:1007300010B5002400BF00BFFFF7C8FF0446002C1F
:10074000F9D010BD10B50A200CF0CEFE10BD70B56A
:1007500004460025002600BF0EE001200CF0C4FE78
:10076000FFF7B4FF0546022D01D1012070BD032D16
:1007700001D10120FAE7761CA642EED30020F5E76E
:100780002DE9F04100240027A046002500262AE09C
:1007900001200CF0A9FEFFF799FF044677B9B8F1E4
:1007A000000F0BD1022C01D0032C07D1022C01D158
:1007B000012703E0032C01D14FF00108012F07D1DD
:1007C000082116480DF0CCF808B96D1C0BE00BE0C1
:1007D000B8F1010F07D1042110480DF0C1F808B994
:1007E000761C00E000E0D3E700BFB5F5FA7F02D346
:1007F0000320BDE8F08125B1B5F5FA7F01D20120D3
:10080000F7E7B6F5FA7F01D30320F2E726B1B6F594
:10081000FA7F01D20220ECE70020EAE70010024054
:100820000000024014000020002106E00C2100BF5F
:100830000A1EA1F1010399B2FAD1021EA0F101032F
:1008400098B2F3D17047002107E042F6E06100BFA3
:100850000A1EA1F1010399B2FAD1021EA0F101030F
:1008600098B2F2D170471CB501216A200DF0B4FA9C
:100870003020009001208DF8040000208DF8060043
:1008800002208DF8050069468C480DF007F84FF4FA
:100890000040009000208DF8040002208DF8050033
:1008A000694687480CF0FAFF4FF480500090012011
:1008B0008DF8040000208DF8060002208DF8050058
:1008C000694680480CF0EAFF4FF480500090012008
:1008D0008DF8040000208DF8060002208DF8050038
:1008E000694679480CF0DAFF1CBD0021764A12688F
:1008F00022F04072744B1A601A46126842F08072FD
:100900001A6000BF13E00022704B1A6000F08002F2
:100910001AB101226E4B1A6002E000226C4B1A6081
:1009200001226A4B1A604206100E4A1CD1B20829F5
:10093000E9DB0022654B1A60664BC3F8B0227047B2
:1009400000210020604A126822F040725E4B1A605B
:100950001A4612681A6000BF15E04206100E002207
:100960005A4B1A6000BF00BF5A4AD2F83022012AFF
:1009700002D140F0010001E000F0FE000122534BE3
:100980001A604A1CD1B20829E7DB00224F4B1A60DB
:10099000704710B5044600204F490860FFF7A5FFD7
:1009A0002046FFF7A2FF01204C49C1F8B00210BD5C
:1009B00010B504460020484908608020FFF795FFE5
:1009C0002046FFF792FF01204449C1F8B00210BD54
:1009D00010B504460020404908608020FFF785FFDD
:1009E000E0B2FFF782FF01203C49C1F8B0020020CD
:1009F000394908608020FFF778FF2012FFF775FF64
:100A000001203649C1F8B00210BD10B50024002005
:100A1000314908604020FFF768FFFFF791FF044667
:100A200001202E49C1F8B002204610BD10B50024A7
:100A3000002029490860C020FFF757FFFFF780FF1B
:100A4000044601202549C1F8B002204610BD10B56A
:100A500004462046FFF79DFF10BD10B50446204612
:100A6000FFF7A6FF10BD10B504462046FFF7B0FF04
:100A700010BD10B50024FFF7C8FF0446204610BD86
:100A800010B50024FFF7D2FF0446204610BD10B574
:100A9000FFF7E9FE10BD70B5FFF7EBFF05462946ED
:100AA0000FA00DF019FD0120FFF7D1FFFFF7E8FFC0
:100AB000C4B221460EA00DF00FFD70BD000C024027
:100AC0000004024000180240001402409482414297
:100AD000B082424200804242B002434200004342A0
:100AE0005374617475733A307825580D0A0000000C
:100AF000523031683A307825580D0A001CB5012172
:100B000008200DF069F91020009001208DF80400F4
:100B100000208DF8060002208DF805006946FC488B
:100B20000CF0BCFE1021FA480CF034FF0A20FFF74D
:100B30008AFE1021F6480CF02FFF6420FFF783FE99
:100B40001021F3480CF026FFC820FFF77CFE1CBDE7
:100B500070B500240026002500BFFFF78AFF00F0D3
:100B60000200F8B90120FFF76EFE0120FFF76FFFCA
:100B70000120FFF768FEFFF783FFC6B206F0800092
:100B8000802802D1012500240FE00120FFF75BFE41
:100B90000120FFF75CFF0120FFF755FE8020FFF7E3
:100BA0005CFF02E00025601CC4B225B9052C02D10F
:100BB000FFF7A4FF0024002DCFD070BD2DE9FE4F1C
:100BC0000024D44CD448B4FBF0F100FB1140D349CD
:100BD000B0FBF1F002900298052804D9CE48B4FB8E
:100BE000F0F0441C02E0CC48B4FBF0F4CC490C70AB
:100BF00004EB4404CB490C70CB490C7008460078D8
:100C0000642801DD64200870C6480078642802DD8D
:100C10006420C4490870C2480078412802DD4120A0
:100C2000BF4908704FF00208C146C2464FF0050B9D
:100C3000052101910091BB480778BB480678B84868
:100C400005780520FFF703FF4FEA881141EA4B01C1
:100C500041EA1520FFF701FF0720FFF7F8FE4FEAF2
:100C60008A12009942EA410141EA1720FFF7F5FE96
:100C70000920FFF7ECFE4FEA8912019942EA41018F
:100C800041EA1620FFF7E9FE0620FFF7E0FE2846BE
:100C9000FFF7E3FE0820FFF7DAFE3846FFF7DDFE38
:100CA0000A20FFF7D4FE3046FFF7D7FE0020FFF7FB
:100CB000CEFE0120FFF7B8FD8020FFF7CEFE012019
:100CC000FFF7C1FDBDE8FE8F70B505462921E02084
:100CD00001F034FF0321E12001F030FF4FF47A707E
:100CE00090FBF5F041F6846191FBF0F084B2A01E18
:100CF00084B2E1B2E22001F021FF2112E32001F0F1
:100D00001DFF0121E42001F019FF01F058FF01202F
:100D1000FFF799FD70BD10B501F0ECFF02F067F828
:100D200002F0BDF802F015F902F0D9F902F0F1F97C
:100D300002F06CFE02F0D2FE02F0B6FE02F0E8FE17
:100D400002F04FFF02F067FF02F07FFFF0214FF447
:100D5000A07003F016F8562003F063F8142003F097
:100D60008DF8012003F0A3F8112003F0B9F8042056
:100D700003F0C7F8012003F0CFF803F08FFA03F077
:100D8000C5FA10BD10B5FFF719FF66480078FFF7E8
:100D90009BFFFFF7C0FF10BD10B5C820FFF753FD44
:100DA000FFF7ACFEFFF777FEFFF7D2FE6420FFF7F8
:100DB0004AFD00BFFFF75DFE00F002000028F9D1F8
:100DC000FFF7E0FF10BD2DE9F04781468A46144643
:100DD0001D46089E02F083F95146484603F01CFA6E
:100DE0002946204603F02CFA5146484603F09DFA66
:100DF0000420FFF72CFE002710E04FF0000809E068
:100E000001F0B0FE3078FFF728FE761C08F10100F3
:100E10001FFA80F8A045F3DB781C87B2AF42ECDB09
:100E200001F0A9FEBDE8F0872DE9F04781468A462A
:100E300015461E46089C02F052F95146484603F0FA
:100E4000EBF93146284603F0FBF95146484603F0DA
:100E50006CFA0420FFF7FBFD002716E04FF00008B6
:100E60000FE001F07FFE2078FFF7F7FD641C01F032
:100E700079FE2078FFF7F1FD641C08F101001FFAEC
:100E800080F8A845EDDB781C87B2B742E6DB01F0BD
:100E900072FEBDE8F0872DE9F04781468A46154687
:100EA0001E46089C02F01BF95146484603F0B4F96F
:100EB0003146284603F0C4F95146484603F035FA56
:100EC0000420FFF7C4FD00271CE04FF0000815E0E8
:100ED00001F048FE2078FFF7C0FD641C01F042FEDF
:100EE0002078FFF7BAFD641C01F03CFE2078FFF784
:100EF000B4FD641C08F101001FFA80F8A845E7DB87
:100F0000781C87B2B742E0DB01F035FEBDE8F08720
:100F1000000C0240786C660040420F00A086010081
:100F20001700002016000020150000202DE9F047D2
:100F300081468A4614461D46089E02F0D0F8514666
:100F4000484603F069F92946204603F079F95146ED
:100F5000484603F0EAF90420FFF779FD002710E086
:100F60004FF0000809E001F0FDFD3078FFF775FD56
:100F7000B61C08F101001FFA80F8A045F3DB781CCD
:100F800087B2AF42ECDB01F0F6FDBDE8F0872DE95A
:100F9000F04781468A4615461E46089C02F09FF897
:100FA0005146484603F038F93146284603F048F9DF
:100FB0005146484603F0B9F90420FFF748FD0027E1
:100FC0001FE04FF0000815E02078FFF746FD01F024
:100FD000C9FDA41C2078FFF740FD01F0C3FDA41C4F
:100FE0002078FFF73AFD01F0BDFDA41C08F10100D7
:100FF0001FFA80F805EBD571B8EB610FE4DB781CC4
:1010000087B2B742DDDB01F0B6FDBDE8F0872DE920
:10101000F04781468A4615461E46089C02F05FF856
:101020005146484603F0F8F83146284603F008F9DF
:101030005146484603F079F90420FFF708FD0027E0
:1010400016E04FF000080FE001F08CFD2078FFF76C
:1010500004FDA41C01F086FD2078FFF7FEFCA41C13
:1010600008F101001FFA80F8A845EDDB781C87B273
:10107000B742E6DB01F07FFDBDE8F0872DE9F041E6
:1010800006460F4614461D46DDF818801FFA88F004
:1010900004F03FFC3946304603F0A2F929462046C9
:1010A00003F0BAF903F07EF901F080FDBDE8F081AC
:1010B0002DE9F04F2DED088B83B005460E461746FF
:1010C0009846DDE914A90024A346002002909FED74
:1010D000FE0BB0EE408AF0EE608A781B0FFA80FBC0
:1010E000A8EB060000B20290BBF1000F06D19FED05
:1010F000F80BB0EE408AF0EE608A13E058460EF02E
:10110000C2FB41EC1A0B02980EF0BDFB41EC1B0B2D
:1011100053EC1A2B0EF002FA41EC190B0EF00BF9FE
:1011200041EC180B9FEDEC0B53EC102B51EC180B12
:101130000EF00EFD1ED89FEDEA0B53EC102B51EC78
:10114000180B0EF0CBFB15D80CE008EB040083B2B3
:10115000301981B23A462846CDF800A0FFF78EFF3D
:10116000601C84B2B9F10000A9F101011FFA81F9F4
:10117000EBD113E00BE039198AB2291988B2434642
:101180003146CDF800A0FFF779FF601C84B2B9F1B9
:101190000000A9F101011FFA81F9ECD103B0BDEC07
:1011A000088BBDE8F08F2DE9F04106460F46144646
:1011B0001D46A8B204F0ADFB3946304603F060FA94
:1011C000204603F095FA03F0CFF901F0EFFCBDE8FB
:1011D000F0812DE9F04106460F4614461D46A8B29F
:1011E00004F097FB3946304603F04AFA204603F0F4
:1011F0007FFA03F0C3F901F0D9FCBDE8F0812DE9D5
:10120000F04705460E4614461F46DDE9088904EB03
:10121000090082B23B4631462846FFF7DAFF4346D3
:10122000224631462846FFF7D4FFBDE8F0872DE976
:10123000F04106460F4614461D46DDF818801FFA99
:1012400088F004F066FB3946304603F035FA29464B
:10125000204603F068FA03F087F901F0A7FCBDE827
:10126000F0812DE9F04106460F4614461D46DDF893
:1012700018801FFA88F004F04CFB3946304603F022
:101280001BFA2946204603F04EFA03F077F901F0E5
:101290008DFCBDE8F0812DE9F84F074688461446DD
:1012A0001D46DDE90A9A0C9EA81983B2A01982B2E4
:1012B00041463846CDF80090FFF7D3FF2B46224633
:1012C00041463846CDF800A0FFF7CBFFBDE8F88FC8
:1012D0002DE9F04106460F4614461D46DDF81880FC
:1012E0001FFA88F004F015FB3946304603F004F984
:1012F0002946204603F01CF903F09AF901F056FC48
:10130000BDE8F0812DE9F04106460F4614461D4622
:10131000DDF81880404604F013FB3946304603F0F0
:10132000EBF82946204603F003F903F08BF901F0AE
:101330003DFCBDE8F0812DE9F84F05460E46174605
:101340009846DDE90A9A0C9C08EB040C1FFA8CF312
:1013500007EB040C1FFA8CF2A6EB040C1FFA8CF1BD
:10136000A5EB040C1FFA8CF0CDF80090FFF7CAFF34
:1013700043463A4631462846CDF800A0FFF7C2FF63
:10138000BDE8F88F2DE9F04706460F4614461D4686
:10139000DDE9099ADDF820801FFA8AF004F0B9FA35
:1013A0003946304603F0A8F82946204603F0C0F835
:1013B0004946404603F0D3F903F04EF901F0F6FB3D
:1013C000BDE8F0872DE9F04706460F4614461D4656
:1013D000DDE9099ADDF820801FFA8AF004F099FA15
:1013E0003946304603F088F82946204603F0A0F835
:1013F0004946404603F0B3F903F038F901F0D6FB53
:10140000BDE8F0872DE9FE4F05460E461746984683
:10141000DDE90DABDDF83090109C08EB040C1FFAF1
:101420008CF307EB040C1FFA8CF2A6EB040C1FFAEA
:101430008CF1A5EB040C1FFA8CF08DE8000EFFF781
:10144000C1FF0F9843463A463146CDE9009A0290D3
:101450002846FFF7B7FFBDE8FE8F2DE9F0470646A7
:101460000F4614461D46DDE9099ADDF820801FFA73
:101470008AF004F04EFA3946304602F0E9FF294678
:10148000204603F001F84946404603F019F802F0FF
:1014900093FF01F08BFBBDE8F0872DE9F04706468E
:1014A0000F4614461D46DDE9099ADDF820801FFA33
:1014B0008AF004F02EFA3946304602F0C9FF294678
:1014C000204602F0E1FF0FE00000000000000000F5
:1014D0000000000000000040000000000000F0BF1D
:1014E000000000000000F03F4946404602F0E8FFDF
:1014F00002F06CFF01F05AFBBDE8F0872DE9FE4FCA
:1015000006460F46904699460CAC94E8300C4B4684
:101510004246394630468DE83008FFF7BEFF4B465D
:101520004246394630468DE83004FFF796FFBDE865
:10153000FE8F2DE9F04106460F4614461D46DDF8A4
:1015400018801FFA88F004F0E4F93946304603F0B9
:10155000B3F82946204603F0E6F803F023F801F03B
:1015600025FBBDE8F0812DE9F04106460F46144603
:101570001D46DDF818801FFA88F004F0CAF93946D4
:10158000304603F099F82946204603F0CCF802F0E3
:10159000FFFF01F00BFBBDE8F0812DE9F0410646AD
:1015A0000F4614461D46DDF818801FFA88F004F037
:1015B000B0F93946304603F07FF82946204603F05B
:1015C000B2F802F0F9FF01F0F1FABDE8F0812DE97F
:1015D000F04106460F4614461D46DDF818801FFAF6
:1015E00088F004F096F93946304603F065F829464C
:1015F000204603F098F802F0E9FF01F0D7FABDE8C1
:10160000F0812DE9F84305460E4617469846DDE978
:101610000849B9F1000F09D0B9F1010F0ED0B9F1A5
:10162000020F13D0B9F1030F20D117E043463A4619
:10163000314628460094FFF796FF18E043463A46A5
:10164000314628460094FFF774FF10E043463A46BF
:10165000314628460094FFF7A0FF08E043463A468B
:10166000314628460094FFF7B2FF00E000BF00BFFC
:10167000BDE8F8832DE9F04106460F4614461D46A5
:10168000DDF818801FFA88F004F043F93946304637
:1016900003F012F82946204603F045F802F0AAFFAD
:1016A00001F084FABDE8F0812DE9F04106460F46CD
:1016B00014461D46DDF818801FFA88F004F029F959
:1016C0003946304602F0F8FF2946204603F02BF851
:1016D00002F086FF01F06AFABDE8F0812DE9F041E1
:1016E00006460F4614461D46DDF818801FFA88F09E
:1016F00004F00FF93946304602F0DEFF2946204655
:1017000003F011F802F080FF01F050FABDE8F0811B
:101710002DE9F04106460F4614461D46DDF81880B7
:101720001FFA88F004F0F5F83946304602F0C4FF9D
:101730002946204602F0F7FF02F070FF01F036FA6A
:10174000BDE8F0812DE9F84305460E461746984658
:10175000DDE90849B9F1000F09D0B9F1010F0ED048
:10176000B9F1020F13D0B9F1030F20D117E04346AE
:101770003A46314628460094FFF796FF18E0434664
:101780003A46314628460094FFF774FF10E043467E
:101790003A46314628460094FFF7A0FF08E043464A
:1017A0003A46314628460094FFF7B2FF00E000BFFA
:1017B00000BFBDE8F8832DE9F05F06460F461446EA
:1017C0001D46DDF838B0DDE90B9ADDF828801FFAF8
:1017D0008BF004F09EF83946304602F039FE294677
:1017E000204602F051FE4946404602F069FE50464E
:1017F0000D9902F098FF6720FFF729F98D20FFF778
:101800002CF901F015FA01F0D1F9BDE8F09F2DE9AE
:10181000F05F06460F4614461D46DDF838B0DDE998
:101820000B9ADDF828801FFA8BF004F072F8394625
:10183000304602F00DFE2946204602F025FE4946BC
:10184000404602F03DFE50460D9902F06CFF6720C5
:10185000FFF7FDF8A720FFF700F901F0E9F901F023
:10186000A5F9BDE8F09F2DE9F05F06460F46144646
:101870001D46DDE90CABDDE90A89109988B204F058
:1018800048F83946304602F0E3FD2946204602F08A
:10189000FBFD4946404602F013FE5946504602F011
:1018A00042FFDDE90E0102F007FF6720FFF7CFF8E6
:1018B0008F20FFF7D2F801F0BBF901F077F9BDE80E
:1018C000F09F2DE9F05F06460F4614461D46DDE900
:1018D0000CABDDE90A89109988B204F01AF8394690
:1018E000304602F0B5FD2946204602F0CDFD4946BE
:1018F000404602F0E5FD5946504602F014FFDDE98E
:101900000E0102F0D9FE6720FFF7A1F8A920FFF72A
:10191000A4F801F08DF901F049F9BDE8F09F2DE937
:10192000F84F05460C4616469A46DDE90B890A9F94
:10193000BC4202DA0120BDE8F88F53463246214608
:101940002846CDF80090FFF78CFC534632462146DE
:101950002846CDF80080FFF76AFCAB199AB2E31B6A
:1019600099B2AB1B98B22346CDF80090FFF7CAFCA2
:10197000E01B81B2534632462846CDF80090FFF76F
:1019800070FCE01B81B2534632462846CDF80080F9
:10199000FFF74DFCE11B8BB2A91B8AB2A91B88B2D1
:1019A0002146CDF80080FFF769FBE11B8BB2A91936
:1019B0008AB2A91988B22146CDF80080FFF75EFBF4
:1019C0000020B8E72DE9FF4F85B0DDE91AAB12AC76
:1019D00094E8F0034B464246CDF800B0DDE905013E
:1019E000FFF790FC4B464246CDF800A0DDE905012B
:1019F000FFF76EFC8DE8F00805A80FC8FFF707FF9A
:101A00008DE8F00405A80FC8FFF7D5FEDDE9180141
:101A10003B463246CDE9031BCDE9008902902946B9
:101A20002046FFF7F4FEDDE918013B463246CDE9DA
:101A3000031ACDE90089029029462046FFF7BBFE34
:101A400009B0BDE8F08F2DE9F04F85B005460E4690
:101A500017469846DDE90EABDDF84090002407FB01
:101A60000B5080B2049008FB0A6080B20390149976
:101A70001298CDE90090029131462846DDE9033203
:101A8000FFF759FC159848B911980090E81982B2EF
:101A900031462846039BFFF735FC0CE015980128DA
:101AA00009D11198009006EB080083B23146284610
:101AB000049AFFF727FC00240EE01398CDE900906C
:101AC00004FB086083B204FB086081B22846049AD4
:101AD000FFF7EEFA601C84B25445EEDB00240EE002
:101AE000139804FB07518AB204FB0751CDE900901B
:101AF00088B23146039BFFF7DBFA601C84B25C4579
:101B0000EEDB05B0BDE8F08F10B501F0B3FF10BDFE
:101B100010B501F0BCFF10BD2DE9F04104460D46A3
:101B200016461F46DDF8188001F03AF90CB903F0AB
:101B300036FA012C01D103F03FFA02F0BCFB03F0AE
:101B400055FA284603F011FC384603F034FC4046B1
:101B500003F06AFC304603F011FC03F014FA03F0C2
:101B600005FA03F010FA02F099FBBDE8F0812DE9C7
:101B7000F04104460D4616461F46DDF8188001F078
:101B80000FF90CB903F00BFA012C01D103F014FA90
:101B900002F091FB03F02AFA03F042FA284603F020
:101BA000E4FB384603F007FC404603F03DFC3046BA
:101BB00003F0E4FB03F0E7F903F0D8F903F0E3F9ED
:101BC00002F06CFBBDE8F0812DE9F05F04460D46A4
:101BD00016461F46DDE90CABDDE90A8901F0E0F8A5
:101BE0000CB903F0DCF9012C01D103F0E5F903F0A5
:101BF000FDF9284603F0B9FB3946304602F095FB63
:101C00003946304603F0F4FB4946404603F029FCD0
:101C1000504603F042FC584603F0B0FB03F0A6F92F
:101C200003F0B1F9BDE8F09F2DE9F05F04460D46E1
:101C300016461F46DDE90CABDDE90A8901F0B0F874
:101C40000CB903F0ACF9012C01D103F0B5F903F0A4
:101C5000CDF9284603F089FB03F0E2F93946304616
:101C600002F063FB3946304603F0C2FB494640466A
:101C700003F0F7FB504603F010FC584603F07EFBE0
:101C800003F074F903F07FF903F0BDF9BDE8F09FAC
:101C90002DE9F04106460C4615461F46DDF8188032
:101CA000102E01D103F035FC182E01D103F040FCB9
:101CB000202E01D103F04BFC012C01D103F0E0FCFC
:101CC000022C01D103F0EBFC032C01D103F0F6FC54
:101CD000042C01D103F001FD012D01D103F00CFD15
:101CE000022D01D103F017FD032D01D103F022FDD8
:101CF000042D01D103F02DFD0FB903F09AFC012F43
:101D000001D103F089FCB8F1000F01D103F077FC99
:101D1000B8F1010F01D103F065FCBDE8F0812DE9B8
:101D2000F04106460F4614461D46DDF8188001F0C6
:101D3000E3F903F0D0FBA0B203F0EBFDA8B203F08F
:101D400044FE3946304602F019FB404604F028F8BC
:101D5000BDE8F0812DE9FF4F81B082461F46DDE9E5
:101D60000EB610AC94E83003102E01D103F0D1FB75
:101D7000182E01D103F0DCFB202E01D103F0E7FB8C
:101D8000012C01D103F07CFC022C01D103F087FC73
:101D9000032C01D103F092FC042C01D103F09DFC33
:101DA000012D01D103F0A8FC022D01D103F0B3FCF9
:101DB000032D01D103F0BEFC042D01D103F0C9FCB9
:101DC000B8F1000F01D103F034FCB8F1010F01D1DB
:101DD00003F022FCB9F1000F01D103F010FCB9F1BE
:101DE000010F01D103F0FEFB3B46CDF800B0504699
:101DF000DDE90212FFF790FE384603F014FE05B04D
:101E0000BDE8F08F2DE9FF5F8346174698460E9D8B
:101E10004FF00009CA460026002401F06DF903F0D6
:101E20004BFBB8B203F075FD1FFA88F003F0CDFD4F
:101E30005846019902F0A2FA2EE0285DA1280BDA9B
:101E400003F049FB0420FEF702FE285DFEF705FEC5
:101E500000F088FE641C1FE003F02EFB0420FEF758
:101E6000F6FD285DA138C0B25E2110FB01F9601CAF
:101E7000285CA1381FFA80FA09EB0A0000F500403F
:101E800086B2300AFEF7E9FD00F06CFEF0B2FEF714
:101E9000E4FD00F067FEA41C285D0028CDD100F011
:101EA00085FE01F01CF9BDE8FF9F2DE9F05F0646B5
:101EB0000F4614461D46DDF838B0DDE90B9ADDF813
:101EC00028800BF0FF0003F00DFD0F99C8B203F05E
:101ED00065FD072002F070FE02F08EFE304602F033
:101EE00047FF284602F059FF3946002002F060FF04
:101EF00002F022FF204602F0E8FF284602F0FAFF37
:101F00004946404603F001F80E2002F066FE5046B6
:101F10000D9903F00EF802F012FE02F02AFEBDE861
:101F2000F09F2DE9F05F06460F4614461D46DDF88A
:101F300038B0DDE90B9ADDF828800BF0FF0003F0E4
:101F4000D1FC072002F038FE02F056FE304602F0C7
:101F50000FFF284602F021FF3946002002F028FF3B
:101F600002F0EAFE204602F0B0FF284602F0C2FF6F
:101F70004946404602F0C9FF0F2002F02EFE5046AF
:101F80000D9902F0D6FF02F0DAFD02F0F2FDBDE895
:101F9000F09F2DE9FF4F8FB0DDF898B0DDE9206AA2
:101FA000DDE91D9400200E900D900C900027002577
:101FB0000B900A9009900890804607900A96CDF8F9
:101FC0002CA002F085F9129802F006F9484602F0BA
:101FD00018F93CE01BF80700A138C0EB001101EB39
:101FE00040104FF6FF7101EA40000E90781C1BF87C
:101FF0000000A13881B20D91DDE90D10084480B2D6
:102000000C9004FB04F0C117069000EB5170C21055
:1020100011990C9800FB0210E11704EB5171C1F308
:10202000CF010594E21704EB5272C2F3CF0204947D
:10203000CDE90024CDE9021004FB05F083B20022B3
:10204000DDE90F01FFF7C0FDBF1C681C85B21BF85E
:1020500007000028BED102F04AF91C9802F0BCF833
:10206000484602F0CEF8002500272498022801DD1A
:10207000022024904FF000086AE052E0DDE90701F9
:10208000884222D104FB056001190998401C09FB14
:1020900000F0814219DD0898401C80B20890099830
:1020A000401C80B209900AEB0400401E25990844A8
:1020B0001FFA80FA099809FB00F004FB0561401A39
:1020C0003044404486B2099807901F98012812D1E5
:1020D000DDE922100294CDE90341059004FB05607F
:1020E00080B2CDE9000A04FB05F081B24B461C9A90
:1020F0001298FFF7DAFE1F9880B92298CDE901A463
:10210000CDE9034004FB056080B2009004FB05F0BC
:1021100081B24B461C9A1298FFF703FFBF1C681C44
:1021200085B21BF807000028A8D11F9000270025C2
:102130000890099007900A984044401C86B20B987A
:102140004044401C1FFA80FA08F101001FFA80F891
:102150002498401C804590DB13B0BDE8F08F2DE93A
:10216000FF4F8FB0DDE9208BDDF898901E9C00209A
:102170000E900D900C90002600250B900A9009906F
:10218000089082460790CDF82880CDF82CB002F058
:102190009FF8129802F020F81D9802F032F846E0FD
:1021A00019F80600A13800EB80004FF6FF7101EA34
:1021B00040100E90701C19F800007F2806DA701C81
:1021C00019F80000403880B20D9005E0701C19F835
:1021D0000000603880B20D90DDE90D10084480B237
:1021E0000C9004FB04F0C117069000EB5170C21074
:1021F0000C99119801FB02002746E11704EB51717D
:10220000C1F3CF01E21704EB5272C2F3CF0205947F
:10221000CDE90024CDE9021004FB05F083B20022D1
:10222000DDE90F01FFF7D0FCB61C681C85B219F878
:1022300006000028B4D102F05AF81C9801F0CCFF37
:102240001D9801F0DEFF00250026AA466CE053E051
:10225000DDE90701884221D104FB058001190998B5
:10226000401C8002814219DD0898401C80B2089011
:102270000998401C80B209900BEB0400401E259980
:1022800008441FFA80FB04FB05810998C1EB8020FC
:10229000404450441FFA80F8099807901F9801287D
:1022A00013D1DDE922100294CDE90341059004FB2E
:1022B000058080B2CDE9000B04FB05F081B24FF43C
:1022C000A0731C9A1298FFF7F0FD1F9888B9229806
:1022D000CDE901B4CDE9034004FB058080B2009054
:1022E00004FB05F081B24FF4A0731C9A1298FFF71B
:1022F00018FEB61C681C85B219F806000028A7D184
:102300001F90002600250890099007900A985044D5
:10231000401C1FFA80F80B985044401C1FFA80FBA9
:102320000AF101001FFA80FA249882458FDB13B06E
:10233000BDE8F08F2DE9F04104460D4616461F46D4
:102340000CB901F001FF012C01D101F0F0FEE8B25F
:1023500001F007FF3946304601F00CFF01F0CDFED9
:10236000BDE8F08110B501F0C8FE10BD10B501F058
:10237000D1FE10BD2DE9F04705460E46174698469A
:10238000DDE9089A00F0D4FE00F0A9FE012D06D088
:10239000022D07D0032D08D0042D0CD108E001F048
:1023A00070FE09E001F07CFE06E001F088FE03E02B
:1023B00001F094FE00E000BF00BF0420FEF747FBE1
:1023C000002404E01AF80400FEF747FB641CFF2C0D
:1023D000F8D900F09EFE304601F0F0FE384601F0DC
:1023E000F4FE4946404601F0D5FE01F030FEBDE85E
:1023F000F08770B506460C4615462946204601F082
:10240000C9FE012E06D0022E07D0032E08D0042EBE
:102410000CD108E001F035FE09E001F041FE06E0D4
:1024200001F04DFE03E001F059FE00E000BF00BFE7
:1024300070BD10B501F00BFE10BD10B501F014FE1B
:1024400010BD2DE9F05F05460C4616461F46DDE936
:102450000CABDDE90A89012C03D101F0B9FA01F0D6
:1024600036FA022C03D101F086FA01F03DFA594602
:10247000504601F090FD304601F0A1FD1FFA89F0B1
:1024800001F0B2FD4146384601F0B9FDDDE90E012B
:1024900001F0C9FD3DB9012C01D101F0F1F9022C87
:1024A00001D101F007FA012D07D1012C01D101F072
:1024B000DAF9022C01D101F0F0F9BDE8F09F2DE925
:1024C000F04105460C4616461F46012C01D101F08D
:1024D000FEF9022C01D101F007FA3DB9012C01D11E
:1024E00001F0CEF9022C01D101F0E4F9012D07D160
:1024F000012C01D101F0B7F9022C01D101F0CDF985
:102500003946304601F047FDBDE8F0812DE9F0473E
:1025100007460C4615461E46DDE9099ADDF820807F
:1025200002F00AFC384602F0D0FC204602F0E2FC41
:102530003146284602F0E9FC5146484602F0F9FCD3
:10254000404603F0E6F90C2002F047FB02F0F7FAF0
:1025500002F00FFBBDE8F0872DE9F05F07460C465F
:1025600015461E46DDF848B0DDE90B9ADDF82880F7
:1025700002F051FB384602F0FBFB204602F00DFC56
:102580003146284602F014FC02F072FB404602F08D
:1025900023FC484602F07AFC50460D9902F081FC7B
:1025A00002F0CAFB0E9802F090FC0F9802F0A2FC19
:1025B000DDE9100102F0A9FC0BF0FF0002F0FCFACB
:1025C000022002F00AFBDDE9130102F0B2FC02F086
:1025D000B6FA02F0CEFABDE8F09F2DE9F05F0746AB
:1025E0000C4615461E46DDF838B0DDE90B9ADDF8DD
:1025F00028801FFA8BF003F0E8F902F00CFB384654
:1026000002F0B6FB204602F0C8FB3146284602F035
:10261000CFFB02F091FB404602F057FC484602F027
:1026200069FC50460D9902F070FC052002F0D5FAC5
:10263000DDE90F0102F07DFC02F081FA02F099FA67
:10264000BDE8F09F2DE9F05F04460D4616461F4693
:10265000DDE90CABDDE90A890CB902F093FA012C33
:1026600001D102F09CFA02F0D6FA284602F080FB73
:10267000304602F092FB4146384602F099FB02F0E8
:102680005BFB484602F021FC504602F033FC584602
:102690000E9902F03AFC0F99C8B202F08DFA0620AA
:1026A00002F09BFADDE9100102F043FC02F047FA68
:1026B00002F05FFABDE8F09F2DE9F05F04460D4699
:1026C00016461F46DDF840B0DDE90B9ADDF828809C
:1026D0001FFA8BF003F079F90CB902F053FA012CD0
:1026E00001D102F05CFA02F096FA284602F040FBB3
:1026F000304602F052FB4146384602F059FB02F0E8
:102700001BFB484602F0E1FB504602F0F3FBDDE91B
:102710000D0102F0FAFB0F99C8B202F04DFA072042
:1027200002F05BFADDE9110102F003FC02F007FAA6
:1027300002F01FFABDE8F09F2DE9FF5F0C46154639
:102740001E46DDE91489139F02F092FA009802F008
:1027500043FB204602F09AFB3146284602F0A1FBDB
:1027600002F0EAFA0E9802F0B0FB0F9802F0C2FBFA
:10277000DDE9100102F0C9FB4146384602F0D9FB01
:102780001299C8B202F018FA002002F026FA02F0FC
:10279000D6F902F040FA0420FEF759F94FF0000A8A
:1027A00014E04FF0000B0BE000F0DCF9B9F800008A
:1027B000FEF759F909F102090BF101001FFA80FB3C
:1027C000BB45F1DB0AF101001FFA80FAC245E8DBE4
:1027D00000F0D1F902F0CDF9BDE8FF9F2DE9FF5FD0
:1027E0000C4615461E46DDE910890F9F0E9988B2EA
:1027F00003F0EBF802F0A0FA009802F066FB204626
:1028000002F078FB3146284602F07FFB414638460D
:1028100002F08FFB042002F0E0F902F090F902F0E0
:10282000FAF90420FEF713F94FF0000A10E04FF018
:10283000000B09E000F096F9B9F80000FEF713F973
:1028400009F102090BF1010BBB45F3D30AF1010AAF
:10285000C245ECD300F08FF902F08BF9BDE8FF9F81
:102860002DE9FF5F0D4616461F46DDF84890DDE96D
:102870000E4800F005FB109988B203F04AF8119950
:1028800088B203F0A2F80F2002F096F902F054FA91
:10289000009802F01AFB284602F02CFB394630461D
:1028A00002F033FB4146204602F043FB082002F0D1
:1028B00094F902F044F90420FEF7C9F84FF0000A39
:1028C00018E04FF0000B0BE000F04CF9B9F80000F5
:1028D000FEF7C9F809F102090BF101001FFA80FBAC
:1028E000E11704EB1171BBEB211FEDDB0AF10100D5
:1028F0001FFA80FAC245E4DB00F03DF902F039F935
:10290000BDE8FF9F2DE9FF5F0D4616461F46DDF827
:102910004490DDE90E4800F0B3FA109988B202F055
:10292000F8FF0F2002F048F902F006FA009802F0D2
:10293000CCFA284602F0DEFA3946304602F0E5FAD3
:102940004146204602F0F5FA092002F046F902F06D
:10295000F6F80420FEF77BF84FF0000A18E04FF07D
:10296000000B0BE000F0FEF8B9F80000FEF77BF872
:1029700009F102090BF101001FFA80FBE11704EBDA
:102980001171BBEB211FEDDB0AF101001FFA80FA88
:10299000C245E4DB00F0EFF802F0EBF8BDE8FF9F82
:1029A0002DE9F05F07460C4615461E46DDE90CABE7
:1029B000DDE90A8902F02FF9384602F0D9F92046FC
:1029C00002F0EBF93146284602F0F2F902F050F934
:1029D000404602F001FA484602F058FA594650467D
:1029E00002F05FFA02F0A8F90E9802F06EFA0F9862
:1029F00002F080FADDE9100102F087FADDE9120148
:102A000002F097FA0A2002F0E8F8149802F0A5FA0A
:102A100002F095F802F0ADF8BDE8F09F2DE9F04125
:102A200005460C4616461F46DDF8188001F06EFF7D
:102A3000304601F0B0FE0CB901F0F4FE012C01D1DA
:102A400001F0FFFE022C01D101F00AFF032C01D19D
:102A500001F015FF384602F045F8404602F033F821
:102A6000012D01D102F00CF80DB902F016F8BDE805
:102A7000F08110B50446204602F025F810BD2DE97E
:102A8000F04105460C4616461F46DDF8188001F059
:102A900012FF304601F07FFE0CB901F087FE012CD9
:102AA00001D101F092FE022C01D101F09DFE032C18
:102AB00001D101F0A8FE384602F032F8404602F09B
:102AC00020F8012D01D101F073FF0DB901F07DFF58
:102AD000BDE8F08110B50446204602F012F810BDA2
:102AE00010B502F0C5FF00F088F810BD10B502F077
:102AF000B7FF00F079F810BD10B50A20FEF7E4F832
:102B000002F0C4FF00F079F810BD10B502F0A8FF84
:102B100000F06AF808480078FEF7D6F810BD10B546
:102B200002F0BCFF00F069F810BD10B502F098FF8C
:102B300000F05AF810BD00001600002070B50546E0
:102B40000C462846FDF783FF2046FDF786FF70BD43
:102B500070B504462046FDF77AFFFDF791FFC5B238
:102B6000284670BD10B500BFFDF783FF00F0800060
:102B70000028F9D110BD10B500BFFDF77AFF00F0B5
:102B800040000028F9D010BD10B500BFFDF771FF5F
:102B900000F020000028F9D110BD10B500BFFDF7EE
:102BA00068FF00F010000028F9D110BD10B500BF7B
:102BB000FDF75FFF00F008000028F9D110BD10B547
:102BC00000BFFDF756FF00F004010029F9D010BD49
:102BD00010B5FDF74EFF00F00200022801D10124DC
:102BE00000E00024204610BD10B500BFFDF741FFF6
:102BF00000F002000028F9D110BD10B500BFFDF7AC
:102C000038FF00F002000028F9D010BD10B500BF59
:102C1000FDF72FFF00F001000028F9D110BD10B51D
:102C200000BFFDF726FF00F001000028F9D010BD1D
:102C300010B500BFFDF71DFF00F008010029F9D114
:102C400010BD10B50020FDF702FFFDF719FFC4B25B
:102C500044F001042046FDF700FF00BFFDF710FF20
:102C6000C4B204F001000028F8D110BD10B5012055
:102C7000FDF7EDFEFDF704FFC4B244F080042046EA
:102C8000FDF7EBFE0120FDF7CFFD10BD10B50120D3
:102C9000FDF7DDFEFDF7F4FEC4B244F0400420462B
:102CA000FDF7DBFE10BD10B50120FDF7D0FEFDF7EE
:102CB000E7FEC4B204F0BF042046FDF7CEFE10BD0F
:102CC00010B50120FDF7C3FEFDF7DAFEC4B244F0F3
:102CD00020042046FDF7C1FE10BD10B50120FDF710
:102CE000B6FEFDF7CDFEC4B204F0DF042046FDF7CA
:102CF000B4FE10BD10B50120FDF7A9FEFDF7C0FE22
:102D0000C4B204F0EF0404F0F7042046FDF7A5FE7A
:102D100010BD10B50120FDF79AFEFDF7B1FEC4B25B
:102D200004F0EF0444F008042046FDF796FE10BDC1
:102D300010B50120FDF78BFEFDF7A2FEC4B244F0F2
:102D4000100404F0F7042046FDF787FE10BD10B50F
:102D50000120FDF77CFEFDF793FEC4B244F01004A1
:102D600044F008042046FDF778FE10BD10B50120A0
:102D7000FDF76DFEFDF784FEC4B244F00404204666
:102D8000FDF76BFE10BD10B50120FDF760FEFDF7ED
:102D900077FEC4B204F0FB042046FDF75EFE10BDD2
:102DA00010B50120FDF753FEFDF76AFEC4B244F0F2
:102DB00002042046FDF751FE10BD10B50120FDF7BD
:102DC00046FEFDF75DFEC4B204F0FD042046FDF7AB
:102DD00044FE10BD10B50120FDF739FEFDF750FE91
:102DE000C4B204F0FE042046FDF737FE10BD10B556
:102DF0000120FDF72CFEFDF743FEC4B244F00104B0
:102E00002046FDF72AFE10BD10B50220FDF71FFE7B
:102E1000FDF736FEC4B204F07F0404F0BF04204680
:102E2000FDF71BFE10BD10B50220FDF710FEFDF7EB
:102E300027FEC4B204F07F0444F040042046FDF7AE
:102E40000CFE10BD10B50220FDF701FEFDF718FEC7
:102E5000C4B204F07F0404F0BF042046FDF7FDFD7A
:102E600010BD10B50220FDF7F2FDFDF709FEC4B25A
:102E700044F0800404F0BF042046FDF7EEFD10BDD1
:102E800010B50220FDF7E3FDFDF7FAFDC4B204F032
:102E90007F0444F040042046FDF7DFFD10BD10B56F
:102EA0000220FDF7D4FDFDF7EBFDC4B204F07F0472
:102EB00004F0BF042046FDF7D0FD10BD10B5022080
:102EC000FDF7C5FDFDF7DCFDC4B244F0800444F01D
:102ED00040042046FDF7C1FD10BD10B50220FDF7EE
:102EE000B6FDFDF7CDFDC4B204F0DF0404F0EF043D
:102EF0002046FDF7B2FD10BD10B50220FDF7A7FD7D
:102F0000FDF7BEFDC4B204F0DF0444F01004204617
:102F1000FDF7A3FD10BD10B50220FDF798FDFDF7EC
:102F2000AFFDC4B244F0200404F0EF042046FDF7E6
:102F300094FD10BD10B50220FDF789FDFDF7A0FD41
:102F4000C4B244F0200444F010042046FDF785FD8F
:102F500010BD10B50220FDF77AFDFDF791FDC4B25A
:102F600004F0FB0404F0FD042046FDF776FD10BDDF
:102F700010B50220FDF76BFDFDF782FDC4B204F031
:102F8000FB0444F002042046FDF767FD10BD10B5B8
:102F90000220FDF75CFDFDF773FDC4B244F00404AC
:102FA00004F0FD042046FDF758FD10BD10B50220C9
:102FB000FDF74DFDFDF764FDC4B244F0040444F098
:102FC00002042046FDF749FD10BD10B50320FDF7B2
:102FD0003EFDFDF755FDC4B204F07F042046FDF729
:102FE0003CFD10BD10B50320FDF731FDFDF748FD98
:102FF000C4B244F080042046FDF72FFD10BD10B58B
:103000000320FDF724FDFDF73BFDC4B244F040046E
:103010002046FDF722FD10BD10B50320FDF717FD7A
:10302000FDF72EFDC4B204F0BF042046FDF715FDE8
:1030300010BD10B50320FDF70AFDFDF721FDC4B258
:1030400004F0DF0404F0EF042046FDF706FD10BD98
:1030500010B50320FDF7FBFCFDF712FDC4B244F0F0
:10306000200404F0EF042046FDF7F7FC10BD10B576
:103070000320FDF7ECFCFDF703FDC4B204F0DF0410
:1030800044F010042046FDF7E8FC10BD10B5032005
:10309000FDF7DDFCFDF7F4FCC4B244F0200444F07D
:1030A00010042046FDF7D9FC10BD10B50320FDF734
:1030B000CEFCFDF7E5FCC4B204F0F7042046FDF7B2
:1030C000CCFC10BD10B50320FDF7C1FCFDF7D8FC0A
:1030D000C4B244F008042046FDF7BFFC10BD10B593
:1030E0000320FDF7B4FCFDF7CBFCC4B204F0FB04F5
:1030F0002046FDF7B2FC10BD10B50320FDF7A7FC7C
:10310000FDF7BEFCC4B244F004042046FDF7A5FC64
:1031100010BD10B50320FDF79AFCFDF7B1FCC4B259
:1031200004F0FD0404F0FE042046FDF796FC10BDFB
:1031300010B50320FDF78BFCFDF7A2FCC4B244F0F0
:10314000020404F0FE042046FDF787FC10BD10B514
:103150000320FDF77CFCFDF793FCC4B244F00204AD
:1031600044F001042046FDF778FC10BD10B50B209B
:10317000FDF76DFCFDF784FCC4B244F080042046EA
:10318000FDF76BFC10BD10B50B20FDF760FCFDF7E3
:1031900077FCC4B204F07F042046FDF75EFC10BD4E
:1031A00010B50B20FDF753FCFDF76AFCC4B244F0E8
:1031B00040042046FDF751FC10BD10B50B20FDF773
:1031C00046FCFDF75DFCC4B204F0BF042046FDF7E9
:1031D00044FC10BD10B50B20FDF739FCFDF750FC89
:1031E000C4B244F020042046FDF737FC10BD10B5F2
:1031F0000B20FDF72CFCFDF743FCC4B204F0DF0408
:103200002046FDF72AFC10BD10B50B20FDF71FFC72
:10321000FDF736FCC4B244F010042046FDF71DFC57
:1032200010BD10B50B20FDF712FCFDF729FCC4B250
:1032300004F0EF042046FDF710FC10BD10B50B2084
:10324000FDF705FCFDF71CFCC4B244F00804204661
:10325000FDF703FC10BD10B50B20FDF7F8FBFDF7E3
:103260000FFCC4B204F0F7042046FDF7F6FB10BDD6
:1032700010B50B20FDF7EBFBFDF702FCC4B244F0E8
:1032800004042046FDF7E9FB10BD10B50B20FDF747
:10329000DEFBFDF7F5FBC4B204F0FB042046FDF7AE
:1032A000DCFB10BD10B50B20FDF7D1FBFDF7E8FBF3
:1032B000C4B244F002042046FDF7CFFB10BD10B5A8
:1032C0000B20FDF7C4FBFDF7DBFBC4B204F0FD04EB
:1032D0002046FDF7C2FB10BD10B50B20FDF7B7FB74
:1032E000FDF7CEFBC4B244F001042046FDF7B5FB68
:1032F00010BD10B50B20FDF7AAFBFDF7C1FBC4B252
:1033000004F0FE042046FDF7A8FB10BD10B50C200C
:10331000FDF79DFBFDF7B4FBC4B2204610BD10B510
:103320000C20FDF794FBFDF7ABFBC4B244F0800426
:103330002046FDF792FB10BD10B50C20FDF787FB72
:10334000FDF79EFBC4B244F040042046FDF785FB28
:1033500010BD10B50C20FDF77AFBFDF791FBC4B250
:1033600044F020042046FDF778FB10BD10B50C207A
:10337000FDF76DFBFDF784FBC4B244F0100420465A
:10338000FDF76BFB10BD10B50C20FDF760FBFDF7E2
:1033900077FBC4B244F008042046FDF75EFB10BD85
:1033A00010B50C20FDF753FBFDF76AFBC4B244F0E7
:1033B00004042046FDF751FB10BD10B50C20FDF7AD
:1033C00046FBFDF75DFBC4B244F002042046FDF766
:1033D00044FB10BD10B50C20FDF739FBFDF750FB89
:1033E000C4B244F001042046FDF737FB10BD10B510
:1033F0000D20FDF72CFBFDF743FBC4B244F0800425
:103400002046FDF72AFB10BD10B50D20FDF71FFB70
:10341000FDF736FBC4B244F040042046FDF71DFB27
:1034200010BD10B50D20FDF712FBFDF729FBC4B24E
:1034300044F020042046FDF710FB10BD10B50D2010
:10344000FDF705FBFDF71CFBC4B244F01004204659
:10345000FDF703FB10BD10B50D20FDF7F8FAFDF7E1
:103460000FFBC4B244F008042046FDF7F6FA10BD85
:1034700010B50D20FDF7EBFAFDF702FBC4B244F0E6
:1034800004042046FDF7E9FA10BD10B50D20FDF744
:10349000DEFAFDF7F5FAC4B244F002042046FDF767
:1034A000DCFA10BD10B50D20FDF7D1FAFDF7E8FAF2
:1034B000C4B244F001042046FDF7CFFA10BD10B5A8
:1034C0000D20FDF7C4FAFDF7DBFAC4B204F07F0467
:1034D0002046FDF7C2FA10BD10B50D20FDF7B7FA72
:1034E000FDF7CEFAC4B204F0BF042046FDF7B5FAEA
:1034F00010BD10B50D20FDF7AAFAFDF7C1FAC4B250
:1035000004F0DF042046FDF7A8FA10BD10B50D2029
:10351000FDF79DFAFDF7B4FAC4B204F0EF042046BB
:10352000FDF79BFA10BD10B50D20FDF790FAFDF7E1
:10353000A7FAC4B204F0F7042046FDF78EFA10BDD6
:1035400010B50D20FDF783FAFDF79AFAC4B204F026
:10355000FB042046FDF781FA10BD10B50D20FDF7E4
:1035600076FAFDF78DFAC4B204F0FD042046FDF7AB
:1035700074FA10BD10B50D20FDF769FAFDF780FA59
:10358000C4B204F0FE042046FDF767FA10BD10B582
:103590000E20FDF75CFAFDF773FAC4B244F0200484
:1035A0002046FDF75AFA10BD10B50E20FDF74FFA70
:1035B000FDF766FAC4B244F010042046FDF74DFA58
:1035C00010BD10B50E20FDF742FAFDF759FAC4B24E
:1035D00044F008042046FDF740FA10BD10B50E2057
:1035E000FDF735FAFDF74CFAC4B244F00404204666
:1035F000FDF733FA10BD10B50E20FDF728FAFDF7E0
:103600003FFAC4B244F002042046FDF726FA10BD8A
:1036100010B50E20FDF71BFAFDF732FAC4B244F0E4
:1036200001042046FDF719FA10BD10B50E20FDF774
:103630000EFAFDF725FAC4B204F0DF042046FDF7C8
:103640000CFA10BD10B50E20FDF701FAFDF718FABF
:10365000C4B204F0EF042046FDF7FFF910BD10B529
:103660000E20FDF7F4F9FDF70BFAC4B204F0F704ED
:103670002046FDF7F2F910BD10B50E20FDF7E7F971
:10368000FDF7FEF9C4B204F0FB042046FDF7E5F9AE
:1036900010BD10B50E20FDF7DAF9FDF7F1F9C4B24F
:1036A00004F0FD042046FDF7D8F910BD10B50E203A
:1036B000FDF7CDF9FDF7E4F9C4B204F0FE042046AD
:1036C000FDF7CBF910BD10B50F20FDF7C0F9FDF7E0
:1036D000D7F9C4B204F07F042046FDF7BEF910BD4F
:1036E00010B50F20FDF7B3F9FDF7CAF9C4B244F0E5
:1036F00080042046FDF7B1F910BD10B50F20FDF78D
:10370000A6F9FDF7BDF9C4B204F0BF042046FDF7E9
:10371000A4F910BD10B50F20FDF799F9FDF7B0F928
:10372000C4B244F040042046FDF797F910BD10B52F
:103730000F20FDF78CF9FDF7A3F9C4B204F0DF0404
:103740002046FDF78AF910BD10B50F20FDF77FF96F
:10375000FDF796F9C4B244F020042046FDF77DF948
:1037600010BD10B50F20FDF772F9FDF789F9C4B24D
:1037700004F0EF042046FDF770F910BD10B50F20DE
:10378000FDF765F9FDF77CF9C4B244F0100420465A
:10379000FDF763F910BD10B50F20FDF758F9FDF7DF
:1037A0006FF9C4B204F0F7042046FDF756F910BDD6
:1037B00010B50F20FDF74BF9FDF762F9C4B244F0E4
:1037C00008042046FDF749F910BD10B50F20FDF79C
:1037D0003EF9FDF755F9C4B204F0FB042046FDF7AD
:1037E0003CF910BD10B50F20FDF731F9FDF748F990
:1037F000C4B244F004042046FDF72FF910BD10B503
:103800000F20FDF724F9FDF73BF9C4B204F0FD04E5
:103810002046FDF722F910BD10B50F20FDF717F96E
:10382000FDF72EF9C4B244F002042046FDF715F965
:1038300010BD10B50F20FDF70AF9FDF721F9C4B24C
:1038400004F0FE042046FDF708F910BD10B50F2066
:10385000FDF7FDF8FDF714F9C4B244F00104204669
:10386000FDF7FBF810BD10B51020FDF7F0F8FDF7DF
:1038700007F9C4B244F080042046FDF7EEF810BD0D
:1038800010B51020FDF7E3F8FDF7FAF8C4B204F024
:103890007F042046FDF7E1F810BD10B51020FDF7BC
:1038A000D6F8FDF7EDF8C4B244F040042046FDF729
:1038B000D4F810BD10B51020FDF7C9F8FDF7E0F8F9
:1038C000C4B204F0BF042046FDF7C7F810BD10B520
:1038D0001020FDF7BCF8FDF7D3F8C4B204F0EF04F4
:1038E0002046FDF7BAF810BD10B51020FDF7AFF86F
:1038F000FDF7C6F8C4B244F010042046FDF7ADF859
:1039000010BD10B51020FDF7A2F8FDF7B9F8C4B24C
:1039100004F0F70404F0FB042046FDF79EF810BD08
:1039200010B51020FDF793F8FDF7AAF8C4B204F023
:10393000F70444F004042046FDF78FF810BD10B5DD
:103940001020FDF784F8FDF79BF8C4B244F008049A
:103950002046FDF782F810BD10B51120FDF777F86D
:10396000FDF78EF8C4B204F0FD0404F0FE04204616
:10397000FDF773F810BD10B51120FDF768F8FDF7DD
:103980007FF8C4B204F0FD0444F001042046FDF7C2
:1039900064F810BD10B51120FDF759F8FDF770F867
:1039A000C4B244F0020404F0FE042046FDF755F8CA
:1039B00010BD10B51120FDF74AF8FDF761F8C4B24B
:1039C00004F0F70404F0FB042046FDF746F810BDB0
:1039D00010B51120FDF73BF8FDF752F8C4B204F022
:1039E000F70444F004042046FDF737F810BD10B585
:1039F0001120FDF72CF8FDF743F8C4B244F0080499
:103A000004F0FB042046FDF728F810BD10B5122085
:103A1000FDF71DF8FDF734F8C4B204F07F0420462A
:103A2000FDF71BF810BD10B51220FDF710F8FDF7DB
:103A300027F8C4B244F080042046FDF70EF810BD0C
:103A400010B51220FDF703F8FDF71AF8C4B244F0E0
:103A500040042046FDF701F810BD10B51220FCF718
:103A6000F6FFFDF70DF8C4B204F0BF042046FCF7E2
:103A7000F4FF10BD10B51220FCF7E9FFFDF700F8C8
:103A8000C4B244F020042046FCF7E7FF10BD10B597
:103A90001220FCF7DCFFFCF7F3FFC4B204F0DF04F4
:103AA0002046FCF7DAFF10BD10B51220FCF7CFFF5F
:103AB000FCF7E6FFC4B204F0EF042046FCF7CDFFAC
:103AC00010BD10B51220FCF7C2FFFCF7D9FFC4B23D
:103AD00044F010042046FCF7C0FF10BD10B51220C2
:103AE000FCF7B5FFFCF7CCFFC4B204F0F7042046A6
:103AF000FCF7B3FF10BD10B51220FCF7A8FFFCF7D0
:103B0000BFFFC4B244F008042046FCF7A6FF10BD76
:103B100010B51220FCF79BFFFCF7B2FFC4B204F013
:103B2000F8042046FCF799FF10BD10B51220FCF7F1
:103B30008EFFFCF7A5FFC4B204F0F80444F00104C2
:103B40002046FCF78AFF10BD10B51220FCF77FFF5E
:103B5000FCF796FFC4B204F0F80444F002042046D7
:103B6000FCF77BFF10BD10B51220FCF770FFFCF7CF
:103B700087FFC4B204F0F80444F0020444F00104E6
:103B80002046FCF76AFF10BD10B51220FCF75FFF5E
:103B9000FCF776FFC4B204F0F80444F004042046B5
:103BA000FCF75BFF10BD10B51220FCF750FFFCF7CF
:103BB00067FFC4B204F0F80444F0040444F00104C4
:103BC0002046FCF74AFF10BD10B51220FCF73FFF5E
:103BD000FCF756FFC4B244F007042046FCF73DFF53
:103BE00010BD10B51320FCF732FFFCF749FFC4B23B
:103BF00004F07F042046FCF730FF10BD10B5132001
:103C0000FCF725FFFCF73CFFC4B244F080042046DB
:103C1000FCF723FF10BD10B51320FCF718FFFCF7CD
:103C20002FFFC4B204F0BF042046FCF716FF10BDFE
:103C300010B51320FCF70BFFFCF722FFC4B244F0D1
:103C400040042046FCF709FF10BD10B51320FCF717
:103C5000FEFEFCF715FFC4B244F020042046FCF73A
:103C6000FCFE10BD10B51320FCF7F1FEFCF708FFB9
:103C7000C4B204F0DF042046FCF7EFFE10BD10B51F
:103C80001320FCF7E4FEFCF7FBFEC4B204F0EF04E3
:103C90002046FCF7E2FE10BD10B51320FCF7D7FE5E
:103CA000FCF7EEFEC4B244F010042046FCF7D5FE4B
:103CB00010BD10B51320FCF7CAFEFCF7E1FEC4B23C
:103CC00004F0F7042046FCF7C8FE10BD10B5132021
:103CD000FCF7BDFEFCF7D4FEC4B244F00804204655
:103CE000FCF7BBFE10BD10B51320FCF7B0FEFCF7CF
:103CF000C7FEC4B204F0FB042046FCF7AEFE10BDC4
:103D000010B51320FCF7A3FEFCF7BAFEC4B244F0D2
:103D100004042046FCF7A1FE10BD10B51320FCF7EB
:103D200096FEFCF7ADFEC4B204F0FD042046FCF79D
:103D300094FE10BD10B51320FCF789FEFCF7A0FE21
:103D4000C4B244F002042046FCF787FE10BD10B553
:103D50001320FCF77CFEFCF793FEC4B204F0FE04D3
:103D60002046FCF77AFE10BD10B51320FCF76FFE5D
:103D7000FCF786FEC4B244F001042046FCF76DFE59
:103D800010BD70B504460D46082C1DDA1420FCF752
:103D90005EFE0020FCF761FE1520FCF758FEE0B245
:103DA000FCF75BFE681EC6B21A20FCF750FE3046D8
:103DB000FCF753FE681EC0F307261B20FCF747FEE6
:103DC0003046FCF74AFE2BE02046E11704EB517128
:103DD000C910491ECEB21420FCF739FE3046FCF75C
:103DE0003CFE2046E11704EB5171C910A4EBC10160
:103DF000CEB21520FCF72BFE3046FCF72EFE681ED7
:103E0000C6B21A20FCF723FE3046FCF726FE681ED9
:103E1000C0F307261B20FCF71AFE3046FCF71DFEF8
:103E200070BD70B50446082C0CDA1620FCF70FFEA6
:103E30000020FCF712FE1720FCF709FEE0B2FCF7A9
:103E40000CFE1AE02046E11704EB5171C910491E1F
:103E5000CDB21620FCF7FBFD2846FCF7FEFD204600
:103E6000E11704EB5171C910A4EBC101CDB21720C9
:103E7000FCF7EDFD2846FCF7F0FD70BD70B504467B
:103E8000082C06DA1820FCF7E2FD0020FCF7E5FD1F
:103E90000CE02046E11704EB5171C910491ECDB268
:103EA0001820FCF7D4FD2846FCF7D7FD70BD70B58F
:103EB0000446082C06DA1920FCF7C9FD0020FCF79F
:103EC000CCFD0CE02046E11704EB5171C910491EEE
:103ED000CDB21920FCF7BBFD2846FCF7BEFD70BD36
:103EE00070B50446601EC5B21C20FCF7B0FD284624
:103EF000FCF7B3FD1D20FCF7AAFD2812FCF7ADFD71
:103F000070BD70B50446601EC5B21E20FCF79FFD53
:103F10002846FCF7A2FD70BD70B50446601EC5B210
:103F20001F20FCF794FD2846FCF797FD70BD10B5E7
:103F30000446E1B22020FEF701FEC4F30721212050
:103F4000FEF7FCFDC4F307412220FEF7F7FD210E2A
:103F50002320FEF7F3FD10BD10B50446E1B2242086
:103F6000FEF7ECFD21122520FEF7E8FD10BD70B52F
:103F700004460D46E1B22620FEF7E0FD211227207F
:103F8000FEF7DCFDE9B22820FEF7D8FD2912292032
:103F9000FEF7D4FD70BD70B504460D46E1B22A208F
:103FA000FEF7CCFD21122B20FEF7C8FDE9B22C2034
:103FB000FEF7C4FD29122D20FEF7C0FD70BD10B51F
:103FC0000446E1B22E20FEF7B9FDC4F307212F20ED
:103FD000FEF7B4FDC4F307413020FEF7AFFD210E1C
:103FE0003120FEF7ABFD10BD10B50446E1B2322022
:103FF000FEF7A4FD21123320FEF7A0FD10BD70B521
:1040000004460D46E1B23420FEF798FD211235201A
:10401000FEF794FDE9B23620FEF790FD2912372015
:10402000FEF78CFD70BD70B504460D46E1B2382038
:10403000FEF784FD21123920FEF780FDE9B23A2017
:10404000FEF77CFD29123B20FEF778FD70BD10B510
:104050003C20FCF7FCFCFCF713FDC4B244F0100458
:104060002046FCF7FAFC10BD10B53C20FCF7EFFC35
:10407000FCF706FDC4B204F0EF042046FCF7EDFCAB
:1040800010BD10B53C20FCF7E2FCFCF7F9FCC4B213
:1040900004F0F70404F0FB042046FCF7DEFC10BD3E
:1040A00010B53C20FCF7D3FCFCF7EAFCC4B204F0EA
:1040B000F70444F004042046FCF7CFFC10BD10B513
:1040C0003C20FCF7C4FCFCF7DBFCC4B244F0080461
:1040D00004F0FB042046FCF7C0FC10BD10B53C20EA
:1040E000FCF7B5FCFCF7CCFCC4B244F0080444F087
:1040F00004042046FCF7B1FC10BD10B53C20FCF7D1
:10410000A6FCFCF7BDFCC4B244F002042046FCF758
:10411000A4FC10BD10B53C20FCF799FCFCF7B0FCEA
:10412000C4B204F0FD042046FCF797FC10BD10B5A6
:104130003C20FCF78CFCFCF7A3FCC4B244F0010467
:104140002046FCF78AFC10BD10B53C20FCF77FFC34
:10415000FCF796FCC4B204F0FE042046FCF77DFC9C
:1041600010BD10B504463D20FCF771FC2046FCF75D
:1041700074FC10BD70B504460D463E20FCF767FC8C
:10418000E0B2FCF76AFC3F20FCF761FCE8B2FCF708
:1041900064FC70BD70B504460D46E1B24020FEF7E8
:1041A000CDFC21124120FEF7C9FCE9B24220FEF706
:1041B000C5FC29124320FEF7C1FC70BD10B50446B2
:1041C00021464420FEF7BAFC10BD10B50446214636
:1041D0004520FEF7B3FC10BD10B50446E1B25020F7
:1041E000FEF7ACFCC4F307215120FEF7A7FCC4F393
:1041F00007415220FEF7A2FC210E5320FEF79EFC41
:1042000010BD10B50446E1B25420FEF797FC211210
:104210005520FEF793FC10BD70B504460D46E1B283
:104220005620FEF78BFC21125720FEF787FCE9B2DF
:104230005820FEF783FC29125920FEF77FFC70BD41
:1042400070B504460D46E1B25A20FEF777FC211204
:104250005B20FEF773FCE9B25C20FEF76FFC2912CD
:104260005D20FEF76BFC70BD10B55E20FCF7EFFB28
:10427000FCF706FCC4B204F0F7042046FCF7EDFBA3
:1042800010BD10B55E20FCF7E2FBFCF7F9FBC4B2F1
:1042900044F008042046FCF7E0FB10BD10B55E209A
:1042A000FCF7D5FBFCF7ECFBC4B204F0FB042046A2
:1042B000FCF7D3FB10BD10B55E20FCF7C8FBFCF784
:1042C000DFFBC4B244F004042046FCF7C6FB10BD7B
:1042D00010B55E20FCF7BBFBFCF7D2FBC4B204F0C8
:1042E000FD0404F0FE042046FCF7B7FB10BD10B53A
:1042F0005E20FCF7ACFBFCF7C3FBC4B204F0FD048A
:1043000044F001042046FCF7A8FB10BD10B55E2068
:10431000FCF79DFBFCF7B4FBC4B244F0020444F08C
:1043200001042046FCF799FB10BD70B504460D460C
:10433000E1B25F20FEF702FC21126020FEF7FEFBD7
:10434000E9B26120FEF7FAFB29126220FEF7F6FBC4
:1043500070BD10B50446E1B25F20FEF7EFFBC4F379
:1043600007216020FEF7EAFBC4F307416120FEF756
:10437000E5FB210E6220FEF7E1FB10BD70B504469F
:104380000D46E1B26320FEF7D9FB21126420FEF74F
:10439000D5FBE9B26520FEF7D1FB29126620FEF7B6
:1043A000CDFB70BD10B56720FCF751FB8020FCF7FA
:1043B00054FBFEF73DFC10BD10B56720FCF747FB32
:1043C0008220FCF74AFBFEF733FC10BD10B56720D6
:1043D000FCF73DFBA220FCF740FBFEF729FC10BDDB
:1043E00070B504460D466820FCF731FBE0B2FCF7DF
:1043F00034FB6920FCF72BFB2012FCF72EFB6A2014
:10440000FCF725FBE8B2FCF728FB6B20FCF71FFB51
:104410002812FCF722FB70BD70B504460D466C20D7
:10442000FCF715FBE0B2FCF718FB6D20FCF70FFB67
:104430002012FCF712FB6E20FCF709FBE8B2FCF738
:104440000CFB6F20FCF703FB2812FCF706FB70BD8A
:1044500070B504460D466820FCF7F9FAE0B2FCF7A7
:10446000FCFA6920FCF7F3FA2012FCF7F6FA6A204E
:10447000FCF7EDFAE8B2FCF7F0FA6B20FCF7E7FA8C
:104480002812FCF7EAFA70BD70B504460D466C20A0
:10449000FCF7DDFAE0B2FCF7E0FA6D20FCF7D7FAA2
:1044A0002012FCF7DAFA6E20FCF7D1FAE8B2FCF73A
:1044B000D4FA6F20FCF7CBFA2812FCF7CEFA70BDC5
:1044C00070B504460D467020FCF7C1FAE0B2FCF767
:1044D000C4FA7120FCF7BBFA2012FCF7BEFA722076
:1044E000FCF7B5FAE8B2FCF7B8FA7320FCF7AFFABC
:1044F0002812FCF7B2FA70BD70B504460D4668206C
:10450000FCF7A5FAE0B2FCF7A8FA6920FCF79FFADD
:104510002012FCF7A2FA6A20FCF799FAE8B2FCF73D
:104520009CFA6B20FCF793FA2812FCF796FA70BD00
:1045300070B504460D466C20FCF789FAE0B2FCF732
:104540008CFA6D20FCF783FA2012FCF786FA6E20B5
:10455000FCF77DFAE8B2FCF780FA6F20FCF777FAF7
:104560002812FCF77AFA70BD10B57620FCF76FFAC6
:104570008020FCF772FAFEF75BFB10BD10B57620C9
:10458000FCF765FAC020FCF768FAFEF751FB10BD96
:1045900010B57620FCF75BFA9020FCF75EFAFEF788
:1045A00047FB10BD10B57620FCF751FA9120FCF7BF
:1045B00054FAFEF73DFB10BD10B57620FCF747FA24
:1045C0009220FCF74AFAFEF733FB10BD10B57620B7
:1045D000FCF73DFA9320FCF740FAFEF729FB10BDEB
:1045E00010B57620FCF733FAD020FCF736FAFEF748
:1045F0001FFB10BD10B57620FCF729FAD120FCF77F
:104600002CFAFEF715FB10BD10B57620FCF71FFA4B
:10461000D220FCF722FAFEF70BFB10BD10B5762076
:10462000FCF715FAD320FCF718FAFEF701FB10BDD2
:1046300010B57620FCF70BFAA020FCF70EFAFEF777
:10464000F7FA10BD10B57620FCF701FAE020FCF770
:1046500004FAFEF7EDFA10BD10B57620FCF7F7F975
:10466000B020FCF7FAF9FEF7E3FA10BD10B576209A
:10467000FCF7EDF9F020FCF7F0F9FEF7D9FA10BDE0
:1046800070B504460D467B20FCF7E1F9E0B2FCF77B
:10469000E4F97C20FCF7DBF92012FCF7DEF97D2041
:1046A000FCF7D5F9E8B2FCF7D8F97E20FCF7CFF992
:1046B0002812FCF7D2F970BD70B504460D467B2078
:1046C000FCF7C5F9E0B2FCF7C8F97C20FCF7BFF9AC
:1046D0002012FCF7C2F97D20FCF7B9F9E8B2FCF72B
:1046E000BCF97E20FCF7B3F92812FCF7B6F970BDCF
:1046F00010B504467720FCF7AAF9E0B2FCF7ADF953
:104700007820FCF7A4F92012FCF7A7F97920FCF730
:104710009EF9E0B2FCF7A1F97A20FCF798F9201293
:10472000FCF79BF910BD70B504460D467720FCF7E9
:104730008EF9E0B2FCF791F97820FCF788F92012A5
:10474000FCF78BF97920FCF782F9E8B2FCF785F9E0
:104750007A20FCF77CF92812FCF77FF970BD70B560
:1047600004460D467720FCF772F9E0B2FCF775F9C4
:104770007820FCF76CF92012FCF76FF97920FCF730
:1047800066F9E8B2FCF769F97A20FCF760F92812BB
:10479000FCF763F970BD10B50446601E84B2842036
:1047A000FCF755F9E0B2FCF758F910BD10B58520BB
:1047B000FCF74DF9FCF764F9C4B204F07F0404F08F
:1047C000BF042046FCF749F910BD10B58520FCF761
:1047D0003EF9FCF755F9C4B204F07F0444F04004FC
:1047E0002046FCF73AF910BD10B58520FCF72FF9EB
:1047F000FCF746F9C4B244F0800404F0BF0420463C
:10480000FCF72BF910BD10B58520FCF720F9FCF75B
:1048100037F9C4B244F0800444F040042046FCF769
:104820001CF910BD10B58520FCF711F9FCF728F92B
:10483000C4B204F0DF0404F0EF042046FCF70DF9E5
:1048400010BD10B58520FCF702F9FCF719F9C4B2C8
:1048500004F0DF0444F010042046FCF7FEF810BD1D
:1048600010B58520FCF7F3F8FCF70AF9C4B244F060
:10487000200404F0EF042046FCF7EFF810BD10B55B
:104880008520FCF7E4F8FCF7FBF8C4B244F0200400
:1048900044F010042046FCF7E0F810BD10B5852068
:1048A000FCF7D5F8FCF7ECF8C4B204F0F7042046A6
:1048B000FCF7D3F810BD10B58520FCF7C8F8FCF75D
:1048C000DFF8C4B244F0080404F0FB042046FCF70F
:1048D000C4F810BD10B58520FCF7B9F8FCF7D0F886
:1048E000C4B244F0080444F004042046FCF7B5F8D0
:1048F00010BD10B58520FCF7AAF8FCF7C1F8C4B2CA
:1049000004F0FD042046FCF7A8F810BD10B5852082
:10491000FCF79DF8FCF7B4F8C4B244F0020404F0CC
:10492000FE042046FCF799F810BD10B58520FCF771
:104930008EF8FCF7A5F8C4B244F0020444F0010478
:104940002046FCF78AF810BD10B58620FCF77FF8EA
:10495000FCF796F8C4B244F040042046FCF77DF81A
:1049600010BD10B58620FCF772F8FCF789F8C4B2C8
:1049700004F0BF042046FCF770F810BD10B5862087
:10498000FCF765F8FCF77CF8C4B244F0200420463C
:10499000FCF763F810BD10B58620FCF758F8FCF75B
:1049A0006FF8C4B204F0DF042046FCF756F810BDDF
:1049B00010B58620FCF74BF8FCF762F8C4B244F05F
:1049C00010042046FCF749F810BD10B58620FCF70E
:1049D0003EF8FCF755F8C4B204F0EF042046FCF7AB
:1049E0003CF810BD10B58620FCF731F8FCF748F80C
:1049F000C4B244F008042046FCF72FF810BD10B5EF
:104A00008620FCF724F8FCF73BF8C4B204F0F70466
:104A10002046FCF722F810BD10B58620FCF717F8E9
:104A2000FCF72EF8C4B244F004042046FCF715F855
:104A300010BD10B58620FCF70AF8FCF721F8C4B2C7
:104A400004F0FB042046FCF708F810BD10B58620E2
:104A5000FBF7FDFFFCF714F8C4B244F00204204653
:104A6000FBF7FBFF10BD10B58620FBF7F0FFFCF74E
:104A700007F8C4B204F0FD042046FBF7EEFF10BDBA
:104A800010B58620FBF7E3FFFBF7FAFFC4B244F052
:104A900001042046FBF7E1FF10BD10B58620FBF7AF
:104AA000D6FFFBF7EDFFC4B204F0FE042046FBF78F
:104AB000D4FF10BD10B504468720FBF7C8FF204681
:104AC000FBF7CBFF10BD10B504468820FBF7BFFFF6
:104AD000E0B2FBF7C2FF8920FBF7B9FF2012FBF71A
:104AE000BCFF10BD10B504468A20FBF7B0FFE0B252
:104AF000FBF7B3FF8B20FBF7AAFF2012FBF7ADFFFC
:104B000010BD10B504468C20FBF7A1FFE0B2FBF707
:104B1000A4FF8D20FBF79BFF2012FBF79EFF10BD2B
:104B200010B504468E20FBF792FFE0B2FBF795FF2D
:104B30008F20FBF78CFF2012FBF78FFF10BD10B505
:104B40009020FBF784FFFBF79BFFC4B244F01004F6
:104B50002046FBF782FF10BD10B59020FBF777FFD2
:104B6000FBF78EFFC4B204F0EF042046FBF775FF9D
:104B700010BD10B500BFFBF77CFF00F00801002955
:104B8000F9D110BD10B59020FBF761FFFBF778FF5E
:104B9000C4B204F0FE042046FBF75FFF10BD10B561
:104BA0009020FBF754FFFBF76BFFC4B244F0010405
:104BB0002046FBF752FF10BD70B505469120FBF76C
:104BC00046FFFBF75DFFC4B204F00F0444EA051092
:104BD000C4B22046FBF741FF70BD70B50546912079
:104BE000FBF735FFFBF74CFFC4B204F0F0042C4395
:104BF0002046FBF732FF70BD10B59220FBF727FF70
:104C0000FBF73EFFC4B204F0BF0404F0DF0420460B
:104C1000FBF723FF10BD10B59220FBF718FFFBF741
:104C20002FFFC4B204F0BF0444F020042046FBF779
:104C300014FF10BD10B59220FBF709FFFBF720FF12
:104C4000C4B244F040042046FBF707FF10BD10B586
:104C50009220FBF7FCFEFBF713FFC4B204F0EF0455
:104C600004F0F70404F0FB042046FBF7F6FE10BD49
:104C700010B59220FBF7EBFEFBF702FFC4B204F085
:104C8000EF0404F0F70444F004042046FBF7E5FECB
:104C900010BD10B59220FBF7DAFEFBF7F1FEC4B2AF
:104CA00004F0EF0444F0080404F0FB042046FBF792
:104CB000D4FE10BD10B59220FBF7C9FEFBF7E0FE55
:104CC000C4B204F0EF0444F0080444F004042046A5
:104CD000FBF7C3FE10BD10B59220FBF7B8FEFBF743
:104CE000CFFEC4B244F0100404F0F70404F0FB0457
:104CF0002046FBF7B2FE10BD10B59220FBF7A7FED1
:104D0000FBF7BEFEC4B244F0100404F0F70444F014
:104D100004042046FBF7A1FE10BD10B59220FBF75E
:104D200096FEFBF7ADFEC4B204F0FD0404F0FE04F1
:104D30002046FBF792FE10BD10B59220FBF787FED0
:104D4000FBF79EFEC4B204F0FD0444F001042046CB
:104D5000FBF783FE10BD10B59220FBF778FEFBF742
:104D60008FFEC4B244F002042046FBF776FE10BD6D
:104D700010B50446E1B29320FDF7E0FEC4F307212D
:104D80009420FDF7DBFEC4F307419520FDF7D6FE26
:104D9000210E9620FDF7D2FE10BD10B50446E1B2FB
:104DA0009720FDF7CBFE21129820FDF7C7FE10BD1E
:104DB00070B504460D46E1B29920FDF7BFFE211201
:104DC0009A20FDF7BBFEE9B29B20FDF7B7FE291242
:104DD0009C20FDF7B3FE70BD10B50446E1B29D20E6
:104DE000FDF7ACFEC4F307219E20FDF7A7FEC4F338
:104DF00007419F20FDF7A2FE210EA020FDF79EFE99
:104E000010BD10B504469D20FBF721FE2046FBF7A0
:104E100024FE9E20FBF71BFEE106080EFBF71DFE9D
:104E20009F20FBF714FEA107080EFBF716FE10BD2E
:104E300010B504469D20FBF70AFE2012FBF70DFE7D
:104E40009E20FBF704FEC4F3C700FBF706FE9F207D
:104E5000FBF7FDFDE106080EFBF7FFFD10BD10B5E9
:104E600004469D20FBF7F3FDC4F30740FBF7F5FD77
:104E70009E20FBF7ECFDC4F30720FBF7EEFD9F201F
:104E8000FBF7E5FDE0B2FBF7E8FD10BD10B5044609
:104E9000E1B2A120FDF752FE2112A220FDF74EFE45
:104EA00010BD70B504460D46E1B2A320FDF746FEE5
:104EB0002112A420FDF742FEE9B2A520FDF73EFE37
:104EC0002912A620FDF73AFE70BD10B50446E1B2E6
:104ED000A720FDF733FEC4F30721A820FDF72EFE1F
:104EE000C4F30741A920FDF729FE210EAA20FDF7F2
:104EF00025FE10BD10B50446E1B2AB20FDF71EFE45
:104F00002112AC20FDF71AFE10BD70B504460D4607
:104F1000E1B2AD20FDF712FE2112AE20FDF70EFE2C
:104F2000E9B2AF20FDF70AFE2912B020FDF706FE18
:104F300070BD70B504460D46E1B2B120FDF7FEFD2F
:104F40002112B220FDF7FAFDE9B2B320FDF7F6FD1C
:104F50002912B420FDF7F2FD70BD10B50446B5204E
:104F6000FBF775FD2046FBF778FD10BD10B5B620A8
:104F7000FBF76DFDFBF784FDC4B244F0010420464D
:104F8000FBF76BFD10BD10B5B620FBF760FD00BF51
:104F9000FBF776FD00F001000028F9D110BD10B537
:104FA000B720FBF754FDFBF76BFDC4B204F07F04A0
:104FB0002046FBF752FD10BD10B5B720FBF747FDAB
:104FC000FBF75EFDC4B244F080042046FBF745FDCC
:104FD00010BD10B5B720FBF73AFDFBF751FDC4B289
:104FE00004F0BF042046FBF738FD10BD10B5B72014
:104FF000FBF72DFDFBF744FDC4B244F0400420460E
:10500000FBF72BFD10BD10B5B720FBF720FDFBF71C
:1050100037FDC4B204F0DF042046FBF71EFD10BDCF
:1050200010B5B720FBF713FDFBF72AFDC4B244F01F
:1050300020042046FBF711FD10BD10B5B720FBF78B
:1050400006FDFBF71DFDC4B204F0EF042046FBF79C
:1050500004FD10BD10B5B720FBF7F9FCFBF710FD00
:10506000C4B244F010042046FBF7F7FC10BD10B5A5
:10507000B720FBF7ECFCFBF703FDC4B204F0F3042C
:105080002046FBF7EAFC10BD10B5B720FBF7DFFCAC
:10509000FBF7F6FCC4B204F0F30444F00404204629
:1050A000FBF7DBFC10BD10B5B720FBF7D0FCFBF71E
:1050B000E7FCC4B204F0F30444F008042046FBF714
:1050C000CCFC10BD10B5B720FBF7C1FCFBF7D8FC3A
:1050D000C4B244F00C042046FBF7BFFC10BD10B571
:1050E000B720FBF7B4FCFBF7CBFCC4B204F0FC0424
:1050F0002046FBF7B2FC10BD10B5B720FBF7A7FCAC
:10510000FBF7BEFCC4B204F0FC0444F002042046E9
:10511000FBF7A3FC10BD10B5B720FBF798FCFBF71D
:10512000AFFCC4B244F003042046FBF796FC10BD6C
:1051300010B5BA20FBF78BFCFBF7A2FC00F02000B7
:10514000202801D1012010BD0020FCE710B500BFD0
:10515000FFF7EEFF0128FBD0B820FBF778FCFBF748
:105160008FFCC4B2204610BD10B5BA20FBF76FFC0F
:10517000FBF786FC00F08000802801D1012010BDE3
:105180000020FCE770B50446B820FBF760FC204621
:10519000FBF763FC00BFFFF7E7FF0028FBD0FFF73A
:1051A000D5FF0546284670BD10B5B920FBF74FFC6A
:1051B000FBF766FCC4B244F040042046FBF74DFC0C
:1051C00010BD10B5B920FBF742FCFBF759FCC4B287
:1051D00004F0DF042046FBF740FC10BD10B5B920F9
:1051E000FBF735FCFBF74CFCC4B244F0200420462E
:1051F000FBF733FC10BD10B5B920FBF728FCFBF71B
:105200003FFCC4B204F0EF042046FBF726FC10BDBF
:1052100010B5B920FBF71BFCFBF732FCC4B244F01D
:1052200010042046FBF719FC10BD10B5B920FBF7A0
:105230000EFCFBF725FCC4B244F008042046FBF743
:105240000CFC10BD10B5B920FBF701FCFBF718FCF6
:10525000C4B244F004042046FBF7FFFB10BD10B5B8
:10526000B920FBF7F4FBFBF70BFCC4B204F0FD0420
:105270002046FBF7F2FB10BD10B5B920FBF7E7FBAA
:10528000FBF7FEFBC4B244F002042046FBF7E5FB4B
:1052900010BD10B5B920FBF7DAFBFBF7F1FBC4B288
:1052A00004F0FE042046FBF7D8FB10BD10B5B92072
:1052B000FBF7CDFBFBF7E4FBC4B244F0010420464E
:1052C000FBF7CBFB10BD10B5BA20FBF7C0FBFBF71B
:1052D000D7FB00F04000402801D1012010BD002084
:1052E000FCE710B5BA20FBF7B2FBFBF7C9FB00F0F7
:1052F0001000102801D1012010BD0020FCE710B5DE
:10530000BA20FBF7A4FBFBF7BBFB00F00800082862
:1053100001D1012010BD0020FCE710B5BA20FBF739
:1053200096FBFBF7ADFBC4B244F008042046FBF744
:1053300094FB10BD10B5BA20FBF789FBFBF7A0FB6F
:1053400000F00400042801D1012010BD0020FCE77A
:1053500010B5BA20FBF77BFBFBF792FBC4B244F01D
:1053600004042046FBF779FB10BD10B50446BB20B2
:10537000FBF76DFB2046FBF770FB10BD10B5044634
:10538000BC20FBF764FBE0B2FBF767FBBD20FBF73B
:105390005EFBC4F30720FBF760FBBE20FBF757FB67
:1053A000C4F30740FBF759FBBF20FBF750FB200E6F
:1053B000FBF753FB10BD10B50446C020FBF747FBBD
:1053C000E0B2FBF74AFBC120FBF741FBC4F3072027
:1053D000FBF743FBC220FBF73AFBC4F30740FBF7A4
:1053E0003CFBC320FBF733FB200EFBF736FB10BD65
:1053F00070B504460D46C020FBF729FBE0B2FBF771
:105400002CFBC120FBF723FB2012FBF726FBC2205D
:10541000FBF71DFBE8B2FBF720FBC320FBF717FBF4
:105420002812FBF71AFB70BD10B50446C620FBF727
:105430000EFBE0B2FBF711FBC720FBF708FBC4F340
:105440000720FBF70AFBC820FBF701FBC4F307406A
:10545000FBF703FBC920FBF7FAFA200EFBF7FDFA76
:1054600010BD70B504460D46C620FBF7F0FAE0B259
:10547000FBF7F3FAC720FBF7EAFA2012FBF7EDFA85
:10548000C820FBF7E4FAE8B2FBF7E7FAC920FBF71C
:10549000DEFA2812FBF7E1FA70BD10B50446CA2007
:1054A000FBF7D5FAE0B2FBF7D8FACB20FBF7CFFA3F
:1054B0002012FBF7D2FA10BD10B5CC20FBF7C7FACB
:1054C000FBF7DEFAC4B244F0800404F0BF042046C7
:1054D000FBF7C3FA10BD10B5CC20FBF7B8FAFBF709
:1054E000CFFAC4B204F07F0404F0BF042046FBF7F7
:1054F000B4FA10BD10B5CC20FBF7A9FAFBF7C0FA3F
:10550000C4B204F07F0444F040042046FBF7A5FA3F
:1055100010BD10B5CC20FBF79AFAFBF7B1FAC4B274
:1055200004F0DF0404F0EF042046FBF796FA10BD08
:1055300010B5CC20FBF78BFAFBF7A2FAC4B204F04B
:10554000DF0444F010042046FBF787FA10BD10B5C5
:10555000CC20FBF77CFAFBF793FAC4B244F02004AA
:1055600004F0EF042046FBF778FA10BD10B5CC200C
:10557000FBF76DFAFBF784FAC4B204F0FD0404F003
:10558000FE042046FBF769FA10BD10B5CC20FBF7EE
:105590005EFAFBF775FAC4B204F0FD0444F00104AE
:1055A0002046FBF75AFA10BD10B5CC20FBF74FFA96
:1055B000FBF766FAC4B244F0020404F0FE0420468D
:1055C000FBF74BFA10BD10B5CC20FBF740FAFBF708
:1055D00057FAC4B244F0020444F001042046FBF739
:1055E0003CFA10BD10B5CD20FBF731FAFBF748FAB5
:1055F000C4B244F080042046FBF72FFA10BD10B56A
:10560000CD20FBF724FAFBF73BFAC4B204F07F0489
:105610002046FBF722FA10BD10B5CD20FBF717FA94
:10562000FBF72EFAC4B244F040042046FBF715FA0B
:1056300010BD10B5CD20FBF70AFAFBF721FAC4B272
:1056400004F0BF042046FBF708FA10BD10B5CD20CA
:10565000FBF7FDF9FBF714FAC4B204F0EF0420469F
:10566000FBF7FBF910BD10B5CD20FBF7F0F9FBF708
:1056700007FAC4B244F010042046FBF7EEF910BD5F
:1056800010B5CD20FBF7E3F9FBF7FAF9C4B204F04B
:10569000F70404F0FB042046FBF7DFF910BD10B55A
:1056A000CD20FBF7D4F9FBF7EBF9C4B204F0F70413
:1056B00044F004042046FBF7D0F910BD10B5CD200E
:1056C000FBF7C5F9FBF7DCF9C4B244F0080404F0B9
:1056D000FB042046FBF7C1F910BD10B5CD20FBF748
:1056E000B6F9FBF7CDF9C4B244F0080444F0040461
:1056F0002046FBF7B2F910BD10B5CD20FBF7A7F996
:10570000FBF7BEF9C4B204F0FD0404F0FE04204629
:10571000FBF7A3F910BD10B5CD20FBF798F9FBF707
:10572000AFF9C4B204F0FD0444F001042046FBF7D5
:1057300094F910BD10B5CD20FBF789F9FBF7A0F95E
:10574000C4B244F0020404F0FE042046FBF785F9DD
:1057500010BD10B5CD20FBF77AF9FBF791F9C4B273
:1057600044F0020444F001042046FBF776F910BD32
:1057700010B5CE20FBF76BF9FBF782F9C4B204F049
:105780007F0404F0BF0404F0DF042046FBF765F952
:1057900010BD10B5CE20FBF75AF9FBF771F9C4B272
:1057A00004F07F0404F0BF0444F020042046FBF71B
:1057B00054F910BD10B5CE20FBF749F9FBF760F99D
:1057C000C4B204F07F0444F0400404F0DF04204637
:1057D000FBF743F910BD10B5CE20FBF738F9FBF706
:1057E0004FF9C4B204F07F0444F0400444F02004B4
:1057F0002046FBF732F910BD10B5CE20FBF727F994
:10580000FBF73EF9C4B244F0800404F0BF0404F096
:10581000DF042046FBF721F910BD10B5CE20FBF7C1
:1058200016F9FBF72DF9C4B244F0800404F0BF046C
:1058300044F020042046FBF710F910BD10B5CE202F
:10584000FBF705F9FBF71CF9C4B244F0800444F0FF
:10585000400404F0DF042046FBF7FFF810BD10B54C
:10586000CE20FBF7F4F8FBF70BF9C4B244F0800448
:1058700044F0400444F020042046FBF7EEF810BD4D
:1058800010B50446CF20FBF7E2F82046FBF7E5F819
:1058900010BD10B50446D020FBF7D9F82046FBF721
:1058A000DCF810BD10B50446D120FBF7D0F8204637
:1058B000FBF7D3F810BD70B506460C461546D2204E
:1058C000FBF7C5F83046FBF7C8F8D320FBF7BFF865
:1058D0002046FBF7C2F8D420FBF7B9F82846FBF7BF
:1058E000BCF870BD10B50446D220FBF7B0F82046D6
:1058F000FBF7B3F8D320FBF7AAF8E106080EFBF795
:10590000ACF8D420FBF7A3F8A107080EFBF7A5F825
:1059100010BD10B50446D220FBF799F82012FBF712
:105920009CF8D320FBF793F8C4F3C700FBF795F876
:10593000D420FBF78CF8E106080EFBF78EF810BDBB
:1059400010B50446D220FBF782F8C4F30740FBF7FA
:1059500084F8D320FBF77BF8C4F30720FBF77DF82E
:10596000D420FBF774F8E0B2FBF777F810BD70B500
:1059700006460C461546D520FBF769F83046FBF77E
:105980006CF8D620FBF763F82046FBF766F8D720C3
:10599000FBF75DF82846FBF760F870BD10B50446CC
:1059A000D520FBF754F82046FBF757F8D620FBF735
:1059B0004EF8E106080EFBF750F8D720FBF747F842
:1059C000A107080EFBF749F810BD10B50446D52015
:1059D000FBF73DF82012FBF740F8D620FBF737F82D
:1059E000C4F3C700FBF739F8D720FBF730F8E1061E
:1059F000080EFBF732F810BD10B50446D520FBF7B2
:105A000026F8C4F30740FBF728F8D620FBF71FF869
:105A1000C4F30720FBF721F8D720FBF718F8E0B212
:105A2000FBF71BF810BD10B50446DB20FBF70FF8A1
:105A3000E0B2FBF712F8DC20FBF709F8C4F307200B
:105A4000FBF70BF8DD20FBF702F8C4F30740FBF788
:105A500004F8DE20FAF7FBFF200EFAF7FEFF10BD78
:105A600010B5DF20FAF7F3FF0020FAF7F6FF10BDBC
:105A700010B5DF20FAF7EBFF0120FAF7EEFFDF2089
:105A8000FAF7E5FF8120FAF7E8FF10BD10B5DF2037
:105A9000FAF7DDFF8220FAF7E0FF10BD10B5DF2036
:105AA000FAF7D5FF8320FAF7D8FF10BD10B50446EA
:105AB000E520FAF7CCFFE0B2FAF7CFFFE620FAF7DD
:105AC000C6FF2012FAF7C9FF10BD10B50446E72043
:105AD000FAF7BDFF2046FAF7C0FF10BD10B5E82069
